:10100000977100009381810217C1010013018122B1
:1010100017550000130545FA975500009385C5F94B
:10102000177600001306468763FCC500832205007F
:1010300023A055001305450093854500E3E8C5FE50
:10104000177500001305458597B501009385851E2A
:101050006378B5002320050013054500E36CB5FE59
:10106000EF000001EF00000A6F0000006780000041
:10107000130101FF23248100232021019757000041
:10108000938787F317540000130404F323261100F9
:1010900023229100338987406380870213592940B6
:1010A0009304000083270400938414001304440075
:1010B000E7800700E3E824FF975700009387C7EF16
:1010C00017540000130444EF338987401359294013
:1010D000638E870093040000832704009384140028
:1010E00013044400E7800700E3E824FF8320C100E5
:1010F000032481008324410003290100130101011D
:1011000067800000130101FB2326110423248104BE
:101110002322910423202105232E3103232C410374
:10112000232A510323286103930700012326F10298
:10113000EF10001BEF30000BEF105021EF1000718B
:101140001304050023ACA196130515001307300006
:101150003375E50223AAA18493072400B3F7E702BD
:1011600023A8F1841307100023A6E19623A4019677
:10117000EF10406B23ACA18423AA8196EF40005866
:10118000EF304031EF308036EF30C045EF40C02EB9
:10119000EF30805DEF10D01113050002EF10806773
:1011A00013040500EF10101693040500EF10D01380
:1011B000130905009359040113058002EF1080659F
:1011C000130805009317040193D70701138709003B
:1011D0009306040013060900938504003775000088
:1011E000130545D3EF20106D130400006F0080003D
:1011F000130414009307200063CA870483A7418562
:10120000E38887FE13050400EF10C0619304050016
:101210003785000013050580130780009306C02062
:101220001306003C930500783385A400EF30407E20
:1012300013070000930600011306003C9305007895
:1012400013850400EF30C07C6FF09FFA9305F0FF28
:1012500013050001EF10005B13054001EF10805BE8
:101260009365250013054001EF10C05983A5418205
:1012700003A50183EF10104DEF10005793040500F4
:1012800023AAA19023A8A18C23AAA18623A4A18C80
:101290001307C00D23A6E18CB7A7E1119387073090
:1012A000B307F50023A2F18C83A8C18D03A8819315
:1012B00083A7C18403A7818283A6018E03A6C1826E
:1012C00083A5418E03A50183EF204034EF40001039
:1012D00083A6018503A6418583A581973775000004
:1012E000130505D7EF20105D03A6C18583A50183F3
:1012F000377500001305C5DAEF20D05B9389040031
:10130000130A0000130900006F00D014EF20C04939
:10131000930A0500EF10007F130B0500EF10C04C7F
:101320009304050083A701909387170023A0F190F1
:1013300013050B00EF10C07E6318050083A74190D2
:101340009387170023A2F190639C0A0C83AA018E55
:10135000639E0A5233873441B7173D009387F78F56
:1013600063E0E74E13890A0083AAC18C638C0A02EA
:1013700003AB818C93050B0013850400EF10800DE7
:1013800063020502B78701009387076AB307F50276
:10139000330BFB0023A4618D637455013384AA4091
:1013A00023A6818C83A78182638C070083A7019584
:1013B0006388070003A7418E930730006302F7504C
:1013C00013850400EF20104383A701956380070273
:1013D00083A7018463CC070003A701923387E4400D
:1013E000B7373101938707D063E2E75003A74191F4
:1013F0003387E440B7E7F5059387F70F63E6E752D5
:1014000003A741873387E440B7E7F5059387F70FD4
:10141000E3FCE70423AA9186EF40404D6F00D0041F
:101420009305C10213850A00EF20403B130B050012
:1014300093072000630AF5029307F0FF6308F504A1
:101440006316053293875AFD1307E0046360F73E85
:10145000939727003777000013070742B387E70009
:1014600083A70700678007008325C10223A8B182F4
:1014700023AE018C37750000130505DFEF20904384
:10148000930A1000130B10006F00C02E3775000078
:101490001305C5DFEF201042930A0000130B000074
:1014A0006F00402D138BFAFC23A2618F9387BAFC47
:1014B00093B7170023AEF18C1307C00D23A6E18C60
:1014C00023A4918CB7A7E11193870730B387F40069
:1014D00023A2F18C23A8918C13050B00EF10106D43
:1014E0001306050093050B00377500001305C5E0D2
:1014F000EF20503C930A1000130B10006F00802760
:1015000083A701839387070223A8F182371700007E
:10151000130707776356F7009307070023A8F182A4
:1015200023AE018C83A5018337750000130505DF09
:10153000EF205038930A1000130B10006F00802327
:1015400083A70183938707FE23A8F1821307F00086
:101550006346F7001307000123A8E18223AE018C44
:1015600083A5018337750000130505DFEF20903454
:10157000930A1000130B10006F00C01F03A5C18554
:10158000EF00907B23AEA184EF30106F83A5C1855F
:1015900037750000130545E2EF20D031930A1000A3
:1015A000130B1000130A20006F00C01C83A5018ECE
:1015B00093B5150023A0B18E37750000130545E3E0
:1015C000EF20502F93890400930A10006F00801AB7
:1015D00083A5818293B5150023A4B182639405008D
:1015E00023A6018C377500001305C5E7EF20902C6A
:1015F000930A10006F0000181307C00D23A6E18C9A
:1016000023A4918C37750000130505EAEF20902A7A
:10161000930A0B006F00001683A5C18493B51500D3
:1016200023A6B18437750000130505EBEF20902841
:10163000930A10006F00001483A7818493B71700EA
:1016400023A4F18403A7C1946308070063940702ED
:10165000930505006F0080009305050023ACB1924F
:1016600037750000130585EEEF20D024930A100093
:101670006F004010930510006FF05FFE83A5C18DD1
:1016800093B5150023AEB18C37750000130585F1B5
:10169000EF205022930A10006F00C00D83A7C18273
:1016A0001307F0016376F700938707FE23A6F18204
:1016B00083A5C182377500001305C5F3EF20901F85
:1016C000930A10006F00000B83A7C1821307F00D6F
:1016D0006366F7009387070223A6F18283A5C18280
:1016E000377500001305C5F3EF20D01C930A1000D6
:1016F0006F00400883A741823787379E1307979B67
:10170000B387E70023A2F182377500001305C5F403
:10171000EF20501A930A0B00130B10006F00800586
:10172000377500001305C5F5EF20D018EF40001CF9
:10173000930A0B006F0000049308000413080002D2
:10174000930700013717000013070777930600017E
:10175000130600029305000237750000130505F615
:10176000EF205015930A0B006F00C000930A000091
:10177000130B000063060B0603A70183B7170000D5
:101780009387077763D8E700B71700009387077739
:1017900023A8F18203A701839307F00063C6E70043
:1017A0001307000123A8E18283A5418203A50183D9
:1017B000EF10407923A0018A23AE018823AC018871
:1017C0001307100023A0E18223A6018823A4019619
:1017D00023AC018A23AA018A23A8018A13090000E5
:1017E000E3860AB683A8C18D03A8819383A7C18429
:1017F00003A7818283A6018E03A6C18283A5418EA1
:1018000003A50183EF10906083A70195E38007B4DF
:1018100003A7418E93071000630EF7003775000091
:10182000130585C2EF3090626FF05FB2930A0B0030
:101830006FF05FF4377500001305C5D26FF09FFE9F
:1018400013890A0003A50183EF10100F1309190073
:1018500083A7818D9387170023ACF18C13071000A9
:1018600023A6E188EF00507833059540B7173D0077
:101870009387F78F63F0A70493077000E3D427FDE5
:1018800013890A00938904006FF01FAEE35E20AD58
:1018900003A50183EF10500A83A7818D938717005A
:1018A00023ACF18C1307100023A6E1881309F9FF7C
:1018B0006FF09FAB13890A00938904006FF0DFAAD1
:1018C00083A7418CB387F440E3CC07AE1307C00D68
:1018D00023A6E18C23A4918CB7A7E111938707304D
:1018E000B387F40023A2F18C6FF09FAD83A7C19161
:1018F0009387170023AEF190EF10804C03A7C1919E
:101900009307400063FAE70037750000130585C2AE
:10191000EF30D0536FF09FAD37750000130585276A
:10192000EF2040796FF05FFE83A7C18D2322F10085
:1019300083A781932320F10083A8C18403A8818217
:1019400083A7018E03A7C18283A6418E03A60183CC
:1019500083A5418D13850400EF109052E30205AA80
:1019600023AA018C03A7418E93074000E31AF7A82E
:1019700083A7C18DE38607A883A7018303A70191ED
:101980009306300363E4E602138507FC1307F000B7
:10199000635AA70237170000130707776356A70299
:1019A00037150000130505776F00000293069003BA
:1019B00063F6E600138507026FF05FFD13850700ED
:1019C0006FF0DFFC13050001E30CF5A223A8A18250
:1019D00083A54182EF10005723A0018A23AE01881E
:1019E00023AC01881307100023A0E18223A60188FD
:1019F00023A4019623AC018A23AA018A23A8018A81
:101A000083A8C18D03A8819383A7C18403A7818282
:101A100083A6018E03A6C18283A5418E03A50183FF
:101A2000EF10D03E6FF0DF9D03A50183EF1090050E
:101A300023A601886F00402483A7C18D2322F100D3
:101A400083A781932320F10083A8C18403A8818206
:101A500083A7018E03A7C18283A6418E03A60183BB
:101A600083A5418D13850400EF109041630005228A
:101A700023AA018C6F00802113050001EF0090590B
:101A800013752500630E0500930520001305000162
:101A9000EF005057EF00905B83A74197630CF5066A
:101AA000EF00905483A701893305F540B79798005C
:101AB0009387076863F2A71483A70197938717009A
:101AC00023A8F19683A7C1869387170023A6F186E2
:101AD00083A5419713054002EF00D052EF00D0508C
:101AE00023A8A18883A70197130730006364F70A2E
:101AF000130710006390E71613058002EF00905162
:101B000093050500377500001305C52BEF20805A9B
:101B10006F00401483A6819723AA018823A8019609
:101B200023ACF19603A5018523AAA18423A8D1841F
:101B30001307100023A6E19623A40196EF00904E10
:101B400023ACA18423AC018A23AA018A23A8018A99
:101B500083A7418D9387170023AAF18C83A7018760
:101B60009387170023A8F18683A7018E6388070057
:101B70009307700063C4270113091900EF10402474
:101B8000635A400D1307100023A0E182130AFAFFE5
:101B90006F00400C03A7819723A8019623AA018810
:101BA00083A6419723ACD19603A5018523AAA184DE
:101BB00023A8E1841307100023A6E19623A401962D
:101BC000EF00504623ACA18423AC018A23AA018AEA
:101BD00023A8018A13058002EF00D04313060500F5
:101BE00093053000377500001305C52DEF20804C9C
:101BF000EF10001D6F00000613050003EF00903F7B
:101C00006F00400503A481896314040283AA818BB9
:101C10009307400063E4573993972A003777000011
:101C20001307C755B387E70083A70700678007003E
:101C300083A5418523AAB19613054002EF00903C8D
:101C40001307100023AAE188EF00103A23A8A18807
:101C500023AC018883A781889387170023A4F18888
:101C600013F4F701630404EA83A74189E38C07F8BE
:101C700083A7C188E39A07DA03A741913387E44039
:101C8000B7E7F5059387F70FE3E8E7DA83A78188DD
:101C900093F73700E38207DE13050003EF0090356A
:101CA0006FF05FFB13050000EF208004E30405FAEA
:101CB000930720006304F502EF30D04E23A0018A81
:101CC00023AE018823A4019623AA018A23A8018AAE
:101CD0001307100023ACE18A6FF0DFF793050000D3
:101CE000377500001305C531EF3090536FF09FF644
:101CF000232E01001305C101EF20800D1304050000
:101D000003AB8196631A0B0883A7C188639C070AFB
:101D1000EF20401703A6418E93072000630CF60ABC
:101D200023A461951307100023A4E1961306D6FFA0
:101D30003336C0009305C02013050001EF00104AA0
:101D400023A0A18283A74183639E070003A7418547
:101D5000938681953307D700034707006304070084
:101D6000938A070023A6518B13858199EF101008E1
:101D7000930A050023A4A18A377500001305059A6C
:101D8000EF10D00623A2A18A9307800463D65701DF
:101D90001307800423A4E18AE30E04EA93072000DA
:101DA0006306F4041305C101EF304010E30405EAB3
:101DB00083A7018C638607041307200023ACE18A04
:101DC0006FF05FE903A50183EF10C04B23A60188E4
:101DD0006FF01FF483A7C184E38407F483A74195C0
:101DE000E38007F4138B0A006FF09FF39305400024
:101DF0003775000013054532EF3090426FF09FE5D4
:101E0000EF00901E23A0A18C6FF01FFB13051000A4
:101E1000EF10106EE30005E493072000630AF5005D
:101E2000EF3050381307300023ACE18A6FF09FE2A7
:101E3000930510003775000013050533EF30503E51
:101E40006FF05FE1232A010013054101EF10507884
:101E5000130B0500930720006306F500930A0004A6
:101E60006F0040029305400037750000130585336D
:101E7000EF30103B6FF01FDE83A7018A93871700B6
:101E800023A0F18A832741016386070863840A0837
:101E9000EF10907D83A7018A63DEA70613068101F8
:101EA0009305C10113850700EF20000AE31605FC26
:101EB000832781016396070203A5018AEF30004D55
:101EC00083A7018A9387170023A0F18A8327410102
:101ED0009387F7FF232AF100938AFAFF6FF09FFAA6
:101EE0009387C1970327C10123A0E70003270102BD
:101EF00023A2E7000327410223A4E700032781026E
:101F000023A6E70003A7819423A2E18813074000DA
:101F100023ACE18A03A7818B93074000E30CF7D23F
:101F2000EF10907483A7018A63CCA70013071000F9
:101F300023AEE1881307500023ACE18A6FF09FD1F4
:101F4000E31A0BD013050003EF00D00A6FF09FD007
:101F500013052000EF10D059E30E05CE93072000A3
:101F60006300F50283A74188638607021385C19742
:101F7000EF10D0481307300023ACE18A6FF09FCDFB
:101F800093052000377500001305C534EF30502944
:101F90006FF05FCCEF1050426FF0DFFD83A7C18977
:101FA0006384070813053000EF1090549307200056
:101FB0006302F50693071000E31EF5C8130710002F
:101FC00023ACE18883A7018CE38607C8EF00D0012A
:101FD00003A7C18B3307E540B7E7F5059387F70FF4
:101FE00063F6E70203A6018C3306C54023AEA18A3F
:101FF00083A501836354B0003344B6029306040002
:102000003775000013058536EF20C00A23A0018C28
:102010006FF05FC4930530003775000013058535F8
:10202000EF3010206FF01FC313050003EF00807C1A
:102030006FF05FC203254500135505011375F50FB9
:1020400067800000130101FF232611002324810073
:102050002322910013040500938405001305040056
:10206000EFF05FFDE30C05FE232094008320C10008
:1020700003248100832441001301010167800000D3
:1020800083A7C5002324F50083A705009387F7FFE6
:1020900003A7450013178700B3E7E70003A78500F0
:1020A00013170701B3E7E7002326F5006780000058
:1020B000130101FF2326110093050500370501F8E0
:1020C000EFF05FF88320C100130101016780000079
:1020D000130101FF232611002324810013040500AE
:1020E0006F00C00013041400EFF09FFC03450400D0
:1020F000E31A05FE8320C1000324810013010101BE
:1021000067800000130101FF2326110023248100B2
:1021100023229100930405001304C0016F004002C4
:1021200033D784001377F700B7670000938747FB26
:10213000B387E70003C50700EFF09FF71304C4FF60
:10214000E35004FE8320C100032481008324410066
:102150001301010167800000130101FF2326110014
:102160002324810023229100930405001304C0015D
:102170006F00400233D784001377F700B767000081
:10218000938787FCB387E70003C50700EFF05FF292
:102190001304C4FFE35004FE8320C1000324810024
:1021A000832441001301010167800000130101FF36
:1021B000232611001375F50FEFF09FEF8320C10068
:1021C0001301010167800000130101FF23261100A4
:1021D000EFF01FF08320C1001301010167800000B0
:1021E000130101FD232611022324810223229102DF
:1021F0009304050063460500130401006F00C0024C
:102200001305D002EFF09FFAB30490406FF0DFFEA9
:102210001307A000B3E7E402938707032300F40049
:10222000B3C4E40213041400E39404FE9307010012
:10223000E300F4FE93070100630AF4001304F4FFC3
:1022400003450400EFF09FF66FF0DFFE8320C1022C
:1022500003248102832441021301010367800000EB
:10226000130101FF232611001307000093077000DC
:1022700063C0E70293162700930700FFB397D700C8
:10228000B377F50063860700130717006FF01FFE92
:10229000EFF09FEC8320C100130101016780000073
:1022A000130101FF2326110013070000930770009C
:1022B00063C0E70293162700930700FFB397D70088
:1022C000B377F50063860700130717006FF01FFE52
:1022D000EFF05FE38320C10013010101678000007C
:1022E000130101FE232E1100930780002320F1002B
:1022F00023220100232401009307B0062326F100C6
:1023000093050100370501F8EFF09FD78320C10145
:1023100013010102678000001375F50093954500D5
:1023200093F505033365B50013166600B747000043
:10233000938707FC3376F6003365C50093968601D4
:10234000B7070003B3F6F6003365D50067800000D9
:102350001375F500678000001355450013753500AF
:1023600067800000135565001375F50F6780000046
:102370001355850113753500678000001315C500DE
:10238000131505011355050193958500B717000036
:10239000938707F0B3F5F5003365B50013164600D3
:1023A0001376060F3365C50093F6F6003365D50046
:1023B000678000001355C500678000001355850035
:1023C0001375F50067800000135545001375F5007F
:1023D000678000001375F500678000001375F50035
:1023E0009317450033E5A700678000003305B50269
:1023F0001305F5079307F00FB357F50237070100F0
:102400001307F7EF6374A7009307F00F1307F00F9C
:102410003305F7403305C5021305F5073355E502CB
:102420003305F5006364A700678000001305F00F13
:1024300067800000131585001375053093F5F50FBF
:102440003365B5006780000013451500137515004E
:10245000678000003305B540B78701009387076A9E
:102460003355F50267800000B7170000938707E136
:102470003375F5029307F04A63F0A7029307B05D46
:1024800063FAA704B71700009387B7A863F4A702FD
:102490001305F00F6780000093178500B387A740EE
:1024A0001307004BB3D7E7021305F00F3305F540D0
:1024B00067800000931785003385A740B737FAFF80
:1024C0009387C79D3305F5009307004B3355F502FD
:1024D0006780000013050000678000009307C00DAF
:1024E00063F4A7001305C00D93178500B387A740B9
:1024F0001305C00D33D5A7026780000093060500C1
:10250000130500006F0080001305150093072000DD
:1025100063C0A702B7770000131725009387C7721F
:10252000B387E70083A70700E390D7FE678000002A
:102530001305000067800000130101FF232611002E
:10254000EFF0DFFB13051500930730003365F5024C
:10255000B7770000131525009387C772B387A700CC
:1025600003A507008320C10013010101678000005B
:1025700003A6C1851357F6013307C7001357174049
:102580003307E040B306A700B307B700B386D6020F
:10259000B387F702B386F6003308E7029357F64194
:1025A00093F77700B387C70093D73740B307F0405E
:1025B000B387E7406348D806B387F70263CAD706F4
:1025C000931755003385A7401306F6FF3345C50220
:1025D00093976500B387B740B3C7C70213975600F8
:1025E0003307D7406314080013081000334707036C
:1025F0009306F0013387E6401315B5001315050166
:1026000013550501939757009397070193D7070137
:102610003365F5003365E500131505011355050114
:1026200067800000370501001305F5816780000011
:10263000370501001305F5FF6780000093171500AB
:1026400003A7C185B387E7409387170093951500CB
:10265000B385E54093851500B387F702B385B502CE
:10266000B387B7003307E70263D2E712130101FF14
:102670002326110093968700B387F640B3C7E7027D
:102680009306F00F3387F6403307E7023357D7023C
:102690001376360093061000630CD60493062000D0
:1026A0006302D608631C060A139627003306F60059
:1026B000131616001305F00F3356A6029306F0000A
:1026C0003386C64093953700B387F540939717003C
:1026D000B3D7A702B386F6409305F0001355470021
:1026E000EFF0DFC98320C100130101016780000002
:1026F00093961700B385F600939525001305F00F08
:10270000B3D5A5021306F000B305B640B386F600B4
:1027100093961600B3D6A6023306D6409306F00071
:102720006FF0DFFB939517003386F5001316260034
:102730003306F6001305F00F3356A6029306F00099
:102740003386C640B385F50093951500B3D5A50231
:10275000B386B6409305F0006FF05FF893953700AD
:102760001305F00FB3D5A5029306F000B385B6406C
:1027700013962700B307F60093971700B3D7A70265
:10278000B386F6401306F0006FF05FF51305000006
:1027900067800000930605009307F5F993F7F70F9C
:1027A000130790016366F700930605FE93F6F60F94
:1027B000130500009307900263C4A702B7770000D7
:1027C000131735003307A7009387075BB387E7002C
:1027D00083C707006388D700130515006FF09FFDBE
:1027E0001305000067800000B7C7B0F803A587FF96
:1027F00067800000630605001305F5FFE31E05FE74
:1028000067800000B70710F83305F5002320B500F6
:1028100067800000B70710F83305F50003250500B1
:102820006780000093072000630EF50093071000F7
:102830006306F5003715300067800000371550003B
:10284000678000003715700067800000130101FFEA
:102850002326110013058002EFF0DFFB137535000E
:102860008320C1001301010167800000130101FFF3
:102870002326110013050004EFF0DFF98320C100C7
:102880001301010167800000130101FF23261100DD
:10289000EFF0DFFD137515008320C1001301010166
:1028A00067800000130101FF23261100232481000B
:1028B00013040500EFF09FFB13042400335585003B
:1028C000137515008320C100032481001301010149
:1028D00067800000130101FF2326110023248100DB
:1028E00023229100EFF05FF0930405001304000031
:1028F000EFF09FF963020504EFF01FEF33059540F9
:10290000B7470F009387072463EEA7001304140052
:1029100093070004E3DE87FC13050003EFF09FED4F
:102920006FF0DFFC83A701969387170023A0F19631
:10293000130500006F008000130510008320C10004
:1029400003248100832441001301010167800000FA
:10295000130101FF2326110023248100232291006B
:1029600023202101130405001389050093040600A8
:10297000EFF05FEB93174900B387274193977700F8
:10298000B305F5001305C002EFF0DFE7930500780B
:1029900013050003EFF01FE79395040193E5053C51
:1029A00013054003EFF01FE6930580001305800335
:1029B000EFF05FE59315240093E515001305C003C0
:1029C000EFF05FE48320C1000324810083244100F1
:1029D000032901001301010167800000130101FEBA
:1029E000232E1100232C8100232A9100232821016A
:1029F0002326310123244101130A05009389050090
:102A000093040600EFF01FED03A54185EFF09FE969
:102A10001304050083A5418513054004EFF09FDEF4
:102A2000EFF0DFE49377050463920704638E0406F6
:102A300083A7C196639E07046318040083A7419689
:102A40009387170023A2F196133514008320C10148
:102A50000324810183244101032901018329C10049
:102A6000032A8100130101026780000083A7C1953A
:102A70009387170023AEF19483A541859395250094
:102A800093E505011305C003EFF0DFD76FF01FFAE0
:102A90001386090093050A0003A50185EFF05FEB9B
:102AA00023A601966FF05FF9130510006FF01FFA6F
:102AB000930700006F00000293962700371760000D
:102AC0003307D700B706A5A5B386D7002320D700C4
:102AD000938717001307F07FE370F7FE678000000D
:102AE0001335150067800000130101FF2326110034
:102AF0001305C000EFF01FD28320C10013010101B4
:102B000067800000130101FF232611001305400018
:102B1000EFF05FD08320C100130101016780000046
:102B20001375E500130565FF133515006780000078
:102B30009307700C63E8A7009307800C3385A740C8
:102B4000678000001305000067800000130101FF8B
:102B5000232611009305400013050000EFF09FCAE3
:102B60009305F0FF13050001EFF0DFC993050000A6
:102B700013054001EFF01FC9930510001305000075
:102B8000EFF05FC88320C1001301010167800000DE
:102B9000130101FF2326110013058002EFF09FC7E8
:102BA000135505018320C100130101016780000056
:102BB00083A7C18333C5A700137515006780000084
:102BC000130101FE232E1100232C8100232A9100E2
:102BD00023282101232631011389050093090600CA
:102BE00063820602930510009317150093F72700E0
:102BF000B3E5B7001305C00AEFF0DFC0930400008F
:102C00006F000005930500006FF01FFE93050400A0
:102C100013850400EFF01F82930505001305400A99
:102C2000EFF05FBE13860900930509001305040049
:102C3000EFF0CFFB930505001305800AEFF09FBC72
:102C4000130414009307F00FE3F287FC938414003D
:102C50009307200063E69700130400006FF09FFEC7
:102C60008320C1010324810183244101032901013F
:102C70008329C100130101026780000083A7019529
:102C80006394070067800000130101FF23261100F1
:102C900023248100232291001305000BEFF09FB73E
:102CA0001374150013050400EFF00FFA93040500E8
:102CB000931515001305C00AEFF0DFB4930600006A
:102CC000130600009305F00F13850400EFF05FEF8B
:102CD00093060000130600009305F00F130504008F
:102CE000EFF01FEE13050400EFF09FEC93151500B5
:102CF0001305C00AEFF01FB123A601921307F00FCE
:102D000023ACE18223A4019223A2019223AA8192FF
:102D10001307F0FF23A0E18423A801928320C100C0
:102D20000324810083244100130101016780000016
:102D3000130101FE232E1100232C8100232A910070
:102D40002328210123263101232441019309050071
:102D500013890500130406001305000BEFF09FAB69
:102D60009374150013850400EFF00FEE130A0500AD
:102D700083A6C1921306090093850900EFF05FE472
:102D800023AC318323A4219323A2819223AA91927D
:102D900023A0418523A88192EFF01FA523A0A19233
:102DA0008320C101032481018324410103290101FE
:102DB0008329C100032A81001301010267800000FA
:102DC00083A701956380070603A50184634C05046E
:102DD000130101FF23261100EFF09FDD83A701936C
:102DE000638E07029305100013151500B365B50037
:102DF0001305C00AEFF01FA103A7019323A6E192D8
:102E000083A6018423AAD1921307F0FF23A0E184B3
:102E10008320C100130101016780000093050000B9
:102E20006FF09FFC6780000093171500B387A70021
:102E3000939717001306F00FB3D7C70293872700A5
:102E400093962500B386B600B3D6C60293862600B5
:102E5000139715003307B700131727003307B74040
:102E60003357C70213079700130605F8138805F8B0
:102E70003306C6023308080333060601374800004C
:102E800063780603131836003308C800374602007B
:102E9000330606411358E600330707011358F600BE
:102EA000B386060137C8000033560603B387C70050
:102EB0001375F5016306050093F5F50163980500A8
:102EC0009387170093861600130717001306F00167
:102ED0006374F6009307F0011306F0036374D600E1
:102EE0009306F0031306F0016374E6001307F00184
:102EF0001395B70013150501135505019397560057
:102F00009397070193D707013365F5003365E50013
:102F1000131505011355050167800000832705007F
:102F2000376719001307D760B387E70237F76E3C9E
:102F30001307F735B387E7002320F50013D5070102
:102F400067800000130101FD232611022324810262
:102F50002322910223202103232E3101232C41011E
:102F6000232A510123286101930A050003ABC1857F
:102F70009309003CB3896941130AC020330A6A41AE
:102F80002326B100B71700009387077763D4A70003
:102F9000938A0700130400006F000003B787000046
:102FA0001317340033078740131717009387C7A000
:102FB000B387E700039707002394E70003972700F0
:102FC0002395E70013041400635454151305C1003E
:102FD000EFF0DFF4130905001305C100EFF01FF453
:102FE000930405001305C100EFF05FF313077000B1
:102FF0003377E9021307D7FFB78600009317340031
:10300000B3878740939717009386C6A0B386F600D0
:103010002392E60093075000B3F7F4029387E7FF8B
:103020002393F600631207023787000093163400DB
:10303000B3868640939616001307C7A03307D700C0
:10304000930610002312D70063920702B78700008F
:103050001317340033078740131717009387C7A04F
:10306000B387E700130710002393E7003379390390
:103070001319090113590941B787000013173400C8
:1030800033078740131717009387C7A0B387E7005C
:1030900023902701B3F4440393840401939404011F
:1030A00093D40441239197001377F50B130707047A
:1030B0002386E7001355850013753500A386A70006
:1030C00063D02903B7870000131734003307874004
:1030D000131717009387C7A0B387E7002390370122
:1030E0009307C021B3876741E3DA97EA93060A01A1
:1030F000B7870000131734003307874013171700F2
:103100009387C7A0B387E7002391D7006FF01FE92B
:103110008320C10203248102832441020329010286
:103120008329C101032A8101832A4101032B010163
:103130001301010367800000930700006F008008FF
:103140009395050193D50501B305B040B7860000FE
:1031500093983700B388F840939818009386C6A0D8
:10316000B38616012392B600930600009305F00083
:1031700063C8C50C13170701135707013307E04055
:103180003786000093953700B385F5409395150079
:103190001306C6A03306B6002313E600130600018B
:1031A0003787000093953700B385F5409395150058
:1031B0001307C7A03307B7002310D7002311C70098
:1031C0009387170063DEA70A3787000093963700BE
:1031D000B386F640939616001307C7A03307D700AF
:1031E0008316070083154700B386B6000316270031
:1031F000031767003306E60003A8C185E3C206F49F
:10320000B38806011303003CE35213F79306003C16
:10321000B38606419395050193D50501B305B040EA
:10322000B7880000139337003303F34013131300E0
:103230009388C8A0B38868002392B8006FF01FF38A
:10324000B30506019308C021E3DCB8F41306C021DE
:103250003306064113170701135707013307E040F0
:10326000B7850000139837003308F840131818008A
:103270009385C5A0B38505012393E5006FF05FF248
:1032800067800000930600006F000003B78700000E
:10329000139736003307D740131717009387C7A03B
:1032A000B387E700039707002394E70003972700FD
:1032B0002395E70093861600E3CAA6FC678000000A
:1032C0006F000001938515002300F500130515001C
:1032D00083C70500E39807FE67800000130101FF24
:1032E000930700001308A000B3F6050393860603B6
:1032F000138707013307270093871700230AD7FE98
:1033000093860500B3D50503130790006378D702B1
:103310001307A000E358F7FC130700006F004001FB
:10332000930600022300D5001307170013051500AC
:10333000B306F640E346D7FE6F00400213070000D5
:103340006FF01FFF9387F7FF1387070133072700ED
:10335000034747FF2300E50013051500E39407FE2C
:1033600013010101678000006F00C0001305150004
:1033700093851500834705006386070003C7050092
:10338000E386E7FE03C705003385E74013351500E4
:103390006780000003C70500938515002300E50042
:1033A00013051500E31807FE67800000930710005F
:1033B0006304F502930720006306F50293073000CB
:1033C0006308F50293074000630AF50237650000C1
:1033D0001305C5FF67800000376500001305C5FDB4
:1033E0006780000037650000130545FE6780000018
:1033F000376500001305C5FE6780000037650000D3
:10340000130545FF67800000130101FE232E110004
:10341000232C8100232A9100232821012326310116
:1034200023244101232251012320610193890500B6
:10343000130B0600138A0600930A0700138907007E
:1034400013040800938408009307300663F4B70060
:1034500093093006B72700009387F77063F487005D
:10346000138407009307F00F63F427011309F00F8B
:103470009307400663F4970093044006B765000085
:1034800093854500EFF0DFE31306200093850900E4
:10349000EFF0DFE4B76500009385C500EFF05FE271
:1034A0001306400093050B00EFF05FE3B7650000E3
:1034B00093850501EFF0DFE01306200093850A00F5
:1034C000EFF0DFE1B765000093858501EFF05FDF86
:1034D0001306400093050400EFF05FE0B7650000BD
:1034E00093850502EFF0DFDD1306100093051A0047
:1034F000EFF0DFDEB765000093854502EFF05FDC9B
:103500001304050013050A00EFF05FEA93050500B8
:1035100013050400EFF0DFDAB7650000938585023C
:10352000EFF01FDA1306300093050900EFF01FDB00
:10353000B76500009385C502EFF09FD813063000F1
:1035400093850400EFF09FD9832701026398070455
:1035500083274102639C0704832781026390070647
:103560008327C10263940706832701036398070634
:10357000230005008320C10103248101832441012C
:10358000032901018329C100032A8100832A410004
:10359000032B01001301010267800000B7650000E2
:1035A00093850503EFF0DFD16FF09FFAB765000058
:1035B00093854503EFF0DFD06FF01FFAB765000089
:1035C00093858503EFF0DFCF6FF09FF9B7650000BB
:1035D0009385C503EFF0DFCE6FF01FF9B7650000EC
:1035E00093850504EFF0DFCD6FF09FF8130705001A
:1035F000130500006F00800013051500B307A70036
:1036000083C70700E39A07FE67800000130101F8F3
:10361000232E110623281101232601012324F10062
:103620002322E1002320D10083A8819003A8C19028
:103630009307060003A7C1859386050013060500BE
:1036400083A5019113054102EFF01FDC9385819959
:1036500013054102EFF05FD1630805008320C10725
:1036600013010108678000009305410213858199C9
:10367000EFF05FD21307100023AAE1826FF01FFE64
:10368000130101FE232E1100232C8100232631017A
:10369000130406009389070003A641913306C54031
:1036A000B7E7F5059387F70F63F6C70E232A910056
:1036B00023282101232441012322510113830500E2
:1036C0009384060013090700130A0800938A080070
:1036D00023AAA19037E5F50513050510B3B5A5029A
:1036E000930600003305A302EF20C04123A8A19058
:1036F00003A3C18533036302B30764023333640257
:103700003303A302B335F50237460F001306062430
:10371000930600003385A702B305B300EF20803E77
:1037200023A6A19083A70190638A070083A64190F6
:10373000130740063307D702B357F70223A4F190CB
:1037400023A2019023A001908328410203280102B3
:1037500093870A0013070A009386090013060900DD
:103760009385040013050400EFF05FEA13051000D1
:103770008324410103290101032A8100832A410096
:103780008320C101032481018329C10013010102A7
:1037900067800000130500006FF09FFEB70701F877
:1037A00003A5470067800000130101FF23261100D5
:1037B000EFF0DFFE13558501630E0500B70701F832
:1037C00003A507001375F50F8320C1001301010144
:1037D00067800000130500006FF01FFF93070500CE
:1037E00003A5818F631205021307D0036384E700EA
:1037F000678000001307100023ACE18E23AE018E1A
:1038000013051000678000001307A0006380E70421
:103810001307D000638CE702138707FD930690001F
:1038200063ECE60883A6C18F1307B0006366D70870
:103830001386160023AEC18E1387C1983307D700B5
:103840002300F700130510006780000023AC018EF1
:1038500003A6C18F630806069306000093070000C5
:103860006F0080009386160063FCC6021397270042
:103870003307F700131717009387C198B387D70052
:1038800083C70700B387E700938707FD371700005A
:1038900013070777E378F7FC930707006FF09FFCA7
:1038A0001307F0006364F7009307000123A0F500FD
:1038B000130520006780000023AC018E1305F0FF84
:1038C000678000001305F0FF678000009307800CFD
:1038D000B387A7409308802FB388A8401308000738
:1038E0003308B8401305801EB305B54063CC07020A
:1038F000634E0802634416011386080063C4B600D1
:10390000938605002320F7002322C7002324070104
:103910002326D70063D0C7026342D80213050000F4
:1039200067800000930700006FF09FFC1308000001
:103930006FF05FFC130500006780000013051000A6
:103940006780000023200500232205009307003C28
:103950002324F500930700012326F500678000006B
:103960006384060213051500931735002320F60023
:10397000930740002322F600930780002324F600DB
:103980002326F6006780000093078007B387B740BF
:103990003385A700931735006FF05FFD63140502B0
:1039A0009307800C23A0F5009307E00623A2F500FF
:1039B0009307002323A4F5009307200023A6F50016
:1039C00067800000930710006308F502930720004A
:1039D0006306F5049307802F23A0F50093070007E3
:1039E00023A2F5009307200023A4F5009307801776
:1039F00023A6F500678000009307800C23A0F50044
:103A00009307801E23A2F5009307002323A4F5004B
:103A10009307200023A6F500678000009307600C41
:103A200023A0F5009307000723A2F50093072000C9
:103A300023A4F5009307801723A6F50067800000F4
:103A40009307803023A0F5009307800223A2F5009E
:103A50009307000B23A4F5009307C01F23A6F500CE
:103A6000630E05029307400063DCA7021305B5FF50
:103A70009307803123A0F50093172500B387A70093
:103A8000939737009387470423A2F5009307000913
:103A900023A4F5009307A00023A6F500678000008B
:103AA000930710006304F502930720006306F502F4
:103AB00093073000630CF5029307603B23A0F500E9
:103AC0009307200023A4F5006780000093072000DF
:103AD00023A6F500678000009307202223A2F500AB
:103AE0009307200023A6F5006780000093072000BD
:103AF00023A4F5006780000083A741956382070A2D
:103B0000130101FE232E1100232C8100232A910092
:103B10002328210123263101232441011304050018
:103B2000138A050093090600138906009304070011
:103B3000630C050613050009EFE0DFCC938509004F
:103B400013054009EFE01FCC930509001305800918
:103B5000EFE05FCB938504001305C009EFE09FCA37
:103B6000930510001305000AEFE0DFC923A281943A
:103B700023AA418F23A8318F23A6218F23A4918EBE
:103B80008320C10103248101832441010329010110
:103B90008329C100032A810013010102678000000C
:103BA00023A2019467800000930500001305000A1A
:103BB000EFE05FC56FF09FFB130101FF23261100AB
:103BC0001307000093060000130600009305000091
:103BD00013050000EFF05FF28320C1001301010123
:103BE0006780000023A2019423AA018E23A8018EDE
:103BF00023A6018E23A4018E67800000130101FF1C
:103C0000232611000327C5008326850003264500CF
:103C10008325050013051000EFF01FEE8320C1007F
:103C2000130101016780000083A74194638A0704A0
:103C30000327050083A7418F6306F70013050000E3
:103C4000678000000327450083A7018F6306F70004
:103C500013050000678000000327850083A7C18E3D
:103C60006306F70013050000678000000327C50006
:103C700083A7818E630AF7001305000067800000A8
:103C80001305000067800000130510006780000026
:103C900063940502032807006306A8002320A700F9
:103CA00023A0C70083A707003306F64063EEC600D3
:103CB00013850500678000009307F0FF2320F700BD
:103CC00013051000678000001305200067800000C6
:103CD00083A70500638AA70023A0A50023A0C60030
:103CE00013051000678000001305000067800000C6
:103CF000130101FF232611002324810083A781885B
:103D000093F73700639407042322910023202101B5
:103D100013090500EFE01FDF13040500EFE0DFDC0F
:103D20009304050013050400EFE09FDF6300050422
:103D30001307F0FF23AEE18023AC91801304100041
:103D400083244100032901006F00000113050003D3
:103D5000EFE05FAA13040000130504008320C100F4
:103D6000032481001301010167800000EFE0DFA759
:103D700013060500938601889385818113850400CD
:103D8000EFF01FF5EFE05FA61306050093870188AB
:103D90001387C181B7363101938606D093050000A1
:103DA00013050900EFF0DFEE1304050063080500BA
:103DB00083244100032901006FF01FFA130500035B
:103DC000EFE05FA383244100032901006FF0DFF8D7
:103DD000130101FF232611002324810023229100D7
:103DE0002320210113040500EFE01FD093040500F8
:103DF000EFE01FD42320A400EFE01F9F130605006F
:103E0000938601889385818113850400EFF05FEC30
:103E100003240400EFE05F9D1306050093870188EB
:103E20001387C181B7363101938606D0B335800040
:103E300013054000EFF0DFE5130405006300050201
:103E4000130504008320C100032481008324410062
:103E5000032901001301010167800000130500031D
:103E6000EFE05F996FF0DFFD83A7418E130720001D
:103E70006384E7009307000003A501833385A7004F
:103E80006780000083A7818D1307201733F7E702AF
:103E90001307070623AAE180939717001307A022B0
:103EA000B3F7E7029387870C23A8F18067800000AF
:103EB00083A701836354F504B78700009387C7A0E5
:103EC00013173500B306A74093961600B386D700A4
:103ED0008396860023A0D5003307A7401317170049
:103EE000B387E7008397A70023A2F50083A7C185C6
:103EF00023A4F50023A6F500678000006384A702D1
:103F000083A7018123A0F5009307000123A2F500F8
:103F10009307600023A4F5009307C02023A6F500B3
:103F20006780000023A0050083A7418193870701D4
:103F300023A2F5009307003C23A4F500930760003B
:103F400023A6F50067800000130101FE232E110057
:103F5000232C8100232A9100930705001384050078
:103F6000930406002320060003A58194631C050228
:103F700083A74194638E0700930710002320F60067
:103F800023A6050023A4050023A2050023A0050005
:103F90008320C10103248101832441011301010213
:103FA000678000009305010013850700EFF05FF0C4
:103FB000130704008326C1000326810083254100E6
:103FC00003250100EFF09F90630E05001305040028
:103FD000EFF09FC5631C05009307100023A0F400B9
:103FE0006FF01FFB130510006FF09FFA1305000020
:103FF0006FF01FFA130101FF232611002324810013
:1040000003A681826300060603A6019563040608E1
:1040100003A7418E930710006306F7021304F00F05
:1040200083A5C18C6388050013850500EFE00FCBE5
:10403000930505009307F00F6300F40213061000C8
:104040006F00C00283A5018DEFE0CFC0EFE0CFC1CC
:10405000130405006FF0DFFC6384050413061000F1
:104060006F00C000930500001304F00F83A7818345
:104070006396870083A781926388B70213050400C3
:10408000EFE01FCB8320C100032481001301010155
:1040900067800000930500001304F00F6FF01FFD10
:1040A000130600006FF09FFC83A74192E398C7FCC2
:1040B0006FF05FFD130101FC232E1100232C810002
:1040C000232A9100930405002322B1022324C10274
:1040D0002326D1022328E102232AF102232C010303
:1040E000232E1103930741022326F100130400003D
:1040F0006F00C0018327C100138747002326E1001A
:1041000003A50700EFE08F8A13041400B38784002F
:1041100003C50700630E050A93075002630EF506F8
:10412000EFE0CF886FF05FFE8327C1001387470061
:104130002326E10003A50700EFE00F896FF0DFFC05
:104140008327C100138747002326E10003A507004A
:10415000EFE00F896FF05FFB8327C10013874700F3
:104160002326E10003A50700EFE08F936FF0DFF94E
:104170008327C100138747002326E10003A507001A
:10418000EFE00F8E6FF05FF8376500001305450410
:10419000EFE08F836FF05FF713041400B3878400A0
:1041A00083C70700E38207F6938787FA93F6F70F32
:1041B00013070002E362D7FE9397260037770000CB
:1041C0001307C739B387E70083A707006780070095
:1041D0008320C101032481018324410113010104CF
:1041E00067800000130101FF2326110037650000DE
:1041F00013050509EFF01FECB758600037182200CF
:10420000B717210037172000B71670003716500077
:10421000B7153000376500001305450DEFF09FE935
:104220009307C0201307003C9306C021130600012A
:1042300093050001376500001305C510EFF09FE7F7
:1042400083A5C185930700041307000293060001AC
:10425000138605003765000013058514EFF09FE510
:104260003765000013054518EFF0DFE4371700004D
:104270001307077793060001130600029305000257
:10428000376500001305851BEFF0DFE2376500009E
:1042900013050520EFF01FE23765000013058524A4
:1042A000EFF05FE13765000013054529EFF09FE06F
:1042B000376500001305052EEFF0DFDF37650000DE
:1042C0001305C530EFF01FDF376500001305853497
:1042D000EFF05FDE930600001306F00F9305000079
:1042E00013050000EFE04F839305050037650000DC
:1042F00013050539EFF01FDC376500001305053E97
:10430000EFF05FDB3765000013054543EFF09FDA00
:104310003765000013058548EFF0DFD9930550029B
:10432000376500001305054EEFF0DFD83765000054
:1043300013050553EFF01FD83765000013054557E7
:10434000EFF05FD7376500001305055EEFF09FD6ED
:104350003765000013054563EFF0DFD58320C1000A
:104360001301010167800000130101FE232E1100DB
:1043700083A701956380070A232C8100232A9100DB
:1043800023282101232631011305000BEFE08FC8FC
:104390009379150013850900EFE00F8B13090500D1
:1043A00093060000130600009305F00FEFE05F8115
:1043B0009315190093C525001305C00AEFE08FC4BB
:1043C000EFE00FFD13040500EFE00FC293040500BA
:1043D000EFE00FFC631C8504EFE00FC1B3069540CE
:1043E000B797980093870768E3F4D7FE23AA319321
:1043F000376500001305856EEFF0DFCBEFE01F8817
:104400000324810183244101032901018329C1007F
:104410006F000001376500001305856AEFF09FC942
:104420008320C10113010102678000001305000B06
:10443000EFE04FBE93761500B307D94093B717004E
:1044400023AEF1821306100023ACC19023AAD192AF
:10445000638C0702B7650000938585681307090020
:10446000138609003765000013054574EFF09FC4FB
:10447000EFE0DF800324810183244101032901014E
:104480008329C1006FF0DFF9B76500009385856966
:104490006FF0DFFC130101FF2326110037176000C6
:1044A000B70701F8938707802320F740B71760000C
:1044B00083D627409306007E2391D74003D64740FA
:1044C0002392D7408355074003D62740B717600093
:1044D00083D64740376500001305C578EFF09FBDD0
:1044E0008320C1001301010167800000130101FE58
:1044F000232E1100232C8100232A9100232821013F
:104500002326310123244101930600001306F00FF6
:104510009305000013050000EFD01FE09305050090
:1045200013061000376500001305C57DEFF09FB836
:10453000930400006F00C007B77700001397440092
:1045400093870757B387E70083A6C70003A68700B2
:1045500083A5470003A50700EFD01FDC1304050067
:10456000EFD01FDF1309050013050400EFD0DFDED5
:104570009309050013050400EFD0DFDE130A0500E0
:1045800013050400EFD0DFDE1308050093070A00CF
:10459000138709009306090013060400938504009D
:1045A0003775000013058581EFF0DFB093841400A8
:1045B00093073000E3D297F8377500001305858420
:1045C000EFF05FAF8320C101032481018324410107
:1045D000032901018329C100032A8100130101027B
:1045E00067800000130101FC232E1102232C81029D
:1045F000232A910223282103232631032324410364
:104600002322510323206103232E710183A7C18537
:1046100013D5F7013305F5001355154013060000B7
:1046200093050500EFE08F8113040500EFD09FD8BC
:104630009304050013050400EFD05FD813090500AB
:1046400013050400EFD05FD893090500130504009B
:10465000EFD05FD8130A050013850400EFD01FD8F0
:10466000930A050013050900EFD05FD7130B05006F
:1046700013850900EFD09FD6930B050013050A00A0
:10468000EFD0DFD52322A1002320710193080B0076
:1046900013880A0093070A0013870900930609008C
:1046A000138604009305040037750000130545893F
:1046B000EFF05FA093064000130630009305200042
:1046C00013051000EFD09FCB1304050093060000E4
:1046D000130600009305F00013050000EFD01FCA79
:1046E00093040500930600001306F00093050000F4
:1046F00013050000EFD09FC8130905009306F000D2
:10470000130600009305000013050000EFD01FC73B
:104710009309050013058000EFD05FCC93070500D7
:10472000138709009306090013860400930504000B
:10473000377500001305458DEFF0DF978320C10327
:104740000324810383244103032901038329C10234
:10475000032A8102832A4102032B0102832BC10118
:104760001301010467800000130101FE232E1100D4
:10477000232C8100232A91002328210123263101A3
:1047800023244101930900006F00800793178400E0
:10479000B38787401305F03B1307140013198700F4
:1047A0003309E9403349A90293050A0033C5A7023A
:1047B000EFE08FE79304050093050A001305090055
:1047C000EFE08FE61315050193974900B387374152
:1047D00093976700B387870093D717409397270075
:1047E00037576000B307F700B3E4A40023A0970095
:1047F000130424009307F03BE3DA87F89389190048
:104800009307B02063CE3701139A8900330A3A41E7
:104810009307B020334AFA02130400006FF09FFDA3
:10482000B75660001306C0209305003C37750000A2
:1048300013058592EFF01F888320C10103248101B5
:1048400083244101032901018329C100032A810036
:104850001301010267800000130101FF23261100EC
:1048600003A54184EFE0CFA7631A050483A7419411
:10487000638E07042324810083A701949387170084
:1048800023A0F19423A6018423A4019403A4C1933B
:1048900063060400032481006F00800213071000E8
:1048A00023AEE192377500001305C595EFF09F80A8
:1048B00013050400032481006F008000130510001D
:1048C0008320C1001301010167800000130510005F
:1048D0006FF01FFF130101FD232611022324810223
:1048E0002322910223202103232E3101232C410175
:1048F000232A51012328610123267101930B05000E
:10490000138B0500930A0600138A0600930907001B
:10491000138907001304080093840800EFF0DFF305
:1049200083A78193639E070893050B0013058000FE
:10493000EFD05FED93850A0013058000EFD09FEC68
:1049400093050A0013058000EFD0DFEB9385090083
:1049500013058000EFD01FEB9305090013058000BD
:10496000EFD05FEA9395040113140401135404017A
:10497000B3E5850013058000EFD0DFE88325010350
:1049800013058000EFD01FE8832541031305800045
:10499000EFD05FE78320C102032481028324410218
:1049A000032901028329C101032A8101832A4101CC
:1049B000032B0101832BC100130101036780000059
:1049C00093850B001305C008EFD0DFE36FF0DFF530
:1049D000130101FE232E11002322F1009307F00F93
:1049E0002320F100930807001388060093070600B0
:1049F00013070000938605001306000093051000BE
:104A0000EFF05FED8320C101130101026780000018
:104A1000130101FE232E1100232C8100232A910073
:104A200023282101232631012324410113040500F9
:104A3000938405001309060093890600130A0700F2
:104A4000930600001306F00F930500001305000005
:104A5000EFD09F8C93070A00138709009306090083
:104A60001386040093050400EFF09FF68320C10134
:104A70000324810183244101032901018329C10009
:104A8000032A81001301010267800000130101FE67
:104A9000232E110093050100EFE05FF00327410092
:104AA00093174700B387E7401395670083270100FA
:104AB0003305F5001315150083A7818537570000CE
:104AC000130797A68326C10003268100930500786B
:104AD0003305F500EFF0DFF38320C101130101027C
:104AE00067800000130101FE232E1100232C81009A
:104AF000232A91009304050093050100EFE05FF481
:104B000083274100139447003304F44013146400D6
:104B1000832701003304F4001314140083A7818554
:104B20003304F4006386040A9307400063D2970CB1
:104B3000232821019384B4FF83A7818D13073000BC
:104B4000B3D7E702139734003307970013172700F2
:104B500033079700B387E7001307800CB3F7E7022A
:104B6000130730066366F70A13991700372700000A
:104B7000130747108326C1000326810093050078A0
:104B800013050400EFF0DFE8032681003306260357
:104B90009307800C3356F6028326C10093F4140069
:104BA0006380040837070100130707D293050078D4
:104BB00013050400EFF0DFE5032901018320C101A3
:104BC0000324810183244101130101026780000055
:104BD00037170000130727088326C100032681002A
:104BE0009305007813050400EFF09FE26FF01FFDBE
:104BF00037270000130747108326C10003268100D2
:104C00009305007813050400EFF09FE06FF01FFBA1
:104C10001309800C3309F940131919006FF01FF5BF
:104C20001307F07F6FF09FF8130101FE232E110090
:104C3000232C81001304050003A5018393050100C3
:104C40003305A400EFF0CFA60327410093174700D8
:104C5000B387E7409397670003270100B387E70016
:104C60009397170003A781853385E700032681000A
:104C70008326C100631004021307F07F93050078B8
:104C8000EFF01FD98320C101032481011301010228
:104C90006780000037070100130707D26FF01FFE7F
:104CA000130101FE232E1100232201009308F00FAF
:104CB00023201101930808001388070093070700B9
:104CC000138706009306060013860500930500006F
:104CD000EFF05FC08320C101130101026780000073
:104CE000130101FE232E1100232C8100232A9100A1
:104CF00023282101232631012324410123225101AC
:104D00001304050093840500130906009389060027
:104D1000130A0700938A0700930600001306F00F9A
:104D20009305000013050000EFD00FDF13880A0081
:104D300093070A00138709009306090013860400ED
:104D400093050400EFF0DFF58320C1010324810106
:104D500083244101032901018329C100032A810021
:104D6000832A41001301010267800000130101FF43
:104D70002326110003A58185B7870000938707804C
:104D80003305F50003A7418E930730006302F70255
:104D9000130780009306C0201306003C930500789B
:104DA000EFF01FC78320C1001301010167800000DD
:104DB0009307C0201307003C930600781306007881
:104DC0009305050037556000EFF09FF16FF09FFDF0
:104DD000130101FE232E1100232211019308F00F6D
:104DE0002320110193080800138807009307070088
:104DF000138706009306060013860500930530000E
:104E0000EFF05FAD8320C101130101026780000054
:104E1000130101FE232E1100232C8100232A91006F
:104E2000232821012326310123244101232251017A
:104E30002320610113040500938405001309060073
:104E400093890600130A0700938A0700130B0800D2
:104E5000930600001306F00F9305000013050000F1
:104E6000EFD08FCB93080B0013880A0093070A003A
:104E700013870900930609001386040093050400B4
:104E8000EFF01FF58320C101032481018324410138
:104E9000032901018329C100032A8100832A4100DB
:104EA000032B0100130101026780000013071000AB
:104EB00023A2E18483270500638C072E130101FEE2
:104EC000232E1100232C8100232A910013040500B6
:104ED00083A4418B6394040403A501826312050239
:104EE0001307100023AAE18A23A8018A8320C101A5
:104EF0000324810183244101130101026780000022
:104F0000EFF0DFE623A00182832704009387F7FFF9
:104F10002320F400138504006FF05FFD9307100059
:104F2000638AF400930720006382F40813051000DD
:104F30006FF0DFFB03A7418E93072000630CF7009F
:104F40001307200023AAE18A23A8018A1305000081
:104F50006FF0DFF903A5018B9307300063D8A70238
:104F60009307C000E3CEA7FC1307150023A8E18A2E
:104F70001305C5FFEFF01FB7832704009387F7FFE2
:104F80002320F400130500006FF05FF613071500EF
:104F900023A8E18AEFF09FAF832704009387F7FFF0
:104FA0002320F400130500006FF05FF483A7C18A8B
:104FB0006388070483A7018B638C070483A5818A18
:104FC00063D6F50A03A7418AB386E50063DEF612CD
:104FD00083A74183638C0700238C01949387819579
:104FE000A38007002381070023AA018283A74185AC
:104FF00013878195B387E700130710002380E7002C
:105000001307300023AAE18A130500006FF01FEE9A
:1050100013050100EFE01F9303274100931747009A
:10502000B387E7409397670003270100B387E70042
:105030009397170003A58185130700008326C100FD
:1050400003268100930500783385A700EFF05F9C6D
:105050001307100023A8E18A832704009387F7FF32
:105060002320F400130500006FF05FE823282101DE
:105070009384F7FF930610001306010013850400C4
:10508000EFE01F8E83274100139947003309F94051
:1050900013196900832701003309F9001319190056
:1050A00083A781853309F90093878199B387970096
:1050B00003C50700EFD00FEEB74700009387074204
:1050C0003305F500370801001308F8818327C10074
:1050D0000327810093060078130600019305090059
:1050E00013157500EFF0DFD283A7018B93871700AC
:1050F00023A8F18A832704009387F7FF2320F40075
:10510000032901016FF01FF623282101B387B7405F
:105110009384F7FF93060000130601009305070030
:1051200013850400EFE0DF838327410013994700D4
:105130003309F94013196900832701003309F90085
:105140001319190083A781853309F900B777000087
:105150009387079AB387970003C50700EFD08FE3C3
:10516000B7470000938707423305F5003708010071
:105170001308F8818327C100032781009306007874
:10518000130600019305090013157500EFF05FC8C1
:1051900083A7018B9387170023A8F18A8327040034
:1051A0009387F7FF2320F400032901016FF09FEBA1
:1051B0001305000067800000130101FE232E11007B
:1051C00023220100232011019308080013880700FF
:1051D0009307070013870600930606001386050051
:1051E00093052000EFF00FEF8320C10113010102AE
:1051F00067800000130101FF232611002324810092
:1052000023229100138405009304060083A7819351
:10521000638A070423202101130905009306000077
:105220009305200013052000EFD00F8F83A7C185C1
:105230009308F00F13880700130700789396170060
:105240001306040093050900EFF01FF7032901007E
:105250008320C10003248100832441001301010144
:1052600067800000930600001306F00F930500000E
:1052700013050000EFD04F8A83A7C18593880400EF
:10528000138807001307007893961700130604008D
:10529000B7152000EFF05FF26FF09FFB130101FEE6
:1052A000232E1100232C8100232A910013040500D2
:1052B000B7870000131735003307A74013171700EF
:1052C0009387C7A0B387E70083C7C70003A7C1823E
:1052D000B387E7021307F00FB3D4E7029305010089
:1052E000EFE01FBD8327410093954700B385F5404C
:1052F0009395650083270100B385F500939515000C
:1053000083A78185B385F50003A7418E930720000D
:10531000630CF704B7870000131734003307874086
:10532000131717009387C7A0B387E70083C7D70079
:1053300003A5C1853305A5023305F502B797100013
:10534000938707803305F5001386040013151500B5
:10535000EFF05FEA8320C10103248101832441012E
:10536000130101026780000083A7C185370801008F
:105370001308F88113870700930600781396170027
:1053800037152000EFF0DFA86FF0DFFC130101FFFD
:105390002326110023A2018483A70183634EF50015
:1053A00083A6418E13072000638CE6008320C10092
:1053B0001301010167800000EFF05FEE6FF01FFF47
:1053C0003305F540EFF05F866FF05FFE130101F8E3
:1053D000232E1106930710002328F1002326F10045
:1053E0002324F1002322F1002320F100930840063A
:1053F000372800001308F8709307F00F1307000414
:105400009306300037160000130606779305300622
:1054100013054102EFD05FFF13054102EFE00F9D3E
:105420009305050013071500932795042322F10027
:105430009307003C2320F1009308003813088024D0
:10544000930780001317370093068000131635006A
:10545000377500001305859AEFE0DFC5930541021B
:10546000377500001305859FEFE0DFC48320C10777
:105470001301010867800000130101FD23261102BA
:10548000232481022322910223202103232E310190
:10549000232C4101232A5101930900006F0040038E
:1054A000B3073403B3879700939717003719200089
:1054B0003309F9009385090013850400EFD04F8B61
:1054C0002310A90093841400E3CC84FC9389190071
:1054D00003A4C18563D68900930400006FF0DFFE4A
:1054E000930A00006F0040049389190063DC89026D
:1054F00013090000E35A89FEB3043403B384240182
:1055000093941400B3049A0013860A00938509004B
:1055100013050900EFD08F922390A40013091900FE
:105520006FF05FFD938A1A009307300063C2570340
:10553000330A8402330A5A03B7971000938707800F
:10554000330AFA00131A1A00930900006FF01FFAC9
:10555000130800006F00C007B70601009386F681AC
:1055600093173600B387E70093971700B307F5004A
:105570002390D700130717009307700063C0E7025A
:1055800093070008B3D7E700B3F7B700E38607FC3B
:10559000B70601009386F6FF6FF09FFC1306160016
:1055A0009307700063C4C702B77700001317380071
:1055B000330707019387075BB387E700B387C7000B
:1055C00083C51700130700006FF01FFB13081800B6
:1055D0009307900263CE0701B74700009387074205
:1055E000B307F80013957700130600006FF05FFB18
:1055F000B71722002322F1009307A0022320F10015
:10560000B718210013084000930704001307040093
:10561000B716200013060400930504003775000038
:105620001305C5A0EFE01FA98320C1020324810256
:1056300083244102032901028329C101032A810134
:10564000832A41011301010367800000130101FE59
:10565000232E1100232C8100232A9100930405009E
:1056600083A70195639607061304000083A701959D
:10567000639807069306000013761400135714006E
:105680001377170083A7C18363840706B7670000F9
:105690009387876883A5C1912322B10083A50184E4
:1056A0002320B10083A8819203A8818393850400FD
:1056B000377500001305C5A4EFE0DF9F8320C1010B
:1056C000032481018324410113010102678000004A
:1056D0001305C00AEFD00F94130405006FF01FF9F3
:1056E0001305000BEFD00F93937615006FF0DFF8E2
:1056F000B7670000938787696FF0DFF9130101FF37
:10570000232611002324810093053012130500097C
:10571000EFD04F8F9305604513054009EFD08F8E72
:105720009305907813058009EFD0CF8DB715000051
:10573000938505AB1305C009EFD0CF8C1305000985
:10574000EFD04F8D930730126308F5061307000062
:1057500023AAE194930500001305C00AEFD08F8AB5
:105760001305C00AEFD00F8B13743500930530007A
:105770001305C00AEFD00F89630A0408130700005D
:1057800023A8E194930500001305C00AEFD08F878A
:105790001305000BEFD00F881375150023AAA192F3
:1057A00083A541956386050883A701956390070A41
:1057B000930600006F00000813054009EFD08F85A5
:1057C000930760456306F500130700006FF05FF86C
:1057D00013058009EFD00F84930790786306F500D6
:1057E000130700006FF0DFF61305C009EFD08F82BA
:1057F000B7170000938707AB6306F5001307000097
:105800006FF01FF5130710006FF09FF41305C00A27
:10581000EFD04F8013753500930730006306F50015
:10582000130700006FF0DFF5130710006FF05FF54E
:105830009306000023A6D194638E060083A781847B
:10584000639A0706130700006F000001930610001B
:105850006FF05FFE1307000023ACE19203A60195F1
:10586000377500001305C5A9EFE0DF8483A74195D4
:105870006386070483A70195638A070483A7C194FD
:10588000638E070483A5419337750000130585BE19
:10589000EFE05F82EFE05FAD37750000130585C272
:1058A000EFF0DFDA8320C10003248100130101013E
:1058B00067800000138706006FF01FFA377500003D
:1058C000130545AEEFE00FFF6FF0DFFA377500000C
:1058D000130505B4EFE00FFE6FF05FFA37750000B7
:1058E000130505B9EFE00FFD6FF0DFF9130101FCBF
:1058F000232E1102232C8102232A91022328210323
:105900002326310313050002EFC0DFF01304050066
:10591000EFD04F9F930405001305000AEFC09FEFDF
:10592000130905001305C00AEFC0DFEE9309050057
:105930001305000BEFC01FEE83A7C186232AF100D9
:1059400083A701872328F10083A7C1872326F100BD
:105950002324A10023223101232021019388040064
:105960001318040113580801935704011307040086
:1059700083A6C18503A6018383A501913775000025
:10598000130505C3EFE00FF38320C1030324810354
:1059900083244103032901038329C1021301010464
:1059A0006780000003A541956316050023A20194BA
:1059B00067800000130101FF23261100EFE0CF9F55
:1059C0001305000AEFC01FE513751500631A0500E3
:1059D000130510008320C10013010101678000003E
:1059E00023A2019423A6018423A4019483A70194F4
:1059F0009387170023A0F19483A7C19363860700C0
:105A0000130500006FF01FFD1307100023AEE19295
:105A100037750000130585C9EFE0CFE96FF05FFE31
:105A2000130101FE232E1100232A910023282101B6
:105A30001309050093840500EFD0CF8C83A7C1879D
:105A40009387170023AEF18683A781871307300061
:105A50006354F706EFD08F8F13054001EFC09FDB33
:105A60009365250013054001EFC0DFD9EFE08F9764
:105A700023A4019423A401961307100023A0E1821C
:105A800023A0018A23AE018823AA018A23A8018AC0
:105A900023AC018A1307F0FF23AEE180EFC0DFD40F
:105AA00023A0A1888320C10183244101032901018E
:105AB0001301010267800000232C8100232631019D
:105AC000130405009387170023ACF186EFD0CF8134
:105AD00093090500EFC09FD99307050013870900BC
:105AE000930604001386040093050900377500002F
:105AF000130505CEEFE00FDC032481018329C100EB
:105B00006FF05FF513080600930805001387050082
:105B10006390060E63FEC512B7070100636EF61EA2
:105B2000B7070001930680016374F6009306000135
:105B30003353D60097270000938747C0B387670089
:105B400083C7070013030002B387D700B306F340EF
:105B5000630CF3003397D500B357F5003318D60024
:105B600033E7E700B318D500135608013355C702D1
:105B70009316080193D6060193D708013377C7021D
:105B8000B385A60213170701B3E7E70063FCB7006C
:105B9000B307F8001307F5FF63E4070163E0B740BC
:105BA00013050700B387B74033D7C702939808019E
:105BB00093D80801B3F7C702B386E60293970701AB
:105BC000B3E8F80063FED800B30818019307F7FFA5
:105BD00063E608011307E7FF63E4D80013870700B3
:105BE000131505013365E50093050000678000008B
:105BF00063F8D500930500001305000067800000DE
:105C0000B707010063E8F61E37070001930780011C
:105C100063F4E6009307000133D8F600172700006D
:105C20001307C7B1330707010347070093080002B2
:105C30003307F7003388E8406396E81E63E4B63222
:105C40003335C5001335150093050000678000004B
:105C5000630C060CB7070100637CF62E13370610A1
:105C60001337170013173700B356E60097270000C5
:105C70009387C7ACB387D70083C70700930600029A
:105C8000B387E700B38EF6406394F60CB387C54044
:105C900093560601131606011356060193051000CC
:105CA00033D5D70213D70801B3F7D7023303C502A0
:105CB00093970701B367F70063FC6700B307F80029
:105CC0001307F5FF63E4070163E4672C130507007E
:105CD000B387674033D7D7029398080193D8080158
:105CE000B3F7D7023306C70293970701B3E8F8006A
:105CF00063FEC800B30818019307F7FF63E60801C5
:105D00001307E7FF63E4C8001387070013150501B5
:105D10003365E500678000009336061093B61600E1
:105D2000939636006FF0DFE093060000972700009F
:105D30009387C7A0B387D70083C707001307000066
:105D400093060002B387E700B38EF640E380F6F4D3
:105D50003318D60133D3F50093560801335ED302CE
:105D600013160801B395D50113560601B357F50074
:105D7000B3E7B70013D70701B318D5013373D302C4
:105D8000B305C6031313030133676700637EB700CF
:105D90003307E8001305FEFF6364071F6372B71E35
:105DA000130EEEFF330707013307B7403355D70211
:105DB0009397070193D707013377D7023303A602DE
:105DC00013170701B3E7E70063FE6700B307F800A6
:105DD0001307F5FF63EE071963FC67181305E5FF6A
:105DE000B387070193150E01B3876740B3E5A5009C
:105DF0006FF01FEB93B7061093B717009397370018
:105E000033D8F6001727000013074793330707011D
:105E100003470700930800023307F7003388E84080
:105E2000E38EE8E0335EE600B3960601336EDE00F3
:105E3000B3D8E500935E0E01B3D7D80313130E0158
:105E4000B3950501135303013357E5003367B700DA
:105E50009356070133160601B3F8D803B305F302CE
:105E600093980801B3E6160163FEB600B306DE00A0
:105E70009388F7FF63EAC61163F8B6109387E7FFCC
:105E8000B386C601B386B640B3D5D6031317070150
:105E900013570701B3F6D603B308B302939606016E
:105EA0003367D700637E17013307EE009386F5FF53
:105EB0006364C70D6372170D9385E5FF3307C70150
:105EC00093970701B70E0100B3E7B7009386FEFF73
:105ED000B3F5D70013D30701B376D60013560601E6
:105EE000338ED50233071741B306D30293580E0100
:105EF000B385C502B385D500B385B8003303C302AB
:105F000063F4D5003303D30193D60501B38666004D
:105F1000636AD7026308D700138507009305000062
:105F200067800000B70601009386F6FF33F7D500BF
:105F300013170701337EDE00331505013307C70150
:105F4000E37CE5FC1385F7FF930500006780000004
:105F5000B7070001637AF6049356060113070001A0
:105F60006FF0DFD09305000013051000678000007C
:105F7000130507006FF01FE7938506006FF05FF4CD
:105F8000130E05006FF05FE2938708006FF09FEF3C
:105F90001305E5FFB38707016FF09FD31305E5FFF6
:105FA000B38707016FF01FC0935686011307800166
:045FB0006FF0DFCBE4
:105FB400303132333435363738394142434445463B
:105FC40000000000303132333435363738396162FD
:105FD400636465660000000046414445000000001B
:105FE400434C4950000000004C4159455200000008
:105FF4005448525500000000474C4F570000000021
:106004004650533D00000000204E3D0020535A3DB1
:1060140000000000204D50583D0000002053430074
:106024003A00000020413D0020423D00204652003D
:106034002046000020580000205900002051000094
:106044003C466C6F6174696E6720706F696E742072
:106054007072696E74696E67206E6F7420656E610C
:10606400626C652E20506C6561736520456E6162BB
:106074006C65206974206174206273702E682066D8
:10608400697273742E2E2E3E000000000D0A3D3DF1
:106094003D3D3D20416444656D6F3A206861726402
:1060A400776172652072656E6465726572206F6EC9
:1060B4006C79202D2D207A65726F20435055207005
:1060C4006978656C73203D3D3D3D3D0D0A0000003F
:1060D40046423D2578204241434B3D257820425598
:1060E40046323D25782041544C41533D2578204784
:1060F4004C4F573D257820464F4E543D257820423D
:10610400473D25780D0A00006C61796F75743A205B
:10611400696E666F20302D25642028656E67696E70
:10612400652D647261776E29207C2072656E6465CA
:10613400722025642D256420282564782564290D82
:106144000A00000073707269746520256478256400
:106154002C20276B27206379636C65732025642FBB
:1061640025642F2564202861746C61732B73636527
:106174006E652072656275696C74290D0A000000F1
:10618400636D643A20313D474C4F5720323D4641C0
:10619400444520333D434C495020343D4C415945FE
:1061A4005220353D5448525520207363656E650D69
:1061B4000A00000020202020206E206F72202B2057
:1061C400204E2B25642020202D20204E2D256420B8
:1061D40020203D4E206578616374204E202825647C
:1061E4002E2E256420636C616D7065642C20652EF1
:1061F400672E203D31353030290D0A002020202023
:10620400206B202073697A652031362F33322F3684
:1062140034202020742020616476616E63652074CC
:10622400696D652F6672616D65202020612F4120A4
:10623400206D617374657220616C706861202D2F0C
:106244002B0D0A0020202020206620204C555420AD
:10625400666164652F666C617368206F6E2F6F666C
:1062640066202020622020666C617368206E6F7740
:1062740020202078202073636973736F72206F6EFF
:106284002F6F66662028412F42290D0A0000000066
:106294002020202020792020617474726962757432
:1062A4006520736964652D706F7274206F6E2F6F33
:1062B40066662028412F4229202020712020617504
:1062C400746F20636F756E742072616D7020287313
:1062D40063656E652035290D0A000000202020200A
:1062E400207220207265736574207363656E652067
:1062F400286E65772073656564292020203F20205F
:1063040068656C700D0A0000202020202064202085
:1063140045562064696167206C696E65206E6F77ED
:106324002028697420616C736F207072696E7473B5
:10633400206F6E636520706572207365636F6E6491
:10634400290D0A00617474723A20777269746520A9
:10635400415454525F504F5254204245464F524587
:1063640020746865203820636F6D6D616E642077DA
:106374006F7264733B203120776F72642070657292
:1063840020636F6D6D616E640D0A00002020202073
:1063940020203120636F6D6D616E64203D203120BB
:1063A4006174747220776F7264202B203820636DBF
:1063B4006420776F726473202864656661756C74F9
:1063C4003D2558203D20626C656E64302F3536358E
:1063D4002F6761323535290D0A00000066726F7A25
:1063E400656E3A2073636973736F72205B78302C27
:1063F400783129785B79302C79312920696E2044F1
:1064040053542D4C4F43414C20636F6F726473207F
:106414007C204C555420307841432E626974313DC0
:1064240057524954452062616E6B2C0D0A000000DE
:106434002020202020202020646973706C61793D25
:106444007E6C61746368656420626974312C2030E9
:106454007842303D646973706C617965642062616F
:106464006E6B3A20726561642030784230202D3E94
:10647400207772697465207E64697370202D3E0DE7
:106484000A00000020202020202020207075626C4B
:1064940069736820307841432E626974313D6469C0
:1064A40073702028342073746570733B20706F6C94
:1064B400617269747920746573746564206C69769B
:1064C400652C2073656520274556206C757427203C
:1064D4006C696E6573290D0A000000006F73643ADD
:1064E40020465053207075626C6973686564207C23
:1064F400204E2073707269746573207C204D50584F
:10650400203D204E2A535A2A535A2A4650532F319B
:106514006536207C2042203D20656E67696E6520CB
:10652400627573792025630D0A000000636F73742C
:106534003A20455620636D64207061746820646F4E
:106544006E653A206E3D2E2E206379636C65733D33
:106554002E2E206379632F7370726974653D2E2E1D
:10656400202831206C696E652F73290D0A00000004
:10657400646961673A20455620646961673A206618
:1065840070733D2E2E206E3D2E2E20737A3D2E2EBE
:106594002073636E3D2E2E2061623D2E2E20756E7B
:1065A4003D2E2E2073743D2E2E20636C69703D2E7B
:1065B4002E206C75743D2E2E206C62616E6B3D2E08
:1065C4002E207374746F3D2E2E20666C703D2E2E1B
:1065D40020666C70743D2E2E0D0A000020202020B1
:1065E40020202831206C696E652F73202B206F6E5C
:1065F4002064656D616E6420776974682027642760
:106604003B2073636E3D5343414E2030783230203B
:106614007261772C2061623D5B33313A31365D2CF7
:1066240020756E3D5B31353A305D3B0D0A0000004C
:106634002020202020202061622F756E20636C6949
:106644006D62696E67206576657279207365636F24
:106654006E64203D207363616E6F75742073746182
:10666400727665642C20666C6174203D2072656EC0
:1066740064657265722070726F626C656D290D0AB3
:1066840000000000646973706C61793D7E77726903
:1066940074650000646973706C61793D7772697424
:1066A400650000004556206C757420706F6C617233
:1066B4006974793A206E6F7420746573746564200C
:1066C400284C55542072656769737465727320721F
:1066D4006561646261636B206661696C6564290D40
:1066E4000A0000004556206C7574205741524E3AFA
:1066F40020706F6C6172697479206E6F7420636F9F
:106704006E6669726D656420286672616D652063CA
:106714006F756E746572206E6F74206D6F76696E1E
:1067240067293B20617373756D696E6720646973B3
:10673400706C61793D7E77726974650D0A000000A2
:106744004556206C757420706F6C61726974793A67
:106754002025732028636F6E6669726D65642062FC
:1067640079206C6976652074657374292064697373
:10677400703D25642D3E2564207772697474656EBE
:106784003D25640D0A000000616C69676E636865ED
:10679400636B20257820257820257820286578705B
:1067A40065637420663830302030376530203037E8
:1067B40065303B206F64642D6164647220333262FF
:1067C40069742073746F7265207375727669766567
:1067D40064290D0A00000000617474722064656607
:1067E40061756C743D257820284649464F20656DB7
:1067F400707479203D20626C656E64302F353635B7
:106804002F676132353529206D617463683D2564D5
:106814000D0A0000617474725B25645D20773D2568
:106824007820626C656E643D256420666D743D2538
:10683400642067613D256420666C6167733D25644F
:106844000D0A0000617474722070616972696E6768
:106854003A20657665727920636F6D6D616E642090
:10686400676F6573207468726F75676820626C74F3
:106874005F656D69742829202D3E20312061747470
:10688400722070657220636F6D6D616E640D0A0015
:10689400617267623434343420633D257820613D6D
:1068A400256420723D256420673D256420623D25D2
:1068B40064202D3E2061383D25642072383D2564D6
:1068C4002067383D25642062383D25640D0A0000A8
:1068D4006172676234343434206669656C64207094
:1068E400726F626520313233343D25782030663052
:1068F400303D257820303066303D257820303030EA
:10690400663D2578202865787065637420412F5290
:106914002F472F422C206138206F6620383D256494
:10692400290D0A0062616B653A206267202564784C
:1069340025642040257820286F6E6520434F5059E8
:1069440020706572207061737320696E20736365B3
:106954006E652034290D0A00455620636C69702049
:106964005741524E3A204445434F52206472617756
:10697400207768696C652073636973736F72206133
:10698400726D6564202D3E2073636973736F72208A
:1069940064697361626C65640D0A00004857204F96
:1069A4004E4C59006F736420776F7273743A206C85
:1069B400656E3D25642070783D2564207465787487
:1069C40020783D5B25642C256429207374726970DA
:1069D40020783D5B25642C256429206C6162656CFC
:1069E40020783D5B25642C256429206669743D2547
:1069F400640D0A006F736420776F7273743A2022F7
:106A04002573220D0A00000062616B653A206469F7
:106A14007363202564782564204025782020676CE2
:106A24006F772025647825642078256420402578B4
:106A34002020666F6E7420256420676C79706873FB
:106A4400204025780D0A00004556206C75742025D9
:106A5400733A20656E3D256420646973703D256436
:106A64002077726974653D256420706F6C6172696A
:106A740074793D257320666164653D256420666CE8
:106A84006173683D25642070656E643D25642074DF
:106A94006F3D25640D0A0000666561743A20636CDD
:106AA40069703D2564206C75743D2564206174749F
:106AB400723D2564202861747472206F6666203DDF
:106AC4003E207065722D636F6D6D616E6420646528
:106AD4006661756C742070617468290D0A00000089
