:1010000097910000938101EC17C10000130181CE7C
:1010100017650000130545F4976500009385C5F337
:10102000178600001306466D63FCC5008322050089
:1010300023A055001305450093854500E3E8C5FE50
:10104000178500001305456B97B50000938505CA09
:101050006378B5002320050013054500E36CB5FE59
:10106000EF000001EF00000A6F0000006780000041
:10107000130101FF23248100232021019767000031
:10108000938787ED17640000130404ED23261100F5
:1010900023229100338987406380870213592940B6
:1010A0009304000083270400938414001304440075
:1010B000E7800700E3E824FF976700009387C7E90C
:1010C00017640000130444E9338987401359294009
:1010D000638E870093040000832704009384140028
:1010E00013044400E7800700E3E824FF8320C100E5
:1010F000032481008324410003290100130101011D
:1011000067800000130101FE232E1100232C8100B3
:10111000232A910023282101232631012324410180
:10112000EF00806C37950000130505E2EF10903555
:10113000B70510F837950000130505E9EF10903456
:1011400037163000B715000037950000130545EC41
:10115000EF105033B7270000371700001307078040
:10116000B716500037161000B7154000379500002D
:101170001305C5EFEF10103113088000930700101E
:1011800037D70F0013070720930600781306C021F6
:101190009305003C379500001305C5F4EF10902E21
:1011A00037950000130545F9EF10D02DEF0040678B
:1011B0009304050037550000130505E2EF000068B1
:1011C00013040500EF00C065B30695409387F6FF52
:1011D00037E7F5051307F70FB3B7E70023AAF18048
:1011E00063820720B77700009387C7501307040076
:1011F00037E6F50513060610B705B0F83795000079
:10120000130585FFEF10102883A74181639807001D
:1012100083A701889387170023A0F188EF10003E71
:101220006308051C83A701889387170023A0F18812
:101230009305F5FF3795000013058504EF10902402
:1012400013050000EF00806413040500130540003F
:10125000EF00C063930405001305C000EF000063B6
:101260001309050013050001EF0040629309050012
:1012700013058001EF008061130A05001305C0010A
:10128000EF00C0601308050093070A0013870900E8
:1012900093060900138604009305040037950000A7
:1012A00013050510EF10101E9307F0FF630AF400FA
:1012B0006388F4006306F900336494006312041435
:1012C00023AC018083A701889387170023A0F188AE
:1012D000B70510F83795000013054521EF10901A57
:1012E0003795000013050526EF10D019379500003B
:1012F0001305852CEF101019379500001305C52F25
:10130000EF10501883A78181638E071837B710003C
:10131000B70601009386068013068000930500013E
:10132000379500001305C533EF10D01537070100BE
:10133000130707809306800013060001930500023F
:1013400037B51000EF10C01683A40187631605108F
:10135000EF00006737B51000EF00C051130405001F
:1013600013054000EF008052130905001305C0006B
:10137000EF00C0519309050013058001EF000051F3
:1013800093060500938704001307100013860900D5
:10139000930509003795000013054537EF10900EAF
:1013A0003716FFFF130606803306C4003336C0002D
:1013B00093850400379500001305053DEF20000BD1
:1013C000B707010093870780630AF40A13860700B2
:1013D00093050400379500001305453FEF10900A70
:1013E0006F00C009B7970000938707DF6FF01FE019
:1013F000379500001305850AEF10D0086FF05FE401
:1014000093D5140013D6340013D724001377170094
:1014100093F614001376160093F515003795000027
:101420001305C515EF101006EF00806E13050000C0
:10143000EF00C0451304050013054000EF00004510
:101440001306050093050400379500001305C51B1E
:10145000EF1050036FF05FEAB79500009385C54128
:10146000EF10904A1306F0FF930500003795000037
:101470001305053DEF10907F23AC018083A7818188
:10148000639C070083A78181638A0702130510000C
:10149000EF20C0386F00800213050000EF200038F5
:1014A0006FF05FFE379500001305C542EF10807D99
:1014B00083A701889387370023A0F18883A78181C0
:1014C00063880702EF401064EF50C01F03A5018836
:1014D000EF5010073795000013054548EF10807A4C
:1014E000379500001305454FEF10C079EF50D00835
:1014F0003795000013054545EF10C07883A7018894
:101500009387170123A0F1886FF01FFC0325450086
:10151000135505011375F50F67800000130101FFD6
:1015200023261100232481002322910013040500A7
:101530009384050013050400EFF05FFDE30C05FE46
:10154000232094008320C1000324810083244100D0
:10155000130101016780000083A7C5002324F50063
:1015600083A705009387F7FF03A74500131787009C
:10157000B3E7E70003A7850013170701B3E7E70008
:101580002326F5006780000093060500B7C700001A
:101590009387C7FFB387F60083A5070037C700000E
:1015A000130787FF3387E6000325070083A707009B
:1015B000E39EB7FC67800000130101FF23261100A2
:1015C00093050500370501F8EFF05FF58320C100B2
:1015D0001301010167800000130101FF23261100A0
:1015E00023248100130405006F00C00013041400BD
:1015F000EFF09FFC03450400E31A05FE8320C100C1
:10160000032481001301010167800000130101FF21
:101610002326110023248100232291009304050036
:101620001304C0016F00400233D784001377F70022
:10163000B7770000938747F5B387E70003C5070036
:10164000EFF09FF71304C4FFE35004FE8320C100B2
:1016500003248100832441001301010167800000FD
:10166000130101FF2326110023248100232291006E
:10167000930405001304C0016F00400233D78400B7
:101680001377F700B7770000938787F6B387E700F3
:1016900003C50700EFF05FF21304C4FFE35004FE3C
:1016A0008320C10003248100832441001301010130
:1016B00067800000130101FF232611001375F50F49
:1016C000EFF09FEF8320C10013010101678000004C
:1016D000130101FF23261100EFF01FF08320C1004A
:1016E0001301010167800000130101FD232611028F
:1016F00023248102232291029304050063460500FE
:10170000130401006F00C0021305D002EFF09FFA2E
:10171000B30490406FF0DFFE1307A000B3E7E402CC
:10172000938707032300F400B3C4E40213041400F6
:10173000E39404FE93070100E300F4FE9307010025
:10174000630AF4001304F4FF03450400EFF09FF66E
:101750006FF0DFFE8320C102032481028324410253
:101760001301010367800000130101FF232611000C
:10177000130700009307700063C0E7029316270069
:10178000930700FFB397D700B377F5006386070090
:10179000130717006FF01FFEEFF09FEC8320C100CE
:1017A0001301010167800000130101FF23261100CE
:1017B000130700009307700063C0E7029316270029
:1017C000930700FFB397D700B377F5006386070050
:1017D000130717006FF01FFEEFF05FE38320C100D7
:1017E0001301010167800000130101FE232E110087
:1017F000930780002320F10023220100232401000D
:101800009307B0062326F10093050100370501F880
:10181000EFF09FD48320C101130101026780000013
:10182000130101FF232611003705B0F8EFF0DFD5D3
:101830008320C1001301010167800000130101FF33
:10184000232601006F0040018327C100B387E70012
:101850002326F100130507001307F5FFE31605FE25
:101860000325C10013010101678000002310B500AA
:10187000678000000355050067800000B70710F877
:101880003305F5002320B50067800000B70710F886
:101890003305F5000325050067800000130101FDF5
:1018A00023261102232481022322910223202103D3
:1018B000232E3101232C4101232A510123286101C8
:1018C000232671012324810123229101930C050019
:1018D000138C0500930B0600138B060013090700F9
:1018E000938A070093090800130A00006F000002A2
:1018F000131514009385090033059500EFF01FF7C9
:1019000013041400E34624FF130A1A0063505A0319
:10191000B3046A01B384840393971B00B384F40077
:10192000B3849401130400006FF0DFFD8320C10233
:101930000324810283244102032901028329C10176
:10194000032A8101832A4101032B0101832BC1005A
:10195000032C8100832C41001301010367800000E8
:10196000930700006F00000293962700371750007E
:101970003307D700B706A5A5B386D7002320D70025
:10198000938717001307F07FE370F7FE678000006E
:10199000130101FF2326110023248100EFF05FE8EB
:1019A00013040500EFF0DFFBEFF09FE73305854000
:1019B0008320C1000324810013010101678000001E
:1019C0000F5000006780000023AE018623AC018623
:1019D00067800000931735001355250033E5A700F5
:1019E00067800000931725001355450033E5A700D5
:1019F00067800000130101FE232E1100232C8100BB
:101A0000232A910023282101232631012324410187
:101A1000232251012320610113090500138B0500C6
:101A2000930906001355B5001375F501EFF09FFA01
:101A300013040500135559001375F503EFF09FFAD1
:101A4000930405001375F901EFF0DFF813090500A1
:101A50001355BB001375F501EFF0DFF7930A05008E
:101A600013555B001375F503EFF0DFF7130A05005C
:101A70001375FB01EFF01FF69307F00FB3873741A3
:101A800033043403B38AFA02330454011304F40711
:101A9000B3843403330AFA02B38444019384F40711
:101AA000330939033305F5023305A9001305F5079A
:101AB0001374048093D4A40093945400336494006A
:101AC0001355B5003365A4008320C10103248101AF
:101AD00083244101032901018329C100032A8100D4
:101AE000832A4100032B01001301010267800000DB
:101AF0001355B5001375F5016780000013555500A7
:101B00001375F503678000001375F5016780000009
:101B1000130101FF23261100930500001305400166
:101B2000EFF0DFD59305100013050001EFF01FD58E
:101B30009305400013050000EFF05FD41305800CFF
:101B4000EFF0DFCF9305000013050000EFF01FD387
:101B50009305100013050001EFF05FD2930510000C
:101B600013050000EFF09FD11305800CEFF01FCD9F
:101B70008320C1001301010167800000130101FFF0
:101B80002326110023248100EFF09FC913040500D0
:101B90001305C000EFF09FCF9307700C63F8A70206
:101BA00013054000EFF09FCE13754500631A050240
:101BB000EFF01FC733058540B7C7EB0B93870720AE
:101BC000E3F8A7FC1305F0FF6F0080001305000089
:101BD0008320C100032481001301010167800000FC
:101BE0001305E0FF6FF0DFFE130101FD2326110254
:101BF000232481022322910223202103232E310159
:101C0000232C4101232A510123286101232671013C
:101C10002324810123229101930B0500138B0500DE
:101C2000930A0600138A0600930907001389070028
:101C30009304080013840800832C01039305050016
:101C400013058000EFF09FC393050B001305800080
:101C5000EFF0DFC293850A0013058000EFF01FC28A
:101C600093050A0013058000EFF05FC1938509001A
:101C700013058000EFF09FC093950401370C01001D
:101C8000130CFCFFB3778901B3E5F5001305800061
:101C9000EFF0DFBE9375F40F13058000EFF01FBE69
:101CA000B3F58C0113058000EFF05FBD37C3000072
:101CB000130343CC23207301232263012324530104
:101CC0002326430123283301232A2301232C9300B5
:101CD000232E83002320930383A701869387170075
:101CE00023A0F1868320C1020324810283244102C0
:101CF000032901028329C101032A8101832A4101A9
:101D0000032B0101832BC100032C8100832C410094
:101D10001301010367800000130101FC232E11024F
:101D2000232C8102232A9102232821032326310315
:101D3000232441032322510323206103232E710115
:101D4000232C8101930405001389050093090600E3
:101D5000138A0600930A0700138C0700130B080070
:101D6000938B0800EFF09FE113040500630C05025C
:101D7000130504008320C10303248103832441034A
:101D8000032901038329C102032A8102832A410214
:101D9000032B0102832BC101032C810113010104D8
:101DA00067800000832701042320F10093880B0043
:101DB00013080B0093070C0013870A0093060A0010
:101DC000138609009305090013850400EFF0DFE195
:101DD0006FF01FFA130101FE232E110003230102ED
:101DE00023206100EFF05FE08320C10113010102B5
:101DF00067800000130101FF2326110023248100C6
:101E000013054000EFF09FA8130405001305C00060
:101E1000EFF0DFA7937744006390070293772400E5
:101E200063860702631805021374840063080400C4
:101E3000130510006F008000130500008320C1000F
:101E400003248100130101016780000013050000D5
:101E50006FF0DFFE130500006FF05FFE130101FE5F
:101E6000232E1100232C8100232A910023282101F5
:101E7000232631012324410123225101EFF05F9AEF
:101E8000130A050013090500930A10009309F0FFD7
:101E90006F00C003EFF0DF98130905009389040079
:101EA000EFF01F9833072541B7979800938707688D
:101EB00063E4E708EFF0DF9633054541930A00003D
:101EC000B7F7FA029387070863ECA70213054000EF
:101ED000EFF0DF9B130405001305C000EFF01F9B1C
:101EE0009304050013744400631004029307000375
:101EF00063F0A704E3900AFAE37435FB6FF09FF9EF
:101F00001305F0FF6F0080001305E0FF8320C1017F
:101F10000324810183244101032901018329C10094
:101F2000032A8100832A4100130101026780000017
:101F3000130500006FF09FFD1305D0FF6FF01FFD2C
:101F4000130101FE232E1100232C8100232A91006E
:101F5000232821012326310193090500EFF05F8C2E
:101F600013090500930400006F00400293841400DD
:101F70009307300063C097081305800CEFF01F8CA7
:101F8000EFF01F8A3305254163E2A90413054000E1
:101F9000EFF0DF8F130405001305C000EFF01F8F73
:101FA000937744006398070293772400638C0700BB
:101FB000E31E05FA13748400E30A04FA1305000013
:101FC0006F008001930400006FF09FFB1305F0FF8A
:101FD0006F0080001305E0FF8320C101032481010D
:101FE00083244101032901018329C1001301010256
:101FF000678000001305D0FF6FF01FFE130101FF83
:102000002326110023248100EFF09F811304050093
:102010006F00C0001305800CEFF05F82EFF09FDDD2
:102020006318050213054000EFF05F861375450045
:10203000631A0502EFF0CFFE33058540B7F7FA02C9
:1020400093870708E3F8A7FC1305F0FF6F008000F3
:10205000130500008320C100032481001301010146
:10206000678000001305E0FF6FF0DFFE130101FF42
:10207000232611002324810013040000930730005D
:1020800063CE8700EFF01FD7631405021305800CA1
:10209000EFF0CFFA130414006FF05FFE1305D0FFCA
:1020A0008320C10003248100130101016780000027
:1020B000130500006FF0DFFE130101FE232E110057
:1020C000232C8100232A910023282101232631017A
:1020D00093090500EFF0CFF4130905009304000005
:1020E0006F008002930410006F00800093041000C2
:1020F000EFF00FF333052541639604009307007D4D
:1021000063E2A70463E6A90413054000EFF00FF8AB
:10211000130405001305C000EFF04FF79377440058
:10212000639C070213742400E30E04FAE31005FC19
:10213000E38004FC1305800CEFF04FF093040000E3
:102140006F00C0011305800CEFF04FEF6F0000012E
:102150009304F0FF6F0080009304E0FF13850400F8
:102160008320C1010324810183244101032901014A
:102170008329C1001301010267800000130101FCE3
:10218000232E110223225103938A070083A701857E
:1021900063920712232C8102232A91022328210310
:1021A000232631032324410323206103232E7101BD
:1021B00013040500938405001309060093890600A3
:1021C000130A0700130B0800938B080083A74184B0
:1021D0006384070283A701846390070283A7818435
:1021E0006340F002EFF09FC76316050A1307000A69
:1021F00023A4E1846F00C000EFF05F98631C050822
:10220000832701042320F10093880B0013080B009F
:1022100093870A0013070A00938609001306090032
:102220009385040013050400EFF01F9C03A741846D
:10223000630C070083A701846398070083A7818448
:102240009387F7FF23A4F18483A741869387170020
:1022500023A2F18623A4F1866306070083A70184E5
:102260006384071203A50181EFF01FE5630C0504E9
:1022700023A8A184032481038324410303290103A8
:102280008329C102032A8102032B0102832BC1018E
:102290006F00400223A8A184032481038324410307
:1022A000032901038329C102032A8102032B0102AE
:1022B000832BC1018320C103832A4102130101043E
:1022C00067800000EFF09FDA6316050283A70184A0
:1022D0006394070403248103832441030329010336
:1022E0008329C102032A8102032B0102832BC1012E
:1022F0006FF05FFC23A8A18403248103832441039E
:10230000032901038329C102032A8102032B01024D
:10231000832BC1016FF01FFA1305C001EFF00FD737
:102320006318050283A741839387170023AAF182CC
:102330000324810383244103032901038329C10268
:10234000032A8102032B0102832BC1016FF09FF648
:1023500083A7C183B387A70023AEF18283A78183BC
:102360009387170023ACF182032481038324410364
:10237000032901038329C102032A8102032B0102DD
:10238000832BC1016FF01FF30324810383244103D6
:10239000032901038329C102032A8102032B0102BD
:1023A000832BC1016FF01FF1130101FC232E1102D9
:1023B000232C8102232A910223282103232631037F
:1023C000232441032322510323206103232E71017F
:1023D000232C8101130405001389050093090600CD
:1023E000138A0600930A0700138B0700930B08005B
:1023F000138C0800EFF0CFC29304050023AA0184D8
:1024000023A2018623A40186832701042320F1004F
:1024100093080C0013880B0093070B0013870A0026
:1024200093060A00138609009305090013050400AA
:10243000EFF09F8E1304050063080504EFF04FBE14
:102440003305954023A6A186630E040413050000FE
:1024500023A8A186130504008320C103032481035C
:1024600083244103032901038329C102032A810232
:10247000832A4102032B0102832BC101032C81011A
:1024800013010104678000009307100023A2F18666
:1024900023A4F18603A50181EFF01FC213040500F8
:1024A0006FF0DFF91305C001EFF04FBE6FF05FFA78
:1024B000130101FE232E1100930706002320E100E3
:1024C0009308F00F13880600138705009306000099
:1024D000130605009305000013051000EFF0DFEC74
:1024E0008320C1011301010267800000130101FE76
:1024F000232E1100232001009308F00F13880700FA
:10250000930707001387060093060600138605004D
:102510009305050013050000EFF01FE98320C101BA
:102520001301010267800000130101FE232E110038
:10253000232001019308F00F138807009307070079
:102540001387060093060600138605009305050011
:1025500013053000EFF05FE58320C1011301010294
:1025600067800000130101FE232E110023200100CB
:1025700093080800138807009307070013870600D5
:102580009306060013860500930505001305200039
:10259000EFF09FE18320C101130101026780000079
:1025A00083A74181638A0704130101FF23261100D9
:1025B00023248100232291009304050013040000CA
:1025C000EFF00FA633059540B7771900938797E68C
:1025D00063EAA70013041400B7373101938707D0CB
:1025E000E3F087FE8320C10003248100832441009F
:1025F000130101016780000067800000130101FFE3
:1026000023261100930700006F0000029396270015
:10261000371740003307D700B7065A5AB386D7009A
:102620002320D700938717001307F00FE370F7FEFE
:10263000EFF00FB3EFF0CFB8930700001307F00FE0
:10264000636CF70293962700371740003307D700D3
:102650008326070037075A5A3387E7006396E60058
:10266000938717006FF09FFD138517008320C1002B
:102670001301010167800000130500006FF01FFFC8
:10268000930600006F00C00C13F77600B7970000A8
:10269000131717009387C76BB387E70083D707002B
:1026A0001307003C3307F74093974600B387D740A2
:1026B00093972700B387D700B3F7E70293970701F3
:1026C00093D7074137B700001396160013074768E2
:1026D0003307C7002310F700130750033387E602C0
:1026E0009305401D3377B70213078701938541ECAB
:1026F000B385C5002390E500B7B500009385450478
:10270000B385C5002390E50013F8360013081800C0
:10271000938541BAB385D50023800501B7950000A4
:1027200093854574B385D50023800500B7B50000B7
:10273000938545A0B385C5002390F500B7A7000099
:102740009387473CB387C7002390E7009386160022
:10275000E3CCA6F26780000013777500B7970000FE
:10276000131717009387C76BB387E70083D607005B
:102770009307003CB386D740B79700009387C76A9A
:10278000B387E70083D707001306C0213306F6405E
:10279000B7B700001317150093874768B387E700A2
:1027A00083970700138741BA3307A7000307070081
:1027B000B387E70063C2070263DCF6021377F70F03
:1027C0003307E040938741BAB387A7002380E7002F
:1027D000938706006F00C0011377F70F3307E040BF
:1027E000938741BAB387A7002380E70093070000CF
:1027F00037B7000093161500130747683307D70053
:102800002310F70093951500B387A6009397270030
:10281000B387A740B385F50093F5F503B79700009C
:10282000939515009387C761B387B7000397070097
:1028300093172700B387E70093D75740138741ECDE
:102840003307D70003170700B307F70063C8070073
:102850006348F600138607006F008000130600002F
:10286000B7B700001315150093874704B387A70077
:102870002390C70067800000130101FC232E110282
:10288000232C8102232A91022328210323263103AA
:10289000232441032322510323206103232E7101AA
:1028A000232C81011304050093747500B797000071
:1028B000139714009387C76BB387E70083D907008A
:1028C000B79700009387C76AB387E70003DA07006A
:1028D000138924221319B900B7B70000131C15007F
:1028E000938747A0B3878701839B0700B7A70000A2
:1028F0009387473CB3878701039B0700EFF0DFE531
:10290000B7B7000093874768B3878701839A0700AA
:10291000B7B7000093874704B3878701039C07007C
:10292000B797000093874774B387870083C7070072
:102930006394070E93870182B387970083C70700CC
:102940006386071213164C00330686411316660081
:1029500033065601B7171800938707803306F60031
:10296000232001009308000A13080A009387090036
:102970001307007893060004131616009305090048
:1029800013052000EFF08FFF03A50185631E0504EA
:10299000B7B700001317140093874768B387E700A1
:1029A00083960700B7B70000938747A0B387E70077
:1029B0002390D700B7B7000093874704B387E70099
:1029C00083960700B7A700009387473CB387E700CB
:1029D0002390D700B797000093874774B387870089
:1029E000130710002380E7008320C1030324810321
:1029F00083244103032901038329C102032A81029D
:102A0000832A4102032B0102832BC101032C810184
:102A1000130101046780000013164B003306664162
:102A20001316660033067601B717180093870780E0
:102A30003306F600930700012320F1009308F00FFE
:102A400013080A0093870900130700789306000013
:102A5000131616009305000013051000EFF00FF297
:102A600003A50185E30805EC6FF01FF813164C0071
:102A7000330686411316660033065601B717180051
:102A8000938707803306F600B70701009387F78125
:102A90002320F1009308F00F13080A009387090020
:102AA0001307007893060004131616009305090017
:102AB00013053000EFF08FEC6FF01FED130101FCF8
:102AC000232E1102232C81022328210323263103E4
:102AD000232441032322510323206103232E710168
:102AE0001309050093890500130A0600938A06005E
:102AF000130B070083A7C1849387170023A6F184D3
:102B0000371700001307F7FFB3F7E70093970701A4
:102B100093D7070137170000B387E700939B07019E
:102B200023A2018623A801841307100023AAE184AD
:102B300023AEB18423ACA1843337C00023A0E18449
:102B400023A20184EFF08FCB130405006312050666
:102B5000232A910293DB0B011307000A23A4E184CB
:102B60009304050063D42403631204029306000057
:102B7000130609009385090013850400EFF0DFCFE9
:102B800013040500938414006FF0DFFD6308040450
:102B9000630A040863040B0023200B0063860A0AFF
:102BA00063000A0A83A7C18323A0FA008324410398
:102BB000130504008320C1030324810303290103B7
:102BC0008329C102032A8102832A4102032B0102C5
:102BD000832BC101130101046780000023207101D0
:102BE0009308F00F130810009307100013070078E4
:102BF0009306000037A64F00130686E093050000F9
:102C000013051000EFF08FD703A40185E31404F837
:102C100037F5FA0213050508EFF08FB2130405002B
:102C20006FF01FF7EFE0DFD937A54F00130585E000
:102C3000EFE05FC4E30075F71304D0FF6FF09FF57A
:102C4000930700006FF05FF6832441036FF05FF697
:102C50009307050063460500130510006F00C001CF
:102C6000B307A040130520006F0000011307A00068
:102C7000B3C7E7021305150013079000E348F7FEFA
:102C800067800000130101FC232E1100232C81001A
:102C9000232A9100930405002322B1022324C102B8
:102CA0002326D1022328E102232AF102232C010347
:102CB000232E1103930741022326F1001304000081
:102CC0006F00C0018327C100138747002326E1005E
:102CD00003A50700EFE01F9E13041400B3878400D0
:102CE00003C50700630E050A93075002630EF5063D
:102CF000EFE05F9C6FF05FFE8327C1001387470002
:102D00002326E10003A50700EFE09F9C6FF0DFFCA6
:102D10008327C100138747002326E10003A507008E
:102D2000EFE09F9C6FF05FFB8327C1001387470094
:102D30002326E10003A50700EFE01FA76FF0DFF9EE
:102D40008327C100138747002326E10003A507005E
:102D5000EFE09FA16FF05FF8377500001305C5F72E
:102D6000EFE01F976FF05FF713041400B387840040
:102D700083C70700E38207F6938787FA93F6F70F76
:102D800013070002E362D7FE9397260037970000EF
:102D900013078756B387E70083A7070067800700FC
:102DA0008320C10103248101832441011301010413
:102DB00067800000130101FC232E1102232C8102E5
:102DC000232A9102232821032326310323244103AC
:102DD0002322510323206103232E7101232C81011F
:102DE000232A9101930B05009389050013054000E8
:102DF000EFE0DFA9930405001305C000EFE01FA971
:102E00001304050013058001EFE05FA81309050016
:102E100013FC140093DA140093FA1A0013DB240055
:102E2000137B1B0013DA3400137A1A0063180400B2
:102E3000630A0A12930C00006F008000930C0000DC
:102E40009307E0FF6384F9129307D0FF638CF912B4
:102E5000930604001386040093850B003775000069
:102E600013054509EFF01FE21318340093087800AA
:102E7000638A0C12B7770000938787FC2320F10048
:102E80009307040013070A0093060B0013860A0039
:102E900093050C00377500001305450CEFF09FDE1D
:102EA00083A74185638A071083A5418633888540BF
:102EB00063400810130818009307040003A78185D6
:102EC00083A6C18503A60186377500001305C513C7
:102ED000EFF05FDB37C60000130646CC8327860180
:102EE0000327C601832606022324D1002322E10002
:102EF0002320F10083284601032806018327C6000A
:102F000003278600832646000326060083A58186C4
:102F10003775000013054524EFF0DFD6137639002E
:102F200093050900377500001305C52AEFF09FD5FA
:102F30008320C10303248103832441030329010364
:102F40008329C102032A8102832A4102032B010241
:102F5000832BC101032C8101832C41011301010446
:102F600067800000930C10006FF09FED1386040043
:102F700093850B003775000013050500EFF09FD017
:102F80006FF09FEE13070A009306040013860400F7
:102F900093850B003775000013058503EFF09FCE76
:102FA0006FF09FECB77700009387C7FE6FF01FEDBF
:102FB000130800006FF01FF09306040003A60186BB
:102FC00083A54186377500001305451CEFF09FCBA4
:102FD0006FF05FF0130101FE232E1100232A9100F0
:102FE0002328210113090500EFE0DFE0630005025B
:102FF00093040000138504008320C1018324410150
:10300000032901011301010267800000232C8100C4
:10301000232631019304050013054000EFE01F87CC
:10302000130405001305C000EFE05F869309050057
:1030300013054000EFE09F85137785003337E000EC
:1030400093860900130604009305090037750000F4
:103050001305C531EFF01FC3EFE09FAB13840400ED
:103060009307700063CA8704EFE0DFD8631A050096
:103070001305800CEFE08FFC130414006FF05FFE6B
:1030800013054000EFE09F80130405001305C00006
:10309000EFE0CFFF93060500130604009305090037
:1030A0003775000013058538EFF0DFBD032481017B
:1030B0008329C1006FF01FF413054000EFE00FFDFE
:1030C000130405001305C000EFE04FFC9304050056
:1030D00013054000EFE08FFB137785003337E000E6
:1030E0009386040013060400930509003775000059
:1030F0001305853DEFF01FB99304F0FF0324810110
:103100008329C1006FF01FEF130101FF2326110077
:103110002324810013040500631C0500130504002B
:103120008320C10003248100130101016780000096
:10313000232291009384050083A74187938717007A
:1031400023AAF1869305050013850400EFF09FC6BE
:1031500013850400EFF01FE86306050083A7818153
:103160006390070283A541879307300063D2B704B9
:1031700083A7818163920702832441006FF01FFAC5
:1031800023AC018093850400377500001305C54208
:10319000EFF05FAF6FF01FFD23AC018037750000CB
:1031A00013050547EFF01FAE832441006FF01FF7B2
:1031B000832441006FF09FF6130101FB23261104C5
:1031C000232481042322910423202105232E31036B
:1031D000232C4103232A510323286103232671034F
:1031E00023248103232291032320A103232EB10151
:1031F000130D0500938D0500930A06002326010098
:103200002320A600232206002324060023260600EE
:1032100023280600232A0600232C0600232E06005E
:103220002320060223260602232206022324060266
:10323000EFF00FC583A78181639A0702EFE04FF596
:10324000B7373101938707D023A8F180130A000014
:1032500093040000130B0000930B0000930C00007C
:10326000130C0000130900006F00C00813070001D1
:103270009306C0211306003C9305007837153000F3
:10328000EFF00FA3E30C05FAB77500009385054D29
:10329000EFF09FE76FF09FFA33092541B38C2C01C3
:1032A00013078100930600001306000093850400B5
:1032B00013050D00EFF09F8013090500832781009F
:1032C000330BFB006316050483A74186B38BFB0019
:1032D000EFE00FD533058540330CAC00130A1A001C
:1032E0001305040093850900EFF08FAB938414005D
:1032F0001309040063D6B403EFE08FD21304050072
:103300009389050023240100E39804F86FF05FF926
:10331000B77500009385054EEFF01FDF6F0080004A
:103320001309000023AE018223AC018223AA01828B
:1033300083A78181639A070CB7C7EB0B938707209C
:1033400023A8F18063140A00130A100023A24A0183
:1033500023A62A0393070A00B3DB4B0323A47A01B5
:1033600003A78183630407000327C10023A6EA00A3
:103370003357FC0223A8EA00335BFB0223AC6A014B
:103380009306100063DC460D130AFAFFB3DC4C030E
:1033900023AA9A016368FC0C93571700B7E6F5055A
:1033A00093860610B387D700B3D7E70223AEFA009F
:1033B000638C0C0093D71C0037E7F5051307071043
:1033C000B387E700B3DC970323A09A038320C104EB
:1033D0000324810483244104032901048329C103B4
:1033E000032A8103832A4103032B0103832BC10298
:1033F000032C8102832C4102032D0102832DC10184
:1034000013010105678000002324010013078100D8
:103410009306C1001306100093850D0013050D00DF
:10342000EFF0CFE91304050083A7818323A2FA02FA
:1034300083A7418323A4FA02631805008327810030
:10344000330BFB006FF05FEFB77500009385054FFE
:10345000EFF09FCB130904006FF01FEE930C0700F1
:103460006FF01FF3930700006FF05FF4130101FF8B
:10347000232611002324810013040600630A06009A
:1034800083A701889387170023A0F188634E060263
:1034900063080404377700001307475093060400BD
:1034A0001386050093050500377500001305C55404
:1034B000EFF04FFD333580008320C10003248100ED
:1034C00013010101678000001386050093050500C4
:1034D0003775000013054551EFF0CFFA6FF09FFDEF
:1034E000377700001307C7506FF05FFB6300D60209
:1034F0001387060083A7C1879387170023AEF18641
:1035000083A781879306700063D4F600678000006C
:10351000130101FF232611009387170023ACF186C6
:103520009306060013860500930505003775000015
:103530001305C556EFF00FF58320C10013010101FB
:1035400067800000130101FD23261102232481025C
:103550002322910223202103232E3101232C410118
:10356000232A51012328610123267101232481018B
:10357000232291012320A101930C0500138C050047
:10358000930B0600138B0600130A0700138D070028
:10359000930A0800930900006F000004B30474014B
:1035A0003389690133058903939714003305F500C6
:1035B00033059501EFE00FAC1306050093860A0072
:1035C0009305090013850400EFF05FF21304140063
:1035D000E34644FD9389190063D6A9011304000052
:1035E0006FF01FFF8320C102032481028324410264
:1035F000032901028329C101032A8101832A410190
:10360000032B0101832BC100032C8100832C41007B
:10361000032D01001301010367800000130101FB6A
:10362000232611042324810423229104232021052D
:10363000232E3103232C4103232A51032328610322
:103640002326710323248103232291032320A10332
:10365000232EB101930C0500138C0500930B06007B
:10366000138B0600930A07002326F1009309080034
:1036700023241101832D0105032D8105130A000068
:103680006F00400633058903931714003305F500D6
:1036900033059501EFE00F9E1306050093060D001C
:1036A0009305090013050400EFF05FE49384140010
:1036B00063D854033384740133096A01E34434FD4D
:1036C000B387B901E350F4FC83278100E34CF9FA96
:1036D00003274105B387E700E356F9FA6FF01FFDB2
:1036E000130A1A008327C1006356FA0093040000EE
:1036F0006FF01FFC8320C104032481048324410450
:10370000032901048329C103032A8103832A410376
:10371000032B0103832BC102032C8102832C410262
:10372000032D0102832DC1011301010567800000F3
:10373000130101FC232E1102232C8102232A910262
:103740002328210323263103232441032322510369
:1037500023206103232E7101232C8101232A91014F
:103760002328A1012326B101130D0500938C050028
:10377000130C0600938B0600130A0700938D0700B5
:10378000130B0800938A0800930900006F0080045F
:10379000B3048401338979013305990393971400A5
:1037A0003305F5003305A501EFE0CF8C13060500C6
:1037B000B3865903B3866601B38686009305090074
:1037C00013850400EFF09FD213041400E34244FD7C
:1037D0009389190063D6B901130400006FF01FFF2D
:1037E0008320C103032481038324410303290103AC
:1037F0008329C102032A8102832A4102032B010289
:10380000832BC101032C8101832C4101032D010174
:10381000832DC1001301010467800000130101FD25
:103820002326110223202103232E310193090500B1
:1038300063040506377900001309C95983A78181FC
:10384000638207062324810223229102232C410153
:10385000232A510123286101371800001308482347
:103860009307F00013074001930600191306802503
:103870009305007837154000EFE04F82EFE04F8E60
:1038800023AA018423A2018623A40186130A00002F
:10389000930400006F008006377900001309C95DAA
:1038A0006FF0DFF91306F0FF930500001305090020
:1038B000EFF0DFBB6F004017130A100063180A1205
:1038C000232051019308F00F1308100093071000F4
:1038D0001307007893060000130604009305000008
:1038E00013051000EFE00FCF83A7418693871700E1
:1038F00023A2F18623A4F186938414009307B012C7
:1039000063C6970E9307400133C7F40213070719E4
:10391000B3E7F402131647003306E64013166600B9
:103920003306F600B7172000938787A53306F60005
:1039300013141600B7470000B38AF4006388090621
:1039400093F7F401E39E07F613054000EFD01FF450
:1039500013754500631A05081305C000EFD01FF367
:103960009307E00FE3FEA7F4EFD09FEB130B0500E6
:103970001305C000EFD09FF19307E00FE3F0A7F429
:1039800013054000EFD09FF013754500E31605F2D4
:10399000EFD01FE933056541B7373101938707D071
:1039A000E3F8A7FC130A10006FF05FF12320510128
:1039B0009308F00F13081000930710001307007806
:1039C0009306000013060400930500001305100081
:1039D000EFE08FB4E30A05F0B775000093858563C7
:1039E000EFF08FF26F00C000130A100063080A04A2
:1039F0001306C01293850400377500001305856413
:103A0000EFF04FA81306F0FF93050000130509001F
:103A1000EFF0DFA50324810283244102032A810100
:103A2000832A4101032B01018320C10203290102E2
:103A30008329C101130101036780000037C5EB0B27
:103A400013050520EFE04FE763820902B775000018
:103A50009385C561EFF04FEB93040500631E0500ED
:103A6000EFD01FF6EFD05FF66F008008B77500004B
:103A70009385C5626FF01FFE1306F0FF93050000EB
:103A800013050900EFF09F9E032481028324410265
:103A9000032A8101832A4101032B01016FF0DFF822
:103AA00013044001B3E9840233C4840213040419EB
:103AB00013154400330585401315650033053501A2
:103AC000B7172000938787A53305F5001315150058
:103AD000EFD05FDA13060500B7460000B386D400C6
:103AE0009305040013858925EFF05FA093841400EB
:103AF0009307B012E3D697FA1305C001EFD01FD990
:103B00009305050003A6C18713050900EFF01F9672
:103B10000324810283244102032A8101832A410173
:103B2000032B01016FF05FF0130101FE232E110042
:103B300083A78181638A070E371600001306462388
:103B40009305007E377500001305056CEFF08F9329
:103B50003718000013084823930720011307800239
:103B60009306000013060000930500783715400007
:103B7000EFD0DFD2EFD0DFDE1307007E9306000127
:103B8000130600029305007837154000EFE05F92BE
:103B9000B775000093854571EFF00FD76312050AE2
:103BA000EFD01FE2EFD05FE21308007E9307000121
:103BB0001307000293060000130600009305007827
:103BC00037154000EFF01F98B71700009387472381
:103BD0002324F100930700012322F1009307000240
:103BE0002320F10093080000130800009307200130
:103BF0001307800293060000130600009305007867
:103C000037154000EFF09FA103A6C18783A5018768
:103C1000377500001305056AEFF05F858320C10149
:103C200013010102678000001306F0FF93050000F6
:103C3000377500001305056AEFF05F836FF01FFE14
:103C40001306F0FF93050000377500001305056AA1
:103C5000EFF0DF816FF09FFC130101FE232E1100B6
:103C600083A781816388070E9305007E3775000066
:103C700013050574EFF00F8137180000130848236F
:103C800093072001130780029306700213060000B9
:103C90009305007837154000EFD05FC0EFD05FCCC0
:103CA0001307007E930600011306000293050078B7
:103CB00037454100130565C0EFE08FFFB775000081
:103CC0009385457AEFF04FC46312050AEFD05FCFBA
:103CD000EFD09FCF1308007E930700011307000267
:103CE00093068002130630009305007837154000D4
:103CF000EFF05F85B7170000938747232324F10077
:103D0000930700012322F100930700022320F10012
:103D100093088002130830009307200113078002E4
:103D200093067002130600009305007837154000D3
:103D3000EFF0DF8E03A6C18783A5018737750000EA
:103D40001305C571EFF08FF28320C1011301010249
:103D5000678000001306F0FF930500003775000030
:103D60001305C571EFF08FF06FF01FFE1306F0FF23
:103D700093050000377500001305C571EFF00FEFD4
:103D80006FF09FFC130101FD2326110283A781819F
:103D90006386071C37180000130848239307400464
:103DA00013076000930680001306201F9305007818
:103DB00037154000EFD09FAEEFD09FBA3707010014
:103DC000130707809306000413061000930500787C
:103DD00037654000130585EEEFE08FEDB775000005
:103DE0009385C57CEFF04FB2631A05182322910228
:103DF00083A4018737180000130848239307500055
:103E00001307C00C9306A0121306800093050078D8
:103E100037154000EFD09FA8EFD09FB437070100BF
:103E2000130707FE930610001306800C9305007815
:103E300037E54800130545A1EFE08FE7B7750000AF
:103E40009385457DEFF04FAC631605142324810262
:103E500023202103232E310103A90187EFD05FB670
:103E6000EFD09FB6370801001308088093070004BD
:103E7000130710009306A0001306401F9305007857
:103E800037154000EFF00FEC371400001304442303
:103E900023248100930700042322F10093091000DA
:103EA000232031019308A0001308401F930740040A
:103EB00013076000930680001306201F9305007807
:103EC00037154000EFF08FF537080100130808FEA2
:103ED000930710001307800C9306C0121306A0006E
:103EE0009305007837154000EFF0CFE523248100DB
:103EF000232231019307800C2320F1009308C01284
:103F00001308A000930750001307C00C9306A012DB
:103F1000130680009305007837154000EFF00FF08E
:103F20001306090093850400377500001305C57D4D
:103F3000EFE05FD503A6C187B38524013775000084
:103F40001305C57AEFF08FD2032481028324410246
:103F5000032901028329C1016F0080011306F0FFCC
:103F600093050000377500001305C57AEFF00FD0F8
:103F70008320C10213010103678000001306F0FFD4
:103F800093050000377500001305C57AEFF00FCEDA
:103F90006FF01FFE1306F0FF9385040037750000D5
:103FA0001305C57AEFF08FCC832441026FF05FFCDC
:103FB000130101FF2326110083A781816380071E5F
:103FC00013070001B71630001306C0219305003C0B
:103FD0003785000013054586EFE0DFCAB7150000FE
:103FE0009385452337E53F0013050520EFD01F8853
:103FF000B71500009385452337E53F0013052520BD
:10400000EFD0DF86EFD0DF95130700019306C021C4
:104010001306003C9305007837153000EFE04FC9D8
:10402000B78500009385058CEFF00F8E631405189B
:104030002324810003A40187EFD09F98EFD0DF985D
:1040400037153000EFD01F831306050093060001DB
:104050009305000013050000EFF04FC9371530003D
:104060001305E577EFD01F811306050093060001C5
:10407000930500001305F03BEFF04FC737E53F0015
:10408000130505A8EFD00FFF1306050093060001E6
:104090009305B02113050000EFF04FC537E53F0051
:1040A0001305E51FEFD00FFD130605009306000171
:1040B0009305B0211305F03BEFF04FC337053800EF
:1040C000130505CCEFD00FFB130605009306000186
:1040D0009305E0101305001EEFF04FC137153000B7
:1040E0001305053CEFD00FF91306050093060001F8
:1040F000930500001305001EEFF04FBF3705380091
:1041000013050590EFD00FF7130605009306000185
:104110009305E01013050000EFF04FBD37E53F00B9
:1041200013050520EFD00FF513060500B7160000A4
:10413000938646239305C0211305003CEFF00FBB87
:1041400037E53F0013052520EFD0CFF21306050019
:10415000B7160000938646239305C0211305103C33
:10416000EFF0CFB803A6C1869305040037850000A1
:104170001305458DEFE01FB103A6C1879305040029
:104180003785000013050584EFF04FAE032481004E
:104190008320C10013010101678000001306F0FFB6
:1041A000930500003785000013050584EFF00FAC80
:1041B0006FF01FFE1306F0FF930500003785000027
:1041C00013050584EFF08FAA6FF09FFC130101FE29
:1041D000232E110083A7818163860702232C81008F
:1041E000232A91009306007813060004B7251000D7
:1041F0003785000013050595EFE0DFA89304000064
:104200006F0040061306F0FF93050000378500009D
:1042100013058592EFF08FA56F00C013374500009E
:10422000130505083385A4001315550033058500D3
:1042300093850410939555009395050193D5050139
:10424000B38585009395050193D5050113151500D8
:10425000EFD0CFE1130414009307F001E3D087FC03
:10426000938414009307700063C697001304000042
:104270006FF09FFE37180000130848239307C00013
:10428000130760029306200113066002930500786D
:1042900037154000EFD08FE0EFD08FEC9307800010
:1042A000130700029306007813060004B7A5400028
:1042B0009385056537251000EFE04FA3B785000013
:1042C00093850599EFE05FE4631C0508EFD04FEF9D
:1042D000EFD08FEF9308000237280000930780008B
:1042E000130700029306400113068002930500782D
:1042F00037154000EFF0CFC3B7170000938747236F
:104300002324F100930780002322F1009307000289
:104310002320F10093084001130880029307C00096
:1043200013076002930620011306600293050078CC
:1043300037154000EFF08FAE03A6C18783A5018734
:104340003785000013058592EFF04F920324810119
:10435000832441018320C101130101026780000011
:104360001306F0FF930500003785000013058592C2
:10437000EFF0CF8F03248101832441016FF09FFD73
:10438000130101FE232E110083A78181638407029C
:10439000232C8100232A9100B735100093856500F6
:1043A000378500001305859CEFE0DF8D9304000046
:1043B0006F0080061306F0FF9305000037850000AC
:1043C00013058599EFF08F8A6F004014B7470000FE
:1043D0009387070C3385F4001315550033058500CA
:1043E00013053500938504189395550093950501A1
:1043F00093D50501B38585009395050193D50501F6
:1044000013151500EFD08FC6130414009307300165
:10441000E3DE87FA938414009307700063C6970065
:10442000130400006FF09FFE3718000013084823A4
:104430009307C0001307C0019306A0031306A00052
:104440009305007837154000EFD04FC5EFD04FD11E
:1044500093078000130740019306007813060004B9
:10446000B7D541009385A5213735100013056500A8
:10447000EFE0CF87B7850000938585A1EFE0DFC827
:10448000631C0508EFD0CFD3EFD00FD49308000200
:104490003738000093078000130740019306C003DC
:1044A0001306D0009305007837154000EFF04FA8B1
:1044B000B7170000938747232324F1009307800058
:1044C0002322F100930740012320F1009308C00349
:1044D0001308D0009307C0001307C0019306A00380
:1044E0001306A0009305007837154000EFF00F93F6
:1044F00003A6C18783A50187378500001305859929
:10450000EFE0DFF603248101832441018320C10110
:1045100013010102678000001306F0FF93050000FD
:104520003785000013058599EFE05FF403248101CE
:10453000832441016FF09FFD130101FE232E110022
:1045400083A7818163820702232C8100232A9100A3
:10455000B725100037850000130545A4EFE08FF262
:10456000930400006F0040061306F0FF930500005F
:1045700037850000130505A2EFE05FEF6F008013A1
:1045800037450000130505083385A40013155500B1
:104590003305850093850440939545009395050167
:1045A00093D50501B38585009395050193D5050144
:1045B00013151500EFD08FAB130414009307C00040
:1045C000E3D087FC938414009307800063C69700B0
:1045D000130400006FF09FFE3718000013084823F3
:1045E0009307D00013076001930620061306600CA2
:1045F0009305007837154000EFD04FAAEFD04FB6A3
:10460000930790001307D000930600781306000468
:10461000B7054300938505F937251000EFD01FED4E
:10462000B7850000938585A9EFE01FAE631A0508E2
:10463000EFD00FB9EFD04FB9930800013748000011
:10464000930790001307D000930640061306800CD2
:104650009305007837154000EFF08F8DB7170000F5
:10466000938747232324F100930790002322F1002E
:104670009307D0002320F100930840061308800C14
:1046800013076001930620061306600C930500785B
:1046900037154000EFE09FF803A6C18783A5018787
:1046A00037850000130505A2EFE05FDC03248101DC
:1046B000832441018320C1011301010267800000AE
:1046C0001306F0FF9305000037850000130505A2CF
:1046D000EFE0DFD903248101832441016FF09FFDC6
:1046E000130101FE232E110083A781816386070435
:1046F000232C8100232A9100B795430093850572EE
:10470000378500001305C5ABEFE0CFD737180000A1
:1047100013084823930700011307800293064007FC
:104720001306C0189305007837154000EFD00F9797
:10473000930400006F0000071306F0FF93050000CC
:1047400037850000130505AAEFE05FD26F00401225
:1047500093878407139547003305F54013156500CB
:1047600033058500B7172000938707993305F500B7
:1047700093850428939555009395050193D50501DC
:10478000B38585009395050193D505011315150093
:10479000EFD0CF8D130414009307F001E3DA87FA0A
:1047A000938414009307700063C6970013040000FD
:1047B0006FF09FFEEFD0CF9A93078000130700029F
:1047C0009306007813060078B79543009385057229
:1047D00013850500EFD09FD1B7850000938545B1C3
:1047E000EFE09F92631C0508EFD08F9DEFD0CF9D27
:1047F0009308000237580000930780001307000257
:1048000093068007130600199305007837154000BA
:10481000EFE01FF2B7170000938747232324F1002E
:10482000930780002322F100930700022320F10068
:1048300093088007130800199307000113078002EB
:10484000930640071306C0189305007837154000FB
:10485000EFE0DFDC03A6C18783A501873785000071
:10486000130505AAEFE09FC00324810183244101C1
:104870008320C10113010102678000001306F0FFCD
:104880009305000037850000130505AAEFE01FBE61
:1048900003248101832441016FF09FFD130101FE78
:1048A000232E110083A78181638807421306C0214C
:1048B0009305003C37850000130505B5EFE08FBC7C
:1048C0001307007E9306400B1306003C9305007807
:1048D00037154000EFD0DFBDB7850000938505B9DF
:1048E000EFE09F82631A0540232C810003A4018717
:1048F0001307F0019306400B1306003C9305007864
:104900003755450013050560EFD09FBAB785000005
:104910009385C5B9EFE04FFF631C053E232A910044
:1049200083A4018737070100130707D29306400BC2
:104930001306003C9305007837A54A00130505C00F
:10494000EFD01FB7B7850000938585BAEFE0CFFBA6
:10495000631E053C2328210103A90187EFD04F8660
:10496000EFD08F8637154000EFC0DFF0130605004B
:104970009306007E9305000013050000EFE01FB7CB
:10498000375545001305E55FEFC0DFEE1306050060
:104990009306007E9305300B1305F03BEFE01FB547
:1049A0003755450013050560EFC0DFEC1306050021
:1049B0009306F0019305400B13050000EFE01FB3D1
:1049C00037A54A001305E5BFEFC0DFEA130605006F
:1049D0009306F001930570161305F03BEFE01FB14D
:1049E00037A54A00130505C0EFC0DFE81306050030
:1049F000B7060100938606D29305801613050000C2
:104A0000EFE0DFAE37E54F001305E51FEFC09FE68F
:104A100013060500B7060100938606D29305B02160
:104A20001305F03BEFE09FAC9307C0211307003C58
:104A30009306007813060078B7153000371540004C
:104A4000EFD0DFAAB7850000938545BBEFE0CFEB41
:104A5000631E052E2326310183A90187EFC05FF66F
:104A600037153000EFC01FE1130605009306007EE6
:104A70009305000013050000EFE05FA73715300035
:104A80001305E577EFC01FDF130605009306007ED0
:104A9000930500001305F03BEFE05FA537553500A7
:104AA0001305E55FEFC01FDD130605009306007ECA
:104AB0009305300B1305F03BEFE05FA3375535004E
:104AC00013050560EFC01FDB130605009306F00118
:104AD0009305400B13050000EFE05FA137A53A00F6
:104AE0001305E5BFEFC01FD9130605009306F001BB
:104AF000930570161305F03BEFE05F9F37A53A0072
:104B0000130505C0EFC01FD713060500B706010047
:104B1000938606D29305801613050000EFE01F9DD3
:104B200037E53F001305E51FEFC0DFD4130605008E
:104B3000B7060100938606D29305B0211305F03B1A
:104B4000EFE0DF9A37053800130505CCEFC09FD2A0
:104B5000130605009306F0019305E0101305001EEF
:104B6000EFE0DF989307C0211307003C930600781D
:104B700013060078B715400037153000EFD01F97A7
:104B8000B78500009385C5BBEFE00FD86314051E01
:104B90002324410103AA0187EFC09FE2371540009B
:104BA000EFC05FCD130605009306007E930500005D
:104BB00013050000EFE09F93371540001305E577DC
:104BC000EFC05FCB130605009306007E930500003F
:104BD0001305F03BEFE09F91375545001305056045
:104BE000EFC05FC9130605009306F0019305400B63
:104BF00013050000EFE09F8F37A54A001305E5BFBE
:104C0000EFC05FC7130605009306F0019305701609
:104C10001305F03BEFE09F8D37A54A00130505C053
:104C2000EFC05FC513060500B7060100938606D2E4
:104C30009305801613050000EFE05F8B37E54F000A
:104C40001305E51FEFC01FC313060500B7060100DB
:104C5000938606D29305B0211305F03BEFE01F8940
:104C600037054800130505CCEFC0DFC0130605006B
:104C70009306F0019305E0101305001EEFE01F8777
:104C800093070A001387090093060900138604009E
:104C90009305040037850000130545BCEFD09FFE47
:104CA000B3059400B3852501B385350103A6C187FB
:104CB000B385450137850000130545B2EFE00FFBD2
:104CC0000324810183244101032901018329C100B7
:104CD000032A81006F0080011306F0FF9305000096
:104CE00037850000130545B2EFE04FF88320C1017E
:104CF00013010102678000001306F0FF9305000016
:104D000037850000130545B2EFE04FF66FF01FFE48
:104D10001306F0FF9305040037850000130545B224
:104D2000EFE0CFF4032481016FF05FFC1306F0FF86
:104D3000B305940037850000130545B2EFE00FF38B
:104D400003248101832441016FF05FFAB3059400CD
:104D50001306F0FFB385250137850000130545B222
:104D6000EFE0CFF0032481018324410103290101F5
:104D70006FF0DFF7B3059400B38525011306F0FF4C
:104D8000B385350137850000130545B2EFE00FEE1E
:104D90000324810183244101032901018329C100E6
:104DA0006FF0DFF4130101FD2326110283A7818137
:104DB000638C07022324810223229102232A5101BA
:104DC000B71600009386161137461000B70501008C
:104DD0009385F58137850000130545C3EFD09FEA21
:104DE000930400006F0000061306F0FF9305000017
:104DF00037850000130545C1EFE04FE76F008024C1
:104E0000B70501009385F581EFC05FA61304140078
:104E10009307F00063C68702B787000093870720D7
:104E20003385F4001315450033058500131515006F
:104E300093771400E38607FC9305F07F6FF0DFFCA7
:104E4000938414009307700063C697001304000056
:104E50006FF01FFC37180000130848239307C000A9
:104E6000130740019306A00813066002930500781B
:104E700037154000EFC09FA2371800001308181123
:104E800093078000130700019306C00813068002F1
:104E90009305007837154000EFC05FA0EFC05FAC0E
:104EA000370801001308F8819307800013070001F9
:104EB0009306007813060002B7354400938505A5D4
:104EC00037451000EFD04FE6B7850000938545C801
:104ED000EFE08FA3930A050063140502232021034A
:104EE000232E3101232C4101EFC09FADEFC0DFAD78
:104EF000138A0A0093890A0013890A006F00800B45
:104F00001306F0FF9305000037850000130545C127
:104F1000EFE0CFD50324810283244102832A41019B
:104F20006F0040129306F07F9385040013058402FE
:104F3000EFE0CFDB130414009307F00063CA870689
:104F40009304C90813954400330595401315650073
:104F500033058500B7172000938787823305F50056
:104F600013151500EFC01F91130605009377140069
:104F7000638A07009307F07FE316F5FA130A1A0015
:104F80006FF05FFAB717000093871711630EF500F3
:104F9000B71600009386161193850400130584024A
:104FA000EFE0CFD46FF01FF9938919006FF05FFE27
:104FB000130919009307700063C6270113840A00C0
:104FC0006FF09FF7B7170000938747232324F10062
:104FD000930780002322F100930700012320F100B2
:104FE0009308C008130880029307C000130740010C
:104FF0009306A00813066002930500783715400059
:10500000EFE0CFE113060A00938509003785000021
:105010001305C5C8EFD01FC703A6C18783A50187A5
:1050200037850000130545C1EFE04FC4032481021A
:1050300083244102032901028329C101032A81013A
:10504000832A41018320C10213010103678000000C
:10505000130101FE232E110083A7818163840702BF
:10506000232C8100232A9100B70501009385F58147
:10507000378500001305C5CFEFD0DFC093040000D3
:105080006F0000051306F0FF930500003785000050
:10509000130585CCEFE08FBD6F00C0193785000088
:1050A000130505383385A400131545003305850025
:1050B000B70501009385F58113151500EFC00FFBAF
:1050C000130414009307F000E3DA87FC93841400C0
:1050D0009307300063C69700130400006FF09FFE33
:1050E00037180000130848239307800013070002B5
:1050F0009306E00913060002930500783715400077
:10510000EFC0CFF9930400006F0080059387040A75
:10511000139547003305F5401315650033058500E9
:10512000B7172000938787823305F5009385041015
:10513000939545009395050193D50501B3858500A9
:105140009395050193D5050113151500EFC00FF2D6
:10515000130414009307F000E3DA87FA9384140031
:105160009307300063C69700130400006FF09FFEA2
:10517000EFC00FFF370801001308F88193074000C4
:10518000130700019306007813060002B7C5440018
:105190009385050537751000EFD00FB9B78500006E
:1051A000938585D5EFD05FF6631C0508EFC05F815E
:1051B000EFC09F819308000137180000930740005B
:1051C000130700019306000A130680029305007876
:1051D00037154000EFE0CFD5B7170000938747237E
:1051E0002324F100930740002322F10093070001DC
:1051F0002320F1009308000A13088002930780001F
:10520000130700029306E0091306000293050078D5
:1052100037154000EFE08FC003A6C18783A5018743
:1052200037850000130585CCEFE04FA403248101EE
:10523000832441018320C101130101026780000022
:105240001306F0FF9305000037850000130585D68F
:10525000EFE0CFA103248101832441016FF09FFD82
:10526000130101FE232E110083A7818163880702A9
:10527000232C8100232A910037060100130606D251
:10528000B70501009385F58137850000130545DCDE
:10529000EFD05F9F930400006F0040091306F0FFFA
:1052A0009305000037850000130505D9EFE00F9C3A
:1052B0006F00C038B70501009385F5816F00C0000D
:1052C000B70501009385F5813745000013050520DA
:1052D0003385A400131555003305850013151500FB
:1052E000EFC0CFD8130414009307F00163CE8702F8
:1052F000E30804FC638E04009307F0016300F402EA
:10530000E38AF4FAB7050100938505D26FF0DFFB5D
:10531000B70501009385F5816FF01FFBB70501000C
:105320009385F5816FF05FFA938414009307F00181
:1053300063C69700130400006FF01FFB93048008FE
:105340006F008005B725000093852522EFC00FD29E
:10535000130414009307301563CE8702139544009D
:10536000330595401315650033058500B7172000F8
:10537000938707803305F50013151500B3079400D4
:1053800093F71700E38007FCB7150000938515110C
:105390006FF0DFFB938414009307F00A63C6970055
:1053A0001304C0126FF01FFBEFC08FDB3708010042
:1053B0001308F88193070002130700029306007890
:1053C00013060004B7354400938505C637851000E1
:1053D000EFD08F95B7850000938545E1EFD0DFD200
:1053E0001304050063160502232821012326310139
:1053F000232441012322510123206101EFC04FDC0E
:10540000EFC08FDC93040400130A10006F008008C3
:105410001306F0FF9305000037850000130545E2F1
:10542000EFE0CF8403248101832441016F00002138
:10543000B7060100938606D2938509001305091368
:10544000EFE0CF8A130919009307E00163C2270533
:105450009309CA08139549003305354113156500B2
:1054600033052501B7172000938707933305F5000F
:1054700013151500EFC00FC013060500B707010094
:10548000938707D2E316F5FA938414006FF05FFA5E
:10549000130A1A009307E00163C6470113091000BD
:1054A0006FF09FFA13090400130A04006F008009CB
:1054B0009387C91BB387470193F7170063880706D3
:1054C000B71A0000938A1A11130BCA0813154B0060
:1054D000330565411315650033053501B717200005
:1054E000938707933305F50013151500EFC08FB8A8
:1054F000130605006382AA0493860A0093050B0035
:1055000013850913EFD09FFE938919009307F001CB
:1055100063C83703E38E09F8E30C0AF89307F00138
:10552000E388F9F8E306FAF86FF01FFEB72A0000E7
:10553000938A2A226FF05FF9130919006FF0DFFBDD
:10554000130A1A009307F00163C647019309040088
:105550006FF0DFFB930980086F0000099307B00824
:1055600063D637079307B00A63C237076F0040045A
:10557000372A0000130A2A221395490033053541C2
:10558000131565003305E500B717200093870780E2
:105590003305F50013151500EFC0CFAD1306050058
:1055A00093060A009385090013050400EFD01FF449
:1055B000130414009307301563C687021307040011
:1055C000930704ED9306F001E3FAF6F8B30734010C
:1055D00093F71700E38E07F8371A0000130A1A1121
:1055E0006FF09FF9938919009307F00A63C637019A
:1055F0001304C0126FF01FFC13060900938504000A
:1056000037850000130545E4EFD0CFE703A6C18737
:1056100083A5018737850000130545E2EFD01FE51C
:105620000324810183244101032901018329C1004D
:10563000032A8100832A4100032B01008320C1013A
:105640001301010267800000130101FC232E1102E7
:1056500083A7818163840702232C8102232A91027C
:10566000232E7101B7951000378500001305C5E999
:10567000EFD04FE1930400006F0000061306F0FF27
:105680009305000037850000130585E7EFD01FDE86
:105690006F00C02AB70501009385F581EFC00F9D0B
:1056A000130414009307F00063C68702B787000055
:1056B000938707483385F4001315450033058500AB
:1056C0001315150093771400E38607FC9305F07F0C
:1056D0006FF0DFFC938414009307700063C697009B
:1056E000130400006FF01FFC371800001308482354
:1056F0009307A000130700029306700C1306000026
:105700009305007837154000EFC04F9993040000CF
:105710006F0040069387840C139547003305F540CE
:105720001315650033058500B71720009387778030
:105730003305F50093952400B385B40093953500A7
:10574000B38585009395050193D50501B737000012
:10575000B385F5009395050193D505011315150043
:10576000EFC0CF90130414009307F000E3D487FA3E
:10577000938414009307700063C69700130400001D
:105780006FF09FFEEFC0CF9D370801001308F8812E
:1057900093078000130700019306007813060002A8
:1057A000B7F545009385E5C037951000EFC0DFD70A
:1057B000B7850000938545EFEFD01F95930B05004B
:1057C00063180502232821032326310323244103E0
:1057D0002322510323206103EFC08F9EEFC0CF9E91
:1057E000138B0B00938A0B0093890B006F00800BC7
:1057F0001306F0FF9305000037850000130585E7C9
:10580000EFD0DFC60324810383244103832BC1012E
:105810006F00C0126302A4089306040093050900F8
:1058200013857400EFD09FCC938414009307F0008D
:1058300063C8970613942900330434011314340009
:105840009387040033049400373700003304E400E6
:1058500013FA140063040A001304F07F1389890CFF
:105860001315490033052541131565003305F5006F
:10587000B7172000938777803305F50013151500BF
:10588000EFB05FFF13060500E3060AF8E316A4F87D
:10589000130B1B006FF05FF8938A1A006FF0DFF7AD
:1058A000938919009307700063C6370193840B0036
:1058B0006FF0DFF7B7170000938747232324F10029
:1058C000930780002322F100930700012320F100B9
:1058D0009308800C130870009307A00013070002C0
:1058E0009306700C130600009305007837154000EE
:1058F000EFD0DFD213060B0093850A003785000036
:105900001305C5C8EFD00FB803A6C18783A50187CB
:1059100037850000130585E7EFD05FB503248103C9
:1059200083244103032901038329C102032A81023D
:10593000832A4102032B0102832BC1018320C1036F
:105940001301010467800000130101FE232E1100E2
:1059500083A78181638E0718232C8100232A91005D
:1059600013060000B7C5000093858561B7040100E8
:105970001385F4FFEFC00F8813040500930505009D
:1059800037850000130505F5EFD0CFAF1388F4FF7E
:105990009307800013070001930600001306000020
:1059A0009305000237651000EFB05FEF3718000075
:1059B000130848239307C0001307C0019306E00EA5
:1059C0001306C0059305007837154000EFB01FEDB2
:1059D00037C800001308886193078000130700018F
:1059E0009306000F13060006930500783715400054
:1059F000EFB0DFEAEFB0DFF6130800009307800096
:105A0000130700019306007813060002B72547002C
:105A10009385058C37651000EFC0DFB4B7850000B3
:105A2000938505FAEFD04FEE6310050EEFB05FF9E6
:105A3000EFB09FF9130804009307800013070001DB
:105A40009306000F130600069305007837154000F3
:105A5000EFD05FAFB7170000938747232324F100EF
:105A6000930780002322F100930700012320F10017
:105A70009308000F130800069307C0001307C00126
:105A80009306E00E1306C005930500783715400015
:105A9000EFD0DFB8372547001305058CEFB09FDD49
:105AA00093050500B7C7000093878761630EF4066E
:105AB000B7860000938686F1130604003785000040
:105AC000130505FBEFD00F9C03A6C18783A50187B3
:105AD00037850000130585F3EFD05F99032481011A
:105AE000832441018320C10113010102678000006A
:105AF0001306F0FF9305000037850000130585F3BA
:105B0000EFD0DF966FF01FFE1306F0FF9305000045
:105B100037850000130585F3EFD05F9503248101DD
:105B2000832441016FF01FFCB7860000938686F046
:105B30006FF09FF8130101FE232E110083A78181CE
:105B400063880718232C81001306F00F93050001CA
:105B500037050100130505D2EFB0DFE91304050096
:105B6000930505003785000013058500EFD08F9160
:105B700037080100130808D29307800013070001BB
:105B8000930600001306000093050002376510001D
:105B9000EFB0DFD037180000130848239307C00088
:105BA0001307C0019306800F1306C0059305007804
:105BB00037154000EFB09FCE130800019307800017
:105BC000130700019306A00F130600069305007843
:105BD00037154000EFB09FCCEFB09FD81308F00FFF
:105BE0009307800013070001930600781306000254
:105BF000B76547009385053C37651000EFC09F9659
:105C0000B785000093858505EFD00FD0631E050C86
:105C1000EFB01FDBEFB05FDB1308040093078000D9
:105C2000130700019306A00F1306000693050078E2
:105C300037154000EFD01F91B71700009387472317
:105C40002324F100930780002322F1009307000131
:105C50002320F1009308A00F130800069307C0004B
:105C60001307C0019306800F1306C0059305007843
:105C700037154000EFD09F9A376547001305053C64
:105C8000EFB05FBF93050500B7070100938707D208
:105C9000630AF406B7860000938686F113060400B3
:105CA0003785000013058506EFC0DFFD03A6C18719
:105CB00083A50187378500001305C5FEEFD00FFBD4
:105CC000032481018320C1011301010267800000C8
:105CD0001306F0FF93050000378500001305C5FE8D
:105CE000EFD0CFF86FF01FFE1306F0FF9305000012
:105CF000378500001305C5FEEFD04FF7032481015F
:105D00006FF05FFCB7860000938686F06FF01FF996
:105D1000130101FE232E110083A78181638E0716D4
:105D2000378500001305C50CEFC0DFF5370801000B
:105D30001308F8FF93078000130700019306000083
:105D4000130600009305000237651000EFB01FB581
:105D500037180000130848239307C0001307C00139
:105D6000930620101306C0059305007837154000F0
:105D7000EFB0DFB2130800009307800013070001A3
:105D8000930640101306000693050078371540006F
:105D9000EFB0DFB0EFB0DFBC13080008930780005E
:105DA000130700019306007813060002B7B54700F9
:105DB000938505EC37651000EFC0CFFAB78500007A
:105DC00093858512EFD04FB46314050E232C810008
:105DD000EFB01FBFEFB05FBF378800001308F8BEF9
:105DE0009307800013070001930640101306000676
:105DF0009305007837154000EFD0CFF4B7170000B7
:105E0000938747232324F100930780002322F10086
:105E1000930700012320F1009308401013080006A7
:105E20009307C0001307C001930620101306C00596
:105E30009305007837154000EFD04FFE37B5470087
:105E4000130505ECEFB01FA31304050013060008AB
:105E500093050000370501001305F5FFEFB09FB96A
:105E6000130605009305040037850000130585130C
:105E7000EFC05FE103A6C18783A5018737850000D6
:105E80001305450AEFD08FDE032481018320C10171
:105E900013010102678000001306F0FF9305000064
:105EA000378500001305450AEFD04FDC6FF01FFE69
:105EB0001306F0FF93050000378500001305450A1F
:105EC000EFD0CFDA6FF09FFC130101FA232E1104FB
:105ED00083A7818163820702232C8104232A9104F2
:105EE000232821053785000013054519EFC09FD9E8
:105EF000130400006F00C0031306F0FF93050000B9
:105F00003785000013050517EFD04FD66F00003E10
:105F100037850000130505503305A400B7050100BF
:105F2000938505D213155500EFB05F941304140048
:105F300093075000E3DE87FC37180000130848235E
:105F400093078000130780009306700C130600006F
:105F50009305007837154000EFB05F9413040000FC
:105F60006F0080021307840C93174700B387E74044
:105F70009397770093050001371540003385A700FC
:105F8000EFB0DF8E1304140093075000E3DC87FCAE
:105F9000EFB01F9D1304000093040000930750000E
:105FA00063C0870C37850000130505503305A40036
:105FB0009307840C93954700B385F540939575003E
:105FC000B79700001317240093874760B387E70053
:105FD00003A9070013080900930710001307100016
:105FE0009306007813060002B7184000B385150128
:105FF00013155500EFC00FD7B78500009385451ED8
:10600000EFD08F90631C050283A70187B384F4004F
:10601000130609009305000137050100130505D299
:10602000EFB05F9D9317240093870703B387270082
:1060300023A4A7FE130414006FF05FF61306F0FF0D
:10604000938504003785000013050517EFD00FC2B4
:106050000324810583244105032901056F000029DC
:1060600023263105232441052322510523206105E0
:10607000232E7103EFB0DF94EFB01F9513040000DF
:106080006F0040051309840C93174900B38727411B
:1060900093977700371540003385A700EFB08FFD49
:1060A0001306050093162400938706033387270001
:1060B0002328A7FCB797000093874760B387D700D2
:1060C000832687FE9305090003A50700EFD00FC2C2
:1060D0001304140093075000E3D687FA3718000022
:1060E0001308482393078000130770009306700C71
:1060F000130610009305007837154000EFD08FC4C9
:1061000037180000130848239307100013071000E6
:106110009306700C130600009305007837154000B5
:10612000EFD04FC237180000130848239307100020
:10613000130710009306E00C130600009305007887
:1061400037154000EFD00FC01309100013041000E2
:106150006F008000130414009307500063C0870889
:106160009317240093870703B387270083A907FDAC
:1061700013850900EFB0DF97930A05009307F4FF3A
:106180009397270093870703B387270003AA07FD88
:1061900013050A00EFB0DF9563F4AA0013090000AD
:1061A00013850900EFB09F95930A050013050A00B7
:1061B000EFB0DF9463F4AA0013090000138509000F
:1061C000EFB09F949309050013050A00EFB0DF9329
:1061D000E37235F9130900006FF0DFF7378500002F
:1061E0001305451FEFC01FAA130400006F008003B2
:1061F000B79700001317240093874760B387E70021
:106200001307070333072700832607FD032687FEAE
:1062100083A50700378500001305C51FEFC09FA6A3
:106220001304140093075000E3D487FC032B0100F0
:1062300013050B00EFB0DF8B13040500832B410126
:1062400013850B00EFB0DF8A9309050013050B00DF
:10625000EFB0DF8A130A050013850B00EFB01F8A29
:10626000930A050013050B00EFB01F8A130B0500FE
:1062700013850B00EFB05F8913080500630E090654
:10628000B77800009388C85093070B0013870A0063
:1062900093060A0013860900930504003785000061
:1062A00013058521EFC01F9E6318090083A7C187CE
:1062B0009387170023AEF18603A6C1879385040058
:1062C0003785000013050517EFD04F9A0324810589
:1062D00083244105032901058329C104032A81047C
:1062E000832A4104032B0104832BC1038320C105AE
:1062F0001301010667800000B778000093884850BA
:106300006FF09FF8130101FF23261100378500006D
:1063100013058526EFC01F97EFD01F81EFD0DF93C5
:10632000EFD05FA6EFD0DFC8378500001305C52981
:10633000EFC05F95EFD09FE9EFE08F84EFE0CF9F54
:10634000EFE00FBAEFE08FD5378500001305052D7C
:10635000EFC05F93EFE01FA5EFE09FCFEFE05FF0AE
:10636000EFF08FAE3785000013054530EFC09F91E9
:10637000EFF08FDDEFF00FFCEFF09F99EFF0DFB45F
:106380008320C1001301010167800000130101FE99
:10639000232E1100232C8100232A91002328210180
:1063A000232631012324410123225101930A0000B5
:1063B0006F00400B9307300063DE97049307B00033
:1063C00063CA9704930500006F00C000B705010081
:1063D0009385F58113955400330585001315150039
:1063E00033053501EFB08FC813041400635224073E
:1063F000E30E04FC638C04029307F9FF638E8702AB
:106400009307FAFF638097049307C4FF1307700094
:10641000E372F7FAB797000013971A009387C769DA
:10642000B387E70083D507006FF0DFFAB7050100F7
:106430009385F5816FF01FFAB70501009385F5810B
:106440006FF05FF9B70501009385F5816FF09FF854
:106450009384140063D64401130400006FF01FF905
:10646000938A1A009307700063CC570393892A22FA
:106470009399B900B797000013971A009387C76BD9
:10648000B387E70003D90700B79700009387C76A6F
:10649000B387E70003DA0700930400006FF09FFB67
:1064A000EFB00FCCEFB0CFD1930900009304000000
:1064B0006F008000938414009307700063CE9708E8
:1064C000138924221319B900B797000013971400F9
:1064D0009387C76BB387E70003DA0700B79700001D
:1064E0009387C76AB387E70003D407001305090041
:1064F000EFB04FB8B70701009387F7816304F50049
:10650000938919001305F4FF131555003305450150
:106510001305F5FF1315150033052501EFB08FB5F1
:10652000B70701009387F7816304F5009389190089
:1065300013058931EFB00FB4B7970000139714001B
:106540009387C769B387E70083D70700E304F5F6AD
:10655000938919006FF01FF66380090637770000F2
:10656000130747509306000437161100B7050100C2
:106570009385F581378500001305C533EFC08FF093
:106580006388090083A701889387170023A0F188F7
:10659000138509008320C101032481018324410163
:1065A000032901018329C100032A8100832A4100B4
:1065B0001301010267800000377700001307C750FE
:1065C0006FF05FFA130101FF2326110023248100DD
:1065D0002322910023202101930405001389050043
:1065E000EFC00FE713040500938504003785000012
:1065F0001305853AEFC00FE96F00400137850000B1
:106600001305C53AEFC00FE8138404009304140087
:10661000E34624FF8320C10003248100832441003A
:10662000032901001301010167800000130101FE2D
:10663000232E1100232C8100232A910023282101DD
:106640002326310123244101938405001309060008
:10665000638805009307803E3305F502B354B50205
:10666000130AA000B3D9440313850900EFC04FDE1D
:106670001304350033F64403938509003785000081
:106680001305053BEFC00FE06F00400137850000A8
:106690001305C53AEFC00FDF138404009304140000
:1066A000E34624FF8320C1010324810183244101A7
:1066B000032901018329C100032A8100130101027A
:1066C00067800000130101EA232E1114232C81148A
:1066D000232A91142328211523263115232441151B
:1066E0002322511523206115232E7113B7E6F505DA
:1066F00093860610377619001306A6E69305C003A5
:10670000378500001305C540EFC0CFD72322010015
:10671000930710002320F1009308000037180000B1
:1067200013080880930780001307100093060003E6
:106730001306000A9305000037850000130545463F
:10674000EFC04FD4B78500009385C54F3785000053
:1067500013050552EFC00FD3B78500009385C553CD
:106760003785000013054557EFC0CFD137850000AE
:106770001305055DEFC00FD1378500001305456A8D
:10678000EFC04FD03785000013050575EFC08FCFE0
:10679000EFF0DFBF93040000130400006F0000015E
:1067A000EFB00F9FB384A40013041400930790006C
:1067B000E3D887FE930610001306A00033D6C40268
:1067C000B715000093850580378500001305C57E49
:1067D000EFC04FCB130AF0FF930A0000130B000029
:1067E00093040000130900006F000007B788000041
:1067F0009388883B3795000013058587EFC08FC8C5
:1068000093971400B38797009397470093870713D4
:10681000B387270083A7C7F0639A072093971400D4
:10682000B38797009397470093870713B387270091
:1068300083A7C7EF1307B0036376F700138A04003A
:10684000138B0900130760036376F71E1309190001
:10685000938A090093840B009307500063CA271999
:10686000B7970000131729009387C75EB387E70027
:1068700083A9070083A781816386071A13941400F4
:106880003306940013164600930701013386C700B0
:106890009305C00313850900EFC01F92938B14006A
:1068A0003304940013144400930704133384270023
:1068B000832744F063920704832504EE032644EE05
:1068C000832684EE032784F0832704EF0328C4EF94
:1068D0000325C4F0E31C05F01305B003637805013C
:1068E000B78800009388483C6FF0DFF0B77800006D
:1068F000938848506FF01FF093971400B387970068
:106900009397470093870713B387270083A787F0E0
:10691000638A070613951400330595001315450087
:106920001307051333052700832505EE032645EEDF
:10693000832685EE0327C5EE032805EF8328C5EFE0
:106940000325C5F0631C05001305B003637615032A
:10695000378500001305453C6F00C00037850000F7
:106960001305853B2320A100379500001305058FF3
:10697000EFC04FB16FF0DFE83775000013054550E9
:106980006FF05FFE13951400330595001315450055
:106990009307051333852700832505EE032645EE6F
:1069A000832685EE0327C5EE832705EF0328C5EF71
:1069B0000325C5F0631C05001305B00363740503CC
:1069C000B78800009388483C6F00C000B78800007B
:1069D0009388883B3795000013058595EFC08FAAF3
:1069E0006FF01FE2B7780000938848506FF09FFE69
:1069F000930900009305C003379500001305C59A5D
:106A0000EFC04FA837950000130505A1EFC08FA771
:106A1000379500001305C5A6EFC0CFA613090000E7
:106A20006F00000C938907006FF0DFFC93840B006C
:106A30006FF05FFC93840B006FF0DFFB9305F003B6
:106A400037950000130505B2EFC0CFA3131419004A
:106A500033042401131444009307041333842700E0
:106A600093059000032504EFEFF0DFB59305900048
:106A7000032544EFEFF01FB5930570000325C4EF25
:106A8000EFF05FB49305D000032504F0EFF09FB35F
:106A900013068000832504EF032584EFEFF01FB970
:106AA0008327C4F0639207020327C4EF9307B00360
:106AB00063FEE708B78500009385453C6F00400101
:106AC000930500026FF0DFF7B78500009385853BE3
:106AD0003785000013054553EFC0CF9A13091900FD
