:1010000097210000938101AC23A00182732540F158
:10101000630E050203A50182E30E05FE0F00200208
:101020000F10000083A7C181130500009305000085
:10103000130600006780070023AEA1800F00100197
:101040001305100023A0A182678000001721000073
:101050001301412A17150000130505EB9715000031
:10106000938585EA171600001306862763FCC500E2
:101070008322050023A055001305450093854500F4
:10108000E3E8C5FE17150000130585259715000038
:101090009385C5256378B500232005001305450019
:1010A000E36CB5FEEF000001EF00000A6F000000E6
:0410B0006780000055
:1010B400130101FF2324810023202101971700003D
:1010C400938747E4171400001304C4E32326110094
:1010D4002322910033898740638087021359294072
:1010E4009304000083270400938414001304440031
:1010F400E7800700E3E824FF97170000938787E061
:1011040017140000130404E033898740135929405D
:10111400638E8700930400008327040093841400E3
:1011240013044400E7800700E3E824FF8320C100A0
:1011340003248100832441000329010013010101D8
:1011440067800000130101F9232611062324810678
:101154002322910623202107232E3105232C410528
:10116400232A51052328610523267105232481059B
:10117400232291052320A105232EB1033725000046
:10118400130505FAEF00D04437D80F0013080820E0
:10119400930700781307C0219306003C37164000DC
:1011A400B715300037250000130545FEEF00504207
:1011B40023260102EF008073130405009307000047
:1011C4006F0040010327C1023307F7002326E10221
:1011D40093871700375700001307F7E1E374F7FE0E
:1011E400EF00C070B307854013870700232EF1007A
:1011F4009307803E63F6E704B7260000938686F7DC
:101204000326C101B705B0F8372500001305850191
:10121400EF00103CEF009033630A0502B72500008D
:10122400938505F93725000013058505EF00503A2D
:10123400EF00C06B13040500930700006F008003E8
:10124400B72600009386C6F76FF09FFBB725000012
:10125400938585F96FF01FFD93962700371740009B
:101264003307D700B7063412B386D7002320D7003C
:101274009387170037170000E3E0E7FEEF000067ED
:10128400B305854013D4C5001306040037250000B8
:1012940013054507EF00D033131684003306860088
:1012A40013166600630A0600B7E7F505938707106F
:1012B400B3D6C7026F00800093060000B745000054
:1012C40093850504372500001305050BEF00503006
:1012D400EF00C06113040500EF00D011EF000061BE
:1012E40033068540B7F5030093850548B356B60227
:1012F400372500001305050FEF00902DEF00005F68
:1013040013040500EF00D017EF005021EF00005E3A
:10131400B30585403725000013058512EF00502BD7
:101324003725000013058516EF00902A13040000EA
:101334009307200063EA870A370701001307F78140
:10134400930680071306000A9305000F130500197E
:10135400EF00805BEF00901C13041400930404005E
:1013640093050400372500001305051AEF005026E5
:101374009307803E0327C10163EAE70493068007CD
:101384001306000A9305000F13050019EF00806F80
:10139400EF00D01893850400372500001305051BC2
:1013A400EF0010239307803E0327C101E3F2E7F81F
:1013B4003706B0F8B7E5F5059385051037950400B1
:1013C4001305053EEF00402C6FF09FF63706B0F88A
:1013D400B7E5F5059385051037A507001305051234
:1013E400EF00802A6FF09FF9372500001305451C94
:1013F400EF00101EEF00804F232CA100930A000081
:10140400930D80FF130D40FF9309801D1309C0370E
:10141400930CC000130C000193048000130480009B
:101424006F004005930700002320F10093880B0010
:1014340013080B009387090013070900938604001F
:1014440013060400372500001305051EEF0050188D
:101454009307803E0327C10163F4E718130B0000D0
:10146400EF00C04833054541B7771900938797E6E5
:1014740063FEA714EF008047130A05009306A00536
:10148400130680079385040013050400EF00805FB2
:101494009306C0031306C0039385090013050900CE
:1014A400EF00405E33048401B38494019307700019
:1014B40063C68700330C80411304800093077000D7
:1014C40063C69700B30C90419304800093070034E3
:1014D40063D68700330C8041130400349307A01BA8
:1014E40063D69700B30C90419304A01B3309A90160
:1014F400B389B9019307700063C62701330DA04176
:10150400130980009307700063C63701B30DB0411F
:10151400930980009307C03763D62701330DA04198
:101524001309C0379307801D63D63701B30DB0414B
:101534009309801D13F77A00B727000013171700CB
:101544009387072BB387E70003D707009306A0050B
:10155400130680079385040013050400EF00C03AC6
:10156400370701001307F7FF9306C0031306C003F0
:101574009385090013050900EF000039EF00007A94
:10158400EF00C036330B4541938A1A0093073000AD
:1015940063F857019307C003B3F7FA02E39A07EA23
:1015A400EF00C03483278101B30BF540EF00003412
:1015B400232CA10093850A00E3860BE6B7E7F50523
:1015C40093870710B3D777036FF01FE6130B1B0045
:1015D400B7676202938707A0E3F467E96FF09FE9B6
:1015E40023260102130700006F0040018327C10274
:1015F400B387E7002326F10213071700B7C70200D9
:101604009387F7F1E3F4E7FE6FF0DFE60325450087
:10161400135505011375F50F67800000130101FFD1
:1016240023261100232481002322910013040500A2
:101634009384050013050400EFF05FFDE30C05FE41
:10164400232094008320C1000324810083244100CB
:10165400130101016780000093060500B7C700006D
:101664009387C7FFB387F60083A5070037C7000039
:10167400130787FF3387E6000325070083A70700C6
:10168400E39EB7FC67800000B7470F0093870724E9
:10169400B3D5F502B7C70000938787FF3306F6007A
:1016A40083270600B385A5023387F5008327060048
:1016B400B307F740E3DC07FE67800000130101FF76
:1016C4002326110093050500370501F8EFF01FF5F7
:1016D4008320C1001301010167800000130101FF91
:1016E4002326110023248100130405006F00C00089
:1016F40013041400EFF09FFC03450400E31A05FEF5
:101704008320C100032481001301010167800000CC
:10171400130101FF232611002324810023229100B9
:10172400930405001304C0016F00400233D7840002
:101734001377F700B7270000938747F0B387E700D4
:1017440003C50700EFF09FF71304C4FFE35004FE42
:101754008320C1000324810083244100130101017B
:1017640067800000130101FF232611002324810058
:1017740023229100930405001304C0016F0040026A
:1017840033D784001377F700B7270000938787F1D6
:10179400B387E70003C50700EFF05FF21304C4FF4B
:1017A400E35004FE8320C10003248100832441000C
:1017B4001301010167800000130101FF23261100BA
:1017C4001375F50FEFF09FEF8320C10013010101A2
:1017D40067800000130101FF23261100EFF01FF0C2
:1017E4008320C1001301010167800000130101FD82
:1017F400232611022324810223229102930405004B
:1018040063460500130401006F00C0021305D002F3
:10181400EFF09FFAB30490406FF0DFFE1307A000CF
:10182400B3E7E402938707032300F400B3C4E4029C
:1018340013041400E39404FE93070100E300F4FE90
:1018440093070100630AF4001304F4FF0345040042
:10185400EFF09FF66FF0DFFE8320C10203248102C4
:10186400832441021301010367800000130101FF77
:1018740023261100130700009307700063C0E702DA
:1018840093162700930700FFB397D700B377F500AB
:1018940063860700130717006FF01FFEEFF09FEC3D
:1018A4008320C1001301010167800000130101FFBF
:1018B40023261100130700009307700063C0E7029A
:1018C40093162700930700FFB397D700B377F5006B
:1018D40063860700130717006FF01FFEEFF05FE346
:1018E4008320C1001301010167800000130101FF7F
:1018F400232611003705B0F8EFF01FD68320C1006E
:101904001301010167800000931E0701B38EEE00EE
:101914006354C00E6352D00E6340050463C40504CF
:10192400B307C5001308003C6356F8001306003CD7
:101934003306A640B387D5001308C0216356F800C8
:101944009306C021B386B6406358C00A6356D00AD2
:10195400130F00006F00C0063306A6001305000035
:101964006FF0DFFBB386B600930500006FF05FFBFA
:10197400B308F3009398280037183000330818018F
:101984002320D80193871700E3C4C7FF9377160079
:101994006386070293974F00B387F74193976700D5
:1019A400B307F500B307F600939717003718300014
:1019B4001308E8FFB38707012390E700130F1F0004
:1019C400635CDF02B38FE5019357F501B387A7008A
:1019D40093D7174013934F003303F341131353006A
:1019E4003303F300135EF601330ECE00135E1E4084
:1019F400930700006FF05FF967800000930705000C
:101A040013870500930540336354B5001305403331
:101A140093050700130800016354070193050001AF
:101A2400B387C7001306403A6354F6009307403A5D
:101A34009387F7FF3307D7009306000663D4E600C5
:101A4400130700061307F7FF63C4A7006354B70026
:101A540067800000130101FF23261100B387A7400C
:101A6400B306B740370701001307078093861600B3
:101A740013861700EFF05FE98320C1001301010111
:101A8400678000006356C0166354D016634605048D
:101A940063CA0504B307C5001307003C6356F70087
:101AA4001306003C3306A640B387D5001307C021B4
:101AB4006356F7009306C021B386B640635AC0123A
:101AC4006358D012130101FF23261100232481003F
:101AD400930F00006F0040023306A60013050000B8
:101AE4006FF01FFBB386B600930500006FF09FFAFA
:101AF40063DEE203938F1F009307700063C0F70F48
:101B040093974F00B387F7419397370093827707F2
:101B1400130F05006354F500138F0700B307C500C6
:101B2400E3C8F2FC9382F7FF6FF09FFCB727000035
:101B340013971F009387072CB387E70083D0070010
:101B4400139E0001330E1E00B383E24193831300FE
:101B540013D3F3013303730013531340938E05001F
:101B64006F00C0043388F8001318280037173000BA
:101B7400330707012320C70193871700E3C467FED7
:101B840093F713006382070293174400B3878740D7
:101B940093976700B387F2009397170037173000C5
:101BA400B307F70023901700938E1E00B387D50068
:101BB400E3D2FEF413840E009357FF01B387E701C9
:101BC40093D7174093984E00B388D8419398580000
:101BD400B388F800930700006FF05FFAEFF01FE29C
:101BE4008320C100032481001301010167800000E8
:101BF40067800000130800006F008006131746007A
:101C04003307C74093172700B387D700939727005C
:101C1400B307F50037173000B307F70023A0B70068
:101C2400938616009307B003E3DAD7FC1306160075
:101C34009307700063C4C702B72700001317160088
:101C44009387072CB387E70083D707009395070191
:101C5400B385F500930600006FF0DFFC130818004D
:101C64009307B02163CC070193174800B38707415A
:101C740013957700130600006FF09FFB6780000048
:101C8400130101FF232611002324810037040100DE
:101C94001307F4FF930680001306003C930500002D
:101CA40013050000EFF05FC61307F4FF93068000EE
:101CB4001306003C9305402113050000EFF0DFC438
:101CC4001307F4FF9306C021130680009305000058
:101CD40013050000EFF05FC31307F4FF9306C02160
:101CE40013068000930500001305803BEFF0DFC16D
:101CF4003707010013070780930600051306000742
:101D04009305000113054033EFF01FC08320C10089
:101D14000324810013010101678000009307000080
:101D24006F00000293962700371750003307D7003F
:101D3400B706A5A5B386D7002320D700938717003D
:101D44001307F07FE370F7FE67800000130101FFC3
:101D540023261100930700006F00000293962700CA
:101D6400371740003307D700B7065A5AB386D7004F
:101D74002320D700938717001307F00FE370F7FEB3
:101D8400EFF0DFF90F500000930700001307F00F86
:101D94006364F70293962700371740003307D70090
:101DA4008326070037075A5A3387E700639AE60009
:101DB400938717006FF09FFD130510006F008000DC
:101DC400130500008320C100130101016780000096
:101DD400130101FC232E1100232C8100232A9100DE
:101DE400930405002322B1022324C1022326D10235
:101DF4002328E102232AF102232C0103232E1103B9
:101E0400930741022326F100130400006F00C00170
:101E14008327C100138747002326E10003A5070099
:101E2400EFF09F9913041400B387840003C50700DF
:101E3400630E050A93075002630EF506EFF0DF9771
:101E44006FF05FFE8327C100138747002326E1005C
:101E540003A50700EFF01F986FF0DFFC8327C10094
:101E6400138747002326E10003A50700EFF01F981E
:101E74006FF05FFB8327C100138747002326E1002F
:101E840003A50700EFF09FA26FF0DFF98327C100DD
:101E9400138747002326E10003A50700EFF01F9DE9
:101EA4006FF05FF8372500001305C5F2EFF09F923D
:101EB4006FF05FF713041400B387840083C707002F
:101EC400E38207F6938787FA93F6F70F1307000266
:101ED400E362D7FE93972600372700001307C72233
:101EE400B387E70083A70700678007008320C10149
:101EF400032481018324410113010104678000004C
:101F0400303132333435363738394142434445462B
:101F140000000000303132333435363738396162ED
:101F240063646566000000003C466C6F6174696E12
:101F34006720706F696E74207072696E74696E6761
:101F4400206E6F7420656E61626C652E20506C6526
:101F540061736520456E61626C65206974206174EB
:101F6400206273702E682066697273742E2E2E3E62
:101F7400000000004F4B0000424144287573652067
:101F840064656C6179206C6F6F7029005041535304
:101F9400000000004641494C000000000D0A2A2AB6
:101FA4002A20324452413A204350552077726974B2
:101FB400657320444452206672616D65627566667D
:101FC4006572202D3E2048444D49207363616E6F35
:101FD40075742028763429202A2A2A0D0A00000044
:101FE4004642303D30782578204642313D307825D0
:101FF400782025647825642052474235363520738D
:1020040074726964653D25642062797465733D2545
:10201400640D0A0073746570312074696D656261C2
:1020240073653A20434C494E544030782578206DEE
:1020340074696D652C2032303030302D6C6F6F70C8
:10204400203D202564207469636B73202D3E202578
:10205400730D0A00737465703220636F686572656E
:102064006E637920636865636B3A2025730D0A00FB
:1020740073746570332077726974652070726F624F
:10208400653A203430393620776F72647320696E74
:10209400202564207469636B73203D2025642074BB
:1020A40069636B732F776F72640D0A0073746570C4
:1020B40033206275646765743A20256420776F72F3
:1020C40064732F6672616D65202D3E2065737420E4
:1020D4002564207469636B732F6672616D652028B3
:1020E4007E256420667073290D0A00007374657080
:1020F4003420626172733A20256420776F726473AE
:1021040020696E202564207469636B73202825641C
:10211400207469636B732F776F726420617667290B
:102124000D0A00007374657034206D61726B732B3B
:10213400666C75736820646F6E6520696E20256413
:10214400207469636B733B207374617469632070DA
:1021540061747465726E206F6E2073637265656E50
:102164000D0A0000737465703520626C696E6B2013
:10217400746573743A2077617463682074686520A9
:1021840073637265656E20666F72203320626C69BA
:102194006E6B732E2E2E0D0A000000002020626C40
:1021A400696E6B202564204F4E0D0A002020626C5E
:1021B400696E6B202564204F46460D0A000000001E
:1021C400737465703620656E746572696E67206D10
:1021D40061696E206C6F6F700D0A00006672616D2C
:1021E400653D256420626F783D2825642C2564298B
:1021F40020736D616C6C3D2825642C256429206452
:102204007261773D25642063796320706572696F1C
:10221400643D25642063796320287E2564206670EC
:1022240073290D0A00000000781E0000B81E00008B
:10223400B81E0000B81E0000B81E0000B81E000042
:10224400B81E0000B81E0000B81E0000B81E000032
:10225400B81E0000141E0000601E0000B81E00001E
:10226400A81E0000B81E0000B81E0000B81E000022
:10227400B81E0000B81E0000B81E0000B81E000002
:10228400B81E0000B81E0000B81E0000B81E0000F2
:10229400B81E0000481E0000B81E0000B81E000052
:1022A400B81E0000B81E0000901E000000F8E007F1
:1022B4001F00E0FFFF071FF820FDFFFFFFFFE0FF07
:1022C400FF07E0071FF800F81F00000000000000EF
:0622D40000000000000004
:0400000300001000E9
:00000001FF
