:1010000097310000938101EB177100001301818D6E
:10101000172500001305C505972500009385450594
:10102000172600001306C66B63FCC500832205006B
:1010300023A055001305450093854500E3E8C5FE50
:10104000172500001305C5699765000093858589FC
:101050006378B5002320050013054500E36CB5FE59
:10106000EF000001EF00000A6F0000006780000041
:10107000130101FF23248100232021019727000071
:10108000938707FF17240000130484FE2326110012
:1010900023229100338987406380870213592940B6
:1010A0009304000083270400938414001304440075
:1010B000E7800700E3E824FF97270000938747FBBA
:1010C000172400001304C4FA3389874013592940B8
:1010D000638E870093040000832704009384140028
:1010E00013044400E7800700E3E824FF8320C100E5
:1010F000032481008324410003290100130101011D
:1011000067800000130101F72326110823248108BA
:101110002322910823202109232E3107232C410764
:10112000232A5107232861072326710723248107D7
:10113000232291072320A107232EB1052328010292
:10114000232A0102EF00505937350000130585109E
:10115000EF10D013130890019307001913079001A3
:10116000B716500037164000B7153000373500006D
:101170001305C514EF1090113735000013054517FE
:10118000EF10D010373500001305C51AEF101010FE
:10119000373500001305C51DEF10500FEF00D0725A
:1011A000930780001307C0219306003C130600003C
:1011B0009305000037154000EF10000793078000EB
:1011C0001307C0219306003C13060000930500009E
:1011D00037155000EF104005EF005057EF00106931
:1011E00013040500EF00D066930405001305000208
:1011F000EF00D05413090500EF10405B9309050080
:10120000EF10805B130A0500EF10804E13080500F5
:1012100093070A0013870900930609001386040048
:1012200093050400373500001305C521EF101006A3
:10123000B7070100938707801307200093068000FB
:101240001306C0129305100237154000EF00D07D41
:101250009307007E13072000930690001306E01208
:101260009305000237154000EF00107CB7E74800F7
:1012700083D527A4B7E7480003D607A5B7F74800EA
:1012800083D60794B7F7480003D707953735000092
:101290001305C525EF10807FB755341293858567F8
:1012A00013059001EF10401A2320010423220104AA
:1012B0009307003C2324F1049307C0212326F10463
:1012C000130400006F00C001373500001305056EE0
:1012D0001306010493059001EF1000341304140069
:1012E0009307700063CC870093771400E38E07FCAC
:1012F00037550000130505FE6FF09FFD1304000035
:101300006F00000493070000130700019306003CE0
:10131000130600009305000037154000EF00D07061
:1013200093070000130700009306000013069001C6
:101330009305000037154000EF10406313041400BC
:1013400093072000E3D087FC130400006F00000126
:10135000EF10003AEF100048130414009307F00355
:10136000E3D887FE23200100930800001308000043
:101370009307000013070000930600001306000007
:10138000930500003735000013054529EF10007064
:10139000EF00103813040500EF00104F631C050028
:1013A000EF00103733058540B7877D019387F783BA
:1013B000E3F4A7FE373500001305852BEF10006D11
:1013C000232C0102232E0102EF10803223AAA180D8
:1013D00023A8A180EF00D033130C05002326A1021F
:1013E0009307000013070000930600001306900106
:1013F0009305000037154000EF1040579307000099
:1014000013070000930600001306900193050000E7
:1014100037155000EF108055EF005033B7153000EE
:1014200037154000EF00904E93073000232CF10257
:10143000232A010023200102232401022328010082
:10144000930400001304000023220102232E010054
:10145000130A0000130B0000930C0000930AF0FF26
:10146000930D00009309000013099001930B0000F5
:101470006F00803A930780001307800093060008EE
:10148000130620019305000037154000EF00D059E6
:1014900093D5C90093F51500B7070100938707801E
:1014A000130780009306000413062001939565003E
:1014B00037154000EF0050576F00C03793CB1B002B
:1014C000232AF1022328F10293850B00373500000F
:1014D0001305852CEF10805B2320A1032328010036
:1014E00093040000130400006F00403513099901B4
:1014F0009307001963D4270113099001B7553412DB
:101500009385856713050900EF0010749307100099
:10151000232AF1022328F1022320F10223280100CB
:101520009304000013040000130B00006F008031CF
:10153000130979FE9307800163C427011309001979
:10154000B75534129385856713050900EF00D06FF6
:1015500093071000232AF1022328F1022320F1022D
:10156000232801009304000013040000130B000063
:101570006F00C02DB7553412938585671305090098
:10158000EF00906C93071000232AF1022328F10248
:101590002320F1022328010093040000130400001B
:1015A000130B00006F00002BEF00102E6306052ABE
:1015B000939C2C0093870C0313070102B38CE70064
:1015C00023A40CFE8327C10193871700232EF1006B
:1015D000930CF0FF6F004028832781036398070274
:1015E00093071000232CF102938A0B0093972A0093
:1015F0009387070313070102B387E70083A707FE5A
:1016000063920702138B0B006F0080258327C103B1
:101610006392071093071000232EF102930A100023
:101620006FF0DFFC93972A0013858181138B0700ED
:101630003305F500930780001307C0209306003C94
:10164000130600019305000003250500EF00D03DBF
:10165000B30750413727000013070790B3F7E7009F
:1016600093050900373500001305056E3305F500B5
:10167000EF00D07793070B0313070102338BE700CA
:1016800023200BFE6FF01FF893972A0013858181AA
:101690003305F5003736000093070019B387FA02C7
:1016A000B3876701939747001306066E3306F6006B
:1016B0008346E60093078000138706000316660042
:1016C00003250500EF00503693972A00138581818A
:1016D0003305F500B735000093070019B387FA0208
:1016E000B3876701939747009385056EB385F5002F
:1016F00083C6E50083D7C50013870600039625003F
:101700008395050003250500EF001032130B1B0025
:1017100063522B1B63C60C1EEF00807F330585418F
:10172000B7C7C9019387F73763F8A70EEF00407E6C
:10173000B3078541232CF100B38DB941EF00407D03
:10174000130C05000327410113071700232AE100AA
:1017500037EDF505130D0D10B335AA0303268101EE
:10176000930600003305AA03EF104045130A050055
:101770000327C101832641023305D700B335A503F2
:1017800003268101930600003305A503EF100043F3
:10179000130D050063980B3E032781039307300068
:1017A000631EF7380327C10393073000631AF73A23
:1017B000EF00100A232CA100EF00500B232EA100F4
:1017C000EF0010732322A1008327C1012320F10021
:1017D0008328810113080D0093070A0013070900ED
:1017E00093860B0013860D009385090037350000A2
:1017F0001305852EEF108029130AA00083274101CD
:1018000033FA470363060A3A938D09002322010243
:10181000232E0100130A000093891900EF00907E27
:10182000130D0500B71700009387F7FFB3F7F90012
:10183000E38207C493071000E302FDC8930720006A
:10184000E306FDCA93073000E304FDCE9307400092
:10185000E302FDD2E3DA0CD463940B10E3CE0AD694
:101860003737000093070019B387FA02B38767017F
:10187000939747001307076EB307F7008395470058
:1018800083970700E392F5E03737000093070019CC
:10189000B387FA02B3876701939747001307076E70
:1018A000B307F7000397670083972700E31EF7DC71
:1018B0006FF09FE137250000130505903385AA02DC
:1018C0001306010493050900B73700009387076EDC
:1018D0003385A700EF005054939A2A0093870A0398
:1018E00013070102B38AE7009307200023A4FAFE3E
:1018F000130A1A00138B0B00930AF0FF6FF09FE19D
:10190000EF00C07AE30A05E0032781039307200074
:101910006308F7020327C10393072000E31EF7DEE5
:10192000EF00C062B715300037155000EF00007EA1
:1019300093073000232EF102930C10006FF0DFDDCF
:10194000EF00C060B715300037154000EF00007C95
:1019500093073000232CF102938C0B006FF0DFDB38
:10196000832701016388071AEF000072E30605DA96
:1019700083274102938717002322F10213060104F3
:1019800093050900373500001305056EEF00D048B8
:10199000832701026392070283278102638007186D
:1019A000EF00C07013040500631805042328A1008C
:1019B000930405006FF05FD6EF00406FE30E05FC67
:1019C000130780009306C0211306003C930500789E
:1019D00037153000EF00007B930509003735000014
:1019E0001305056EEF009040832701022324F102C6
:1019F000232001026FF0DFFAB715300037154000E1
:101A0000EF008074232401022328010093040000C6
:101A1000130400006FF05FD0B737000013174400C5
:101A20009387076EB387E700039767001315470096
:101A30003305E540131565003305D5003717180049
:101A4000130707803305E50003C6E700130780008E
:101A5000930606009305007813151500EF008072B9
:101A60009304100093070D00138DF7FFE356F0CA9F
:101A7000EF00C063E30205CA63900404B7370000B7
:101A8000131744009387076EB387E70083964700D8
:101A900083970700E392F6F8B73700009387076E45
:101AA000B387E7000397670083972700E316F7F6ED
:101AB000930410006FF01FFBB737000013174400AA
:101AC0009387076EB387E700039727008396070085
:101AD000131547003305E540131565003305D500A0
:101AE00037171800130707803305E50003C6E70022
:101AF00003D7C70093060600930500781315150059
:101B0000EF0040681304140063522403832401018E
:101B10006FF05FF5930700026FF01FF50324810259
:101B200023288100930404006FF01FBF93870400F3
:101B3000832401012328F1006FF01FBE9307803E2C
:101B4000B3D7F9021307050093060A00130609002C
:101B500093850B0037154000EF0050616FF09FC474
:101B60009307803EB3D7F90213070D0093060A00CE
:101B70001306090093850B0037155000EF00105F26
:101B80006FF01FC39307803EB3D7F9021307050018
:101B900093060A001306090093850B0037154000D1
:101BA000EF00D05C930710002324F1026FF05FC0B8
:101BB00013050002EF008038130D0500935D050149
:101BC000EF0000358327C102B307F54013170D015D
:101BD0001357070193860D0013060D009385090026
:101BE0003735000013054532EF00506A23224103C8
:101BF000232E4101938D09006FF01FC2032545007C
:101C0000135505011375F50F67800000130101FFDF
:101C100023261100232481002322910013040500B0
:101C20009384050013050400EFF05FFDE30C05FE4F
:101C3000232094008320C1000324810083244100D9
:101C4000130101016780000083A7C5002324F5006C
:101C500083A705009387F7FF03A7450013178700A5
:101C6000B3E7E70003A7850013170701B3E7E70011
:101C70002326F5006780000093060500B7C7000023
:101C80009387C7FFB387F60083A5070037C7000017
:101C9000130787FF3387E6000325070083A70700A4
:101CA000E39EB7FC67800000130101FF23261100AB
:101CB00093050500370501F8EFF05FF58320C100BB
:101CC0001301010167800000130101FF23261100A9
:101CD00023248100130405006F00C00013041400C6
:101CE000EFF09FFC03450400E31A05FE8320C100CA
:101CF000032481001301010167800000130101FF2B
:101D0000232611002324810023229100930405003F
:101D10001304C0016F00400233D784001377F7002B
:101D2000B73700009387C706B387E70003C50700EE
:101D3000EFF09FF71304C4FFE35004FE8320C100BB
:101D40000324810083244100130101016780000006
:101D5000130101FF23261100232481002322910077
:101D6000930405001304C0016F00400233D78400C0
:101D70001377F700B737000093870708B387E700AA
:101D800003C50700EFF05FF21304C4FFE35004FE45
:101D90008320C10003248100832441001301010139
:101DA00067800000130101FF232611001375F50F52
:101DB000EFF09FEF8320C100130101016780000055
:101DC000130101FF23261100EFF01FF08320C10053
:101DD0001301010167800000130101FD2326110298
:101DE0002324810223229102930405006346050007
:101DF000130401006F00C0021305D002EFF09FFA38
:101E0000B30490406FF0DFFE1307A000B3E7E402D5
:101E1000938707032300F400B3C4E40213041400FF
:101E2000E39404FE93070100E300F4FE930701002E
:101E3000630AF4001304F4FF03450400EFF09FF677
:101E40006FF0DFFE8320C10203248102832441025C
:101E50001301010367800000130101FF2326110015
:101E6000130700009307700063C0E7029316270072
:101E7000930700FFB397D700B377F5006386070099
:101E8000130717006FF01FFEEFF09FEC8320C100D7
:101E90001301010167800000130101FF23261100D7
:101EA000130700009307700063C0E7029316270032
:101EB000930700FFB397D700B377F5006386070059
:101EC000130717006FF01FFEEFF05FE38320C100E0
:101ED0001301010167800000130101FE232E110090
:101EE000930780002320F100232201002324010016
:101EF0009307B0062326F10093050100370501F88A
:101F0000EFF09FD48320C10113010102678000001C
:101F1000130101FF232611003705B0F8EFF0DFD5DC
:101F20008320C1001301010167800000B70710F88A
:101F30003305F5002320B50067800000B70710F8CF
:101F40003305F500032505006780000093070000B6
:101F50006F00000293962700371760003307D70001
:101F6000B706A5A5B386D7002320D700938717000F
:101F70001307F07FE370F7FE67800000130101FE96
:101F8000232E1100232C8100232A910023282101D4
:101F90002326310123244101232251012320610101
:101FA000138B0500930A0600138A060093090700A5
:101FB00013840700930408001389080093050500A3
:101FC00013058000EFF09FF693050B0013058000CA
:101FD000EFF0DFF593850A0013058000EFF01FF5A1
:101FE00093050A0013058000EFF05FF49385090064
:101FF00013058000EFF09FF3939404011314040180
:1020000013540401B3E5840013058000EFF01FF2C0
:102010009305090013058000EFF05FF183250102AD
:1020200013058000EFF09FF08320C101032481019C
:1020300083244101032901018329C100032A81006E
:10204000832A4100032B0100130101026780000075
:10205000130101FF232611001305C000EFF01FEE4E
:102060008320C1001301010167800000130101FFFB
:102070002326110013054000EFF05FEC8320C10020
:102080001301010167800000130101FF23261100E5
:10209000EFF0DFFD1375E500130565FF133515003F
:1020A0008320C1001301010167800000130101FFBB
:1020B00023261100EFF0DFF91335850C8320C100D2
:1020C0001301010167800000130101FF23261100A5
:1020D0009305400013050000EFF05FE59305100045
:1020E00013050001EFF09FE4930500001305400184
:1020F000EFF0DFE39305100013050000EFF01FE39E
:102100008320C1001301010167800000130101FE5B
:10211000232E110013860500232001009308F00FE1
:102120001308C0219307003C13070078930600783A
:102130009305050013050000EFF05FE48320C10163
:102140001301010267800000130101FE232E11001C
:1021500013860500232001009308F00F13080001E7
:102160009307003C13070078930600789305050059
:1021700013050000EFF09FE08320C101130101026D
:1021800067800000130101FE232E11009307060053
:102190002320E1009308F00F138806001387050041
:1021A00093060000130605009305000013051000B8
:1021B000EFF0DFDC8320C101130101026780000022
:1021C0009307F5F993F7F70F130790016366F7008C
:1021D000130505FE1375F50F130700009307500252
:1021E00063CEE702B737000093163700B386E600E8
:1021F00093874746B387D70083C707006386A70046
:10220000130717006FF09FFDB7370000938747460D
:102210003385F60013051500678000003735000090
:102220001305554667800000939E0701B38EFE009C
:1022300093FF1500130F00006F008004138E06003B
:102240006F00000793182800B308130123A0D801DA
:102250001308180093581E40E34618FF13781E0019
:10226000630E0800370800801308F8FF330E0E01D4
:10227000131E1E003303C3012310F300130F1F00AE
:10228000635CEF023308CF001313480033030341AC
:10229000131363003303B300131313003303A300BA
:1022A000E38E0FF82310F300138EF6FF13032300C1
:1022B000130800006FF01FFA67800000130101FE91
:1022C000232E1100232C8100232A91002328210191
:1022D000232631012324410193090500938405003D
:1022E00013090600138A0600130407006F00C00FCD
:1022F00093060000131688011356864163400602B8
:1023000013060000B3E6C60023A0D70093760801A9
:10231000638A0600931604016F000001130604008F
:102320006FF05FFE93060000137608026306060056
:10233000130604006F00800013060000B3E6C60019
:1023400023A2D70093764800638606009316040103
:102350006F00800093060000137688006306060075
:10236000130604006F00800013060000B3E6C600E9
:1023700023A4D70093761800638606009316040101
:102380006F008000930600001378280063060800A1
:10239000130604006F00800013060000B3E6C600B9
:1023A00023A6D700130717009307700063CCE7023A
:1023B000B307E50003C80700B3062701939746005B
:1023C000B387D74093976700B38797009397170019
:1023D000B387370193760804E38C06F09316040163
:1023E0006FF05FF19384840003450A00630A0500DF
:1023F000130A1A00EFF0DFDC130700006FF0DFFABA
:102400008320C101032481018324410103290101A7
:102410008329C100032A81001301010267800000A3
:1024200083270500376719001307D760B387E702D2
:1024300037F76E3C1307F735B387E7002320F50025
:1024400013D5070167800000130101FD2326110247
:10245000232481022322910223202103232E3101F0
:10246000232C410193090500138A0500130900007C
:102470006F008014930680016F00800093060001B6
:10248000B7370000130700193307E9023307970035
:10249000131747009387076EB387E7002387D7009A
:1024A00093067000B376D4029386D6FF2394D700A8
:1024B000130750003377E5021307E7FF2395E70082
:1024C00063940602B736000093070019B307F902B8
:1024D000B3879700939747009386066EB387F600FD
:1024E000930610002394D7006314070237370000C7
:1024F00093070019B307F902B38797009397470032
:102500001307076EB307F700130710002395E700C2
:102510001307C0353377E4021377E73FB73700007E
:10252000930600193306D9023306960013164600A7
:102530009387076EB387C7002390E700B376D50271
:102540002391D7002392E7002393D70013578400E9
:102550001317B70013170701135707019356850088
:102560009396560093F6067E3367D7003304A40093
:102570001374F401336787002396E70093841400F3
:1025800063DA34031305C100EFF09FE9130405007B
:102590001305C100EFF0DFE893073000B3E7F40262
:1025A000E38E07EC13071000E386E7EC93060002C6
:1025B0006FF01FED130919009307100063C827017E
:1025C00023264101930400006FF09FFB8320C1028A
:1025D0000324810283244102032901028329C101CA
:1025E000032A810113010103678000001307000023
:1025F0006F00000293174700B307F50083960700AA
:102600002392D700839627002393D7001307170040
:10261000E342B7FE67800000032F06008323860095
:10262000B383E30183224600938F42018327C600D0
:10263000B382F200930800006F0080043303D701D7
:1026400063DC63003387D34113160601135606017A
:102650003306C0402394C700635AF80793960601D7
:1026600093D60601B306D0402395D70013880F00F8
:102670001377E7FF2390E700239107019388180061
:1026800063D6B80693974800B307F500039E07008A
:10269000039687003307CE00039327008396A70095
:1026A0003308D30083CEE7002392C701239367004A
:1026B000E356E7F913160601135606013306C04028
:1026C0002394C70013070F006FF01FF93306D801DA
:1026D000E3D0C2FA3388D2419396060193D606011D
:1026E000B306D0402395D7006FF09FF867800000B5
:1026F000B75701F803A50700137575006780000040
:10270000130101FF23261100EFF09FFE83A7018133
:10271000638EA70023A8A18023A6018213050000D1
:102720008320C100130101016780000083A7C182DB
:10273000130720006348F7049387170023A6F1824C
:10274000130730006386E700130500006FF05FFD9C
:1027500083A74181638CA7021347F5FFB3F7E70016
:1027600023AAA18013F717006316070213F72700A7
:102770006316070293F747006396070213050000EC
:102780006FF01FFA130500006FF09FF913050000AA
:102790006FF01FF9130510006FF09FF8130520006C
:1027A0006FF01FF8130540006FF09FF7B70701F8AF
:1027B00003A5470067800000130101FF23261100D5
:1027C000EFF0DFFE135585018320C10013010101E5
:1027D00067800000130101FF23261100EFF0DFFDE9
:1027E000630E0500B70701F803A507001375F50F81
:1027F0008320C10013010101678000001305000060
:102800006FF01FFF130101FF23261100EFF09FFC63
:102810009307200763CCA7049307D0046344F50211
:10282000130535FB9307500263E2A7041315250037
:10283000B7370000938787343305F50083270500F9
:10284000678007009307B002630AF5029307D0027E
:10285000631EF500130530006F00800113051000A2
:102860006F000001130520006F008000EFF05FE9AA
:102870008320C100130101016780000013052000BF
:102880006FF01FFF130540006FF09FFE130101FF63
:10289000930700001308A000B3F605039386060310
:1028A000138707013307270093871700230AD7FEF2
:1028B00093860500B3D50503130790006378D7020C
:1028C0001307A000E358F7FC130700006F00400156
:1028D000930600022300D500130717001305150007
:1028E000B306F640E346D7FE6F0040021307000030
:1028F0006FF01FFF9387F7FF138707013307270048
:10290000034747FF2300E50013051500E39407FE86
:102910002300050013010101678000006F00000122
:10292000938515002300F5001305150083C70500E6
:10293000E39807FE67800000130101FE232E1100BB
:10294000232C81001304050013050100EFF01FF490
:102950009305010013050400EFF05FFC8320C10123
:10296000032481011301010267800000130101FAB1
:10297000232E1104232C8104232A910423282105CA
:102980002326310523244105232251059304050004
:1029900013840500930A0600138A060093090700B2
:1029A0001389070093070000130700019306003CFA
:1029B0001306000093050000EFF01F87631C040A54
:1029C000B73500009385450913050100EFF01FF5A9
:1029D0001306300093850A00EFF01FF6B7350000AC
:1029E0009385050AEFF09FF31306500093050A0044
:1029F000EFF09FF4B73500009385850AEFF01FF2E2
:102A00001306500093850900EFF01FF3B73500005F
:102A10009385050BEFF09FF0130650009305090016
:102A2000EFF09FF1B73500009385850BEFF01FEFB6
:102A300023000500631604041307F07F93060100CA
:102A4000130640009305800013850400EFF01F87F4
:102A50008320C10503248105832441050329010541
:102A60008329C104032A8104832A41041301010636
:102A700067800000B73500009385C5096FF0DFF46B
:102A800037070100130707FE6FF05FFB130101FC1E
:102A9000232E1100232C8100232A9100930405008A
:102AA0002322B1022324C1022326D1022328E102DA
:102AB000232AF102232C0103232E11039307410241
:102AC0002326F100130400006F00C0018327C1001A
:102AD000138747002326E10003A50700EFF08FAC22
:102AE00013041400B387840003C50700630E050AAE
:102AF00093075002630EF506EFF0CFAA6FF05FFE6A
:102B00008327C100138747002326E10003A50700A0
:102B1000EFF00FAB6FF0DFFC8327C1001387470096
:102B20002326E10003A50700EFF00FAB6FF05FFB7A
:102B30008327C100138747002326E10003A5070070
:102B4000EFF08FB56FF0DFF98327C10013874700DF
:102B50002326E10003A50700EFF00FB06FF05FF848
:102B6000373500001305C50BEFF08FA56FF05FF749
:102B700013041400B387840083C70700E38207F6B9
:102B8000938787FA93F6F70F13070002E362D7FEE5
:102B900093972600373700001307073EB387E700F7
:102BA00083A70700678007008320C10103248101F8
:102BB000832441011301010467800000130806000B
:102BC00093080500138705006390060E63FEC51287
:102BD000B7070100636EF61EB70700019306800178
:102BE0006374F600930600013353D6009717000074
:102BF0009387079DB387670083C70700130300020D
:102C0000B387D700B306F340630CF3003397D500C6
:102C1000B357F5003318D60033E7E700B318D500F3
:102C2000135608013355C7029316080193D60601BF
:102C300093D708013377C702B385A602131707019C
:102C4000B3E7E70063FCB700B307F8001307F5FF2D
:102C500063E4070163E0B74013050700B387B7409B
:102C600033D7C7029398080193D80801B3F7C70276
:102C7000B386E60293970701B3E8F80063FED80035
:102C8000B30818019307F7FF63E608011307E7FF8E
:102C900063E4D80013870700131505013365E500C9
:102CA000930500006780000063F8D50093050000DD
:102CB0001305000067800000B707010063E8F61EF7
:102CC000370700019307800163F4E60093070001D2
:102CD00033D8F600171700001307878E3307070154
:102CE00003470700930800023307F7003388E840E2
:102CF0006396E81E63E4B6323335C500133515001C
:102D00009305000067800000630C060CB707010004
:102D1000637CF62E1337061013371700131737008E
:102D2000B356E6009717000093878789B387D700CB
:102D300083C7070093060002B387E700B38EF6400F
:102D40006394F60CB387C54093560601131606012B
:102D5000135606019305100033D5D70213D7080187
:102D6000B3F7D7023303C50293970701B367F700A0
:102D700063FC6700B307F8001307F5FF63E407017E
:102D800063E4672C13050700B387674033D7D70286
:102D90009398080193D80801B3F7D7023306C70206
:102DA00093970701B3E8F80063FEC800B308180161
:102DB0009307F7FF63E608011307E7FF63E4C80022
:102DC00013870700131505013365E50067800000D0
:102DD0009336061093B61600939636006FF0DFE038
:102DE00093060000970700009387877DB387D7007D
:102DF00083C707001307000093060002B387E700AC
:102E0000B38EF640E380F6F43318D60133D3F500E1
:102E100093560801335ED30213160801B395D5010A
:102E200013560601B357F500B3E7B70013D70701F0
:102E3000B318D5013373D302B305C60313130301CB
:102E400033676700637EB7003307E8001305FEFFB2
:102E50006364071F6372B71E130EEEFF330707018B
:102E60003307B7403355D7029397070193D707012C
:102E70003377D7023303A60213170701B3E7E7003E
:102E800063FE6700B307F8001307F5FF63EE071949
:102E900063FC67181305E5FFB387070193150E015F
:102EA000B3876740B3E5A5006FF01FEB93B706103B
:102EB00093B717009397370033D8F6001707000031
:102EC0001307077033070701034707009308000241
:102ED0003307F7003388E840E38EE8E0335EE6002E
:102EE000B3960601336EDE00B3D8E500935E0E01A3
:102EF000B3D7D80313130E01B39505011353030180
:102F00003357E5003367B7009356070133160601C0
:102F1000B3F8D803B305F30293980801B3E616019A
:102F200063FEB600B306DE009388F7FF63EAC611BE
:102F300063F8B6109387E7FFB386C601B386B64041
:102F4000B3D5D6031317070113570701B3F6D603FA
:102F5000B308B302939606013367D700637E170167
:102F60003307EE009386F5FF6364C70D6372170D98
:102F70009385E5FF3307C70193970701B70E01005B
:102F8000B3E7B7009386FEFFB3F5D70013D307016D
:102F9000B376D60013560601338ED5023307174198
:102FA000B306D30293580E01B385C502B385D5008D
:102FB000B385B8003303C30263F4D5003303D301F0
:102FC00093D60501B3866600636AD7026308D7000B
:102FD000138507009305000067800000B706010015
:102FE0009386F6FF33F7D50013170701337EDE0013
:102FF000331505013307C701E37CE5FC1385F7FFB3
:103000009305000067800000B7070001637AF604AB
:1030100093560601130700016FF0DFD093050000FF
:103020001305100067800000130507006FF01FE70D
:10303000938506006FF05FF4130E05006FF05FE2FA
:10304000938708006FF09FEF1305E5FFB387070133
:103050006FF09FD31305E5FFB38707016FF01FC023
:0C30600093568601130780016FF0DFCB50
:10306C0030313233343536373839414243444546B2
:10307C000000000030313233343536373839616274
:10308C00636465660000000043505520000000009A
:10309C0048572000204E20200000000020522F53C3
:1030AC002020000020532F5320200000204B000034
:1030BC003C466C6F6174696E6720706F696E74202A
:1030CC007072696E74696E67206E6F7420656E61C4
:1030DC00626C652E20506C6561736520456E616273
:1030EC006C65206974206174206273702E68206690
:1030FC00697273742E2E2E3E000000000D0A3D3DA9
:10310C003D3D3D20636F6D70746573743A20435080
:10311C005520736F6674776172652072656E646595
:10312C007220767320426974426C74204857206177
:10313C006363656C203D3D3D3D3D0D0A0000000084
:10314C0046423D2578204642313D25782046423284
:10315C003D2578204E3D25642D25642073746570C3
:10316C002025640D0A0000006B6579733A204750E6
:10317C00494F525F32323D6D6F6465202047504994
:10318C004F525F32313D4E2B323520204750494F44
:10319C004C5F30333D72657365740D0A000000009E
:1031AC00756172743A206D3D6D6F646520206E20E0
:1031BC006F72202B3D4E2B323520202D3D4E2D3263
:1031CC00352020723D72657365740D0A0000000095
:1031DC007665723A204350552072656E6465727341
:1031EC0020746F206F66662D73637265656E206246
:1031FC0075662C20656E67696E6520636F706965F6
:10320C007320746F20646973706C61790D0A00000F
:10321C0073656C66636865636B3A2053544154550F
:10322C00533D257820434F554E543D256420534340
:10323C00414E3D2578205553543D25782055524F0D
:10324C003D2564204B45593D25780D0A00000000B2
:10325C00616C69676E636865636B202578202578DF
:10326C002025782025782028657870656374206681
:10327C0038303020663830302030376530203037E9
:10328C006530290D0A0000007761726D757020257C
:10329C006420256420256420256420256420256471
:1032AC002025782025780D0A000000007761726DCA
:1032BC00757020646F6E650D0A0000000D0A45568E
:1032CC00206D6F6465202D3E2025642028303D4301
:1032DC00505520313D4857290D0A00005320697480
:1032EC003D256420643D2564206D3D2564204E3DC4
:1032FC002564204350553D2564205343523D25649D
:10330C0020433D25642053543D2578204B45593DA1
:10331C0025780D0A00000000442069743D256420C6
:10332C0053433D25782061623D256420756E3D2513
:10333C006420743D25780D0A000000005C28000014
:10334C00642800006C2800006C2800006C28000029
:10335C00842800006C2800006C2800006C280000F9
:10336C006C2800006C2800006C2800006C28000001
:10337C006C2800006C2800006C2800006C280000F1
:10338C006C2800006C2800006C2800006C280000E1
:10339C006C2800006C2800006C2800006C280000D1
:1033AC006C2800006C2800006C2800006C280000C1
:1033BC006C2800006C2800006C2800005C280000C1
:1033CC00642800006C2800006C2800006C280000A9
:1033DC0084280000302B0000702B0000702B0000A4
:1033EC00702B0000702B0000702B0000702B000065
:1033FC00702B0000702B0000702B0000702B000055
:10340C00CC2A0000182B0000702B0000602B000051
:10341C00702B0000702B0000702B0000702B000034
:10342C00702B0000702B0000702B0000702B000024
:10343C00702B0000702B0000702B0000702B000014
:10344C00002B0000702B0000702B0000702B000074
:10345C00702B0000482B0000200000000000000032
:10346C0000303C666E7666663C00311838181818C9
:10347C00187E00323C66060C18307E00333C660623
:10348C001C06663C00340C1C3C6C7E0C0C00357E1F
:10349C00607C0606663C00361C30607C66663C0030
:1034AC00377E060C1830303000383C66663C666659
:1034BC003C00393C66663E060C380041183C66669A
:1034CC007E666600427C66667C66667C00433C6673
:1034DC00606060663C0044786C6666666C7800459B
:1034EC007E60607860607E00467E606078606060C0
:1034FC0000473C66606E66663C00486666667E66A3
:10350C00666600493C18181818183C004B666C7815
:10351C0070786C66004C6060606060607E004D632B
:10352C00777F6B636363004E66767E7E6E666600A5
:10353C004F3C66666666663C00507C66667C6060E6
:10354C006000527C66667C786C6600533C66603C1E
:10355C0006663C00547E1818181818180055666634
:10356C00666666663C00576363636B7F77630058DF
:10357C0066663C183C666600596666663C18181808
:10358C00003D00007E007E0000002E0000000000C8
:10359C001818003A00181800181800002F060C18FC
:1035AC0030604000002D0000007E00000000000094
:1035BC0000010202030303030404040404040404CE
:1035CC00050505050505050505050505050505059F
:1035DC00060606060606060606060606060606067F
:1035EC00060606060606060606060606060606066F
:1035FC00070707070707070707070707070707074F
:10360C00070707070707070707070707070707073E
:10361C00070707070707070707070707070707072E
:10362C00070707070707070707070707070707071E
:10363C0008080808080808080808080808080808FE
:10364C0008080808080808080808080808080808EE
:10365C0008080808080808080808080808080808DE
:10366C0008080808080808080808080808080808CE
:10367C0008080808080808080808080808080808BE
:10368C0008080808080808080808080808080808AE
:10369C00080808080808080808080808080808089E
:1036AC00080808080808080808080808080808088E
:1036BC0000000000070000000700000000104000A0
:0E36CC00001050000000000000000000000090
:0400000300001000E9
:00000001FF
