:10100000977100009381810F17210400130181392A
:1010100017550000130505DF97550000938585DE01
:10102000177600001306469163FCC5008322050075
:1010300023A055001305450093854500E3E8C5FE50
:10104000177500001305458F9715040093858535A6
:101050006378B5002320050013054500E36CB5FE59
:10106000EF000001EF00000A6F0000006780000041
:10107000130101FF23248100232021019757000041
:10108000938747D8175400001304C4D723261100B0
:1010900023229100338987406380870213592940B6
:1010A0009304000083270400938414001304440075
:1010B000E7800700E3E824FF97570000938787D471
:1010C00017540000130404D433898740135929406E
:1010D000638E870093040000832704009384140028
:1010E00013044400E7800700E3E824FF8320C100E5
:1010F000032481008324410003290100130101011D
:1011000067800000130101F32326110C2324810CB6
:101110002322910C2320210D232E310B232C410B54
:10112000232A510B2328610B2326710B2324810BC7
:101130002322910B2320A10B232EB10993079001A9
:101140002326F10823240108232201082320010873
:1011500023280106232A01069307003C232CF106CD
:1011600093074010232EF106EF10905137750000C1
:101170001305058AEF30D05703A7018293070700B4
:10118000B716200037165000B7153000377500002D
:101190001305058EEF30D05583A501829307000417
:1011A000130700029306000113860500377500003F
:1011B00013054590EF30D053377500001305459562
:1011C000EF3010533775000013058598EF305052FB
:1011D00093059001377500001305C59BEF30505102
:1011E000377500001305C59FEF309050130690012E
:1011F0009305900137750000130585A3EF30504F1C
:101200003716000013060677930590013775000026
:10121000130545A7EF30D04D377500001305C5AA5B
:10122000EF30104D37750000130545AFEF30504CCF
:1012300037750000130545B3EF30904B377500004C
:10124000130585B8EF30D04A37750000130585BD0A
:10125000EF30104AEF204010EF1090539307050035
:1012600023AAA18C13051500930430003375950251
:1012700023A4A18293872700B3F7970223A2F182C8
:10128000930A100023A2518D23A0018CEF10D04DA2
:1012900023A6A182EF20C03CEF3090589307800036
:1012A0001307C0219306003C1306000093050000BD
:1012B00003A5C182EF204044EF105072B707010030
:1012C0009387078013072000930680001306401FB2
:1012D0009305100203A5C182EF2000429307007E10
:1012E00013072000930690001306601F9305000269
:1012F00003A5C182EF20404083A7C18237A70E001B
:10130000130727643387E7008355070037A70E00CC
:10131000130707653387E7000356070037B70E004A
:10132000130707543387E7008356070037B70E00CB
:1013300013070755B387E70003D707003775000089
:101340001305C5C2EF30D03AEF10507B130B0500E8
:10135000EF101079930B050013050002EF10D03F3A
:10136000130C050013058002EF10103F930C0500CD
:1013700013050008EF10503E9307050013870C007B
:1013800093060C0013860B0093050B0037750000C5
:10139000130545C6EF30D0351306000083A5C18183
:1013A00013059001EF201069EF105063EF10103813
:1013B000130C05002324A10423A6A18A03A84189B4
:1013C00083A701821307000093061000130600088C
:1013D0009305000013059001EF20902E13052000C7
:1013E000EF201011930505001385418EEF209044E6
:1013F00023AC018003A58182130515003365950296
:10140000EF109036930780001307C0219306003C2D
:101410001306000093050000EF20002E03A5818233
:101420001305250033659502EF10103493078000F3
:101430001307C0219306003C13060000930500002B
:10144000EF20802B2384018C9387818CA38007005D
:101450002381070003A78182B307F7002380570188
:1014600003A7418D23A8E18CEF10505783A641823A
:1014700003A6818283A5418D37750000130585C9B8
:10148000EF30102713054001EF10102D9365250054
:1014900013054001EF10502B9305200013050001A8
:1014A000EF10902A37750000130545CDEF3050241A
:1014B000232401021304000023200102232201023D
:1014C00023280104930710002326F1022322F104AC
:1014D00093040000232E0102930D0000930C1000D2
:1014E0002326010423200104232A0102232E0100C4
:1014F000232C010293090000930700082328F1021E
:10150000130A9001130D000013092000232C9100F1
:101510006F10804DEF20503D930B0500EF10102110
:10152000130C0500639A0B0813050900EF30101B1C
:10153000232EA10663900D4A832781043307FC40C4
:10154000B7173D009387F78F63E4E744232EB10379
:1015500003A7C18A3307EC40B7E7F5059387F70F78
:1015600063E4E7006F10404983A741892324F10019
:1015700083A701822322F1002320B10193880C006C
:101580000328010393070D0013070A008326410374
:101590000326C1018325810313050C00EF201019D8
:1015A000631405006F104045232A5103232E510177
:1015B000232C51036F1040449305C10813850B0081
:1015C000EF20D035130B050093072000630AF502C6
:1015D0009307F0FF6306F5046312053493875BFD00
:1015E000130790046366F736939727003777000058
:1015F00013070759B387E70083A707006780070031
:10160000032AC10893050A0037750000130505D1A8
:10161000EF30100E930B1000130B10006F00803092
:10162000377500001305C5D1EF30900C930B000007
:10163000130B00006F00002F930710036388FB005B
:10164000930720036384FB02130B200093050B0018
:10165000377500001305C5D2EF309009130D0B004C
:10166000930B1000130B10006F00C02B130B100016
:101670006FF0DFFD37750000130545D5EF305007DB
:1016800013090B00930B1000930710002326F1029F
:101690002322F1046F00002937750000130585D659
:1016A000EF301005930B1000930710002326F10272
:1016B0002322F104130910006F00C02637750000C3
:1016C000130505D8EF30D002930B100093071000DC
:1016D0002326F1022322F104130920006F00802445
:1016E000130A9A01B71700009387077763D447015D
:1016F000130A900193050A0037750000130505D100
:10170000EF30007F930B1000130B10006F0080214F
:10171000130A7AFE9307800163C64701371A000057
:10172000130A0A7793050A0037750000130505D1DF
:10173000EF30007C930B1000130B10006F00801E25
:1017400093CB1C0063860C00930710002322F10446
:1017500093850B0037750000130585D9EF3040796C
:10176000938C0B00930B10006F00C01B93CD1D00DA
:1017700093850D0037750000130585DDEF30407748
:1017800023248105930B10006F00C01903A501826B
:10179000EF10407623A0A182EF10906CEF3050083C
:1017A00083A5018237750000130505E2EF30407410
:1017B000930B1000130B1000930720002328F10453
:1017C0006F0040169307F0010327010363F6E7005B
:1017D000930707FE2328F1028325010337750000D4
:1017E000130505E3EF30C070930B10006F008013FA
:1017F0009307F00D0327010363E6E7009307070251
:101800002328F1028325010337750000130505E342
:10181000EF30006E930B10006F00C01083A7C181E2
:101820003787379E1307979BB387E70023AEF18076
:1018300037750000130505E4EF30806B930B0B0048
:10184000130B10006F00000E83A701819384070023
:1018500063C2070413B71400232AE104638204045B
:1018600083A74189032741056386E70403274105D0
:1018700023A8E180639A0406B76500009385050DEF
:1018800037750000130505E7EF308066930B0B00FA
:101890006F00400983A74189938407006FF09FFB85
:1018A000EF30007D930B0500E31C05FA130B0500D8
:1018B0006F0040079306F0FF23A8D18063800702E2
:1018C000B76500009385050D37750000130505E524
:1018D000EF300062930B0B006F00C004B76500008F
:1018E0009385450D6FF05FFEB76500009385450D4C
:1018F0006FF01FF937170000130707779306900161
:10190000130690019305900137750000130505EB50
:10191000EF30005E930B0B006F00C000930B0000D4
:10192000130B0000631A0B02E3800BC003A841896C
:1019300083A7018213870D0093860C000326010301
:1019400093050D0013050A00EF2080576FF0DFBDEF
:10195000930B0B006FF01FFD3336A00183A5C181EF
:1019600013050A00EF20100D23240108232001088D
:10197000232201082326610323226105232C010071
:10198000232E010223260104232001046FF0DFF936
:10199000138B0D00930601081306410893050107F8
:1019A00013050A00EF201045130B1B00EF10005821
:1019B00033058541B7173D009387F78F63F0A70480
:1019C00093077000E3D867FD232EB103232481051C
:1019D0006FF01FB88324C103E35C90B6930601083F
:1019E000130641089305010713050A00EF209040F4
:1019F0009387F4FF232EF1026FF09FB5232EB103DE
:101A0000232481056FF0DFB493050A0037850000B9
:101A1000130505A2EF20D02D232201086F00107FAF
:101A200093050A0037550200130505EEEF20502CF0
:101A3000232001086F00507E83A741892324F100F1
:101A400083A701822322F1002320B10193880C0097
:101A50000328010393070D0013070A00832641039F
:101A60000326C1018325810313050C00EF20004CE0
:101A7000631405006F00D07B232A0102232E01008E
:101A8000232C01026F00D07A83A6418D23AAF18C0A
:101A900003A5418223A4A18223A2D18213071000AF
:101AA00023A2E18C23A0018CEF10004C23A6A1827D
:101AB0008327410393871700232AF102638C0D00CB
:101AC000930770000327C10363C6E700930717005D
:101AD000232EF102638A0C0483270105635CF00066
:101AE000832701059387F7FF2328F104232681022A
:101AF00023228104EF30005C13040500630805060F
:101B000003A8418983A7018213870D0093860C00E7
:101B10000326010393050D0013050A00EF20403A48
:101B2000130400006F00800483270105E34AF0FAE4
:101B300023268102232281046FF0DFFB130580023C
:101B4000EF10804193050500377500001305851BD4
:101B5000EF30003A6F00907413050003EF10C03DA2
:101B60006F00C00013050003EF10003DE318044CA4
:101B700093071000E304F94C83AAC18763820A1A11
:101B8000930720006316F90093F739006398070E56
:101B90001305C005EF10403C930A0500137B1500A8
:101BA00063140B0E83A781866390071023A401861C
:101BB00023AE018623A601881307F0FF23AAE18044
:101BC00023A001882324010823A0018C83A7018678
:101BD0002320F104E380074623A0018663020B1053
:101BE00083A781859387170023ACF184B7861E00F5
:101BF000938606481306100083A5418637750000BA
:101C000013058522EF30C02E3775000013054526D9
:101C1000EF3010343775000013058528EF30103889
:101C200023208104930710002322F1046F00104148
:101C300093071000630AF90083274102E38807F243
:101C4000930720006306F90083270102E38007F26F
:101C5000EF10C05883A5818223A8B18C13054002E0
:101C6000EF10802EEF10802C2324A102232081026C
:101C700023228102130410006FF05FEF13050003AD
:101C8000EF10802B6F00903BEF10402A83A78187D5
:101C90003305F540B7871E009387074863FCA70606
:101CA000E3160BF06FF01FF023A4018693850A0062
:101CB000377500001305851DEF30804D1305C007F3
:101CC000EF10802993050500370601001306F6FF83
:101CD000377500001305451EEF3080216FF01FEDB2
:101CE00023A801881307100023AAE18623A60186F2
:101CF0001306100083A54186377500001305852A59
:101D0000EF30001F23208104930710002322F104E9
:101D10006F00D03213050003EF1000226F00103265
:101D200003AB4189630E0B7413050900EF30C01635
:101D3000232AA104930720006304F908130B100061
:101D400083A70189638A070883ABC18863860B4E2A
:101D500083A7418163C00712630A0B4C1305C005BA
:101D6000EF10801F930B0500937705016386070032
:101D70001307100023A6E18693F74B00639C071A14
:101D800093F71B00E39C072A83A7418763960736D6
:101D900003A54184EF30D02D83A5418663860500DD
:101DA00083A74189639C074083A741896386070015
:101DB00003A541816358054223A601886F001028BE
:101DC00093F7390063960700130B10006FF05FF76D
:101DD000138B0A006FF0DFF6EF304060930B0500C5
:101DE00023A8A18823AAA18623A80186E31E05F4BF
:101DF00083A54186639A050423A2018623A0018658
:101E000023A4018623AA01881307F0FF23A8E180F9
:101E10002324010823A0018C1308000083A701825A
:101E200013870D0093860C000326010393050D0014
:101E300013050A00EF20C008232071059307100046
:101E40002322F1046F00901F83A7818593871700D9
:101E500023ACF18413061000377500001305852E9E
:101E6000EF3000093775000013050532EF30500ED2
:101E70006FF09FF8832B8108E3D04BEF23240106FA
:101E800023260106639E0B0083274104638E070807
:101E900013050900EF20100E130705006F00C000A6
:101EA0009307F0FF1387070083A7818813051000AD
:101EB0003305F540131515019307C1062320F100E2
:101EC00093088106930407001308070093870C000A
:101ED0000327010393060D0013060A0093058108EA
:101EE0003713820033056500EF20100A63C4040035
:101EF00023225105EF10802E03A78188930710003D
:101F0000B387E74023AAF1800327810623A2E18853
:101F10000327C10623A0E18883278108B38777417F
:101F200023A0F1846FF05FE39307F0FF13870700AE
:101F30006FF09FF7EF30C060232AA104937BF50F69
:101F400083A741862320F104B337F000232CF1044A
:101F5000EF00D07D23260106930700016384FB0474
:101F60009307F0FF2322F1048327010463940706FB
:101F7000930700016380FB0A930700016388FB0C51
:101F80008327010463820716377500001305C540D7
:101F9000EF30007C3775000013054543EF3010002B
:101FA0006F00400D83A741859387170023AAF18412
:101FB00083A70185638A0700B307F5402322F10454
:101FC00023A8A1846FF05FFA9307F0FF2322F104A6
:101FD0006FF01FFF83A781859387170023ACF184DF
:101FE00083A74186232EF10403254105EF20D05E0F
:101FF0001307050093860B00130610008325C10507
:102000003775000013054534EF20906E23A201863A
:102010006FF01FF61306C1068325410403258105D1
:10202000EF20102C93071000E318F5F423A2F1869B
:1020300023A0F186130610009305100037750000E9
:102040001305C536EF20D06A6F00C0028327010454
:10205000639C07068327C106638007083775000065
:102060001305053DEF30C06E3775000013050540C0
:10207000EF30C0729307100023A4F18623AEF186DF
:10208000EF00D06A23ACA18623A601881307F0FFD6
:1020900023AAE18023A0018823A0018C03A8418901
:1020A00083A7018213870D0093860C00032601038A
:1020B00093050D0013050A00EF10906023226105BF
:1020C000232051056F008077377500001305C53B4D
:1020D000EF3000686FF05FF9377500001305053FBA
:1020E000EF3000676FF05FF8377500001305454368
:1020F000EF30C06A6FF01FF823AA018693DA0B0154
:102100001305C007EF0050659306050013860A000B
:1021100093850B00377500001305C543EF20505D14
:10212000EF30005D930A0500E31405C683A54186E0
:1021300063900506377500001305054CEF30006607
:102140001307100023AEE186EF00505E23ACA1869A
:1021500023A601881307F0FF23AAE18023A00188AA
:1021600023A0018C03A8418983A7018213870D0056
:1021700093860C000326010393050D0013050A0046
:10218000EF10105423226105232051056FF05FC02A
:1021900083A781859387170023ACF1841306100071
:1021A000377500001305C546EF20905437750000C1
:1021B0001305854AEF30C0596FF0DFF783A6C1855C
:1021C0009386160023AED18403A7818513061000E1
:1021D000377500001305854DEF20905123A201862D
:1021E0006FF09FBC9307007803274105B307F70200
:1021F00003A6C1823386C70083A54188EF2010382B
:1022000083A6418123A4D1881307F0FF23AAE1808C
:1022100003A7018423A2E18483A701886380076266
:1022200023A00188232061056F004061130500038E
:10223000EF0090506F0080608327010463860706DB
:10224000630A0B001305C005EF00105193771500CA
:102250006384070413050003EF00104E138B0B007B
:10226000630E0B5C8327810393871700232CF102F5
:102270002324010863840C002322610523A0018C20
:1022800013050A00EF3080652322610323267105C0
:10229000232071056F00805AEF104006EF10C00731
:1022A000E31005FC6FF01FFB832A810863D64A1DEB
:1022B000232401062326010683A781881307100023
:1022C000330BF740639E0A0083274104638407149D
:1022D00013050900EF20004A930405006F008000F9
:1022E0009304F0FF63960A0083274108639807125E
:1022F000832781086396070083A7018C638C0712EC
:1023000083278108232CF10413151B019307C106B1
:102310002320F100930881061388040093870C00A2
:102320000327010393060D0013060A009305810895
:102330003713820033056500EF20004563C60400B3
:10234000832701042322F10483A7418763880706BA
:10235000832781056394070623A80186631C0D006B
:10236000B7870000938707A203D707019307800070
:102370006306F704B7860000938606A28397E600FB
:1023800003274105B387E70003A701821306200056
:102390003347C702B387E7008396C6003307D700E9
:1023A0009306003CB387D702B387E70093971700E3
:1023B00003A7C182B387E70023A8F186EF0010626C
:1023C0000327410593174700B387E74093977700AA
:1023D00003A6C1823386C7008325810613050B003F
:1023E000EF20D01923A461891307100023A6E188E8
:1023F00083278108B387574123A2F1848327C1062D
:102400006398070683270104032B01042320F104AA
:102410006FF01FE59304F0FF6FF0DFEC93050A0007
:1024200037850000130505A2EF20800C2322010848
:102430006FF01FEC1307100023A0E18C13050900B7
:10244000EF2010269305050003254105EF00504DB0
:102450002322A104630A050013050900EF2080313F
:10246000930405006FF0DFE99304F0FF6FF05FE97C
:10247000930710006FF05FF9130B10006FF05FDE31
:102480008327010463880706930720006316F90079
:1024900093F7390063960704EF005066EF00D067AA
:1024A000630005048327810393871700232CF1021F
:1024B0002324010863860C00832701042322F104EE
:1024C00023A0018C13050A00EF304041832701044B
:1024D0002322F10223206105232661056F000036C7
:1024E00093072000631CF93413050003EF00D02488
:1024F0006F00C03413050900EF20101A930B05007C
:102500008327C1046380070293072000631CF9003E
:1025100093F739006388070013050003EF00D0210B
:102520006F00C031EF005060930A050083278108D7
:102530006396070083274108639E0702832781086B
:102540006396070083A7C1836382070483278108FA
:102550006396070083A7018C6380070483274104E7
:1025600063840700639C0A04930700042326210563
:102570006F00C01893050A0037850000130505A2F7
:10258000EF101077232201086FF05FFBEF00101AA5
:1025900023AEA1826FF09FFB1307100023A0E18CF4
:1025A00013050900EF20D00F9305050013850B00DC
:1025B000EF0010372322A1046FF05FFA130B0078AD
:1025C000338B6B0383A7C182330BFB001305090018
:1025D000EF20100D93060500130780001306003C42
:1025E0009305007813050B00EF00505B938AFAFF08
:1025F000832701042322F1046FF01FF7B78700003F
:10260000139724003307970013172700938707A217
:10261000B387E7000397A7008397E7006306F700F7
:10262000130920006F000001130910006F008000E3
:102630001309100063E02A1F93072000630AF910B2
:10264000B78700001397240033079700131727005C
:10265000938707A2B387E7000397E7003307770163
:102660008396C70093174700B387E74093976700A7
:10267000B387D7009397170003A7C1823385E7007C
:1026800063040D12930710006308FD1483A70182F1
:10269000370801001308F8811387070093060078B4
:1026A000139617009305050037152000EF0090568C
:1026B00037870000130707A293962400B38796007C
:1026C00093972700B307F7000396C7002394C7002A
:1026D0008397E700B3869600939626003307D700CA
:1026E0002315F700B38A2A418327810893871700AF
:1026F0002324F10863D8471193070B008324810832
:1027000063DE441163840A12138BF7FF6388070E9C
:10271000E3900CF2930710006308FD02B7870000F6
:10272000139724003307970013172700938707A2F6
:10273000B387E700039787008397C700E300F7ECB0
:10274000130920006FF01FEF130920006FF09FEEB8
:102750003787000093972400B3879700939727004B
:10276000130707A23307F7008316A700B386760185
:102770000316870093974600B387D7409397670067
:10278000B387C7009397170003A5C18203462701AB
:102790001307800093060600930500783385A70091
:1027A000EF00D03F6FF0DFE9B787000013972400F8
:1027B0003307970013172700938707A2B387E70013
:1027C00003C6270103D70701930606009305007887
:1027D000EF00D03C6FF0DFED83A7018203280103F7
:1027E00013870700930600781396170093050500DA
:1027F00037152000EF00503E6FF09FEB0329C10416
:102800006F0000020329C104930710002320F10484
:102810006F0000010329C1046F0080000329C10477
:1028200093B71A002326F1046F0040010329C10465
:102830006FF01FFF930710002322F10463120414AA
:1028400093072000630EF91213050900EF2080663C
:10285000930A0500832781016396070083270108F7
:10286000639A07248327C102639207269307100007
:10287000630AFD02B78700008326810113972600B3
:102880003307D70013172700938707A2B387E70002
:1028900037D70100B307F7000397874C8397C74CDE
:1028A000630EF724B7870000832681011397260063
:1028B0003307D70013172700938707A2B387E700D2
:1028C00037D801003308F8000316A84C8346284D7A
:1028D0009307800013870600330656018315884C42
:1028E00003A5C182EF00506163020D24930710001D
:1028F0006302FD28B7870000832681011397260015
:102900003307D70013172700938707A2B387E70081
:1029100037D70100B307F7008395E74CB38555011E
:102920000395C74CEF1040043787000083268101D0
:1029300093972600B387D70093972700130707A222
:102940003307F700B7D70100B387E7000397C74CF9
:102950002394E74C0397E74C2395E74C93871600A5
:10296000232CF10063CE47018327C1019387170011
:10297000232EF100232C8100930710002320F10265
:102980006314040683A78181639C070083A7818267
:102990001387818CB387E70083C70700639607041A
:1029A00013050900EF10C034930505001385418E0F
:1029B000EF104068630E091E83A78181638A0700B8
:1029C0002384018C9387818CA380070023810700D7
:1029D00083A781821387818CB387E70013071000D8
:1029E0002380E70023AC01809389190093FAF90151
:1029F00063940A006FE01FB2631404006FF04FA3EA
:102A000083274108638407006FF00F808327010844
:102A1000638407006FF0CF8003A7C18A3307EC40BF
:102A2000B7E7F5059387F70F63F4E7006FF0CF8002
:102A300093F73900638407006FF0CF92130500010C
:102A4000EF008051137525006300050293052000F7
:102A500013050001EF00404FEF00805383A7018D65
:102A60006314F5006FF04F82EF00404C8327810222
:102A70003305F540B79798009387076863E4A7008C
:102A80006FF08F8D83A7C18C9387170023A6F18CDD
:102A9000130710006394E7006FF04F8A83A5018D40
:102AA00013054002EF00404AEF0040482324A102F2
:102AB0006FF0CF8B93050A0037550200130505EE22
:102AC000EF101023232001086FF0DFD903ABC18280
:102AD00013050900EF20403F13070500930780000E
:102AE0009306003C13860A009305000013050B00B3
:102AF000EF009040232681026FF05FD7B787000078
:102B0000139726003307D70013172700938707A2D0
:102B1000B387E70037D70100B307F7000397A74C47
:102B20008397E74CE310F7D86FF01FDCB7870000FE
:102B300083268101139726003307D7001317270038
:102B4000938707A2B387E700B7D50100B385F500E7
:102B50000396E54C83C6254D83D7054D13870600A4
:102B6000330656018395C54C03A5C182EF00D038CA
:102B70006FF09FDBB7870000832681011397260043
:102B80003307D70013172700938707A2B387E700FF
:102B900037D70100B307F7008395E74C03260103FD
:102BA000B38555010395C74CEF00D04E6FF0DFD7CA
:102BB000B747000093878720130740009306003C27
:102BC000130640119305000003A5C182EF00D03227
:102BD0006FF09FDE03254500135505011375F50FB2
:102BE00067800000130101FF2326110023248100C8
:102BF00023229100130405009384050013050400AB
:102C0000EFF05FFDE30C05FE232094008320C1005C
:102C10000324810083244100130101016780000027
:102C200083A7C5002324F50083A705009387F7FF3A
:102C300003A7450013178700B3E7E70003A7850044
:102C400013170701B3E7E7002326F50067800000AC
:102C5000130101FF2326110093050500370501F834
:102C6000EFF05FF88320C1001301010167800000CD
:102C7000130101FF23261100232481001304050002
:102C80006F00C00013041400EFF09FFC0345040024
:102C9000E31A05FE8320C100032481001301010112
:102CA00067800000130101FF232611002324810007
:102CB00023229100930405001304C0016F00400219
:102CC00033D784001377F700B7670000938707E0D6
:102CD000B387E70003C50700EFF09FF71304C4FFB5
:102CE000E35004FE8320C1000324810083244100BB
:102CF0001301010167800000130101FF2326110069
:102D00002324810023229100930405001304C001B1
:102D10006F00400233D784001377F700B7670000D5
:102D2000938747E1B387E70003C50700EFF05FF241
:102D30001304C4FFE35004FE8320C1000324810078
:102D4000832441001301010167800000130101FF8A
:102D5000232611001375F50FEFF09FEF8320C100BC
:102D60001301010167800000130101FF23261100F8
:102D7000EFF01FF08320C100130101016780000004
:102D8000130101FD23261102232481022322910233
:102D90009304050063460500130401006F00C002A0
:102DA0001305D002EFF09FFAB30490406FF0DFFEFE
:102DB0001307A000B3E7E402938707032300F4009E
:102DC000B3C4E40213041400E39404FE9307010067
:102DD000E300F4FE93070100630AF4001304F4FF18
:102DE00003450400EFF09FF66FF0DFFE8320C10281
:102DF0000324810283244102130101036780000040
:102E0000130101FF23261100130700009307700030
:102E100063C0E70293162700930700FFB397D7001C
:102E2000B377F50063860700130717006FF01FFEE6
:102E3000EFF09FEC8320C1001301010167800000C7
:102E4000130101FF232611001307000093077000F0
:102E500063C0E70293162700930700FFB397D700DC
:102E6000B377F50063860700130717006FF01FFEA6
:102E7000EFF05FE38320C1001301010167800000D0
:102E8000130101FE232E1100930780002320F1007F
:102E900023220100232401009307B0062326F1001A
:102EA00093050100370501F8EFF09FD78320C1019A
:102EB000130101026780000093060500130500005E
:102EC0006F008000130515009307200063C0A70260
:102ED000B7770000131725009387C77FB387E700F4
:102EE00083A70700E390D7FE67800000130500006A
:102EF00067800000130101FF23261100EFF0DFFBC4
:102F000013051500930730003365F502B77700000D
:102F1000131525009387C77FB387A70003A5070074
:102F20008320C1001301010167800000B7C7B0F81A
:102F300003A587FF67800000630605001305F5FF02
:102F4000E31E05FE67800000B70710F83305F500A3
:102F50002320B50067800000B70710F83305F5009F
:102F6000032505006780000093072000630EF5002D
:102F7000930710006306F5003715300067800000E6
:102F8000371550006780000037157000678000001B
:102F9000130101FF2326110013058002EFF0DFFB70
:102FA000137535008320C100130101016780000003
:102FB000130101FF2326110013050004EFF0DFF9D0
:102FC0008320C1001301010167800000130101FF8C
:102FD00023261100EFF0DFFD137515008320C100DB
:102FE0001301010167800000130101FF2326110076
:102FF0002324810013040500EFF09FFB1304240039
:1030000033558500137515008320C100032481000A
:103010001301010167800000130101FF2326110045
:103020002324810023229100EFF05FF09304050038
:1030300013040000EFF09FF963020504EFF01FEFA7
:1030400033059540B7470F009387072463EEA70029
:103050001304140093070004E3DE87FC1305000348
:10306000EFF09FED6FF0DFFC83A7818B9387170054
:1030700023ACF18A130500006F00800013051000D7
:103080008320C10003248100832441001301010136
:1030900067800000130101FF232611002324810013
:1030A0002322910023202101130405001389050028
:1030B00093040600EFF05FEB93174900B3872741B5
:1030C00093977700B305F5001305C002EFF0DFE733
:1030D0009305007813050003EFF01FE793950401B3
:1030E00093E5053C13054003EFF01FE693058000D0
:1030F00013058003EFF05FE59315240093E51500B9
:103100001305C003EFF05FE48320C10003248100B6
:10311000832441000329010013010101678000009D
:10312000130101FE232E1100232C8100232A91007C
:103130002328210123263101930905001389050065
:10314000EFF09FED03A58182EFF01FEA1304050065
:1031500083A5818213054004EFF01FDFEFF05FE5E8
:1031600093770504639E07026318040083A7C18B4D
:103170009387170023AEF18A83A7418C63940704D9
:10318000133514008320C1010324810183244101EC
:10319000032901018329C100130101026780000096
:1031A00083A7418B9387170023AAF18A83A5818285
:1031B0009395250093E505011305C003EFF0DFD8D3
:1031C0006FF09FFA130609009385090003A5418259
:1031D000EFF05FEC23A2018C6FF09FFA93070000E1
:1031E0006F00000293962700371760003307D7005F
:1031F000B706A5A5B386D7002320D700938717006D
:103200001307F07FE370F7FE67800000130101FEF3
:10321000232E1100232C8100232A91002328210131
:10322000232631012324410123225101232061015E
:10323000138B0500930A0600138A06009309070002
:103240001384070093040800138908009305050000
:1032500013058000EFF05FCF93050B00130580008E
:10326000EFF09FCE93850A0013058000EFF0DFCDCD
:1032700093050A0013058000EFF01FCD9385090028
:1032800013058000EFF05FCC939404011314040144
:1032900013540401B3E5840013058000EFF0DFCA86
:1032A0009305090013058000EFF01FCA8325010272
:1032B00013058000EFF05FC98320C1010324810161
:1032C00083244101032901018329C100032A8100CC
:1032D000832A4100032B01001301010267800000D3
:1032E000130101FF232611001305C000EFF0DFC614
:1032F0008320C1001301010167800000130101FF59
:103300002326110013054000EFF01FC58320C100E4
:1033100013010101678000001375E500130565FFC7
:103320001335150067800000130101FF23261100EB
:10333000EFF01FFB9307700C63ECA7009307800C62
:103340003385A7408320C10013010101678000007D
:10335000130500006FF01FFF130101FF232611006A
:103360009305400013050000EFF01FBE9305100009
:1033700013050001EFF05FBD930500001305400148
:10338000EFF09FBC9305100013050000EFF0DFBBCA
:103390008320C1001301010167800000130101FEB9
:1033A000232E1100930706002320E1009308F00F5D
:1033B0001388060013870500930600001306050016
:1033C0009305000013051000EFF05FE48320C101B6
:1033D0001301010267800000130101FE232E11007A
:1033E00023200100930808001388070093070700B3
:1033F0001387060093060600138605009305050053
:1034000013052000EFF09FE08320C10113010102AA
:1034100067800000130101FE232E1100232001010B
:103420009308F00F1388070093070700138706001F
:10343000930606001386050093050500130530006A
:10344000EFF0DFDC8320C10113010102678000007F
:1034500003A601821357F6013307C700135717401D
:103460003307E040B306A700B307B700B386D60220
:10347000B387F702B386F6003308E7029357F641A5
:1034800093F77700B387C70093D73740B307F0406F
:10349000B387E7406348D806B387F70263CAD70605
:1034A000931755003385A7401306F6FF3345C50231
:1034B00093976500B387B740B3C7C7021397560009
:1034C0003307D7406314080013081000334707037D
:1034D0009306F0013387E6401315B5001315050177
:1034E00013550501939757009397070193D7070149
:1034F0003365F5003365E500131505011355050126
:1035000067800000370501001305F5816780000022
:10351000370501001305F5FF6780000093080500DB
:1035200093030600138806009302000013050000B1
:103530009307300063C45710130101FF2326810055
:10354000232491006F00400B130E00009386160099
:1035500063DCD603630A0E0213070300E358C7FEB9
:10356000B387B602B387E70093971700B387F800D5
:1035700083D707009397070193D70701E39607FDC9
:10358000130717006FF09FFD63000E0213972200D0
:103590003307E70193071000B397E70093970701FC
:1035A00093D7070133E5A700138F0400930730007A
:1035B00063CEE703B307BF0213D3F741137333009E
:1035C0003303F3001353234093041F00B387B40263
:1035D00013D6F741137636003306F600135626400D
:1035E00093860F00130E10006FF09FF693020400F5
:1035F0009307300063CC8702B387720293DFF741F1
:1036000093FF3F00B38FFF0093DF2F40138412001E
:10361000B307740293DEF74193FE3E00B38EFE00C3
:1036200093DE2E40130F00006FF05FF80324C100FB
:10363000832481001301010167800000678000007E
:1036400093070500130500006F00000113F7170032
:103650003305E50093D71700E39A07FE6780000063
:10366000130101FE232E1100232C8100232A910037
:103670002328210123263101930900006F00400314
:10368000B3073903B387870093971700B714200057
:10369000B384F4009385090013050400EFF05FDBA9
:1036A0002390A40013041400E34C24FD9389190013
:1036B00003A9018263D62901130400006FF0DFFE25
:1036C000B70601009386F6811306090093050900E9
:1036D00037152000EFF09FE42398A18A8320C101D1
:1036E0000324810183244101032901018329C100AD
:1036F0001301010267800000939E0701B38EFE0054
:1037000093FF1500130F00006F008004138E060056
:103710006F00000793182800B308130123A0D801F5
:103720001308180093581E40E34618FF13781E0034
:10373000630E0800370800801308F8FF330E0E01EF
:10374000131E1E003303C3012310F300130F1F00C9
:10375000635CEF023308CF001313480033030341C7
:10376000131363003303B300131313003303A300D5
:10377000E38E0FF82310F300138EF6FF13032300DC
:10378000130800006FF01FFA678000009306060020
:103790001357B500135655001376F6031375F5014C
:1037A00093D8B50013D855001378F80393F5F501B5
:1037B0009317370013572700B3E7E70013172600C6
:1037C000135646003367C7001316350013552500FE
:1037D0003366A6001395380093D82800B368150106
:1037E0001315280013584800336805011395350058
:1037F00093D52500B365B500130EF00F3303DE40FB
:10380000B387D70233856802B387A7009387F7078A
:1038100093D787003307D702330568023307A70021
:103820001307F707135787003306D602B3866502DE
:103830003306D6001306F607135686006374FE009F
:103840009307F00F9306F00F63F4E6001307F00FF1
:103850009306F00F63F4C6001306F00F13D537007C
:103860001315B5001315050113550501135727004E
:103870001317570013170701135707013365E500A6
:10388000135636003365C5001315050113550501A0
:1038900067800000130101FD232611022324810209
:1038A0002322910223202103232E3101232C4101C5
:1038B000232A51012328610123267101930B05005E
:1038C000138B0500930A0600130A00006F00000422
:1038D000B3074903B3878700939717003717200072
:1038E000B307F70003D5070093141400B3849900BD
:1038F00083D5040013860A00EFF05FE92390A4004B
:1039000013041400E34624FD130A1A0003A90182DC
:1039100063562A03B3076A0193994700B389F940B4
:1039200093996900B38979019399190083A7C1829A
:10393000B389F900130400006FF0DFFC8320C1029B
:103940000324810283244102032901028329C10146
:10395000032A8101832A4101032B0101832BC1002A
:103960001301010367800000930800006F00C0048A
:1039700093161700B306D8002390F600130717001C
:10398000635AC702B3071603B387E700939717007C
:10399000B7162000B387F60083D707009397070177
:1039A00093D70701B70601009386F681E392D7FC0F
:1039B0006FF0DFFC9388180003A6018263D6C8026B
:1039C000B387B800139847003308F840131868000D
:1039D0003308A8001318180083A7C1823308F80021
:1039E000130700006FF0DFF9678000009307F5F917
:1039F00093F7F70F130790016366F700130505FEB1
:103A00001375F50F130700009307300263CEE7022A
:103A1000B777000093163700B386E6009387876B6D
:103A2000B387D70083C707006386A7001307170073
:103A30006FF09FFDB77700009387876B3385F600A3
:103A40001305150067800000377500001305956B9E
:103A500067800000130101FE232E1100232C81003A
:103A6000232A9100232821012326310193040500F4
:103A70001389050093090600138406006F000010E7
:103A8000130600009315870193D5854163C0050295
:103A9000930500003366B60023A0C7001376070124
:103AA000630A0600131604016F0000019305040069
:103AB0006FF05FFE13060000937507026386050032
:103AC000930504006F008000930500003366B60084
:103AD00023A2C700137647006306060013160401ED
:103AE0006F00800013060000937587006386050051
:103AF000930504006F008000930500003366B60054
:103B000023A4C700137617006306060013160401EA
:103B10006F0080001306000013772700630607007C
:103B2000130704006F008000130700003367E600EE
:103B300023A6E700938616009307700063CED70292
:103B4000B307D50003C70700338626019317460045
:103B5000B387C74093976700B38797009397170081
:103B600003A6C182B387C70013760704E30A06F0F1
:103B7000131604016FF01FF19384840003C509003C
:103B8000630A050093891900EFF05FE693060000D1
:103B90006FF09FFA8320C101032481018324410136
:103BA000032901018329C10013010102678000007C
:103BB0006F000001938515002300F5001305150023
:103BC00083C70500E39807FE67800000130101FF2B
:103BD000930700001308A000B3F6050393860603BD
:103BE000138707013307270093871700230AD7FE9F
:103BF00093860500B3D50503130790006378D702B9
:103C00001307A000E358F7FC130700006F00400102
:103C1000930600022300D5001307170013051500B3
:103C2000B306F640E346D7FE6F00400213070000DC
:103C30006FF01FFF9387F7FF1387070133072700F4
:103C4000034747FF2300E50013051500E39407FE33
:103C50001301010167800000130705001305000030
:103C60006F00800013051500B307A70083C7070086
:103C7000E39A07FE678000006F00C000130515007F
:103C800093851500834705006386070003C7050079
:103C9000E386E7FE03C705003385E74013351500CB
:103CA0006780000003C70500938515002300E50029
:103CB00013051500E31807FE678000009307100046
:103CC0006302F502930720006308F50037650000E2
:103CD000130585E26780000037650000130585E362
:103CE0006780000037650000130505E3678000006A
:103CF00063020502930710006308F50037650000B2
:103D00001305C5E367800000376500001305C5E4AF
:103D10006780000037650000130545E467800000F8
:103D2000130101FE232E1100232C8100232A910070
:103D3000232821012326310123244101232251017B
:103D400023206101138905009304060013840600F3
:103D5000130B070093890700930A0800138A0800D1
:103D60009307703E63F4B7001309703E9307703EEB
:103D700063F497009304703E9307300663F4870062
:103D800013043006B7650000938585E5EFF05FE228
:103D90001306300093050900EFF05FE3B7650000FC
:103DA0009385C5E5EFF0DFE013063000938504004E
:103DB000EFF0DFE1B7650000938545E6EFF05FDFE8
:103DC0001306200093050400EFF05FE0B7650000E4
:103DD0009385C5E6EFF0DFDD130620008325410261
:103DE000EFF0DFDEB7650000938545E7EFF05FDCBD
:103DF0001306400093050B00EFF05FDDB765000090
:103E0000938585E7EFF0DFDA13061000938519003C
:103E1000EFF0DFDBB76500009385C5E7EFF05FD912
:103E20001304050013850900EFF05FE99305050011
:103E300013050400EFF0DFD7B7650000938505E8B0
:103E4000EFF01FD71306300093850A00EFF01FD85C
:103E500063100A0483270102639407048327810205
:103E600063980704230005008320C1010324810116
:103E700083244101032901018329C100032A810010
:103E8000832A4100032B0100130101026780000017
:103E9000B7650000938545E8EFF09FD16FF09FFB79
:103EA000B7650000938585E8EFF09FD06FF01FFBAA
:103EB000B76500009385C5E8EFF09FCF6FF09FFADC
:103EC000130101F923261106232401012322F10005
:103ED0002320E1009388060013080600938705005D
:103EE0001307050083A6018A03A6418A83A5818A58
:103EF0001305C101EFF0DFE29385418E1305C10187
:103F0000EFF09FD7630805008320C1061301010766
:103F1000678000009305C1011385418EEFF09FD8A3
:103F20001307100023ACE1806FF01FFE130101FDA9
:103F30002326110223248102232A510113030500A1
:103F4000938A070003A4C18A3304854037EEF50540
:103F5000130EFE0F636E8E00130500008320C10256
:103F600003248102832A41011301010367800000B9
:103F70002322910223202103232E3101232C4101EE
:103F8000232861012326710113850500930906008A
:103F900013890600130A0700130B0800938B08000F
:103FA00023A6618AB7E4F50593840410B3B595029E
:103FB000130604009306000033059502EF10501914
:103FC00023A4A18AB3B59902130604009306000046
:103FD00033859902EF10D01723A2A18AB335990235
:103FE000130604009306000033059902EF105016E3
:103FF00023A0A18A03288103832741030327010308
:1040000093860B0013060B0093850A0013050A0024
:10401000EFF01FEB13051000832441020329010276
:104020008329C101032A8101032B0101832BC100D4
:104030006FF0DFF2130101FF23261100232481001A
:1040400023229100232021019304050013840500FD
:1040500093070000130700019306002013060000D9
:104060009305800003A5C182EFF00FE993070000DC
:10407000130700019306000413060000930500389F
:1040800003A5C182EFF04FE7370901009306F9FF5E
:10409000138604009305400013058000EFF09F9BFA
:1040A00013050400EFF05FBB930780073385A7403B
:1040B0009306F9FF1306040093054000131535001D
:1040C000EFF05F998320C100032481008324410025
:1040D000032901001301010167800000B70701F8FF
:1040E00003A5470067800000130101FF232611008C
:1040F000EFF0DFFE13558501630E0500B70701F8E9
:1041000003A507001375F50F8320C10013010101FA
:1041100067800000130500006FF01FFF9307050084
:1041200003A58189631205021307D0036384E700A6
:10413000678000001307100023ACE18823AE0188DC
:1041400013051000678000001307A0006380E704D8
:104150001307D000638CE702138707FD93069000D6
:1041600063ECE60883A6C1891307B0006366D7082D
:104170001386160023AEC1881387818D3307D700BD
:104180002300F700130510006780000023AC0188AE
:1041900003A6C18963080606930600009307000082
:1041A0006F0080009386160063FCC60213972700F9
:1041B0003307F700131717009387818DB387D70054
:1041C00083C70700B387E700938707FD3717000011
:1041D00013070777E378F7FC930707006FF09FFC5E
:1041E000130780016364F7009307900123A0F50093
:1041F000130520006780000023AC01881305F0FF41
:10420000678000001305F0FF67800000832705002A
:10421000376719001307D760B387E70237F76E3C9B
:104220001307F735B387E7002320F50013D50701FF
:1042300067800000130101FD23261102232481025F
:104240002322910223202103232E3101232C41011B
:10425000232A510123286101930A0500138B0500CD
:1042600003A70182130A000F330AEA40131A2A0037
:1042700093172700B387E70093D9F701B389F900B3
:1042800093D91940B30930419389491013090000AB
:104290006F004022B7870000131724003307870000
:1042A00013172700B7D601009386064CB306D90230
:1042B0003307D700938707A2B387E70083960700E9
:1042C0002394D700039727002395E7002396D70070
:1042D0002397E70013D784001317B70013170701BC
:1042E00013570701935685009396560093F6067E62
:1042F0003367D700B384A40093F4F40133679700C5
:104300002398E700130414006354541B1305C100E1
:10431000EFF0DFEF930405001305C100EFF01FEF8E
:1043200083A5018293F6F50FB787000013172400C9
:10433000330787001317270037D601001306064CF2
:104340003306C9023307C700938707A2B387E70084
:104350002389D7001306700033F6C4021306D6FF74
:104360002392C700130750003377E5021307E7FFD6
:104370002393E700631A0602378600009317240090
:10438000B38787009397270037D801001308084C9C
:1043900033080903B3870701130606A2B307F60023
:1043A000130610002392C700631A07023787000024
:1043B00093172400B38787009397270037D601000F
:1043C0001306064C3306C902B387C700130707A2BA
:1043D000B307F700130710002393E700B3F7440374
:1043E00093F7E7FF9397070193D7074137860000BC
:1043F00013172400330787001317270037D801004D
:104400001308084C3308090333070701130606A2F3
:104410003306E6002310F600337735031317070140
:10442000135707412311E60093F5F50FB387B70043
:104430001306003C635CF6029308003CB388D84046
:104440003786000093172400B387870093972700CF
:1044500037D801001308084C33080903B387070154
:10446000130606A2B307F600239017013307B7001F
:1044700093074010E3D0E7E2130640103306D6401E
:104480003787000093172400B3878700939727008E
:10449000B7D601009386064CB306D902B387D7007E
:1044A000130707A2B307F7002391C7006FF09FDE41
:1044B000130919009307100063C82701232661011F
:1044C000130400006FF05FE48320C1020324810223
:1044D00083244102032901028329C101032A8101A6
:1044E000832A4101032B01011301010367800000AE
:1044F000130700006F00800293172700B387E700BF
:1045000093972700B307F500839607002396D700FB
:10451000839627002397D70013071700E34EB7FCB5
:1045200067800000832E0600832F8600B38FDF0193
:10453000032E4600032FC600330FCF01930800005F
:104540006F004004B382660063DC5F00B3866F4097
:10455000131808011358080133080041239207017A
:104560006358C70713160601135606013306C040E9
:104570002393C70013070E002390D7002391E70071
:104580009388180063D6B80693972800B38717015D
:1045900093972700B307F500839607000398470019
:1045A000B386060103972700039667003307C70009
:1045B00003C32701E3D8D6F91318080113580801DB
:1045C000330800412392070193860E006FF05FF9D4
:1045D00033086700E3520FFB33076F4013160601E1
:1045E000135606013306C0402393C7006FF0DFF86F
:1045F00067800000130101FE232E1100232C81008F
:10460000232A9100232821012326310113040500C8
:10461000938405009309060013890600138605009C
:104620009305050037850000130505A2EFF09FEF05
:10463000138604009305040037550200130505EEA8
:10464000EFF05FEE9307100023A0F9002320F9009C
:104650008320C10103248101832441010329010135
:104660008329C10013010102678000009395450072
:104670003305B500B70501009385F5FF3376B60025
:1046800093960601B3E6C6002320D5003377B70022
:10469000939707013367F7002322E5003378B800CA
:1046A00093980801B706FF00B3F8D80033681801E3
:1046B0002324050183278100B3F7B70003270100F6
:1046C000131707013377D700B3E7E700032741004B
:1046D00013178701B3E7E7002326F5006780000082
:1046E000939545003305B5002320C500370601002A
:1046F0001306F6FFB3F6C60013170701B3E6E6008C
:104700002322D500B3F7C70013180801B3E7070148
:104710002324F500B3F8C80083270100939707010D
:10472000B3E8F8002326150167800000130101FF9C
:1047300023261100232481001304050003A5018210
:10474000EFE08FF793071000630EF400930720004B
:10475000630EF4008320C1000324810013010101D2
:1047600067800000130535006FF0DFFE130565005C
:104770006FF05FFE63160500130590006780000070
:104780001305A00067800000130101FA232E110415
:10479000232C8104232A9104232821052326310573
:1047A000232441052322510523206105232E710373
:1047B000232C8103232A91032328A1032326B10359
:1047C00013090500938D05009309060093840600E4
:1047D000130C0700138A0700930B0800232E110106
:1047E00003A40500638E0600930710006386F6009D
:1047F000130B30006F000001130B20006F008000CE
:10480000130B100013850400EFF05FF2930A05000C
:1048100093072000638CF40293071000638CF40468
:10482000930C0000930720006388F402130D00002E
:10483000130CF00F93070000336BFB00136B0B019D
:1048400063DE0B04930500006F008015B70C0100B8
:10485000938CFC816FF01FFD83D7018B638407026B
:10486000138D070063880702130CF00F93070018DD
:104870006FF09FFC130D0000930C000093070000E5
:104880006FF09FFB130D0000130CF00F9307000057
:104890006FF09FFA130CF00F6FF01FFA2324010042
:1048A00023220100232001009308F00F1308800049
:1048B0009307100113870B009306000013060000F6
:1048C0009305000013050900EFF05FDA930510006F
:1048D0006F00000DB787000013172400330787000F
:1048E00013172700938707A2B387E7000397A70052
:1048F0008397E7006306F700130720006F000001AD
:10490000130710006F00800013071000B387E50045
:10491000B716000063DAD716930720006304F70C7C
:10492000639C0410938B15003786000093172400B6
:10493000B387870093972700130606A23306F60075
:1049400083472601232401002322F1002320F100C4
:104950009308F00F035806019307100313870A000A
:104960008316E6000316C60013050900EFF01FD0FA
:1049700093850B00B78700001317240033078700C7
:1049800013172700938707A2B387E7000397C70091
:104990002394E7000397E7002395E700130414002E
:1049A0006354340FE3120AF6930710006388F4028D
:1049B000B787000013172400330787001317270059
:1049C000938707A2B387E700039787008397C70001
:1049D000E302F7F0130720006FF05FF313072000E6
:1049E0006FF0DFF2938B15003786000093172400D9
:1049F000B387870093972700130606A23306F600B5
:104A000083472601232401002322F1002320F10003
:104A10009308F00F1308800093071003130700009A
:104A20008316A6000316860013050900EFF01FC4C5
:104A300093850B006FF0DFEE938B15003786000037
:104A400093172400B387870093972700130606A2C5
:104A50003306F6002324A1012322010023200100B4
:104A600093080C0013880C0093070B0013870A00AF
:104A70008316E6000316C60013050900EFF01FBFFA
:104A800093850B006FF01FEF23A08D008327C101DA
:104A900023A0B70033243401133414008327010604
:104AA00023A087008320C1050324810583244105B9
:104AB000032901058329C104032A8104832A4104AF
:104AC000032B0104832BC103032C8103832C41039B
:104AD000032D0103832DC10213010106678000002D
:104AE000B7E7F50593871710B3B7F5002320F60055
:104AF000631C0500B7E7F5059387071063F8B70057
:104B00001305100067800000130500006780000097
:104B1000130101FE232E1100232C81001304050034
:104B200023200100930800001308000193070001EF
:104B3000370701001307F78193060002371620009C
:104B400093050000EFF0DFB9232001009308000077
:104B50001308000293070002370701001307F781CB
:104B60009306000437162000930510001305040077
:104B7000EFF01FB723200100930800001308000482
:104B800093070004370701001307F7819306000815
:104B9000371620009305200013050400EFF05FB4E2
:104BA000232001009308000013080001930700016F
:104BB000370701001307F78193060002371620001C
:104BC0009305300013050400EFF09FB1232001008E
:104BD0009308000013080002930700023707010042
:104BE0001307F78193060004371620009305400051
:104BF00013050400EFF0DFAE23200100930800004E
:104C00001308000493070004370701001307F78116
:104C10009306000837162000930550001305040082
:104C2000EFF01FAC232001009308000013080001DF
:104C300093070001370701001307F781930600026D
:104C4000371620009305600013050400EFF05FA9FC
:104C500023200100930800001308000293070002BC
:104C6000370701001307F781930600043716200069
:104C70009305700013050400EFF09FA623200100A8
:104C8000930800001308000493070004370701008D
:104C90001307F7819306000837162000930580005C
:104CA00013050400EFF0DFA32320010093080000A8
:104CB000130840109307003C130700009306000000
:104CC000130600009305900013050400EFF05FA1A8
:104CD00023200100930800001308C0209307003C24
:104CE0001307000093060000130600009305A000C0
:104CF00013050400EFF0DF9E8320C101032481012E
:104D00001301010267800000130101FF2326110037
:104D100037158000EFF0DFDFEFE04FCC8320C100DC
:104D20001301010167800000130101FF2326110018
:104D300023248100EFE08F9F130405001305C005B5
:104D4000EFE08FA11375150063000502EFE00F9EE1
:104D500033058540B7470F0093870724E3F0A7FE8C
:104D6000130500006F008000130510008320C100B0
:104D7000032481001301010167800000130101FF7A
:104D8000232611002324810023229100130405000F
:104D9000938405009305060013050007EFE0CF9A02
:104DA0009385040013054005EFE00F9A63020402A7
:104DB0009305500313058005EFE00F998320C10090
:104DC0000324810083244100130101016780000056
:104DD000930510036FF01FFE937715006398070487
:104DE00093772500639A070493774500639C070433
:104DF00093778500639E0704937705016390070608
:104E00009377050263920706937705046394070678
:104E100093770508639607069317750063C807061E
:104E200037650000130505FF678000003765000047
:104E3000130505E96780000037650000130505EBE1
:104E40006780000037650000130505EE67800000ED
:104E500037650000130585F06780000037650000A6
:104E6000130505F36780000037650000130505F69C
:104E70006780000037650000130505F867800000B3
:104E800037650000130545F96780000037650000AD
:104E9000130505FC67800000130500016780000012
:104EA0006316050013054010678000001305C0203D
:104EB00067800000631605001305801167800000FD
:104EC00013050001678000006316050013054010FC
:104ED000678000001305C02067800000631605008E
:104EE00013054010678000001305C0206780000094
:104EF000130101FC232E1100232C8100232A910091
:104F0000930405002322B1022324C1022326D102E7
:104F10002328E102232AF102232C0103232E11036B
:104F2000930741022326F100130400006F00C00123
:104F30008327C100138747002326E10003A507004C
:104F4000EFD0DFE013041400B387840003C507002B
:104F5000630E050A93075002630EF506EFD01FDFBC
:104F60006FF05FFE8327C100138747002326E1000F
:104F700003A50700EFD05FDF6FF0DFFC8327C100E0
:104F8000138747002326E10003A50700EFD05FDF6A
:104F90006FF05FFB8327C100138747002326E100E2
:104FA00003A50700EFD0DFE96FF0DFF98327C10029
:104FB000138747002326E10003A50700EFD05FE435
:104FC0006FF05FF837650000130545FFEFD0DFD9BC
:104FD0006FF05FF713041400B387840083C70700E2
:104FE000E38207F6938787FA93F6F70F1307000219
:104FF000E362D7FE93972600377700001307C75068
:10500000B387E70083A70700678007008320C101FB
:1050100003248101832441011301010467800000FE
:10502000130101FF23261100232481002322910074
:1050300003A4018283D4018B13850400EFE04FE0C9
:10504000130705009386040013060400930504006B
:105050003765000013050504EFF09FE98320C100C8
:1050600003248100832441001301010167800000B3
:10507000130101FF2326110013050008EFD0DFED17
:105080009317050193D71701638A070013051000D2
:105090008320C10013010101678000009305050012
:1050A0003765000013058509EFF09FE41305000044
:1050B0006FF01FFE83A7018163C2070C03A5C1889F
:1050C0006312050C03A741816352070C03A7C18734
:1050D000631E070A130101FF2326110023AAF1888A
:1050E0009306F0FF23A8D18023A8018823A201867C
:1050F00023A0018623AA018423A8018423AE018270
:1051000063840704B76500009385050D37650000CB
:105110001305850DEFF0DFDD83A74189639C07024E
:1051200083A6418B03A6818B83A5C18B37650000C5
:1051300013054511EFF0DFDB130510008320C100DC
:105140001301010167800000B76500009385450DDC
:105150006FF0DFFB13050008EFD01FE0930505009B
:1051600037178400B71682003716800037650000B5
:105170001305850EEFF0DFD76FF09FFA13050000DF
:105180006780000013050000678000006780000052
:10519000130101FE232E11001386050013D71500FD
:1051A00093D7250013D8350093D8450093D68500B2
:1051B00093D5050103A3C186232461002322B100F6
:1051C00093F636002320D10093F8180013781800C6
:1051D00093F71700137717009376160093050500D1
:1051E000376500001305C515EFF09FD08320C1017E
:1051F0001301010267800000130101FF2326110043
:1052000023248100232291001384050093040600C7
:10521000EFD09FD4631E8500130510008320C100CA
:1052200003248100832441001301010167800000F1
:1052300093060500130604009385040037650000FB
:105240001305851CEFF0DFCA130500006FF01FFD8A
:10525000130101F4232E110A13050100EFF05F8BF7
:10526000130500009307B00263C6A7069317250035
:10527000371780003307F700032607009387070BD3
:10528000B387270083A607F56316D600130515001C
:105290006FF05FFD032707009357F54113D8E7012F
:1052A000330605011376360093F73700B385A70060
:1052B0003306064193D52540376500001305051FC9
:1052C000EFF01FC3130500008320C10B1301010C75
:1052D00067800000930530009307800063C2B70623
:1052E000139545009306850037178000B306D70055
:1052F00003A60600B70701009387F7FF3376F60091
:1053000083A6060093D60601130545003307A700C0
:10531000032707003377F700630A06006388060057
:1053200063060700938515006FF01FFB37650000CB
:1053300013054522EFF0DFBB130500006FF0DFF827
:105340003766000013068626B71580001305800611
:10535000EFF09FEAE30A05F63766000013064627DA
:105360009305B0001305C006EFF01FE9E30E05F446
:1053700037660000130606289305007813054008D9
:10538000EFF09FE7E30205F4376600001306C62836
:10539000B7051C029385053C13058008EFF0DFE597
:1053A000E30405F23766000013064629B7158200AC
:1053B0001305C004EFF05FE4E30805F03766000072
:1053C0001306C629B715840013050005EFF0DFE2C8
:1053D000E30C05EE130510006FF01FEF130101FF42
:1053E0002326110023248100EFF01F94630405108D
:1053F000EFF09F91B715800013058006EFD0DFB462
:105400009305B0001305C006EFD01FB493050078D4
:1054100013054008EFD05FB3B7051C029385053C28
:1054200013058008EFD05FB2B71582001305C004E2
:10543000EFD09FB1B715840013050005EFD0DFB0A2
:10544000B70500019385F50F13050006EFD0DFAF18
:105450009305000313058005EFD01FAFB7050100CA
:105460009385F5FF13058007EFD01FAEEFD01FD750
:10547000EFF01FDE13040500630E050823229100E0
:1054800013058007EFD05FADB70701009387F7FFE3
:105490003374F5006318F40813058006EFD0DFAB12
:1054A000930405001305C006EFD01FAB37060100BB
:1054B0001306F6FF3378C500938704003717000002
:1054C0009306000193050400376500001305C538F5
:1054D000EFF01FA223A601861304100083244100CD
:1054E000130504008320C10003248100130101017E
:1054F00067800000130405001305C005EFD0DFA589
:1055000093050500376500001305452AEFF05F9EFF
:105510006FF01FFD376500001305852FEFF05F9DCD
:105520006FF01FFCB71600001306040093850700F8
:105530003765000013058533EFF09F9B6FF0DFF5B3
:10554000130101FE232E1100232C8100232A910038
:1055500023282101232631012324410113050006BC
:10556000EFD09F9F1304050013054006EFD0DF9E88
:10557000930905001305C005EFD01F9E9304050095
:1055800013050400EFF05F851306050013590401AD
:105590001379F90F135784019387090013771700C4
:1055A000930609009375F40F376500001305053F56
:1055B000EFF01F9493850400376500001305454202
:1055C000EFF01FBD1305C007EFD01F99930505002D
:1055D000370601001306F6FF376500001305C542C4
:1055E000EFF01F9113050004EFD01F9793090500FA
:1055F00013058004EFD05F96130A0500130500041D
:10560000EFD09F9503A8418B83A7818B03A7C18B04
:105610009376150013060A0093850900376500008C
:1056200013050547EFF0DF8C93770401638E0706BF
:1056300013D6040163020906637A2605B7660000E3
:105640009386863E03A7C18693050900376500004F
:105650001305054BEFF0DF89B70500019385F50FC2
:1056600013050006EFD05F8E130504008320C101EF
:105670000324810183244101032901018329C100FD
:10568000032A81001301010267800000B766000051
:105690009386C63E6FF01FFB376500001305055368
:1056A000EFF01F856FF05FFB937724006392070292
:1056B000937704086396070293770402E38E07F852
:1056C0003765000013058562EFF09F826FF0DFF809
:1056D0003765000013050558EFF09F816FF0DFF785
:1056E000376500001305455DEFF09F806FF0DFF632
:1056F00083A70187638A070483D507009395050173
:1057000093D5050123A80186930780006386F500E1
:105710001305100067800000130101FF232611000C
:10572000376500001305C567EFF08FFC3765000093
:105730001305056CEFF0CFFB130500008320C100BB
:10574000130101016780000013051000678000004D
:10575000130101FF232611001307050083A54185CE
:1057600003A6C18583A6818583A7C18663820702BC
:10577000B76700009387C77037650000130545744D
:10578000EFF00FF78320C1001301010167800000D3
:10579000B7670000938747726FF01FFE130101FE89
:1057A000232E1100232C8100232A9100232821017C
:1057B0002326310193050500376500001305C57ADE
:1057C000EFF00FF313058006EFD00FF91304050077
:1057D0001305C006EFD04FF89304050013054008E9
:1057E000EFD08FF71309050013058008EFD0CFF62F
:1057F0009309050013058008EFD00FF63706010066
:105800001306F6FF9357050133F7C900B376C900B5
:1058100033F6C40093050400376500001305057FC7
:10582000EFF00FEDB70500019385F50F13050006A6
:10583000EFD08FF123AA018823A801881307F0FF76
:1058400023A8E18023A8018623A2018623A0018644
:1058500023A401868320C101032481018324410103
:10586000032901018329C10013010102678000009F
:10587000130101FF232611002324810013040500D6
:10588000EFD0CFEA03A7C1843307E540B7E7F505BA
:105890009387F70F63EAE7008320C10003248100A8
:1058A000130101016780000023A6A1841305C0072E
:1058B000EFD08FEA13060500635E8000B3468502D1
:1058C00093050400377500001305C583EFF04FE220
:1058D0006FF09FFC930600006FF09FFE83A7C183CB
:1058E0006394070067800000130101FF2326110065
:1058F0002324810013040500EFD04FE303A6C183E6
:105900003306C54023AE018283A68184B306D54009
:1059100037E7F5051307F70F6370D70223A4A184B7
:1059200063548002B3468602930504003775000075
:105930001305C586EFF0CFDB8320C100032481006F
:105940001301010167800000930600006FF0DFFD86
:105950001308060093080500138705006390060EE0
:1059600063FEC512B7070100636EF61EB70700019C
:10597000930680016374F600930600013353D6004A
:1059800097270000938787E8B387670083C70700DE
:1059900013030002B387D700B306F340630CF30090
:1059A0003397D500B357F5003318D60033E7E70037
:1059B000B318D500135608013355C70293160801D2
:1059C00093D6060193D708013377C702B385A602A1
:1059D00013170701B3E7E70063FCB700B307F8004C
:1059E0001307F5FF63E4070163E0B7401305070001
:1059F000B387B74033D7C7029398080193D80801FB
:105A0000B3F7C702B386E60293970701B3E8F8003D
:105A100063FED800B30818019307F7FF63E6080197
:105A20001307E7FF63E4D800138707001315050188
:105A30003365E500930500006780000063F8D5003A
:105A4000930500001305000067800000B707010000
:105A500063E8F61E370700019307800163F4E60050
:105A60009307000133D8F60017270000130707DA61
:105A70003307070103470700930800023307F700C5
:105A80003388E8406396E81E63E4B6323335C500D8
:105A9000133515009305000067800000630C060CA9
:105AA000B7070100637CF62E133706101337170073
:105AB00013173700B356E60097270000938707D5E2
:105AC000B387D70083C7070093060002B387E700B8
:105AD000B38EF6406394F60CB387C5409356060127
:105AE00013160601135606019305100033D5D7028D
:105AF00013D70801B3F7D7023303C5029397070101
:105B0000B367F70063FC6700B307F8001307F5FFFE
:105B100063E4070163E4672C13050700B38767405C
:105B200033D7D7029398080193D80801B3F7D70267
:105B30003306C70293970701B3E8F80063FEC80075
:105B4000B30818019307F7FF63E608011307E7FF9F
:105B500063E4C80013870700131505013365E500EA
:105B6000678000009336061093B6160093963600B1
:105B70006FF0DFE09306000097270000938707C9C6
:105B8000B387D70083C707001307000093060002FE
:105B9000B387E700B38EF640E380F6F43318D601FE
:105BA00033D3F50093560801335ED3021316080170
:105BB000B395D50113560601B357F500B3E7B70007
:105BC00013D70701B318D5013373D302B305C60346
:105BD0001313030133676700637EB7003307E800E0
:105BE0001305FEFF6364071F6372B71E130EEEFFFB
:105BF000330707013307B7403355D702939707019F
:105C000093D707013377D7023303A602131707018F
:105C1000B3E7E70063FE6700B307F8001307F5FF7B
:105C200063EE071963FC67181305E5FFB3870701E7
:105C300093150E01B3876740B3E5A5006FF01FEB26
:105C400093B7061093B717009397370033D8F60031
:105C500017270000130787BB330707010347070017
:105C6000930800023307F7003388E840E38EE8E04A
:105C7000335EE600B3960601336EDE00B3D8E5006E
:105C8000935E0E01B3D7D80313130E01B39505012C
:105C9000135303013357E5003367B70093560701E9
:105CA00033160601B3F8D803B305F302939808013D
:105CB000B3E6160163FEB600B306DE009388F7FF75
:105CC00063EAC61163F8B6109387E7FFB386C6018F
:105CD000B386B640B3D5D603131707011357070190
:105CE000B3F6D603B308B302939606013367D70021
:105CF000637E17013307EE009386F5FF6364C70DDB
:105D00006372170D9385E5FF3307C701939707016A
:105D1000B70E0100B3E7B7009386FEFFB3F5D700D7
:105D200013D30701B376D60013560601338ED5027E
:105D300033071741B306D30293580E01B385C5024A
:105D4000B385D500B385B8003303C30263F4D5002F
:105D50003303D30193D60501B3866600636AD70285
:105D60006308D700138507009305000067800000D3
:105D7000B70601009386F6FF33F7D5001317070126
:105D8000337EDE00331505013307C701E37CE5FCF4
:105D90001385F7FF9305000067800000B707000137
:105DA000637AF60493560601130700016FF0DFD003
:105DB000930500001305100067800000130507001D
:105DC0006FF01FE7938506006FF05FF4130E050078
:105DD0006FF05FE2938708006FF09FEF1305E5FF18
:105DE000B38707016FF09FD31305E5FFB387070162
:105DF0006FF01FC093568601130780016FF0DFCB51
:105E000030313233343536373839414243444546F0
:105E100000000000303132333435363738396162B2
:105E2000636465660000000046494C4C00000000B9
:105E3000414C5048410000004B4559004857204F05
:105E40004E4C590053504C495400000043505520CB
:105E50004F4E4C590000000048573D00204350551C
:105E60003D000000205343523D00000020535A3DA6
:105E700000000000204E3D00205343003A00000087
:105E800020413D002045000020465200204C0000EB
:105E9000444553435F52414E474520286261736534
:105EA0002F636F756E742F7461696C290000000098
:105EB00047454F4D5F494E44455820285350525F47
:105EC00049443E3D47454F4D5F4D41582C206F7230
:105ED0002047454F4D5F4D41583D3029000000009F
:105EE00047454F4D5F52414E4745202867656F6DCE
:105EF0002061646472206F66662F756E616C6967DD
:105F00006E656429000000005350524954455F42B9
:105F10004F554E445320286F66662D736372656536
:105F20006E20772F6F20434C49505F454E2900006B
:105F30005741544348444F4720286F6E652064659D
:105F40007363726970746F7220737475636B203E33
:105F500020444C5F54494D454F55542900000000E2
:105F60004158495F5252455350202852206368617E
:105F70006E6E656C206E6F74204F4B415929000086
:105F8000444553435F434F554E5420283E343039E7
:105F9000352900005A45524F5F53495A452028572A
:105FA000206F722048203D3D20303B2067656F6D9B
:105FB000657472792F6F7665727269646529000065
:105FC000554E535550504F5254454420284D495238
:105FD000524F522F5352435F4F46462F4348414939
:105FE0004E2F4D41534B5F4D4F444529000000005B
:105FF0003F0000003C466C6F6174696E6720706FF3
:10600000696E74207072696E74696E67206E6F7449
:1060100020656E61626C652E20506C656173652031
:10602000456E61626C6520697420617420627370D2
:106030002E682066697273742E2E2E3E00000000BA
:1060400045562061746C6173202564782564206B4B
:1060500065796D61736B3D2578206D61726B656448
:106060003D25642F313620284B4559206477335B1A
:1060700031353A305D2B464C4147535B375D3D31FE
:106080003B20414C5048412F46494C4C2069676E9B
:106090006F7265290D0A00000D0A455620646C20B8
:1060A0006E6F7420737570706F727465642028440D
:1060B0004C5F56455253494F4E3D25782C206E6516
:1060C0006564205B31353A305D3E3D32290D0A0072
:1060D0006F6E00006F6666000D0A455620646C20E6
:1060E00025730D0A000000002020202020444C5F72
:1060F00056455253494F4E3D25782067656F6D3D9B
:106100002578206C697374733D25782F25780D0AE6
:10611000000000002020202020636C722066623D79
:10612000256420746F3D2564206572723D256420CE
:106130002863756D756C61746976653B2066623D98
:10614000726567696F6E2072657061696E7420692F
:106150006E2D70617468290D0A0000004556206498
:106160006C2025733A20444C5F5354415455533DA1
:10617000257820425553593D256420444F4E453DD6
:106180002564204552523D25642041424F525445DA
:10619000443D2564205354414C4C3D2564204143EB
:1061A000544956455F4255463D256420434F4E5362
:1061B000554D45443D2564207374616C6C5F736577
:1061C000656E3D25640D0A00455620646C206172A1
:1061D0006D204641494C2025733A2077726F7465D3
:1061E00020257820726561642025780D0A00000062
:1061F000455620646C2061726D204641494C2067F1
:10620000656F6D5B25645D2E647725643A20777237
:106210006F746520257820726561642025780D0AE9
:1062200000000000455620646C2061726D204641DC
:10623000494C2067656F6D5B25645D3A20573D25AD
:106240006420483D2564207374726964653D25644B
:1062500020286D757374206265206E6F6E2D7A65CF
:10626000726F290D0A00000047454F4D5F424153B0
:106270004500000047454F4D5F4D4158000000006C
:106280004453545F535452494445000046425F57BB
:106290004800000042415345300000004241534550
:1062A00031000000455620646C2061726D2046412B
:1062B000494C3A20444655207374696C6C20425511
:1062C00053592028444C5F5354415455533D25782D
:1062D000293B20307834437E307838382077726913
:1062E00074657320776F756C642062652069676ED2
:1062F0006F7265640D0A0000455620646C2061725F
:106300006D204641494C202D3E206C6973742070ED
:10631000617468207374617973204F464620287039
:1063200065722D636F6D6D616E6420636F6E74694D
:106330006E756573290D0A00455620646C206172E4
:106340006D205741524E2054494D454F55543A20E7
:1063500077726F74652025782072656164202578D6
:10636000202830783738206D697373696E673F2055
:106370007761746368646F67207374617973202533
:1063800064207469636B73290D0A0000455620640C
:106390006C2061726D206F6B3A2074696D656F754A
:1063A000743D25642F2564207469636B73202878FD
:1063B00025642072657365742025642C207E373532
:1063C0003375734038374D487A292047454F4D5F24
:1063D000424153453D25782047454F4D5F4D41583B
:1063E0003D25640D0A0000003C0000003E3D000019
:1063F0000D0A455620444C5F45525220636F646538
:106400003D25782028257329206964783D2564205E
:10641000756E7375703D2564206661756C743D25DD
:10642000780D0A007374617475730000455620641A
:106430006C20706572665F707265763D25642074AD
:106440006D6F3D2564202874686973206C697374CE
:106450002773205045524620636F6D657320616637
:1064600074657220425553593D30290D0A000000D1
:10647000455620646C20636C723A20434C525F5343
:106480005441543D257820434C525F4359433D25A8
:106490006420627573793D25642066623D25642021
:1064A000746F3D2564206572723D25640D0A0000FD
:1064B000455620646C2068696E743A206465736385
:1064C000726970746F72206665746368207374619A
:1064D00072766564206174206964783D25642028A3
:1064E000434F4E53554D45443D2564202573206947
:1064F00064782C207374616C6C5F7365656E3D25E8
:106500006429202D3E204444522062616E647769E4
:106510006474682C206E6F74207468652067656FE2
:106520006D65747279207461626C650D0A000000FB
:10653000455620646C2068696E743A205741544374
:1065400048444F472077697468206964783D30205B
:10655000286E6F2064657363726970746F7220694E
:106560006E64657829202D3E20636865636B204446
:106570004C5F434F554E542F424153450D0A000086
:10658000455620646C2068696E743A20414C50482E
:10659000412F4B45592064657363726970746F7243
:1065A00073206E656564207468652067656F6D652E
:1065B000747279207461626C653B2046494C4C2BA7
:1065C00053495A455F4F565220646F6573206E6F72
:1065D000740D0A00455620646C2068696E743A2078
:1065E00067656F6D657472792F6F76657272696415
:1065F0006520572F48207265616420617320302028
:10660000285A45524F5F53495A4529202D3E20674D
:10661000656F6D65747279207461626C6520737545
:1066200073706563740D0A00455620646C206869B8
:106630006E743A2072656164206368616E6E656C89
:10664000206E6F74204F4B4159202864657363722C
:106650006970746F72206F722067656F6D657472F8
:10666000792066657463682C20626F746820706F8F
:10667000737369626C65290D0A0000004556206439
:106680006C20317374206C69737420647265772098
:106690004E4F5448494E4720617420626C6B302045
:1066A0007370726974652063656E747265202870FA
:1066B000783D2578203D206267290D0A0000000002
:1066C000455620646C2068696E743A207461626C6F
:1066D000652072616E206275742070726F647563DC
:1066E0006564206E6F20706978656C73202D3E2084
:1066F00067656F6D657472792F44465520706174BB
:106700006820737573706563740D0A007374617229
:1067100076656420287374616C6C5F7365656E3D8B
:1067200031290000646964206E6F7420726574758D
:10673000726E20287374616C6C5F7365656E3D309A
:1067400029000000455620646C2064697361626C06
:1067500065642061667465722025642077617463C6
:1067600068646F67206576656E747320286F6B3D73
:106770002564206261643D2564293A2025733B200D
:1067800064657363726970746F72206665746368A0
:106790002025733B207072657373206C20746F200A
:1067A00072652D61726D0D0A000000004556206C67
:1067B0006973742070617468204F464620282573E1
:1067C000292C2066616C6C6261636B20746F207091
:1067D00065722D636F6D6D616E6420286B65792025
:1067E0006C2072652D61726D73290D0A0000000026
:1067F000455620646C20636667207265616462613F
:10680000636B3A2047454F4D5F424153453D2578E4
:106810002047454F4D5F4D41583D2564204453541A
:106820005F5354524944453D25642046425F5748D2
:106830003D25647825640D0A00000000455620645B
:106840006C206C69737420646F6E653A206E3D2510
:1068500064206379636C65733D2564206379632FDD
:106860007370726974653D25640D0A004556206396
:106870006D64207061746820646F6E653A206E3DAF
:106880002564206379636C65733D256420637963B7
:106890002F7370726974653D25640D0A0000000055
:1068A0000D0A3D3D3D3D3D2046696E616C44656D80
:1068B0006F3A20485720616363656C2076732070BF
:1068C000757265204350552C2073616D652073638C
:1068D0007265656E203D3D3D3D3D0D0A00000000A6
:1068E00046423D2578204241434B3D257820415486
:1068F0004C41533D2578205350523D256478256402
:106900000D0A0000626C6B3A2025647825642073C0
:1069100070726974652C2072756E74696D652D7363
:10692000776974636861626C652025642F25642F24
:10693000256420286B6579206B206379636C65730F
:106940002031362D3E33322D3E36342D3E31362C1D
:106950000D0A0000202020202061746C61732072D9
:10696000656275696C74202B207363656E65207297
:10697000652D696E69742061742065766572792071
:1069800073746570290D0A006C61796F75743A2013
:10699000696E666F20302D3136207C2048572031BB
:1069A000362D323736207C20736570207C20435092
:1069B00055203238302D3534300D0A00646566615B
:1069C000756C743A20706174683D4857206F6E6C26
:1069D000792C20636C6561725F7065725F706173A2
:1069E000733D312C20616476616E63653D74696D21
:1069F000652C204E3D25640D0A000000636D643A4D
:106A000020312F322F33207363656E652046494C49
:106A10004C2F414C5048412F4B45592C20732F632C
:106A20002F6820706174682053504C49542F435094
:106A3000552F48570D0A000020202020206E206F7F
:106A400072202B204E2B25642C202D204E2D2564CA
:106A50002C20612F4120616C7068612D2F2B2C2020
:106A60006520636C6561722D7065722D7061737342
:106A70002C0D0A0020202020203D4E2065786163E7
:106A800074204E202825642E2E256420636C616DB1
:106A90007065642C20652E672E203D3133373520FC
:106AA0002B20456E746572292C0D0A0020202020B1
:106AB00020742074696D652F6672616D6520616454
:106AC00076616E63652C206B20626C6B2031362FF3
:106AD00033322F363420286379636C6573292C2078
