:10100000974100009381818C17B10000130181E4A6
:10101000172500001305C56F972500009385456FC0
:10102000173600001306460C63FCC500832205003A
:1010300023A055001305450093854500E3E8C5FE50
:10104000173500001305450A97A50000938505E0B4
:101050006378B5002320050013054500E36CB5FE59
:10106000EF000001EF00000A6F0000006780000041
:10107000130101FF23248100232021019727000071
:10108000938707691724000013048468232611003E
:1010900023229100338987406380870213592940B6
:1010A0009304000083270400938414001304440075
:1010B000E7800700E3E824FF972700009387476550
:1010C000172400001304C46433898740135929404E
:1010D000638E870093040000832704009384140028
:1010E00013044400E7800700E3E824FF8320C100E5
:1010F000032481008324410003290100130101011D
:1011000067800000130101EF2326111023248110B2
:101110002322911023202111232E310F232C410F44
:10112000232A510F2328610F2326710F2324810FB7
:101130002322910F2320A10F232EB10D2320010C78
:101140002322010C9307003C2324F10C9307401049
:101150002326F10CEF104022373500001305857B64
:10116000EF10D07C9307000213070002B71620008F
:1011700037165000B7153000373500001305857F4E
:10118000EF10D07A374500001305C581EF10107AB3
:101190003745000013050585EF10507937450000ED
:1011A0001305C588EF109078EF10003CEF10405801
:1011B000930780001307C0219306003C130600002C
:1011C0009305000037155000EF10005EEF1000226D
:1011D000B70701009387078013072000930680005C
:1011E0001306401F9305100237155000EF10C05B27
:1011F0009307007E13072000930690001306601FDC
:101200009305000237155000EF10005AB7B75E0083
:1012100083D52764B7B75E0003D60765B7C75E00FE
:1012200083D60754B7C75E0003D70755374500007C
:101230001305858CEF10906FEF10402D13040500FF
:10124000EF10002B9304050013050002EF100019A6
:10125000930605001386040093050400374500003B
:1012600013050590EF10906C13060000B75534126B
:101270009385856713059001EF10D030EF100017AC
:10128000B715300037155000EF104032EF10401204
:101290002326A106EF10C0112326A102232EA104AC
:1012A000232E0102930A1000232A0104232801049B
:1012B000930710002322F1042326F104130B0000EE
:1012C00023240106232A010223220106232C0104E0
:1012D000130D000023200106232401041304000041
:1012E00023280102232C010223200104930D000076
:1012F000930700082324F10293049001930900004E
:10130000130900006F009052EF100022E304055211
:10131000130D00006F001052930710036308F502CD
:10132000930720036300F5029309200093850900C9
:101330003745000013058592EF10505F130A100027
:101340006F000047930910006FF05FFE93090000E3
:101350006FF0DFFD3745000013050595EF10105DB8
:10136000130A0000930710002322F1042326F1043E
:10137000130900006F00C043374500001305459670
:10138000EF10D05A130A0000930710002322F10433
:101390002326F104130910006F0080413745000037
:1013A0001305C597EF109058130A0000930710001B
:1013B0002322F1042326F104130920006F00403F8B
:1013C000938424039307C02B63D497009304900164
:1013D000938504003745000013054599EF1010551B
:1013E000130A10006F00C03C9384E4FC9307800153
:1013F00063C497009304C02B938504003745000015
:1014000013054599EF109052130A10006F00403AEF
:1014100013050900EF10104C130C050083278102FF
:10142000130705009386040013060900938509003D
:10143000374500001305059AEF10504F9306000042
:10144000930C00006F000017130A1A0063529A16DB
:10145000639C0614374700001307470E93972C0030
:10146000B387970193972700B307F7000398C70046
:101470008397E700B387870113162A0033064601D6
:10148000131626003307C7008315C700031EE700A5
:10149000330E8E01930808006354B800938805004A
:1014A0001383070063D4C70113030E0037460000FF
:1014B0001306460E13972C003307970113172700C6
:1014C0003307E60003472701B307F70013152A0087
:1014D00033054501131525003306A60003462601F2
:1014E000B305B6003306C6013307070163D4E50030
:1014F000138705006354F60093070600E3D6E8F46B
:10150000E354F3F4330717419356F701B386E6002B
:1015100093D61640B3861601B387674013D7F701F9
:101520003307F70013571740330767009317470037
:10153000B387E74093976700B387D7009397170067
:10154000B74500009385450E13962C00330696018F
:10155000131626003386C50013152A0033054501EE
:1015600013152500B385A500371550003385A70056
:101570008358050037153000B387A70083D70700CD
:101580002320F10003D805018357060113060A0042
:1015900093850C00374500001305459DEF10103969
:1015A000930610006FF05FEA938C0B006F008000D1
:1015B000938C0B0063DA9C0063980600938B1C00ED
:1015C000138A0B006FF09FE8638A0600930B0000FC
:1015D000130A0000930C00006F00C006374500009E
:1015E0001305C5A0EF1090346FF05FFE130A1A00C8
:1015F000938B0700130717009307F03B63C2E704C0
:1016000093171700B387B700B7165000B386D700FB
:1016100003D606001316060113560601B71630004E
:10162000B386D70083D606009396060193D60601AB
:10163000E302D6FCE30C0AFA93870B006FF01FFB62
:10164000938C1C0013050900EF10502963DEAC00D9
:10165000B3878C0193954700B385F540939575004A
:10166000130700006FF05FF913860B0093050A0063
:1016700037450000130505A3EF10502B130A000097
:101680006F0000138327810693C717002324F106F8
:101690009385070037450000130505A6EF101029B4
:1016A000130A0000930710002322F1042326F104FB
:1016B0006F0000108327410393C71700232AF1020C
:1016C0009385070037450000130545AAEF10102643
:1016D000130A00006F00C00D832781056380070295
:1016E000232C01048325810537450000130585ACB3
:1016F000EF10D023130A00006F00800B9307C01275
:10170000232CF1046FF01FFE8327010693C71700F7
:101710002320F1069385070037450000130505B027
:10172000EF10D020130A00006F0080089307F0012B
:101730000327810263F6E700930707FE2324F102E3
:101740008325810237450000130545B3EF10101EB5
:10175000130A00006F00C0059307F00D03278102F4
:1017600063E6E700930707022324F1028325810241
:1017700037450000130545B3EF10501B130A000056
:101780006F00000337450000130545B4EF10101A31
:10179000130A10006F00C00137450000130545B55E
:1017A000EF10D018130A00006F008000130A000029
:1017B000631E0A0413050900EF1010162326A10C5E
:1017C00083274103638A0706639E0A0A9307100072
:1017D000630AF90083270105638A070A930720003B
:1017E0006306F900832741056382070A8327810581
:1017F000638E073083274106639C072EEF00503B22
:10180000936715002322F1066F004008333630013C
:10181000B75534129385856713850400EF10805601
:101820002322410523264105130B00002324010434
:10183000130400006FF01FF8EF0090378327C105F5
:101840003307F540B7173D009387F78FE3FEE7F6C0
:10185000EF001036232EA1041306010C938504001B
:10186000374500001305450EEF10C0791306010C33
:10187000938504003775000013054579EF108078D3
:101880006FF09FF4EF00504A631E052263920A0630
:1018900093071000630EF90483278104639E0728D1
:1018A0008327C104638E072CEF00504A630A052C7E
:1018B00013050900EF101002131A4500330AAA405D
:1018C000131A7A0013050900EF1050019306050062
:1018D000130780001306003C93050078371550006D
:1018E0003305AA00EF005050832781042326F1041A
:1018F00063940A10930720006300F9101305090090
:10190000EF10007F130A050083274104639C0746FC
:10191000930710006388F902B747000013172B00E4
:1019200033076701131727009387470EB387E70034
:1019300037370000B307F7000397876B8397C76BB0
:101940006308F746B747000013172B0033076701FA
:10195000131727009387470EB387E700B7350000BA
:10196000B385F5000396A56B83C6256C93078000AD
:1019700013870600330646018395856B37155000A3
:10198000EF009062638E094493071000638CF9485E
:10199000B747000013172B00330767011317270001
:1019A0009387470EB387E70037370000B307F70088
:1019B0008395E76BB38545010395C76BEF10C005B1
:1019C0003747000093172B00B387670193972700D1
:1019D0001307470E3307F700B7370000B387E70058
:1019E0000397C76B239CE76A0397E76B239DE76A1E
:1019F000130B1B0063549B46EF00901B032AC1028C
:101A000033054541B7C7C9019387F73763F0A7622C
:101A1000EF00101AB30B454183270104338CFD40BE
:101A200013050002EF00901B2320A104EF005018C3
:101A30002326A10237EAF505130A0A10832781033A
:101A4000B3B5470313860B009306000033854703A5
:101A5000EF10D000930C05008327C103B3B54703F3
:101A600013860B009306000033854703EF10007FB9
:101A7000232CA10283270103B3B5470313860B0070
:101A80009306000033854703EF10407D130A0500DD
:101A900093070000130700019306003C13060000A3
:101AA0009305000037155000EF0010506304093E05
:101AB00093071000630AF93CB73500009385057859
:101AC0006F00C03DEF00D00E8327C1063307F540FD
:101AD000B7570000938707E2E3FAE7DA8327C103E9
:101AE00093871700232EF102930A00006FF01FDA8C
:101AF000EF00100C832741063307F540930740069B
:101B000083268105B387F602E362F7D8EF00100E53
:101B1000B715300037155000EF005029EF0050097D
:101B20002326A106232A510523285105930A1000D4
:101B3000232201066FF09FD5EF00101FE30A05DA9C
:101B40008327810393871700232CF10283278106C3
:101B500063860700832781042326F104938504000C
:101B6000374500001305450EEF108046832781049A
:101B70002328F1042324510513840A006FF05FD752
:101B80008327010663800702130A1000130509006A
:101B9000EF104054930B0500032C0106832C8106A3
:101BA0006F00C010130A00026FF05FFEB74700001D
:101BB0001317240033078700131727009387470E56
:101BC000B387E7000397A700330777018396870061
:101BD000131547003305E540131565003305D5009F
:101BE00037172800130707803305E50003C62701D0
:101BF000130780009306060093050078131515005F
:101C0000EF00901EB747000013172400330787002A
:101C1000131727009387470EB387E7000397E70062
:101C2000330777018397C700131547003305E54055
:101C3000131565003305F500B71728009387078053
:101C40003305F50013151500638A090C930710007E
:101C5000638EF90E370801001308F881930700021C
:101C6000130700029306007813060004930505008D
:101C700037152000EF00D01EB747000013172400CF
:101C800033078700131727009387470EB387E700B2
:101C90000397C7002394E7000397E7002395E70025
:101CA000130414006356940C631A0C0C93070A0077
:101CB000130AFAFFE35EF0C2EF005009E30A05C21F
:101CC000E3180DC2E3900CF493071000E380F9EEE3
:101CD000B7470000131724003307870013172700A6
:101CE0009387470EB387E700039787008397C70062
:101CF000E31EF7EAB74700001317240033078700F5
:101D0000131727009387470EB387E7000397A700B1
:101D10008397E700E31CF7E86FF0DFEEB7470000BA
:101D20001317240033078700131727009387470EE4
:101D3000B387E70003C6270103D707019306060010
:101D400093050078EF00500A6FF01FF3032881021B
:101D5000930700021307000293060078130600049D
:101D60009305050037152000EF00D00B6FF0DFF072
:101D7000930710002324F1046FF09FB7130D100098
:101D80006FF01FB713050900EF10C03713070500E8
:101D9000930780009306003C13060A009305000099
:101DA00037155000EF005020232251056FF05FB629
:101DB000B747000013172B003307670113172700DD
:101DC0009387470EB387E70037370000B307F70064
:101DD0000397A76B8397E76BE316F7B66FF09FBA8D
:101DE000B747000013172B003307670113172700AD
:101DF0009387470EB387E700B7350000B385F5003A
:101E00000396E56B83C6256C83D7056C13870600A4
:101E1000330646018395C56B37155000EF00D01887
:101E20006FF01FBAB747000013172B003307670185
:101E3000131727009387470EB387E7003737000053
:101E4000B307F7008395E76B03268102B38545014D
:101E50000395C76BEF00102F6FF09FB68327010328
:101E6000938717002328F10293850400377500003B
:101E700013054579EF10C015138B0A009307100066
:101E8000232AF1046FF05FB7B735000093854579D9
:101E90006F00C000B7350000938585781305810772
:101EA000EF00505D63820902930710006388F90018
:101EB000B73500009385057A6F008001B7350000C3
:101EC0009385057B6F00C000B73500009385857A48
:101ED000EF00505AB74500009385C5BCEF009059FC
:101EE0001306400093850400EF00905AB7450000A8
:101EF000938505BDEF00105813064000832581022D
:101F0000EF001059B7450000938545BDEF0090568E
:101F10001306500093850C00EF009057B745000062
:101F2000938585BDEF0010551306500093050A00F8
:101F3000EF001056B7450000938505BEEF009053A3
:101F40001306500083258103EF0090542300050001
:101F5000B70601009386F6FF13068107930540003C
:101F600013058000EF00103B6318090EB70601004F
:101F7000938606FE37460000130686BE9305400191
:101F800013058000EF001039B747000093878720C2
:101F9000130740009306003C130640119305000010
:101FA00037155000EF0050009306F07F37460000D1
:101FB0001306C6BE9305C01113058000EF009035CF
:101FC000EF00C042EF00C052930B0500EF00005439
:101FD0008327010413D707019397070193D70701BC
:101FE0002328F1002326E1002324A10023227101EC
:101FF0002320410193880C00032881029387040069
:10200000138709009306090013060C0093850D0041
:1020100037450000130545C0EF1040112320B105DE
:10202000232E010223280102232C0102938D1D007F
:10203000631C0DACEF00504F9307300763E8A7F621
:102040009317250037470000130707CDB387E70034
:1020500083A7070067800700930710006302F90257
:10206000B7060100938606FE374600001306C6BF7A
:102070009305400113058000EF00D0296FF05FF455
:102080009306F07F37460000130606BF9305400114
:1020900013058000EF0010286FF09FF20325450024
:1020A000135505011375F50F67800000130101FF3B
:1020B000232611002324810023229100130405000C
:1020C0009384050013050400EFF05FFDE30C05FEAB
:1020D000232094008320C100032481008324410035
:1020E000130101016780000083A7C5002324F500C8
:1020F00083A705009387F7FF03A745001317870001
:10210000B3E7E70003A7850013170701B3E7E7006C
:102110002326F5006780000093060500B7C700007E
:102120009387C7FFB387F60083A5070037C7000072
:10213000130787FF3387E6000325070083A70700FF
:10214000E39EB7FC67800000130101FF2326110006
:1021500093050500370501F8EFF05FF58320C10016
:102160001301010167800000130101FF2326110004
:1021700023248100130405006F00C0001304140021
:10218000EFF09FFC03450400E31A05FE8320C10025
:10219000032481001301010167800000130101FF86
:1021A000232611002324810023229100930405009B
:1021B0001304C0016F00400233D784001377F70087
:1021C000B73700009387C770B387E70003C50700E0
:1021D000EFF09FF71304C4FFE35004FE8320C10017
:1021E0000324810083244100130101016780000062
:1021F000130101FF232611002324810023229100D3
:10220000930405001304C0016F00400233D784001B
:102210001377F700B737000093870772B387E7009B
:1022200003C50700EFF05FF21304C4FFE35004FEA0
:102230008320C10003248100832441001301010194
:1022400067800000130101FF232611001375F50FAD
:10225000EFF09FEF8320C1001301010167800000B0
:10226000130101FF23261100EFF01FF08320C100AE
:102270001301010167800000130101FD23261102F3
:102280002324810223229102930405006346050062
:10229000130401006F00C0021305D002EFF09FFA93
:1022A000B30490406FF0DFFE1307A000B3E7E40231
:1022B000938707032300F400B3C4E402130414005B
:1022C000E39404FE93070100E300F4FE930701008A
:1022D000630AF4001304F4FF03450400EFF09FF6D3
:1022E0006FF0DFFE8320C1020324810283244102B8
:1022F0001301010367800000130101FF2326110071
:10230000130700009307700063C0E70293162700CD
:10231000930700FFB397D700B377F50063860700F4
:10232000130717006FF01FFEEFF09FEC8320C10032
:102330001301010167800000130101FF2326110032
:10234000130700009307700063C0E702931627008D
:10235000930700FFB397D700B377F50063860700B4
:10236000130717006FF01FFEEFF05FE38320C1003B
:102370001301010167800000130101FE232E1100EB
:10238000930780002320F100232201002324010071
:102390009307B0062326F10093050100370501F8E5
:1023A000EFF09FD48320C101130101026780000078
:1023B000130101FF232611003705B0F8EFF0DFD538
:1023C0008320C1001301010167800000B70710F8E6
:1023D0003305F5002320B50067800000B70710F82B
:1023E0003305F50003250500678000009307000012
:1023F0006F00000293962700371760003307D7005D
:10240000B706A5A5B386D7002320D700938717006A
:102410001307F07FE370F7FE67800000130101FEF1
:10242000232E1100232C8100232A9100232821012F
:10243000232631012324410123225101232061015C
:10244000138B0500930A0600138A06009309070000
:1024500013840700930408001389080093050500FE
:1024600013058000EFF09FF693050B001305800025
:10247000EFF0DFF593850A0013058000EFF01FF5FC
:1024800093050A0013058000EFF05FF493850900BF
:1024900013058000EFF09FF39394040113140401DB
:1024A00013540401B3E5840013058000EFF01FF21C
:1024B0009305090013058000EFF05FF18325010209
:1024C00013058000EFF09FF08320C10103248101F8
:1024D00083244101032901018329C100032A8100CA
:1024E000832A4100032B01001301010267800000D1
:1024F000130101FF232611001305C000EFF01FEEAA
:102500008320C1001301010167800000130101FF56
:102510002326110013054000EFF05FEC8320C1007B
:102520001301010167800000130101FF2326110040
:10253000EFF0DFFD1375E500130565FF133515009A
:102540008320C1001301010167800000130101FF16
:1025500023261100EFF0DFF91335850C8320C1002D
:102560001301010167800000130101FF2326110000
:102570009305400013050000EFF05FE593051000A0
:1025800013050001EFF09FE49305000013054001DF
:10259000EFF0DFE39305100013050000EFF01FE3F9
:1025A0008320C1001301010167800000130101FEB7
:1025B000232E110013860500232001009308F00F3D
:1025C0001308C0219307003C130700789306007896
:1025D0009305050013050000EFF05FE48320C101BF
:1025E0001301010267800000130101FE232E110078
:1025F000930706002320E1009308F00F13880600DC
:1026000013870500930600001306050093050000DC
:1026100013051000EFF09FE08320C10113010102B8
:1026200067800000130101FE232E1100232001000A
:102630009308080013880700930707001387060014
:102640009306060013860500930505001305200078
:10265000EFF0DFDC8320C10113010102678000007D
:10266000130101FE232E1100232001019308F00F16
:1026700013880700930707001387060093060600D8
:10268000138605009305050013053000EFF01FD9F0
:102690008320C1011301010267800000930705FF39
:1026A000138705FFB387F7023307E702B387E70015
:1026B000130700106342F706130700096344F70687
:1026C000139765003307B7409306F0013347D702ED
:1026D000139657003306F6409357F64193F7F70FDA
:1026E000B387C70093D78740B386F6401315B5006C
:1026F000131505011355050193175700939707010B
:1027000093D707013365F5003365D500131505012F
:102710001355050167800000370501001305F58199
:1027200067800000370501001305F5FF6780000092
:10273000130101FF2326110023248100232291008D
:1027400023202101130900006F0080039317590013
:10275000B387870093971700B7142000B384F40061
:102760009305090013050400EFF05FF32390A40024
:10277000130414009307F001E3DA87FC130919002E
:102780009307F00163C62701130400006FF09FFE5A
:102790008320C10003248100832441000329010018
:1027A0001301010167800000939E0701B38EFE00B4
:1027B00093FF1500130F00006F008004138E0600B6
:1027C0006F00000793182800B308130123A0D80155
:1027D0001308180093581E40E34618FF13781E0094
:1027E000630E0800370800801308F8FF330E0E014F
:1027F000131E1E003303C3012310F300130F1F0029
:10280000635CEF023308CF00131348003303034126
:10281000131363003303B300131313003303A30034
:10282000E38E0FF82310F300138EF6FF130323003B
:10283000130800006FF01FFA67800000930606007F
:102840001357B500135655001376F6031375F501AB
:1028500093D8B50013D855001378F80393F5F50114
:102860009317370013572700B3E7E7001317260025
:10287000135646003367C70013163500135525005D
:102880003366A6001395380093D82800B368150165
:1028900013152800135848003368050113953500B7
:1028A00093D52500B365B500130EF00F3303DE405A
:1028B000B387D70233856802B387A7009387F707EA
:1028C00093D787003307D702330568023307A70081
:1028D0001307F707135787003306D602B38665023E
:1028E0003306D6001306F607135686006374FE00FF
:1028F0009307F00F9306F00F63F4E6001307F00F51
:102900009306F00F63F4C6001306F00F13D53700DB
:102910001315B500131505011355050113572700AD
:102920001317570013170701135707013365E50005
:10293000135636003365C5001315050113550501FF
:1029400067800000130101FE232E1100232C81005B
:10295000232A910023282101232631012324410128
:102960002322510123206101130B0500938A0500E6
:10297000130A0600930900006F0040049397590062
:10298000B38787009397170037172000B307F70026
:1029900003D5070093141400B304990083D50400F1
:1029A00013060A00EFF09FE92390A400130414001B
:1029B0009307F001E3D487FC938919009307F00192
:1029C00063C83703B3875901139947003309F940A6
:1029D0001319690033096901B71728009387078025
:1029E0003309F90013191900130400006FF05FFC9C
:1029F0008320C101032481018324410103290101B2
:102A00008329C100032A8100832A4100032B01008E
:102A100013010102678000001308050013850500FB
:102A2000130600006F000005130717009307F0015D
:102A300063C0E70493175600B387E7009397170026
:102A4000B7162000B387F60083D7070093970701D6
:102A500093D70701B70601009386F681E386D7FC7A
:102A600093161700B386D5002390F6006FF0DFFBB6
:102A7000130616009307F00163C8C702B307A60048
:102A800093954700B385F54093956500B38505019F
:102A9000B717280093870780B385F5009395150035
:102AA000130700006FF09FF8678000009307F5F9A7
:102AB00093F7F70F130790016366F700130505FE00
:102AC0001375F50F130700009307100263CEE7029A
:102AD000B747000093163700B386E600938707EAEE
:102AE000B387D70083C707006386A70013071700C3
:102AF0006FF09FFDB7470000938707EA3385F60024
:102B0000130515006780000037450000130515EA1E
:102B100067800000130101FE232E1100232C810089
:102B2000232A910023282101232631019304050043
:102B30001389050093090600138406006F004010F6
:102B4000130600009315870193D5854163C00502E4
:102B5000930500003366B60023A0C7001376070173
:102B6000630A0600131604016F00000193050400B8
:102B70006FF05FFE13060000937507026386050081
:102B8000930504006F008000930500003366B600D3
:102B900023A2C7001376470063060600131604013C
:102BA0006F008000130600009375870063860500A0
:102BB000930504006F008000930500003366B600A3
:102BC00023A4C7001376170063060600131604013A
:102BD0006F008000130600001377270063060700CC
:102BE000130704006F008000130700003367E6003E
:102BF00023A6E700938616009307700063C0D704EE
:102C0000B307D50003C70700338626019317460094
:102C1000B387C74093976700B3879700371628009C
:102C200013060680B387C70093971700137607042F
:102C3000E30806F0131604016FF0DFF093848400BC
:102C400003C50900630A050093891900EFF01FE628
:102C5000930600006FF05FFA8320C1010324810115
:102C600083244101032901018329C10013010102C9
:102C7000678000006F000001938515002300F500B8
:102C80001305150083C70500E39807FE6780000061
:102C9000130101FF930700001308A000B3F605031A
:102CA00093860603138707013307270093871700CE
:102CB000230AD7FE93860500B3D5050313079000BA
:102CC0006378D7021307A000E358F7FC130700004E
:102CD0006F004001930600022300D5001307170080
:102CE00013051500B306F640E346D7FE6F00400219
:102CF000130700006FF01FFF9387F7FF138707018B
:102D000033072700034747FF2300E500130515009D
:102D1000E39407FE1301010167800000B70701F883
:102D200003A5470067800000130101FF232611005F
:102D3000EFF0DFFE13558501630E0500B70701F8BC
:102D400003A507001375F50F8320C10013010101CE
:102D500067800000130500006FF01FFF8327050048
:102D6000376719001307D760B387E70237F76E3C60
:102D70001307F735B387E7002320F50013D50701C4
:102D800067800000130101FD232611022324810224
:102D90002322910223202103232E3101232C4101E0
:102DA000232A510193090500938A0500130A06009E
:102DB000130900006F00401E93073000B367F40250
:102DC000638E0700130710006386E70013060002F6
:102DD0006F000001130680016F00800013060001E0
:102DE0003747000093172400B38787009397270085
:102DF000B73600009386066BB306D902B387D700B7
:102E00001307470EB307F7002389C70013077000A5
:102E100033F7E4021307D7FFB746000093172400E7
:102E2000B387870093972700373600001306066B99
:102E30003306C902B387C7009386460EB386F600F1
:102E40002392E60093075000B377F5029387E7FFDC
:102E50002393F600631A0702B746000013172400F5
:102E60003307870013172700373600001306066B59
:102E70003306C9023307C7009386460E3387E60040
:102E8000930610002312D700639A07023747000009
:102E900093172400B387870093972700B736000065
:102EA0009386066BB306D902B387D7001307470E84
:102EB000B307F700130710002393E7001307003848
:102EC00033F7E4021377E73FB74700009316240077
:102ED000B386860093962600373600001306066BED
:102EE0003306C902B386C6009387470EB387D7005F
:102EF0002390E7009306C00DB376D5022391D70047
:102F00002394E7002395D7002396E7002397D70063
:102F100013D784001317B7001317070113570701BE
:102F2000935685009396560093F6067E3367D70036
:102F3000B384A40093F4F401336797002398E70067
:102F400013041400635834051305C100EFF01FE1AA
:102F5000930405001305C100EFF05FE0E30E0AE4FF
:102F60003747000093172400B38787009397270003
:102F7000B73600009386066BB306D902B387D70035
:102F80001307470EB307F700130700022389E70072
:102F90006FF0DFE7130919009307100063C82701DA
:102FA00023265101130400006FF0DFF98320C102D2
:102FB0000324810283244102032901028329C101E0
:102FC000032A8101832A4101130101036780000064
:102FD000130700006F00800293172700B387E700F4
:102FE00093972700B307F500839607002396D70031
:102FF000839627002397D70013071700E34EB7FCEB
:1030000067800000832E0600832F8600B38FDF01C8
:10301000032E4600032FC600330FCF019308000094
:103020006F004004B382660063DC5F00B3866F40CC
:1030300013180801135808013308004123920701AF
:103040006358C70713160601135606013306C0401E
:103050002393C70013070E002390D7002391E700A6
:103060009388180063D6B80693972800B387170192
:1030700093972700B307F50083960700039847004E
:10308000B386060103972700039667003307C7003E
:1030900003C32701E3D8D6F9131808011358080110
:1030A000330800412392070193860E006FF05FF909
:1030B00033086700E3520FFB33076F401316060116
:1030C000135606013306C0402393C7006FF0DFF8A4
:1030D000678000001305000167800000631605008B
:1030E00013054010678000001305C02067800000B2
:1030F00063160500130580116780000013050001A9
:10310000678000006316050013054010678000000B
:103110001305C020678000006316050013054010EA
:10312000678000001305C02067800000130101FCC8
:10313000232E1100232C8100232A910093040500E3
:103140002322B1022324C1022326D1022328E10233
:10315000232AF102232C0103232E1103930741029A
:103160002326F100130400006F00C0018327C10073
:10317000138747002326E10003A50700EFF08F8C9B
:1031800013041400B387840003C50700630E050A07
:1031900093075002630EF506EFF0CF8A6FF05FFEE3
:1031A0008327C100138747002326E10003A50700FA
:1031B000EFF00F8B6FF0DFFC8327C1001387470010
:1031C0002326E10003A50700EFF00F8B6FF05FFBF4
:1031D0008327C100138747002326E10003A50700CA
:1031E000EFF08F956FF0DFF98327C1001387470059
:1031F0002326E10003A50700EFF00F906FF05FF8C2
:103200003735000013054573EFF08F856FF05FF7DA
:1032100013041400B387840083C70700E38207F612
:10322000938787FA93F6F70F13070002E362D7FE3E
:1032300093972600374700001307C7C4B387E700FA
:1032400083A70700678007008320C1010324810151
:103250008324410113010104678000001308060064
:1032600093080500138705006390060E63FEC512E0
:10327000B7070100636EF61EB707000193068001D1
:103280006374F600930600013353D60097170000CD
:10329000938787D4B387670083C7070013030002AF
:1032A000B387D700B306F340630CF3003397D50020
:1032B000B357F5003318D60033E7E700B318D5004D
:1032C000135608013355C7029316080193D6060119
:1032D00093D708013377C702B385A60213170701F6
:1032E000B3E7E70063FCB700B307F8001307F5FF87
:1032F00063E4070163E0B74013050700B387B740F5
:1033000033D7C7029398080193D80801B3F7C702CF
:10331000B386E60293970701B3E8F80063FED8008E
:10332000B30818019307F7FF63E608011307E7FFE7
:1033300063E4D80013870700131505013365E50022
:10334000930500006780000063F8D5009305000036
:103350001305000067800000B707010063E8F61E50
:10336000370700019307800163F4E600930700012B
:1033700033D8F60017170000130707C633070701F5
:1033800003470700930800023307F7003388E8403B
:103390006396E81E63E4B6323335C5001335150075
:1033A0009305000067800000630C060CB70701005E
:1033B000637CF62E133706101337170013173700E8
:1033C000B356E60097170000938707C1B387D7006D
:1033D00083C7070093060002B387E700B38EF64069
:1033E0006394F60CB387C540935606011316060185
:1033F000135606019305100033D5D70213D70801E1
:10340000B3F7D7023303C50293970701B367F700F9
:1034100063FC6700B307F8001307F5FF63E40701D7
:1034200063E4672C13050700B387674033D7D702DF
:103430009398080193D80801B3F7D7023306C7025F
:1034400093970701B3E8F80063FEC800B3081801BA
:103450009307F7FF63E608011307E7FF63E4C8007B
:1034600013870700131505013365E5006780000029
:103470009336061093B61600939636006FF0DFE091
:103480009306000097170000938707B5B387D7000E
:1034900083C707001307000093060002B387E70005
:1034A000B38EF640E380F6F43318D60133D3F5003B
:1034B00093560801335ED30213160801B395D50164
:1034C00013560601B357F500B3E7B70013D707014A
:1034D000B318D5013373D302B305C6031313030125
:1034E00033676700637EB7003307E8001305FEFF0C
:1034F0006364071F6372B71E130EEEFF33070701E5
:103500003307B7403355D7029397070193D7070185
:103510003377D7023303A60213170701B3E7E70097
:1035200063FE6700B307F8001307F5FF63EE0719A2
:1035300063FC67181305E5FFB387070193150E01B8
:10354000B3876740B3E5A5006FF01FEB93B7061094
:1035500093B717009397370033D8F600171700007A
:10356000130787A7330707010347070093080002E3
:103570003307F7003388E840E38EE8E0335EE60087
:10358000B3960601336EDE00B3D8E500935E0E01FC
:10359000B3D7D80313130E01B395050113530301D9
:1035A0003357E5003367B70093560701331606011A
:1035B000B3F8D803B305F30293980801B3E61601F4
:1035C00063FEB600B306DE009388F7FF63EAC61118
:1035D00063F8B6109387E7FFB386C601B386B6409B
:1035E000B3D5D6031317070113570701B3F6D60354
:1035F000B308B302939606013367D700637E1701C1
:103600003307EE009386F5FF6364C70D6372170DF1
:103610009385E5FF3307C70193970701B70E0100B4
:10362000B3E7B7009386FEFFB3F5D70013D30701C6
:10363000B376D60013560601338ED50233071741F1
:10364000B306D30293580E01B385C502B385D500E6
:10365000B385B8003303C30263F4D5003303D30149
:1036600093D60501B3866600636AD7026308D70064
:10367000138507009305000067800000B70601006E
:103680009386F6FF33F7D50013170701337EDE006C
:10369000331505013307C701E37CE5FC1385F7FF0C
:1036A0009305000067800000B7070001637AF60405
:1036B00093560601130700016FF0DFD09305000059
:1036C0001305100067800000130507006FF01FE767
:1036D000938506006FF05FF4130E05006FF05FE254
:1036E000938708006FF09FEF1305E5FFB38707018D
:1036F0006FF09FD31305E5FFB38707016FF01FC07D
:0C37000093568601130780016FF0DFCBA9
:10370C00303132333435363738394142434445460B
:10371C0000000000303132333435363738396162CD
:10372C0063646566000000003C466C6F6174696EF2
:10373C006720706F696E74207072696E74696E6741
:10374C00206E6F7420656E61626C652E20506C6506
:10375C0061736520456E61626C65206974206174CB
:10376C00206273702E682066697273742E2E2E3E42
:10377C000000000048574D4F4445200053504C4921
:10378C0054200000000000004350554D4F4445208C
:10379C00000000004B4559200000000046494C4CED
:1037AC0020000000414C5048412000000D0A3D3DD6
:1037BC003D3D3D20636F6D7074657374323A2048E3
:1037CC005720616363656C20767320707572652079
:1037DC004350552C2073616D652073637265656E63
:1037EC00203D3D3D3D3D0D0A0000000046423D257B
:1037FC0078204241434B3D25782041544C41533D68
:10380C002578205350523D25647825640D0A00001C
:10381C006C61796F75743A204F534420302D3136DA
:10382C00207C2048572031362D323736207C2073AF
:10383C006570207C20435055203238302D35343083
:10384C000D0A0000636D643A20312F322F33207340
:10385C0063656E652046494C4C2F414C5048412FB6
:10386C004B45592C20732F632F682070617468208E
:10387C0053504C49542F4350552F48570D0A0000B4
:10388C0020202020206E206F72202B204E2B3235D2
:10389C002C202D204E2D32352C20612F4120616C97
:1038AC007068612D2F2B2C20722072657365742C1F
:1038BC00203F2068656C700D0A000000616C696720
:1038CC006E636865636B2025782025782025782029
:1038DC002578202865787065637420663830302030
:1038EC006638303020303765302030376530290D60
:1038FC000A00000073656C66636865636B3A20535D
:10390C0054415455533D257820434F554E543D2535
:10391C0064205343414E3D25780D0A000D0A45564F
:10392C00207363656E653D25642028303D46494C07
:10393C004C20313D414C50484120323D4B4559299A
:10394C000D0A00000D0A455620706174683D302048
:10395C0053504C49540D0A000D0A455620706174A1
:10396C00683D3120435055206F6E6C790D0A000074
:10397C000D0A455620706174683D32204857206FFF
:10398C006E6C790D0A0000000D0A4556204E3D253F
:10399C00640D0A000D0A45562064756D7020736322
:1039AC00656E653D256420706174683D2564206EEC
:1039BC003D25642079303D256420616C7068613D43
:1039CC0025640D0A000000002020706169722069D6
:1039DC003D2564206A3D25642070783D25642C25A6
:1039EC00642063693D255820636A3D255820626137
:1039FC00636B3D255820626173653D25580D0A00A7
:103A0C0020206E6F206F7665726C6170207061691A
:103A1C007220696E20485720726567696F6E0D0AB7
:103A2C00000000002020636F707920646966663D99
:103A3C0025642066697273745F6F66663D25582035
:103A4C0028303DE68BB7E8B49DE5BFA0E5AE9E29D6
:103A5C000D0A00000D0A455620636C6561725F709B
:103A6C0065725F706173733D25642028313DE6AF4C
:103A7C008FE8B69FE695B4E78987E9878DE993BA15
:103A8C002C20E4B894E4B88DE5868DE58F91E6930F
:103A9C00A6E999A4290D0A000D0A455620667265FF
:103AAC00657A653D25642028313DE8BF90E58AA8FC
:103ABC00E69A82E5819C290D0A0000000D0A455604
:103ACC002067756172643D256475732028303D6FE5
:103ADC0066662C3330303D77616974207772697477
:103AEC006573206265666F726520636F7079290D4E
:103AFC000A0000000D0A45562066656E63653D257B
:103B0C00642028313D687720776169747320656E75
:103B1C0067696E652069646C652070657220626CE3
:103B2C006F636B290D0A00000D0A455620616C70FD
:103B3C0068613D25640D0A000D0A455620726573B7
:103B4C0065740D0A000000000D0A636D643A2031A3
:103B5C002F322F333D46494C4C2F414C5048412F6E
:103B6C004B45592020732F632F683D53504C4954BB
:103B7C002F4350552F485720206E2F2B2F202D3D93
:103B8C004E2020612F413D616C7068612020663DA4
:103B9C0066656E636520673D6775617264206D3D77
:103BAC00667265657A6520653D636C65617220643B
:103BBC003D64756D7020723D72657365740D0A00FD
:103BCC004E00000020410000204857002043505573
:103BDC000000000020534352000000004857000032
:103BEC0043505500435055204F4E4C590000000097
:103BFC004857204F4E4C5900532069743D25642082
:103C0C00643D256420703D25642073633D2564204C
:103C1C004E3D256420413D25642048573D256420B8
:103C2C004350553D256420433D25642053543D2588
:103C3C00782061623D256420756E3D25640D0A0077
:103C4C00D0310000103200001032000010320000A1
:103C5C001032000010320000103200001032000050
:103C6C001032000010320000103200006C310000E5
:103C7C00B831000010320000003200001032000099
:103C8C001032000010320000103200001032000020
:103C9C001032000010320000103200001032000010
:103CAC00103200001032000010320000A031000071
:103CBC0010320000103200001032000010320000F0
:103CCC00E8310000B4170000AC170000AC1700007E
:103CDC00AC170000AC170000AC170000AC170000CC
:103CEC00AC170000AC170000AC170000AC170000BC
:103CFC00AC170000AC170000AC170000AC170000AC
:103D0C00AC170000AC170000AC170000AC1700009B
:103D1C00AC170000AC170000AC170000AC1700008B
:103D2C00AC170000AC170000AC170000AC1700007B
:103D3C00AC170000AC170000AC170000AC1700006B
:103D4C00AC170000AC170000AC170000AC1700005B
:103D5C00AC170000AC170000AC170000AC1700004B
:103D6C00AC170000AC170000AC170000AC1700003B
:103D7C00C0130000AC170000E8130000AC170000E3
:103D8C00AC170000AC17000018130000181300004B
:103D9C0018130000AC170000AC170000AC170000A3
:103DAC00AC170000AC170000AC170000AC170000FB
:103DBC00AC170000AC170000AC170000AC170000EB
:103DCC0098170000AC17000058170000AC17000043
:103DDC00781300001014000084160000081700006F
:103DEC00D81600009C130000AC170000AC170000A4
:103DFC00AC170000AC170000B4160000C013000094
:103E0C00AC170000AC170000AC17000084170000C2
:103E1C0054130000AC170000AC170000AC170000E6
:103E2C00AC170000AC170000AC170000AC1700007A
:103E3C00AC170000AC170000AC170000AC1700006A
:103E4C00AC170000AC1700002C170000AC170000DA
:103E5C0078130000101400008416000008170000EE
:103E6C00D81600009C130000AC170000AC17000023
:103E7C00AC170000AC170000B4160000C013000013
:103E8C00AC170000AC170000AC1700008417000042
:103E9C0054130000200000000000000000303C66BD
:103EAC006E7666663C00311838181818187E003289
:103EBC003C66060C18307E00333C66061C06663CDD
:103ECC0000340C1C3C6C7E0C0C00357E607C0606B1
:103EDC00663C00361C30607C66663C00377E060C07
:103EEC001830303000383C66663C66663C00393C25
:103EFC0066663E060C380041183C66667E666600B7
:103F0C00433C66606060663C0044786C6666666C38
:103F1C007800457E60607860607E00467E606078E8
:103F2C0060606000486666667E66666600493C189E
:103F3C00181818183C004B666C7870786C66004C3E
:103F4C006060606060607E004D63777F6B6363636D
:103F5C00004E66767E7E6E6666004F3C66666666D2
:103F6C00663C00507C66667C60606000533C66601A
:103F7C003C06663C00547E18181818181800556634
:103F8C0066666666663C00576363636B7F776300A7
:103F9C00596666663C181818003D00007E007E00CD
:103FAC0000002E00000000001818003A001818003D
:103FBC00181800002F060C1830604000002D00006F
:103FCC00007E000000000000000102020303030356
:103FDC00040404040404040405050505050505058D
:103FEC00050505050505050506060606060606066D
:103FFC000606060606060606060606060606060655
:10400C00060606060606060607070707070707073C
:10401C000707070707070707070707070707070724
:10402C000707070707070707070707070707070714
:10403C000707070707070707070707070707070704
:10404C0007070707070707070808080808080808EC
:10405C0008080808080808080808080808080808D4
:10406C0008080808080808080808080808080808C4
:10407C0008080808080808080808080808080808B4
:10408C0008080808080808080808080808080808A4
:10409C000808080808080808080808080808080894
:1040AC000808080808080808080808080808080884
:1040BC000808080808080808080808080808080874
:1040CC0008080808080808080000000000000000A4
:0640DC00000000000000DE
:0400000300001000E9
:00000001FF
