:1010000097410000938181AC17E10000130181F743
:1010100017350000130505949735000093858593D7
:10102000173600001306C62C63FCC500832205009A
:1010300023A055001305450093854500E3E8C5FE50
:10104000173500001305C52A97D50000938505F3D1
:101050006378B5002320050013054500E36CB5FE59
:10106000EF000001EF00000A6F0000006780000041
:10107000130101FF23248100232021019737000061
:101080009387478D173400001304C48C2326110066
:1010900023229100338987406380870213592940B6
:1010A0009304000083270400938414001304440075
:1010B000E7800700E3E824FF9737000093878789DC
:1010C00017340000130404893389874013592940D9
:1010D000638E870093040000832704009384140028
:1010E00013044400E7800700E3E824FF8320C100E5
:1010F000032481008324410003290100130101011D
:1011000067800000130101F52326110A2324810AB8
:101110002322910A2320210B232E3109232C41095C
:10112000232A5109232861092326710923248109CF
:10113000232291092320A109232EB107232601068A
:1011400023240106232C0104232E01049307003CD1
:101150002320F106930740102322F106EF00907A36
:1011600037450000130505A2EF20802093070002F9
:1011700013070002B716200037165000B7153000CD
:1011800037450000130505A6EF20801E37450000F7
:10119000130545A8EF20C01D9305900137450000B9
:1011A000130585ABEF20C01C37450000130585AF44
:1011B000EF20001C130690019305900137450000B5
:1011C000130545B3EF20C01A37450000130505B7D6
:1011D000EF20001AEF100012EF10402E930780004E
:1011E0001307C0219306003C13060000930500007E
:1011F00037155000EF100034EF001078B7070100EA
:101200009387078013072000930680001306401F72
:101210009305100237155000EF10C0319307007E80
:1012200013072000930690001306601F9305000229
:1012300037155000EF100030B7B75E0083D5276434
:10124000B7B75E0003D60765B7C75E0083D60754FD
:10125000B7C75E0003D7075537450000130505BA29
:10126000EF200011EF10400313040500EF10000100
:101270009304050013050002EF00106F1309050029
:1012800013058002EF00506E130705009306090056
:10129000138604009305040037450000130585BD3F
:1012A000EF20000D1306000083A541811305900176
:1012B000EF10104AEF00506CEF0050681304050067
:1012C0002326A10423A8A18213070000930610007F
:1012D000130600089305000013059001EF10901FFE
:1012E00013052000EF101005930505003745000099
:1012F0001305C52FEF10D03423A80180EF00D0676D
:10130000B715300037155000EF10000337450000C7
:10131000130585C0EF20C00523248104930C04002D
:101320001309100023220102232801029307100051
:101330002324F1022322F104130A0000232A0102CC
:10134000232C0100930D1000232001042326010209
:1013500013040000232C010223200102232E01028A
:10136000930B000093070008232EF100930A9001CD
:10137000130B0000130C20006F00D013EF109037F8
:1013800093090500EF00905B930C0500930740075D
:1013900063EA37239397290037470000130787EC48
:1013A000B387E70083A70700678007009307100350
:1013B000638AF902930720036382F902130B20006A
:1013C00093050B0037450000130545C4EF10507A14
:1013D000130D1000930910006F00401F130B100035
:1013E0006FF01FFE130B00006FF09FFD37450000EC
:1013F0001305C5C6EF10D077130D10009309000038
:10140000930710002324F1022322F104130C00009F
:101410006F00C01B37450000130505C8EF1050755D
:10142000130D100093090000930710002324F1020C
:101430002322F104130C10006F00401937450000FF
:10144000130585C9EF10D072130D10009309000029
:10145000930710002324F1022322F104130C20002F
:101460006F00C016938A9A019307803E63D4570198
:10147000930A900193850A0037450000130505CBB8
:10148000EF10106F130D1000930910006F0000147F
:10149000938A7AFE9307800163C45701930A803EC2
:1014A00093850A0037450000130505CBEF10506CFB
:1014B000130D1000930910006F00401193C91D0017
:1014C00063860D00930710002322F1049385090021
:1014D000374500001305C5CBEF109069938D0900C7
:1014E000130D1000930900006F00400E8327810147
:1014F00093C71700232CF1009385070037450000A0
:101500001305C5CFEF10D06623269105130D1000EB
:10151000930900006F00800B9307F0010327C101BE
:1015200063F6E700930707FE232EF1008325C10130
:1015300037450000130545D4EF109063130D1000DC
:10154000930900006F0080089307F00D0327C10185
:1015500063E6E70093070702232EF1008325C1010C
:1015600037450000130545D4EF109060130D1000AF
:10157000930900006F00800583A741813787379E5C
:101580001307979BB387E70023AAF1803745000034
:10159000130545D5EF10D05D130D00009309100021
:1015A0006F00C002130690019305900137450000BB
:1015B000130545D6EF10D05B130D00009309000012
:1015C0006F00C000130D0000930900006396090826
:1015D00063100D0C13050C00EF1050582322A106C8
:1015E00083278101639807108327C1043387FC4058
:1015F000B7173D009387F78F63EAE70A83278101D6
:10160000232AF10203A701833387EC40B7E7F505EE
:101610009387F70F63F6E76A832781012320F100A0
:1016200093880D000328C10193070B0013870A005C
:1016300083268103032601028325C10313850C0041
:10164000EF100070630E0566232C91022320910297
:10165000232E91026F00C0663336600183A541815D
:1016600013850A00EF10D00E23240106232601065D
:101670002324310323223105130A0000232A010207
:101680002320010423260102130400006FF05FF4FD
:101690000327810193860D000326C10193050B00EA
:1016A00013850A00EF1000636FF0DFF283298101D8
:1016B000930681061306C1069305810513850A006A
:1016C000EF10103E93891900EF0050273305954124
:1016D000B7173D009387F78F63F2A7049307700055
:1016E000E3D837FD83278101232AF10223269105C0
:1016F0006FF05FF183294103E35630F193068106D1
:101700001306C1069305810513850A00EF105039B1
:101710009387F9FF232AF1026FF0DFEE832781011F
:10172000232AF102232691056FF0DFED93850A004D
:101730003745000013058533EF1050262326010698
:101740006F00C05893850A00379500001305851572
:10175000EF10D024232401066F00C0578327810196
:101760002320F10093880D000328C10193070B008B
:1017700013870A0083268103032601028325C10300
:1017800013850C00EF10C05B63000556232C01028B
:1017900023200102232E01026F00005513050003D0
:1017A000EF00901A6F00C00013050003EF00D0197E
:1017B00063160938930710006302FC388327C102BF
:1017C000638A070A930720006316FC0093F73B0027
:1017D00063980708EF00502CEF00D02D6302050836
:1017E0008327C10393871700232EF10263900D56C0
:1017F0008327C1022328F1022320B1052326B10348
:1018000013840D006F00803393071000630AFC00FF
:1018100083270103E38E07F8930720006306FC008B
:1018200083274102E38607F8EF001015B715300053
:1018300037155000EF005030EF0050102324A10462
:101840002322210323282103130910006FF05FF6E0
:10185000032981016FF0DFF5130900006FF05FF5D8
:1018600093072000631CFC2C13050003EF00D00D30
:101870006F00C02C13050C00EF10102A130D05008B
:10188000832701046380070293072000631CFC0088
:1018900093F73B006388070013050003EF00D00AAD
:1018A0006F00C029EF0010229304050063160400A6
:1018B0008327C106639E07008327410463840700D2
:1018C0006394040293070004232081056F008014B1
:1018D00093850A003745000013058533EF10100C7F
:1018E000232601066FF05FFD93194D00B389A941CE
:1018F0009399790013050C00EF10902293060500D0
:10190000130780001306003C93050078371550003C
:101910003385A900EF0010269384F4FF8327C102CA
:101920002322F1046FF01FFAB747000013172400B9
:10193000330787001317270093878733B387E700A0
:101940000397A7008397E7006306F7009309200039
:101950006F000001930910006F00800093091000D0
:1019600063E4341D93072000638EF90EB74700002F
:101970001317240033078700131727009387873333
:10198000B387E7000397E7003307A7018397C700F2
:10199000131547003305E540131565003305F500C1
:1019A00013151500B71750003305F50063080B1029
:1019B00093071000630CFB12370801001308F8812D
:1019C0009307000213070002930600781306000431
:1019D0009305050037152000EF005021B7470000A0
:1019E00013172400330787001317270093878733C3
:1019F000B387E7000397C7002394E7000397E70046
:101A00002395E700B3843441130414006356541142
:101A100093070C00635E541163860432138CF7FF46
:101A20006388070EE39C0DF2930710006308FB0226
:101A3000B747000013172400330787001317270048
:101A400093878733B387E700039787008397C7009F
:101A5000E30CF7EC930920006FF09FF0930920004E
:101A60006FF01FF03747000093172400B3878700FB
:101A700093972700130787333307F7008316A700D0
:101A8000B386A6010316870093974600B387D74015
:101A900093976700B387C700939717000346270102
:101AA0001307800093060600930500783715500051
:101AB0003385A700EF00100C6FF05FEBB747000015
:101AC00013172400330787001317270093878733E2
:101AD000B387E70003C6270103D707019306060073
:101AE00093050078EF0010096FF05FEF0328C10144
:101AF0009307000213070002930600781306000400
:101B00009305050037152000EF00900A6FF01FEDD8
:101B1000032C01046F000002032C01049307100042
:101B20002326F1026F000001032C01046F008000E6
:101B3000032C010493B714002320F1046316091247
:101B4000930720006302FC1213050C00EF10807E47
:101B50009304050063160A00832781066396072015
:101B600083278102639E0720930710006308FB020E
:101B7000B747000013172A00330747011317270040
:101B800093878733B387E70037570000B307F70021
:101B9000039787E28397C7E2630AF720B7470000FD
:101BA00013172A003307470113172700938787333A
:101BB000B387E700B7550000B385F5000396A5E2AB
:101BC00083C625E39307800013870600330696003B
:101BD000839585E237155000EF00D01563000B2088
:101BE00093071000630EFB22B747000013172A006B
:101BF000330747011317270093878733B387E7001D
:101C000037570000B307F7008395E7E2B3859500E7
:101C10000395C7E2EF00D0383747000093172A003A
:101C2000B387470193972700130787333307F700DC
:101C3000B7570000B387E7000397C7E22394E7E2B2
:101C40000397E7E22395E7E2130A1A00634E5A016D
:101C500083270102938717002320F102130A09004A
:101C6000930710002322F10283A7018163840704F4
:101C70006312090413050C00EF00D06B93050500F7
:101C8000374500001305C52FEF10801B63120C02AF
:101C9000B747000093878720130740009306003C56
:101CA000130640119305000037155000EF0090080F
:101CB00023A80180938B1B0093F4FB01638004EC49
:101CC000E30409B48327C106E39207A683278106AC
:101CD000E39A07A603A701833387EC40B7E7F5052E
:101CE0009387F70FE3ECE7A693F73B00E39E07AA81
:101CF000EF00805AEF00005CE30205AAEF00004409
:101D0000832781043305F540B7570000938707E226
:101D1000E3F6A7A88327810393871700232CF102FA
:101D200083278101E38607B29307700003274103ED
:101D3000E3C4E7B293071700232AF1021309000056
:101D40006FF01FA7032C01046FF0DFDE8327C102B1
:101D50002328F1022322F104232021052326210335
:101D6000130409006FF09FDD93850A00379500008A
:101D700013058515EF108042232401066FF05FDE06
:101D800013050C00EF10405C13070500930780005B
:101D90009306003C1386040093050000371550009D
:101DA000EF004079232421036FF01FDCB7470000C8
:101DB00013172A0033074701131727009387873328
:101DC000B387E70037570000B307F7000397A7E290
:101DD0008397E7E2E314F7DC6FF05FE0B7470000BA
:101DE00013172A00330747011317270093878733F8
:101DF000B387E700B7550000B385F5000396E5E229
:101E000083C625E383D705E31387060033069600D0
:101E10008395C5E237155000EF00C0716FF0DFDF2A
:101E2000B747000013172A0033074701131727008D
:101E300093878733B387E70037570000B307F7006E
:101E40008395E7E20326C101B38595000395C7E2B8
:101E5000EF0010086FF05FDC032545001355050106
:101E60001375F50F67800000130101FF2326110091
:101E7000232481002322910013040500938405008C
:101E800013050400EFF05FFDE30C05FE2320940032
:101E90008320C10003248100832441001301010138
:101EA0006780000083A7C5002324F50083A70500F1
:101EB0009387F7FF03A7450013178700B3E7E700F1
:101EC00003A7850013170701B3E7E7002326F500F2
:101ED00067800000130101FF232611009305050010
:101EE000370501F8EFF05FF88320C100130101010D
:101EF00067800000130101FF2326110023248100C5
:101F0000130405006F00C00013041400EFF09FFCE1
:101F100003450400E31A05FE8320C1000324810069
:101F20001301010167800000130101FF2326110046
:101F30002324810023229100930405001304C0018F
:101F40006F00400233D784001377F700B7470000D3
:101F500093870795B387E70003C50700EFF09FF766
:101F60001304C4FFE35004FE8320C1000324810056
:101F7000832441001301010167800000130101FF68
:101F800023261100232481002322910093040500BD
:101F90001304C0016F00400233D784001377F700A9
:101FA000B747000093874796B387E70003C507004C
:101FB000EFF05FF21304C4FFE35004FE8320C1007E
:101FC0000324810083244100130101016780000084
:101FD000130101FF232611001375F50FEFF09FEF9A
:101FE0008320C1001301010167800000130101FF7C
:101FF00023261100EFF01FF08320C100130101011F
:1020000067800000130101FD2326110223248102B1
:102010002322910293040500634605001304010086
:102020006F00C0021305D002EFF09FFAB304904096
:102030006FF0DFFE1307A000B3E7E4029387070306
:102040002300F400B3C4E40213041400E39404FE78
:1020500093070100E300F4FE93070100630AF40014
:102060001304F4FF03450400EFF09FF66FF0DFFE6A
:102070008320C1020324810283244102130101034E
:1020800067800000130101FF2326110013070000E1
:102090009307700063C0E70293162700930700FFC1
:1020A000B397D700B377F5006386070013071700CF
:1020B0006FF01FFEEFF09FEC8320C10013010101C0
:1020C00067800000130101FF2326110013070000A1
:1020D0009307700063C0E70293162700930700FF81
:1020E000B397D700B377F50063860700130717008F
:1020F0006FF01FFEEFF05FE38320C10013010101C9
:1021000067800000130101FE232E11009307800059
:102110002320F10023220100232401009307B006AD
:102120002326F10093050100370501F8EFF09FD752
:102130008320C1011301010267800000B7C7B0F816
:1021400003A587FF67800000630605001305F5FF00
:10215000E31E05FE67800000B70710F83305F500A1
:102160002320B50067800000B70710F83305F5009D
:102170000325050067800000930700006F00000240
:1021800093962700371760003307D700B706A5A539
:10219000B386D7002320D700938717001307F07F5B
:1021A000E370F7FE67800000130101FE232E11008B
:1021B000232C8100232A9100232821012326310189
:1021C000232441012322510123206101138B0500A7
:1021D000930A0600138A0600930907001384070078
:1021E0009304080013890800930505001305800077
:1021F000EFF09FF693050B0013058000EFF0DFF57D
:1022000093850A0013058000EFF01FF593050A007F
:1022100013058000EFF05FF493850900130580003B
:10222000EFF09FF393940401131404011354040179
:10223000B3E5840013058000EFF01FF29305090059
:1022400013058000EFF05FF1832501021305800084
:10225000EFF09FF08320C101032481018324410119
:10226000032901018329C100032A8100832A410037
:10227000032B01001301010267800000130101FF1D
:10228000232611001305C000EFF01FEE8320C100CC
:102290001301010167800000130101FF23261100D3
:1022A00013054000EFF05FEC8320C1001301010132
:1022B000678000001375E500130565FF13351500F1
:1022C00067800000130101FF23261100EFF01FFBC0
:1022D0009307700C63ECA7009307800C3385A7402D
:1022E0008320C10013010101678000001305000075
:1022F0006FF01FFF130101FF23261100930540001B
:1023000013050000EFF05FE59305100013050001D1
:10231000EFF09FE49305000013054001EFF0DFE3C9
:102320009305100013050000EFF01FE38320C100A8
:102330001301010167800000130101FE232E11002B
:1023400013860500232001009308F00F1308C02115
:102350009307003C13070078930600789305050067
:1023600013050000EFF05FE48320C10113010102B7
:1023700067800000130101FE232E11009307060061
:102380002320E1009308F00F13880600138705004F
:1023900093060000130605009305000013051000C6
:1023A000EFF09FE08320C10113010102678000006C
:1023B000130101FE232E11002320010093080800C1
:1023C000138807009307070013870600930606008B
:1023D000138605009305050013052000EFF0DFDCF0
:1023E0008320C1011301010267800000130101FE77
:1023F000232E1100232001019308F00F13880700FA
:10240000930707001387060093060600138605004E
:102410009305050013053000EFF01FD98320C1019B
:102420001301010267800000930705FF138705FF72
:10243000B387F7023307E702B387E70013070010FB
:102440006342F706130700096344F7061397650014
:102450003307B7409306F0013347D702139657006E
:102460003306F6409357F64193F7F70FB387C7004B
:1024700093D78740B386F6401315B50013150501B1
:1024800013550501931757009397070193D7070139
:102490003365F5003365D5001315050113550501A6
:1024A00067800000370501001305F5816780000093
:1024B000370501001305F5FF67800000130101FFD8
:1024C00023261100232481002322910023202101AF
:1024D000130900006F00800393175900B38787002A
:1024E00093971700B7142000B384F40093050900F4
:1024F00013050400EFF05FF32390A400130414000D
:102500009307F001E3DA87FC130919009307F00140
:1025100063C62701130400006FF09FFE8320C100F3
:1025200003248100832441000329010013010101D8
:1025300067800000939E0701B38EFE0093FF150095
:10254000130F00006F008004138E06006F00000759
:1025500093182800B308130123A0D801130818000A
:1025600093581E40E34618FF13781E00630E0800C0
:10257000370800801308F8FF330E0E01131E1E00EB
:102580003303C3012310F300130F1F00635CEF023A
:102590003308CF00131348003303034113136300C0
:1025A0003303B300131313003303A300E38E0FF8B8
:1025B0002310F300138EF6FF13032300130800000B
:1025C0006FF01FFA67800000930606001357B500EE
:1025D000135655001376F6031375F50193D8B5001D
:1025E00013D855001378F80393F5F50193173700C6
:1025F00013572700B3E7E7001317260013564600CA
:102600003367C70013163500135525003366A6003F
:102610001395380093D82800B368150113152800C6
:1026200013584800336805011395350093D52500EC
:10263000B365B500130EF00F3303DE40B387D70246
:1026400033856802B387A7009387F70793D787007E
:102650003307D702330568023307A7001307F707CC
:10266000135787003306D602B38665023306D600B9
:102670001306F607135686006374FE009307F00FE7
:102680009306F00F63F4E6001307F00F9306F00FC4
:1026900063F4C6001306F00F13D537001315B50009
:1026A000131505011355050113572700131757007C
:1026B00013170701135707013365E500135636005A
:1026C0003365C5001315050113550501678000002A
:1026D000130101FE232E1100232C8100232A9100D7
:1026E00023282101232631012324410123225101E2
:1026F00023206101130B0500938A0500130A0600CD
:10270000930900006F00400493975900B387870036
:102710009397170037172000B307F70003D507007A
:1027200093141400B304990083D5040013060A001F
:10273000EFF09FE92390A400130414009307F00125
:10274000E3D487FC938919009307F00163C637032C
:10275000B3875901139947003309F94013196900E8
:102760003309690113191900B71750003309F9002B
:10277000130400006FF09FFC8320C101032481013A
:1027800083244101032901018329C100032A810017
:10279000832A4100032B010013010102678000001E
:1027A0001308050013850500130600006F000005DF
:1027B000130717009307F00163C0E704931756004F
:1027C000B387E70093971700B7162000B387F6008A
:1027D00083D707009397070193D70701B706010036
:1027E0009386F681E386D7FC93161700B386D5004F
:1027F0002390F6006FF0DFFB130616009307F0013D
:1028000063C6C702B307A60093954700B385F5409A
:1028100093956500B385050193951500B717500092
:10282000B385F500130700006FF0DFF86780000044
:102830009307F5F993F7F70F130790016366F70015
:10284000130505FE1375F50F13070000930720020B
:1028500063CEE702B747000093163700B386E60061
:102860009387C709B387D70083C707006386A7008C
:10287000130717006FF09FFDB74700009387C70944
:102880003385F6001305150067800000374500000A
:102890001305D50967800000130101FE232E1100E6
:1028A000232C8100232A9100232821012326310192
:1028B000930405001389050093090600138406009C
:1028C0006F000010130600009315870193D5854112
:1028D00063C00502930500003366B60023A0C7005D
:1028E00013760701630A0600131604016F00000146
:1028F000930504006FF05FFE130600009375070256
:1029000063860500930504006F00800093050000B6
:102910003366B60023A2C70013764700630606009D
:10292000131604016F0080001306000093758700E2
:1029300063860500930504006F0080009305000086
:102940003366B60023A4C70013761700630606009B
:10295000131604016F008000130600001377270090
:1029600063060700130704006F00800013070000D0
:102970003367E60023A6E7009386160093077000EE
:1029800063CED702B307D50003C7070033862601FD
:1029900093174600B387C74093976700B3879700A4
:1029A0009397170037165000B387C70013760704B4
:1029B000E30A06F0131604016FF01FF193848400FC
:1029C00003C50900630A050093891900EFF05FE66B
:1029D000930600006FF09FFA8320C1010324810158
:1029E00083244101032901018329C100130101024C
:1029F000678000006F000001938515002300F5003B
:102A00001305150083C70500E39807FE67800000E3
:102A1000130101FF930700001308A000B3F605039C
:102A20009386060313870701330727009387170050
:102A3000230AD7FE93860500B3D50503130790003C
:102A40006378D7021307A000E358F7FC13070000D0
:102A50006F004001930600022300D5001307170002
:102A600013051500B306F640E346D7FE6F0040029B
:102A7000130700006FF01FFF9387F7FF138707010D
:102A800033072700034747FF2300E5001305150020
:102A9000E39407FE1301010167800000130705009E
:102AA000130500006F00800013051500B307A70091
:102AB00083C70700E39A07FE678000006F00C0002D
:102AC00013051500938515008347050063860700ED
:102AD00003C70500E386E7FE03C705003385E7402B
:102AE000133515006780000003C7050093851500A6
:102AF0002300E50013051500E31807FE67800000BA
:102B0000930710006302F502930720006308F500A5
:102B100037450000130585976780000037450000A2
:102B20001305859867800000374500001305059858
:102B30006780000063020502930710006308F50038
:102B4000374500001305C598678000003745000031
:102B50001305C599678000003745000013054599A6
:102B600067800000130101FE232E1100232C810039
:102B7000232A910023282101232631012324410106
:102B800023225101232061011389050093040600CB
:102B900013840600130B070093890700930A0800AB
:102BA000138A08009307703E63F4B7001309703E60
:102BB0009307703E63F497009304703E93073006CA
:102BC00063F4870013043006B74500009385859AA7
:102BD000EFF05FE21306300093050900EFF05FE3CA
:102BE000B74500009385C59AEFF0DFE0130630008B
:102BF00093850400EFF0DFE1B74500009385459B26
:102C0000EFF05FDF1306200093050400EFF05FE0B4
:102C1000B74500009385C59BEFF0DFDD130640004C
:102C200093050B00EFF0DFDEB74500009385059CB0
:102C3000EFF05FDC1306100093851900EFF05FDD05
:102C4000B74500009385459CEFF0DFDA13040500DB
:102C500013850900EFF0DFEA930505001305040072
:102C6000EFF05FD9B74500009385859CEFF09FD8C2
:102C70001306300093850A00EFF09FD9631C0A0207
:102C80008327010263900704230005008320C1010C
:102C90000324810183244101032901018329C10007
:102CA000032A8100832A4100032B01001301010242
:102CB00067800000B74500009385C59CEFF09FD367
:102CC0006FF01FFCB74500009385059DEFF09FD284
:102CD0006FF09FFB130101FA232E11049387050067
:102CE0002320E1009388060013080600130705005F
:102CF00083A6418203A6818283A5C1821305410177
:102D0000EFF05FE6B74500009385C52F130541013D
:102D1000EFF0DFDA630805008320C1051301010627
:102D20006780000093054101374500001305C52F5A
:102D3000EFF09FDB1307100023A8E1806FF0DFFDA9
:102D4000130101FD2326110223248102232A5101AC
:102D500013030500938A070003A40183330485400D
:102D600037EEF505130EFE0F636E8E00130500009F
:102D70008320C10203248102832A4101130101033C
:102D8000678000002322910223202103232E31019A
:102D9000232C41012328610123267101138505009D
:102DA0009309060013890600130A0700130B080095
:102DB000938B080023A86182B7E4F505938404107F
:102DC000B3B595021306040093060000330595027F
:102DD000EF00006D23A6A182B3B59902130604008B
:102DE0009306000033859902EF00806B23A4A18233
:102DF000B3359902130604009306000033059902C7
:102E0000EF00006A23A2A1820327010393860B002F
:102E100013060B0093850A0013050A00EFF09FEBE1
:102E20001305100083244102032901028329C101F3
:102E3000032A8101032B0101832BC1006FF05FF393
:102E4000130101FF23261100232481002322910076
:102E5000232021019304050013840500930700003B
:102E6000130700019306001C130600009305800061
:102E700037155000EFF00FEC930700001307000127
:102E80009306000413060000930500383715500020
:102E9000EFF04FEA370901009306F9FF13860400AB
:102EA0009305400013058000EFF01F9F13050400F9
:102EB000EFF0DFBE930780073385A7409306F9FF45
:102EC000130604009305400013153500EFF0DF9C56
:102ED0008320C100032481008324410003290100D1
:102EE0001301010167800000B70701F803A547003F
:102EF00067800000130101FF23261100EFF0DFFEC1
:102F000013558501630E0500B70701F803A50700F7
:102F10001375F50F8320C1001301010167800000C4
:102F2000130500006FF01FFF8327050037671900A6
:102F30001307D760B387E70237F76E3C1307F735FF
:102F4000B387E7002320F50013D507016780000051
:102F5000130101FD23261102232481022322910261
:102F600023202103232E3101232C4101232A510147
:102F700093090500938A0500130A0600130900004F
:102F80006F00401E93073000B367F402638E0700A2
:102F9000130710006386E700130600026F000001AC
:102FA000130680016F008000130600013747000000
:102FB00093172400B387870093972700B756000024
:102FC000938606E2B306D902B387D7001307873387
:102FD000B307F7002389C7001307700033F7E40233
:102FE0001307D7FFB746000093172400B387870065
:102FF0009397270037560000130606E23306C902EE
:10300000B387C70093868633B386F6002392E60023
:1030100093075000B377F5029387E7FF2393F600F9
:10302000631A0702B746000013172400330787000E
:103030001317270037560000130606E23306C902AD
:103040003307C700938686333387E6009306100064
:103050002312D700639A0702374700009317240012
:10306000B387870093972700B7560000938606E240
:10307000B306D902B387D70013078733B307F70026
:10308000130710002393E7001307003833F7E40217
:103090001377E73FB747000093162400B3868600F6
:1030A0009396260037560000130606E23306C9023F
:1030B000B386C60093878733B387D7002390E70092
:1030C0009306C00DB376D5022391D7002394E70071
:1030D0002395D7002396E7002397D70013D78400C2
:1030E0001317B700131707011357070193568500ED
:1030F0009396560093F6067E3367D700B384A400F8
:1031000093F4F401336797002398E7001304140045
:10311000635834051305C100EFF01FE19304050067
:103120001305C100EFF05FE0E30E0AE4374700004B
:1031300093172400B387870093972700B7560000A2
:10314000938606E2B306D902B387D7001307873305
:10315000B307F700130700022389E7006FF0DFE7EA
:10316000130919009307100063C827012326510192
:10317000130400006FF0DFF98320C10203248102F1
:1031800083244102032901028329C101032A810109
:10319000832A410113010103678000001307000027
:1031A0006F00800293172700B387E70093972700EB
:1031B000B307F500839607002396D7008396270070
:1031C0002397D70013071700E34EB7FC6780000072
:1031D000832E0600832F8600B38FDF01032E460067
:1031E000032FC600330FCF01930800006F00400487
:1031F000B382660063DC5F00B3866F40131808017A
:103200001358080133080041239207016358C70788
:1032100013160601135606013306C0402393C70058
:1032200013070E002390D7002391E700938818001E
:1032300063D6B80693972800B387170193972700A2
:10324000B307F5008396070003984700B38606018D
:1032500003972700039667003307C70003C32701BE
:10326000E3D8D6F9131808011358080133080041B0
:103270002392070193860E006FF05FF93308670011
:10328000E3520FFB33076F40131606011356060176
:103290003306C0402393C7006FF0DFF8678000005B
:1032A000130101FE232E1100232C8100232A9100FB
:1032B00023282101232631011304050093840500EE
:1032C000930906001389060013860500930505007F
:1032D0003745000013058533EFF09FEF1386040098
:1032E000930504003795000013058515EFF05FEE98
:1032F0009307100023A0F9002320F9008320C101C7
:103300000324810183244101032901018329C10090
:1033100013010102678000001305000167800000AF
:103320006316050013054010678000001305C020D8
:103330006780000063160500130580116780000098
:103340001305000167800000631605001305401097
:10335000678000001305C020678000006316050029
:1033600013054010678000001305C020678000002F
:10337000130101FC232E1100232C8100232A91002C
:10338000930405002322B1022324C1022326D10283
:103390002328E102232AF102232C0103232E110307
:1033A000930741022326F100130400006F00C001BF
:1033B0008327C100138747002326E10003A50700E8
:1033C000EFE01FC113041400B387840003C5070096
:1033D000630E050A93075002630EF506EFE05FBF28
:1033E0006FF05FFE8327C100138747002326E100AB
:1033F00003A50700EFE09FBF6FF0DFFC8327C1004C
:10340000138747002326E10003A50700EFE09FBFD5
:103410006FF05FFB8327C100138747002326E1007D
:1034200003A50700EFE01FCA6FF0DFF98327C10093
:10343000138747002326E10003A50700EFE09FC4A0
:103440006FF05FF8374500001305459DEFE01FBAA8
:103450006FF05FF713041400B387840083C707007D
:10346000E38207F6938787FA93F6F70F13070002B4
:10347000E362D7FE9397260037470000130747E41F
:10348000B387E70083A70700678007008320C10197
:10349000032481018324410113010104678000009A
:1034A0001308060093080500138705006390060EB5
:1034B00063FEC512B7070100636EF61EB707000171
:1034C000930680016374F600930600013353D6001F
:1034D00097170000938787D0B387670083C70700DB
:1034E00013030002B387D700B306F340630CF30065
:1034F0003397D500B357F5003318D60033E7E7000C
:10350000B318D500135608013355C70293160801A6
:1035100093D6060193D708013377C702B385A60275
:1035200013170701B3E7E70063FCB700B307F80020
:103530001307F5FF63E4070163E0B74013050700D5
:10354000B387B74033D7C7029398080193D80801CF
:10355000B3F7C702B386E60293970701B3E8F80012
:1035600063FED800B30818019307F7FF63E608016C
:103570001307E7FF63E4D80013870700131505015D
:103580003365E500930500006780000063F8D5000F
:10359000930500001305000067800000B7070100D5
:1035A00063E8F61E370700019307800163F4E60025
:1035B0009307000133D8F60017170000130707C25E
:1035C0003307070103470700930800023307F7009A
:1035D0003388E8406396E81E63E4B6323335C500AD
:1035E000133515009305000067800000630C060C7E
:1035F000B7070100637CF62E133706101337170048
:1036000013173700B356E60097170000938707BDDE
:10361000B387D70083C7070093060002B387E7008C
:10362000B38EF6406394F60CB387C54093560601FB
:1036300013160601135606019305100033D5D70261
:1036400013D70801B3F7D7023303C50293970701D5
:10365000B367F70063FC6700B307F8001307F5FFD3
:1036600063E4070163E4672C13050700B387674031
:1036700033D7D7029398080193D80801B3F7D7023C
:103680003306C70293970701B3E8F80063FEC8004A
:10369000B30818019307F7FF63E608011307E7FF74
:1036A00063E4C80013870700131505013365E500BF
:1036B000678000009336061093B616009396360086
:1036C0006FF0DFE09306000097170000938707B1C3
:1036D000B387D70083C707001307000093060002D3
:1036E000B387E700B38EF640E380F6F43318D601D3
:1036F00033D3F50093560801335ED3021316080145
:10370000B395D50113560601B357F500B3E7B700DB
:1037100013D70701B318D5013373D302B305C6031A
:103720001313030133676700637EB7003307E800B4
:103730001305FEFF6364071F6372B71E130EEEFFCF
:10374000330707013307B7403355D7029397070173
:1037500093D707013377D7023303A6021317070164
:10376000B3E7E70063FE6700B307F8001307F5FF50
:1037700063EE071963FC67181305E5FFB3870701BC
:1037800093150E01B3876740B3E5A5006FF01FEBFB
:1037900093B7061093B717009397370033D8F60006
:1037A00017170000130787A3330707010347070014
:1037B000930800023307F7003388E840E38EE8E01F
:1037C000335EE600B3960601336EDE00B3D8E50043
:1037D000935E0E01B3D7D80313130E01B395050101
:1037E000135303013357E5003367B70093560701BE
:1037F00033160601B3F8D803B305F3029398080112
:10380000B3E6160163FEB600B306DE009388F7FF49
:1038100063EAC61163F8B6109387E7FFB386C60163
:10382000B386B640B3D5D603131707011357070164
:10383000B3F6D603B308B302939606013367D700F5
:10384000637E17013307EE009386F5FF6364C70DAF
:103850006372170D9385E5FF3307C701939707013F
:10386000B70E0100B3E7B7009386FEFFB3F5D700AC
:1038700013D30701B376D60013560601338ED50253
:1038800033071741B306D30293580E01B385C5021F
:10389000B385D500B385B8003303C30263F4D50004
:1038A0003303D30193D60501B3866600636AD7025A
:1038B0006308D700138507009305000067800000A8
:1038C000B70601009386F6FF33F7D50013170701FB
:1038D000337EDE00331505013307C701E37CE5FCC9
:1038E0001385F7FF9305000067800000B70700010C
:1038F000637AF60493560601130700016FF0DFD0D8
:1039000093050000130510006780000013050700F1
:103910006FF01FE7938506006FF05FF4130E05004C
:103920006FF05FE2938708006FF09FEF1305E5FFEC
:10393000B38707016FF09FD31305E5FFB387070136
:103940006FF01FC093568601130780016FF0DFCB25
:1039500030313233343536373839414243444546C5
:103960000000000030313233343536373839616287
:10397000636465660000000046494C4C000000008E
:10398000414C5048410000004B4559004857204FDA
:103990004E4C590053504C495400000043505520A0
:1039A0004F4E4C590000000048573D0020435055F1
:1039B0003D000000205343523D000000204E3D00DA
:1039C000205343003A00000020413D002045000004
:1039D000204652003C466C6F6174696E6720706FC0
:1039E000696E74207072696E74696E67206E6F7490
:1039F00020656E61626C652E20506C656173652078
:103A0000456E61626C652069742061742062737018
:103A10002E682066697273742E2E2E3E0000000000
:103A20000D0A3D3D3D3D3D2046696E616C44656D2E
:103A30006F3A20485720616363656C20767320706D
:103A4000757265204350552C2073616D652073633A
:103A50007265656E203D3D3D3D3D0D0A0000000054
:103A600046423D2578204241434B3D257820415434
:103A70004C41533D2578205350523D2564782564B0
:103A80000D0A00006C61796F75743A20696E666F7B
:103A900020302D3136207C2048572031362D3237CA
:103AA00036207C20736570207C20435055203238AE
:103AB000302D3534300D0A0064656661756C743ADA
:103AC00020706174683D4857206F6E6C792C2063BC
:103AD0006C6561725F7065725F706173733D312CEC
:103AE00020616476616E63653D74696D652C204E5E
:103AF0003D25640D0A000000636D643A20312F32C9
:103B00002F33207363656E652046494C4C2F414C22
:103B10005048412F4B45592C20732F632F6820703C
:103B20006174682053504C49542F4350552F4857C7
:103B30000D0A000020202020206E206F72202B20F4
:103B40004E2B25642C202D204E2D25642C20612FFA
:103B50004120616C7068612D2F2B2C206520636CD7
:103B60006561722D7065722D706173732C0D0A0082
:103B70002020202020742074696D652F6672616D8D
:103B80006520616476616E63652C207220726573B6
:103B900065742C203F2068656C700D0A00000000E1
:103BA000616C69676E636865636B20257820257892
:103BB0002025782025782028657870656374206634
:103BC000383030206638303020303765302030379C
:103BD0006530290D0A00000073656C6663686563D3
:103BE0006B3A205354415455533D257820434F554B
:103BF0004E543D2564205343414E3D257820464296
:103C00003D25780D0A0000007075626C6973683A92
:103C100020434F5059202866756C6C2D7363726574
:103C2000656E20626C69742C206275696C642D74F9
:103C3000696D6520737769746368206F6666290D06
:103C40000A0000000D0A4556207363656E653D2528
:103C5000642028303D46494C4C20313D414C504871
:103C60004120323D4B4559290D0A00000D0A4556A9
:103C700020706174683D302053504C49540D0A0047
:103C80000D0A455620706174683D3120435055201F
:103C90006F6E6C790D0A00000D0A45562070617434
:103CA000683D32204857206F6E6C790D0A00000085
:103CB0000D0A4556204E3D25640D0A000D0A455655
:103CC00020636C6561725F7065725F706173733DD4
:103CD00025642028313D65766572792070617373A3
:103CE00020726566696C6C73207468652048572083
:103CF000726567696F6E290D0A0000000D0A45564E
:103D000020616476616E63653D25642028303D74D2
:103D1000696D6520323520737465702F732C2031E6
:103D20003D6F6E65207374657020706572207075CC
:103D3000626C6973686564206672616D65290D0A3D
:103D4000000000000D0A455620616C7068613D2539
:103D5000640D0A000D0A45562072657365740D0ADC
:103D6000000000000D0A636D643A20312F322F33BA
:103D70003D7363656E652046494C4C2F414C50485D
:103D8000412F4B4559202020732F632F683D7061D0
:103D900074682053504C49542F4350552F48570DA9
:103DA0000A20202020206E206F72202B203D4E2BD9
:103DB00025642020202D203D4E2D256420202061CB
:103DC0002F413D616C7068612D2F2B202020653DB7
:103DD000636C6561722D7065722D706173730D0A6D
:103DE0002020202020743D616476616E636520741C
:103DF000696D652F6672616D65202020723D726568
:103E00007365742020203F3D68656C700D0A20208A
:103E10002020202848572F4350553D72656E646519
:103E20007220706173732F732C205343523D707551
:103E3000626C6973686564206672616D65732F7367
:103E4000290D0A00143400005434000054340000DA
:103E50005434000054340000543400005434000042
:103E60005434000054340000543400005434000032
:103E7000B0330000FC330000543400004434000030
:103E80005434000054340000543400005434000012
:103E90005434000054340000543400005434000002
:103EA00054340000543400005434000054340000F2
:103EB000E433000054340000543400005434000053
:103EC000543400002C340000D4150000C415000048
:103ED000C4150000C4150000C4150000C41500007E
:103EE000C4150000C4150000C4150000C41500006E
:103EF000C4150000C4150000C4150000C41500005E
:103F0000C4150000C4150000C4150000C41500004D
:103F1000C4150000C4150000C4150000C41500003D
:103F2000C4150000C4150000C4150000C41500002D
:103F3000C4150000C4150000C4150000C41500001D
:103F4000C4150000C4150000C4150000C41500000D
:103F5000C4150000C4150000C4150000C4150000FD
:103F6000C4150000C4150000C4150000C4150000ED
:103F7000C415000064140000C41500009014000073
:103F8000C4150000C4150000C4150000AC130000E7
:103F9000AC130000AC130000C4150000C4150000F1
:103FA000C4150000C4150000C4150000C4150000AD
:103FB000C4150000C4150000C4150000C41500009D
:103FC000C4150000A4150000C41500004815000029
:103FD000C415000014140000C4150000BC14000037
:103FE000C4150000C41500003C140000C4150000F6
:103FF000C4150000C4150000C4150000C41500005D
:1040000064140000C4150000C4150000C4150000AD
:1040100078150000EC130000EC140000C41500003B
:10402000C4150000C4150000C4150000C41500002C
:10403000C4150000C4150000C4150000C41500001C
:10404000C4150000C4150000C415000018150000B8
:10405000C415000014140000C4150000BC140000B6
:10406000C4150000C41500003C140000C415000075
:10407000C4150000C4150000C4150000C4150000DC
:1040800064140000C4150000C4150000C41500002D
:1040900078150000EC130000EC1400002000000074
:1040A0000000000000303C666E7666663C00311809
:1040B00038181818187E00323C66060C18307E003E
:1040C000333C66061C06663C00340C1C3C6C7E0CC3
:1040D0000C00357E607C0606663C00361C30607C39
:1040E00066663C00377E060C1830303000383C667F
:1040F000663C66663C00393C66663E060C3800410C
:10410000183C66667E666600433C66606060663C9E
:104110000044786C6666666C7800457E6060786006
:10412000607E00467E60607860606000486666661B
:104130007E66666600493C18181818183C004B66E5
:104140006C7870786C66004C6060606060607E00C7
:104150004D63777F6B636363004E66767E7E6E662B
:1041600066004F3C66666666663C00507C66667C10
:1041700060606000527C66667C786C6600533C66CA
:10418000603C06663C00547E181818181818005534
:104190006666666666663C00576363636B7F77633B
:1041A00000596666663C181818003D00007E007EC7
:1041B0000000002E00000000001818003A00181837
:1041C00000181800002F060C1830604000002D0069
:1041D00000007E0000000000000102020303030350
:1041E0000404040404040404050505050505050587
:1041F0000505050505050505060606060606060667
:10420000060606060606060606060606060606064E
:104210000606060606060606070707070707070736
:10422000070707070707070707070707070707071E
:10423000070707070707070707070707070707070E
:1042400007070707070707070707070707070707FE
:1042500007070707070707070808080808080808E6
:1042600008080808080808080808080808080808CE
:1042700008080808080808080808080808080808BE
:1042800008080808080808080808080808080808AE
:10429000080808080808080808080808080808089E
:1042A000080808080808080808080808080808088E
:1042B000080808080808080808080808080808087E
:1042C000080808080808080808080808080808086E
:1042D0000808080808080808010000007856341289
:0A42E00000000000000000000000D4
:0400000300001000E9
:00000001FF
