:10100000971100009381813517210000130181B7EA
:10101000171500001305058E971500009385858D23
:1010200017160000130646B563FCC50083220500B1
:1010300023A055001305450093854500E3E8C5FE50
:1010400017150000130545B397150000938505B3E8
:101050006378B5002320050013054500E36CB5FE59
:10106000EF000001EF00000A6F0000006780000041
:10107000130101FF23248100232021019717000081
:1010800093874787171400001304C4862326110092
:1010900023229100338987406380870213592940B6
:1010A0009304000083270400938414001304440075
:1010B000E7800700E3E824FF971700009387878302
:1010C00017140000130404833389874013592940FF
:1010D000638E870093040000832704009384140028
:1010E00013044400E7800700E3E824FF8320C100E5
:1010F000032481008324410003290100130101011D
:1011000067800000130101FD2326110223248102C0
:101110002322910223202103232E3101232C41017C
:10112000232A5101232861012326710123248101EF
:101130003725000013054596EF00806837D80F006B
:1011400013080820930700781307C0219306003C7A
:1011500037164000B7153000372500001305459AB3
:10116000EF000066EF00805A630605043725000093
:101170001305C59DEF00C064EF00804DEF000056E1
:1011800037250000130545A6EF008063130A000011
:10119000130CA0FF930B70FF9309C01C13090037B9
:1011A000130B8000930AC000930400001304000096
:1011B0006F00C009372500001305C5A0EF0040608F
:1011C0006FF09FFBB30A5041130400006F00000949
:1011D000330B6041930400006F008008B30B704133
:1011E000130900006F00400D330C8041930900008B
:1011F0006F00C00C370701001307F7FF93060005C7
:10120000130600059385090013050900EF0000355A
:10121000EF00C04C0F500000130A1A009307E001C2
:10122000B377FA0263920702938709001307090054
:10123000938604001306040093050A003725000076
:101240001305C5A9EF00C057EF008054EF004040E0
:1012500033045401B3846401E35680F6E35A90F6F4
:101260009307F03163D68700B30A5041130400326C
:101270009307301A63D69700330B60419304401AEA
:1012800013777A00B727000013171700938787B4E6
:10129000B387E70003D70700930680071306000A09
:1012A0009385040013050400EF00402B33097901F6
:1012B000B3898901E35420F3E35830F39307F03600
:1012C00063D62701B30B7041130900379307B01C95
:1012D000E3D237F3330C80419309C01C6FF09FF1C8
:1012E00003254500135505011375F50F67800000B0
:1012F000130101FF232611002324810023229100E2
:10130000130405009384050013050400EFF05FFD4E
:10131000E30C05FE232094008320C10003248100F8
:10132000832441001301010167800000130101FFC4
:101330002326110093050500370501F8EFF05FFB48
:101340008320C1001301010167800000130101FF28
:101350002326110023248100130405006F00C00020
:1013600013041400EFF09FFC03450400E31A05FE8C
:101370008320C10003248100130101016780000064
:10138000130101FF23261100232481002322910051
:10139000930405001304C0016F00400233D784009A
:1013A0001377F700B72700009387078FB387E7000D
:1013B00003C50700EFF09FF71304C4FFE35004FEDA
:1013C0008320C10003248100832441001301010113
:1013D00067800000130101FF2326110023248100F0
:1013E00023229100930405001304C0016F00400202
:1013F00033D784001377F700B7270000938747900F
:10140000B387E70003C50700EFF05FF21304C4FFE2
:10141000E35004FE8320C1000324810083244100A3
:101420001301010167800000130101FF2326110051
:101430001375F50FEFF09FEF8320C1001301010139
:1014400067800000130101FF23261100EFF01FF059
:101450008320C1001301010167800000130101FD19
:1014600023261102232481022322910293040500E2
:1014700063460500130401006F00C0021305D0028B
:10148000EFF09FFAB30490406FF0DFFE1307A00067
:10149000B3E7E402938707032300F400B3C4E40234
:1014A00013041400E39404FE93070100E300F4FE28
:1014B00093070100630AF4001304F4FF03450400DA
:1014C000EFF09FF66FF0DFFE8320C102032481025C
:1014D000832441021301010367800000130101FF0F
:1014E00023261100130700009307700063C0E70272
:1014F00093162700930700FFB397D700B377F50043
:1015000063860700130717006FF01FFEEFF09FECD4
:101510008320C1001301010167800000130101FF56
:1015200023261100130700009307700063C0E70231
:1015300093162700930700FFB397D700B377F50002
:1015400063860700130717006FF01FFEEFF05FE3DD
:101550008320C1001301010167800000931E070171
:10156000B38EEE006354C00E6352D00E6340050488
:1015700063C40504B307C5001308003C6356F800B4
:101580001306003C3306A640B387D5001308C021DC
:101590006356F8009306C021B386B6406358C00A6C
:1015A0006356D00A130F00006F00C0063306A60072
:1015B000130500006FF0DFFBB386B6009305000053
:1015C0006FF05FFBB308F3009398280037183000E2
:1015D000330818012320D80193871700E3C4C7FFFD
:1015E000937716006386070293974F00B387F741FE
:1015F00093976700B307F500B307F60093971700BA
:10160000371830001308E8FFB38707012390E7007D
:10161000130F1F00635CDF02B38FE5019357F501E1
:10162000B387A70093D7174013934F003303F341B9
:10163000131353003303F300135EF601330ECE0091
:10164000135E1E40930700006FF05FF96780000093
:10165000130800006F008006131746003307C740C9
:1016600093172700B387D70093972700B307F50098
:1016700037173000B307F70023A0B7009386160092
:101680009307B003E3DAD7FC130616009307700044
:1016900063C4C702B727000013171600938787B5E6
:1016A000B387E70083D7070093950701B385F5005B
:1016B000930600006FF0DFFC130818009307B021B9
:1016C00063CC070193174800B38707411395770050
:1016D000130600006FF09FFB678000009307000077
:1016E0006F00000293962700371750003307D7008A
:1016F000B706A5A5B386D7002320D7009387170088
:101700001307F07FE370F7FE67800000130101FF0D
:1017100023261100930700006F0000029396270014
:10172000371740003307D700B7065A5AB386D70099
:101730002320D700938717001307F00FE370F7FEFD
:10174000EFF0DFF90F500000930700001307F00FD0
:101750006364F70293962700371740003307D700DA
:101760008326070037075A5A3387E700639AE60053
:10177000938717006FF09FFD130510006F00800026
:10178000130500008320C1001301010167800000E0
:10179000130101FF232601006F0000018327C10010
:1017A000938717002326F1000327C100B7C7020063
:1017B0009387F7F1E3F4E7FE13010101678000006E
:1017C000130101FC232E1100232C8100232A9100F8
:1017D000930405002322B1022324C1022326D1024F
:1017E0002328E102232AF102232C0103232E1103D3
:1017F000930741022326F100130400006F00C0018B
:101800008327C100138747002326E10003A50700B3
:10181000EFF09FC113041400B387840003C50700D1
:10182000630E050A93075002630EF506EFF0DFBF63
:101830006FF05FFE8327C100138747002326E10076
:1018400003A50700EFF01FC06FF0DFFC8327C10086
:10185000138747002326E10003A50700EFF01FC010
:101860006FF05FFB8327C100138747002326E10049
:1018700003A50700EFF09FCA6FF0DFF98327C100CF
:10188000138747002326E10003A50700EFF01FC5DB
:101890006FF05FF83725000013058591EFF09FBAD0
:1018A0006FF05FF713041400B387840083C7070049
:1018B000E38207F6938787FA93F6F70F1307000280
:1018C000E362D7FE9397260037270000130747AC43
:1018D000B387E70083A70700678007008320C10163
:1018E0000324810183244101130101046780000066
:1018F0003031323334353637383941424344454646
:101900000000000030313233343536373839616207
:1019100063646566000000003C466C6F6174696E2C
:101920006720706F696E74207072696E74696E677B
:10193000206E6F7420656E61626C652E20506C6540
:1019400061736520456E61626C6520697420617405
:10195000206273702E682066697273742E2E2E3E7C
:10196000000000000D0A2A2A2A20324452413A205F
:101970004350552077726974657320444452206641
:1019800072616D65627566666572202D3E20484401
:101990004D49207363616E6F7574202A2A2A0D0ADF
:1019A000000000004642303D307825782020464235
:1019B000313D3078257820202564782564205247F1
:1019C0004235363520207374726964653D25642084
:1019D0002062797465733D25640D0A00636F686544
:1019E00072656E637920636865636B3A205041537A
:1019F00053202843505520777269746573207265AF
:101A000061636820444452290D0A0000636F6865D1
:101A100072656E637920636865636B3A204641495D
:101A20004C202D3E20E99C80E68C89E69687E6A135
:101A3000A3E5A484E7908620442420E4B880E887C6
:101A4000B4E680A7EFBC8877726974652D62616324
:101A50006B20E99C80E6B885E79086EFBC890D0A8B
:101A6000000000006261636B67726F756E642063D3
:101A70006F6C6F7220626172732077726974746523
:101A80006E2C20737461727420616E696D6174696B
:101A90006F6E202E2E2E0D0A000000006672616D02
:101AA000653D25752020626F783D2825642C2564CE
:101AB000292020736D616C6C3D2825642C256429D8
:101AC0000D0A000064180000A4180000A41800000B
:101AD000A4180000A4180000A4180000A418000016
:101AE000A4180000A4180000A4180000A418000006
:101AF000001800004C180000A41800009418000002
:101B0000A4180000A4180000A4180000A4180000E5
:101B1000A4180000A4180000A4180000A4180000D5
:101B2000A4180000A4180000A4180000A4180000C5
:101B300034180000A4180000A4180000A418000025
:101B4000A41800007C18000000F8E0071F00E0FF68
:101B5000FF071FF820FDFFFFFFFFE0FFFF07E00783
:101B60001FF800F81F000000000000000000000047
:021B7000000073
:0400000300001000E9
:00000001FF
