:1010000097410000938101F017E100001301813E38
:10101000173500001305C5D197350000938545D1DC
:10102000173600001306467163FCC50083220500D5
:1010300023A055001305450093854500E3E8C5FE50
:10104000173500001305456F97D500009385053AC5
:101050006378B5002320050013054500E36CB5FE59
:10106000EF000001EF00000A6F0000006780000041
:10107000130101FF23248100232021019737000061
:10108000938707CB17340000130484CA232611006A
:1010900023229100338987406380870213592940B6
:1010A0009304000083270400938414001304440075
:1010B000E7800700E3E824FF97370000938747C7DE
:1010C000173400001304C4C63389874013592940DC
:1010D000638E870093040000832704009384140028
:1010E00013044400E7800700E3E824FF8320C100E5
:1010F000032481008324410003290100130101011D
:1011000067800000130101F52326110A2324810AB8
:101110002322910A2320210B232E3109232C41095C
:10112000232A5109232861092326710923248109CF
:10113000232291092320A109232EB107232601068A
:1011400023240106232C0104232E01049307003CD1
:101150002320F106930740102322F106EF1000210F
:10116000374500001305C5DFEF20405E93070002FE
:1011700013070002B716200037165000B7153000CD
:10118000374500001305C5E3EF20405C37450000FC
:10119000130505E6EF20805B9305900137450000BD
:1011A000130545E9EF20805A37450000130545ED4A
:1011B000EF20C059130690019305900137450000B8
:1011C000130505F1EF208058374500001305C5F4DD
:1011D000EF20C057EF100054EF10002393070500D5
:1011E00023A2A186130515001309300033752503CA
:1011F00023AEA18093872700B3F7270323ACF180A8
:10120000130A100023AA418523A80184EF10401D72
:1012100023A0A182EF10C068930780001307C021AC
:101220009306003C130600009305000003A501820D
:10123000EF10806EEF104036B707010093870780EC
:1012400013072000930680001306401F9305100229
:1012500003A50182EF10406C9307007E1307200066
:10126000930690001306601F9305000203A50182F8
:10127000EF10806A83A7018237A70E001307276447
:101280003387E7008355070037A70E00130707656C
:101290003387E7000356070037B70E0013070754DC
:1012A0003387E7008356070037B70E00130707554B
:1012B000B387E70003D70700374500001305C5F7DC
:1012C000EF20C048EF10403F930A0500EF10003DAB
:1012D000130B050013050002EF10800F930B0500A0
:1012E00013058002EF10C00E1307050093860B0054
:1012F00013060B0093850A0037450000130545FBD4
:10130000EF20C0441306000083A54181130590011E
:10131000EF20C001EF104028EF10C008130D0500AA
:101320002326A10423A0A184130700009306100024
:10133000130600089305000013059001EF10D05725
:1013400013052000EF10503D93050500138581869D
:10135000EF10D06C23A8018003A5C18113051500EF
:1013600033652503EF10C007930780001307C021E2
:101370009306003C1306000093050000EF10C059CF
:1013800003A5C1811305250033652503EF10400532
:10139000930780001307C0219306003C130600004A
:1013A00093050000EF104057238C018493878185BB
:1013B000A38007002381070003A7C181B307F700BB
:1013C0002380470103A7418623A0E186EF10C01CBC
:1013D00083A6818103A6C18183A54186374500008C
:1013E000130545FEEF20803613054001EF00507EC7
:1013F0009365250013054001EF00907C93052000C4
:1014000013050001EF00D07B3745000013050502EE
:10141000EF20C033232A0102130C00002322010213
:1014200023280102930710002324F10293041000E3
:1014300093090000232E0102232C0100930D1000BC
:1014400023220104232601021304000023200104A7
:1014500023200102232C0102930B000093070008B4
:10146000232EF100130A9001130B0000930A2000B1
:10147000232A3101232491046F001028EF105065B6
:1014800013090500EF001072130D050093074007C4
:1014900063EA272393172900374700001307073013
:1014A000B387E70083A7070067800700930710034F
:1014B000630AF902930720036302F902130B200069
:1014C00093050B00374500001305C505EF200028E4
:1014D00093091000130910006F00401F130B100038
:1014E0006FF01FFE130B00006FF09FFD37450000EB
:1014F00013054508EF20802593091000130900000B
:10150000930710002324F1022324F104930A00001E
:101510006F00C01B3745000013058509EF2000232D
:101520009309100013090000930710002324F1020F
:101530002324F104930A10006F004019374500007E
:101540001305050BEF2080209309100013090000FC
:10155000930710002324F1022324F104930A2000AE
:101560006F00C016130A9A019307803E63D44701A7
:10157000130A900193050A00374500001305850CF6
:10158000EF20C01C93091000130910006F00001415
:10159000130A7AFE9307800163C44701130A803E51
:1015A00093050A00374500001305850CEF20001A4B
:1015B00093091000130910006F00401113C91D009A
:1015C00063860D00930710002324F104930509009E
:1015D000374500001305450DEF204017930D090016
:1015E00093091000130900006F00400E832781014A
:1015F00093C71700232CF10093850700374500009F
:1016000013054511EF2080142326A105930910002E
:10161000130900006F00800B9307F0010327C1013D
:1016200063F6E700930707FE232EF1008325C1012F
:10163000374500001305C515EF2040119309100030
:10164000130900006F0080089307F00D0327C10104
:1016500063E6E70093070702232EF1008325C1010B
:10166000374500001305C515EF20400E9309100003
:10167000130900006F00800583A741813787379EDB
:101680001307979BB387E70023AAF1803745000033
:101690001305C516EF20800B9309000013091000F5
:1016A0006F00C002130690019305900137450000BA
:1016B0001305C517EF2080099309000013090000E6
:1016C0006F00C000930900001309000063160908A9
:1016D0006390090C13850A00EF2000062322A1065F
:1016E00083278101639807108327C1043307FD40D6
:1016F000B7173D009387F78F63EAE70A83278101D5
:10170000232EF10203A701843307ED40B7E7F50567
:101710009387F70F63F8E77E832781012320F10089
:1017200093880D000328C10193070B0013070A00DB
:1017300083260104032601028325810313050D007E
:10174000EF10D01D6300057C23209104232091021B
:10175000232C91026F00007B3336600183A5418109
:1017600013050A00EF10903C2324010623260106EE
:101770002324210323242105232A0100232E0102EF
:101780002322010423260102130400006FF05FF4FA
:101790000327810193860D000326C10193050B00E9
:1017A00013050A00EF1050116FF0DFF203298101D9
:1017B000930681061306C1069305810513050A00E9
:1017C000EF10D06B13091900EF00D03D3305A54190
:1017D000B7173D009387F78F63F2A7049307700054
:1017E000E3D827FD83278101232EF1022326A105BB
:1017F0006FF05FF10329C103E35620F193068106E0
:101800001306C1069305810513050A00EF10106742
:101810009307F9FF232EF1026FF0DFEE832781019A
:10182000232EF1022326A1056FF0DFED93050A00B8
:10183000374500001305457AEF10105423260106A2
:101840006F00006D93050A00379500001305455C95
:10185000EF109052232401066F00006C8327810152
:101860002320F10093880D000328C10193070B008A
:1018700013070A008326010403260102832581033E
:1018800013050D00EF1090096302056A232001047F
:1018900023200102232C01026F00406983A64186A8
:1018A00023A2F18603A5818123AEA18023ACD18040
:1018B0001307100023AAE18423A80184EF0050320B
:1018C00023A0A18283270104938717002320F1041A
:1018D00083278101638C0700930770000327C103EE
:1018E00063C6E70093071700232EF10263860D0EEF
:1018F000130C00006F00400313058002EF00502D11
:1019000093050500374500001305C525EF10106449
:101910006F00806713050003EF0090296F00C0007F
:1019200013050003EF00D02863120C429307100048
:10193000638EFA408327C1026382070C930720005D
:101940006396FA0093F73B006390070AEF00D056C6
:10195000EF005058630A0508832781039387170017
:10196000232CF10263860D008327C1022324F10496
:1019700023A801848327C1022328F10223228105A1
:101980002326810313040C006F00403C93071000D2
:10199000638AFA0083270103E38807F8930720008E
:1019A0006386FA0083274102E38007F8EF00D03E08
:1019B00083A5C18123A0B18613054002EF0050200A
:1019C000EF00501E232AA102232281032328810332
:1019D000130C10006FF05FF523248103232481058D
:1019E000138C0D006FF05FF4930720006390FA36BC
:1019F00013050003EF00D01B6F00403513850A006C
:101A0000EF10504F930C05008327410463800702B9
:101A100093072000639CFA0093F73B00638807005C
:101A200013050003EF00D0186F004032EF00904B19
:101A300093040500631A04008327C106639007021C
:101A400003A90185630809028327810463840700D1
:101A50006390040C930700046F00801E93050A0036
:101A6000374500001305457AEF1010312326010693
:101A70006FF01FFD1307100023A8E184EF00502131
:101A800003A5C181EF00D01D9309050083A5C18185
:101A900013054004EF00D012EF0010191375050470
:101AA000631205046392090683A7C1849387170014
:101AB00023A6F184930710002324F10483A7418512
:101AC000E38407F813850A00EF105043130605005E
:101AD00093850C0003A58181EF00502323AA018484
:101AE0006FF09FF683A741849387170023A2F184A8
:101AF00083A5C1819395250093E505011305C003D6
:101B0000EF00100C6FF01FFA232421056FF01FFB6C
:101B100013994C00330999411319790083A7018265
:101B20003309F90013850A00EF10503D93060500B4
:101B3000130780001306003C930500781305090085
:101B4000EF0090419384F4FF8327C1022324F10422
:101B50006FF05FF0B74700001317240033078700CA
:101B6000131727009387477AB387E7000397A700E7
:101B70008397E7006306F700130920006F00000158
:101B8000130910006F0080001309100063EC241B80
:101B900093072000630EF90EB747000013172400C7
:101BA00033078700131727009387477AB387E70027
:101BB0000397E700330797018397C7001315470082
:101BC0003305E540131565003305F50013151500C1
:101BD00083A701823305F50063080B1093071000FB
:101BE000630CFB12370801001308F8819307000209
:101BF00013070002930600781306000493050500FE
:101C000037152000EF00D03CB74700001317240021
:101C100033078700131727009387477AB387E700B6
:101C20000397C7002394E7000397E7002395E70095
:101C3000B3842441130414006352441193870900B0
:101C400063524411638004109389F7FF638C070E7D
:101C5000E39C0DF2930710006308FB02B7470000F6
:101C60001317240033078700131727009387477A39
:101C7000B387E700039787008397C700E30CF7EC6F
:101C8000130920006FF09FF0130920006FF01FF080
:101C90003747000093172400B387870093972700E6
:101CA0001307477A3307F7008316A700B386960118
:101CB0000316870093974600B387D7409397670032
:101CC000B387C7009397170003A501820346270136
:101CD0001307800093060600930500783385A7005C
:101CE000EF0090276FF05FEBB74700001317240059
:101CF00033078700131727009387477AB387E700D6
:101D000003C6270103D70701930606009305007851
:101D1000EF0090246FF05FEF0328C10193070002EA
:101D200013070002930600781306000493050500CC
:101D300037152000EF0010266FF01FED93071000FD
:101D40002326F10293B714002322F10463120C142A
:101D500093072000638EFA1213850A00EF10501BC0
:101D600093040500832741016396070083278106BA
:101D7000639807228327810263900724930710004A
:101D8000630AFB02B7470000832641011397260030
:101D90003307D700131727009387477AB387E700E5
:101DA00037570000B307F700039787E28397C7E22E
:101DB000630CF722B74700008326410113972600E2
:101DC0003307D700131727009387477AB387E700B5
:101DD000B7550000B385F5000396A5E283C625E359
:101DE000930780001387060033069600839585E2EB
:101DF00003A50182EF00503263000B22930710000D
:101E00006300FB26B7470000832641011397260095
:101E10003307D700131727009387477AB387E70064
:101E200037570000B307F7008395E7E2B3859500C5
:101E30000395C7E2EF0010553747000083264101A4
:101E400093972600B387D700939727001307477A05
:101E50003307F700B7570000B387E7000397C7E2DF
:101E60002394E7E20397E7E22395E7E293871600DE
:101E7000232AF10063CE47018327010293871700CD
:101E80002320F102232A8101930710002322F1026B
:101E900063140C0683A70181639C070083A7C1819B
:101EA00013878185B387E70083C70700639607041C
:101EB00013850A00EF1040069305050013858186FF
:101EC000EF10C035638C0A1C83A70181638A070069
:101ED000238C018493878185A380070023810700D9
:101EE00083A7C18113878185B387E700130710009B
:101EF0002380E70023A80180938B1B0093F4FB0150
:101F0000638E04D6E3040CA88327C106E3900792EE
:101F100083278106E398079203A701843307ED40E6
:101F2000B7E7F5059387F70FE3EAE79293F73B00EE
:101F3000E398079E13050001EF0080491375250003
:101F4000630E05009305200013050001EF004047D4
:101F5000EF00804B83A70186E302F594EF008044F5
:101F6000832741033305F540B797980093870768A7
:101F7000E3F2A79A83A7C1859387170023AEF18464
:101F800013071000E38AE79683A501861305400234
:101F9000EF000043EF000041232AA1026FF0DF9819
:101FA00093050A00379500001305455CEF10C05CEF
:101FB000232401066FF01FDC03A9018213850A00A8
:101FC000EF10407613070500930780009306003C4E
:101FD000138604009305000013050900EF00D013D9
:101FE000232481036FF09FD9B74700001397260081
:101FF0003307D700131727009387477AB387E70083
:1020000037570000B307F7000397A7E28397E7E28B
:10201000E312F7DA6FF05FDEB74700008326410175
:10202000139726003307D700131727009387477AA3
:10203000B387E700B7550000B385F5000396E5E2E6
:1020400083C625E383D705E313870600330696008E
:102050008395C5E203A50182EF00100C6FF0DFDD70
:10206000B747000083264101139726003307D700A6
:10207000131727009387477AB387E7003757000085
:10208000B307F7008395E7E20326C101B385950006
:102090000395C7E2EF0010226FF01FDAB747000088
:1020A00093878720130740009306003C13064011D6
:1020B0009305000003A50182EF0010066FF0DFE03A
:1020C00003254500135505011375F50F67800000C2
:1020D000130101FF232611002324810023229100F4
:1020E000130405009384050013050400EFF05FFD61
:1020F000E30C05FE232094008320C100032481000B
:1021000083244100130101016780000083A7C500FB
:102110002324F50083A705009387F7FF03A7450055
:1021200013178700B3E7E70003A78500131707011C
:10213000B3E7E7002326F50067800000130101FFE5
:102140002326110093050500370501F8EFF05FF82D
:102150008320C1001301010167800000130101FF0A
:102160002326110023248100130405006F00C00002
:1021700013041400EFF09FFC03450400E31A05FE6E
:102180008320C10003248100130101016780000046
:10219000130101FF23261100232481002322910033
:1021A000930405001304C0016F00400233D784007C
:1021B0001377F700B74700009387C7D2B387E700CC
:1021C00003C50700EFF09FF71304C4FFE35004FEBC
:1021D0008320C100032481008324410013010101F5
:1021E00067800000130101FF2326110023248100D2
:1021F00023229100930405001304C0016F004002E4
:1022000033D784001377F700B7470000938707D4CC
:10221000B387E70003C50700EFF05FF21304C4FFC4
:10222000E35004FE8320C100032481008324410085
:102230001301010167800000130101FF2326110033
:102240001375F50FEFF09FEF8320C100130101011B
:1022500067800000130101FF23261100EFF01FF03B
:102260008320C1001301010167800000130101FDFB
:1022700023261102232481022322910293040500C4
:1022800063460500130401006F00C0021305D0026D
:10229000EFF09FFAB30490406FF0DFFE1307A00049
:1022A000B3E7E402938707032300F400B3C4E40216
:1022B00013041400E39404FE93070100E300F4FE0A
:1022C00093070100630AF4001304F4FF03450400BC
:1022D000EFF09FF66FF0DFFE8320C102032481023E
:1022E000832441021301010367800000130101FFF1
:1022F00023261100130700009307700063C0E70254
:1023000093162700930700FFB397D700B377F50024
:1023100063860700130717006FF01FFEEFF09FECB6
:102320008320C1001301010167800000130101FF38
:1023300023261100130700009307700063C0E70213
:1023400093162700930700FFB397D700B377F500E4
:1023500063860700130717006FF01FFEEFF05FE3BF
:102360008320C1001301010167800000130101FEF9
:10237000232E1100930780002320F1002322010067
:10238000232401009307B0062326F10093050100E2
:10239000370501F8EFF09FD78320C1011301010237
:1023A00067800000B7C7B0F803A587FF678000000B
:1023B000630605001305F5FFE31E05FE67800000B8
:1023C000B70710F83305F5002320B500678000003B
:1023D000B70710F83305F5000325050067800000F6
:1023E00093072000630EF500930710006306F500C5
:1023F00037153000678000003715500067800000F7
:102400003715700067800000130101FF23261100BB
:1024100013058002EFF0DFFB137535008320C10048
:102420001301010167800000130101FF2326110041
:1024300013050004EFF0DFF98320C100130101014F
:1024400067800000130101FF23261100EFF0DFFD7C
:10245000137515008320C10013010101678000007E
:10246000130101FF2326110023248100130405001A
:10247000EFF09FFB130424003355850013751500FE
:102480008320C10003248100130101016780000043
:10249000130101FF23261100232481002322910030
:1024A000EFF05FF09304050013040000EFF09FF9D4
:1024B00063020504EFF01FEF33059540B7470F00A7
:1024C0009387072463EEA700130414009307000406
:1024D000E3DE87FC13050003EFF09FED6FF0DFFCF8
:1024E00083A781849387170023A4F1841305000038
:1024F0006F008000130510008320C10003248100B9
:10250000832441001301010167800000130101FFD2
:10251000232611002324810023229100232021015E
:10252000130405001389050093040600EFF05FEB28
:1025300093174900B387274193977700B305F500B8
:102540001305C002EFF0DFE79305007813050003E1
:10255000EFF01FE79395040193E5053C1305400355
:10256000EFF01FE69305800013058003EFF05FE5B1
:102570009315240093E515001305C003EFF05FE405
:102580008320C1000324810083244100032901002A
:102590001301010167800000930700006F00000233
:1025A00093962700371760003307D700B706A5A515
:1025B000B386D7002320D700938717001307F07F37
:1025C000E370F7FE67800000130101FE232E110067
:1025D000232C8100232A9100232821012326310165
:1025E000232441012322510123206101138B050083
:1025F000930A0600138A0600930907001384070054
:102600009304080013890800930505001305800052
:10261000EFF01FDB93050B0013058000EFF05FDA8E
:1026200093850A0013058000EFF09FD993050A00F7
:1026300013058000EFF0DFD89385090013058000B3
:10264000EFF01FD8939404011314040113540401F0
:10265000B3E5840013058000EFF09FD693050900D1
:1026600013058000EFF0DFD58325010213058000FC
:10267000EFF01FD58320C101032481018324410190
:10268000032901018329C100032A8100832A410013
:10269000032B01001301010267800000130101FFF9
:1026A000232611001305C000EFF09FD28320C10044
:1026B0001301010167800000130101FF23261100AF
:1026C00013054000EFF0DFD08320C10013010101AA
:1026D000678000001375E500130565FF13351500CD
:1026E00067800000130101FF23261100EFF01FFB9C
:1026F0009307700C63ECA7009307800C3385A74009
:102700008320C10013010101678000001305000050
:102710006FF01FFF130101FF2326110093054000F6
:1027200013050000EFF0DFC9930510001305000149
:10273000EFF01FC99305000013054001EFF05FC8DB
:102740009305100013050000EFF09FC78320C10020
:102750001301010167800000130101FE232E110007
:10276000930706002320E1009308F00F138806006A
:10277000138705009306000013060500930500006B
:1027800013051000EFF05FE48320C1011301010283
:1027900067800000130101FE232E11002320010099
:1027A00093080800138807009307070013870600A3
:1027B0009306060013860500930505001305200007
:1027C000EFF09FE08320C101130101026780000048
:1027D000130101FE232E1100232001019308F00FA5
:1027E0001388070093070700138706009306060067
:1027F000138605009305050013053000EFF0DFDCBC
:102800008320C1011301010267800000930705FFC7
:10281000138705FFB387F7023307E702B387E700A3
:10282000130700106342F706130700096344F70615
:10283000139765003307B7409306F0013347D7027B
:10284000139657003306F6409357F64193F7F70F68
:10285000B387C70093D78740B386F6401315B500FA
:102860001315050113550501931757009397070199
:1028700093D707013365F5003365D50013150501BE
:102880001355050167800000370501001305F58128
:1028900067800000370501001305F5FF6780000021
:1028A000130101FF2326110023248100232291001C
:1028B00023202101130900006F00800393175900A2
:1028C000B387870093971700B7142000B384F400F0
:1028D0009305090013050400EFF05FF32390A400B3
:1028E000130414009307F001E3DA87FC13091900BD
:1028F0009307F00163C62701130400006FF09FFEE9
:102900008320C100032481008324410003290100A6
:102910001301010167800000939E0701B38EFE0042
:1029200093FF1500130F00006F008004138E060044
:102930006F00000793182800B308130123A0D801E3
:102940001308180093581E40E34618FF13781E0022
:10295000630E0800370800801308F8FF330E0E01DD
:10296000131E1E003303C3012310F300130F1F00B7
:10297000635CEF023308CF001313480033030341B5
:10298000131363003303B300131313003303A300C3
:10299000E38E0FF82310F300138EF6FF13032300CA
:1029A000130800006FF01FFA67800000930606000E
:1029B0001357B500135655001376F6031375F5013A
:1029C00093D8B50013D855001378F80393F5F501A3
:1029D0009317370013572700B3E7E70013172600B4
:1029E000135646003367C7001316350013552500EC
:1029F0003366A6001395380093D82800B3681501F4
:102A00001315280013584800336805011395350045
:102A100093D52500B365B500130EF00F3303DE40E8
:102A2000B387D70233856802B387A7009387F70778
:102A300093D787003307D702330568023307A7000F
:102A40001307F707135787003306D602B3866502CC
:102A50003306D6001306F607135686006374FE008D
:102A60009307F00F9306F00F63F4E6001307F00FDF
:102A70009306F00F63F4C6001306F00F13D537006A
:102A80001315B5001315050113550501135727003C
:102A90001317570013170701135707013365E50094
:102AA000135636003365C50013150501135505018E
:102AB00067800000130101FE232E1100232C8100EA
:102AC000232A9100232821012326310123244101B7
:102AD0002322510123206101130B0500938A050075
:102AE000130A0600930900006F00400493975900F1
:102AF000B38787009397170037172000B307F700B5
:102B000003D5070093141400B304990083D504007F
:102B100013060A00EFF09FE92390A40013041400A9
:102B20009307F001E3D487FC938919009307F00120
:102B300063C63703B3875901139947003309F94036
:102B400013196900330969011319190083A7018258
:102B50003309F900130400006FF09FFC8320C101CA
:102B60000324810183244101032901018329C10038
:102B7000032A8100832A4100032B01001301010273
:102B80006780000013080500138505001306000088
:102B90006F000005130717009307F00163C0E704F7
:102BA00093175600B387E70093971700B7162000D6
:102BB000B387F60083D707009397070193D70701E0
:102BC000B70601009386F681E386D7FC93161700BB
:102BD000B386D5002390F6006FF0DFFB13061600D6
:102BE0009307F00163C6C702B307A6009395470099
:102BF000B385F54093956500B38505019395150060
:102C000083A70182B385F500130700006FF0DFF89A
:102C1000678000009307F5F993F7F70F130790010A
:102C20006366F700130505FE1375F50F1307000023
:102C30009307200263CEE702B747000093163700E0
:102C4000B386E6009387474DB387D70083C7070055
:102C50006386A700130717006FF09FFDB7470000BA
:102C60009387474D3385F6001305150067800000F4
:102C7000374500001305554D67800000130101FE24
:102C8000232E1100232C8100232A910023282101C7
:102C900023263101930405001389050093090600DA
:102CA000138406006F0000101306000093158701BF
:102CB00093D5854163C00502930500003366B600D5
:102CC00023A0C70013760701630A06001316040148
:102CD0006F000001930504006FF05FFE1306000013
:102CE0009375070263860500930504006F0080005A
:102CF000930500003366B60023A2C7001376470091
:102D000063060600131604016F008000130600001E
:102D10009375870063860500930504006F008000AB
:102D2000930500003366B60023A4C700137617008E
:102D300063060600131604016F00800013060000EE
:102D40001377270063060700130704006F00800055
:102D5000130700003367E60023A6E70093861600FA
:102D60009307700063CED702B307D50003C70700EF
:102D70003386260193174600B387C74093976700B1
:102D8000B38797009397170003A60182B387C70004
:102D900013760704E30A06F0131604016FF01FF11F
:102DA0009384840003C50900630A05009389190010
:102DB000EFF05FE6930600006FF09FFA8320C101F9
:102DC0000324810183244101032901018329C100D6
:102DD00013010102678000006F0000019385150058
:102DE0002300F5001305150083C70500E39807FECF
:102DF00067800000130101FF930700001308A00083
:102E0000B3F60503938606031387070133072700EC
:102E100093871700230AD7FE93860500B3D50503D1
:102E2000130790006378D7021307A000E358F7FC5C
:102E3000130700006F004001930600022300D50035
:102E40001307170013051500B306F640E346D7FE37
:102E50006F004002130700006FF01FFF9387F7FF1A
:102E60001387070133072700034747FF2300E500C7
:102E700013051500E39407FE1301010167800000AC
:102E800013070500130500006F00800013051500EF
:102E9000B307A70083C70700E39A07FE6780000017
:102EA0006F00C000130515009385150083470500CA
:102EB0006386070003C70500E386E7FE03C7050036
:102EC0003385E740133515006780000003C7050010
:102ED000938515002300E50013051500E31807FE90
:102EE00067800000930710006302F502930720003B
:102EF0006308F50037450000130545D567800000DD
:102F000037450000130545D66780000037450000AF
:102F10001305C5D567800000630205029307100002
:102F20006308F50037450000130585D6678000006B
:102F300037450000130585D767800000374500003E
:102F4000130505D767800000130101FE232E110031
:102F5000232C8100232A91002328210123263101DB
:102F600023244101232251012320610113890500FB
:102F70009304060013840600130B070093890700CF
:102F8000930A0800138A08009307703E63F4B700A1
:102F90001309703E9307703E63F497009304703EEC
:102FA0009307300663F4870013043006B74500002A
:102FB000938545D8EFF05FE21306300093050900D2
:102FC000EFF05FE3B7450000938585D8EFF0DFE0D1
:102FD0001306300093850400EFF0DFE1B7450000F1
:102FE000938505D9EFF05FDF1306200093050400F9
:102FF000EFF05FE0B7450000938585D9EFF0DFDDA6
:103000001306400093050B00EFF0DFDEB74500002C
:103010009385C5D9EFF05FDC130610009385190086
:10302000EFF05FDDB7450000938505DAEFF0DFDAFA
:103030001304050013850900EFF0DFEA930505008E
:1030400013050400EFF05FD9B7450000938545DA1A
:10305000EFF09FD81306300093850A00EFF09FD958
:10306000631C0A0283270102639007042300050002
:103070008320C1010324810183244101032901012B
:103080008329C100032A8100832A4100032B010008
:103090001301010267800000B7450000938585DABF
:1030A000EFF09FD36FF01FFCB74500009385C5DAA2
:1030B000EFF09FD26FF09FFB130101FA232E110452
:1030C000938705002320E10093880600130806007B
:1030D0001307050083A6418303A6818383A5C183CB
:1030E00013054101EFF05FE69385818613054101E9
:1030F000EFF01FDB630805008320C1051301010603
:10310000678000009305410113858186EFF01FDC85
:103110001307100023A8E1806FF01FFE130101FDCB
:103120002326110223248102232A510113030500BF
:10313000938A070003A401843304854037EEF50524
:10314000130EFE0F636E8E00130500008320C10274
:1031500003248102832A41011301010367800000D7
:103160002322910223202103232E3101232C41010C
:1031700023286101232671011385050093090600A8
:1031800013890600130A0700130B0800938B08002D
:1031900023A06184B7E4F50593840410B3B59502C8
:1031A000130604009306000033059502EF00006D3E
:1031B00023AEA182B3B59902130604009306000062
:1031C00033859902EF00806B23ACA182B33599025D
:1031D000130604009306000033059902EF00006A0D
:1031E00023AAA1820327010393860B0013060B0079
:1031F00093850A0013050A00EFF01FEC1305100079
:1032000083244102032901028329C101032A810188
:10321000032B0101832BC1006FF05FF3130101FF4A
:103220002326110023248100232291002320210141
:1032300093040500138405009307000013070001A1
:103240009306001C130600009305800003A501826D
:10325000EFF08FEC930700001307000193060004C2
:10326000130600009305003803A50182EFF0CFEAB2
:10327000370901009306F9FF138604009305400007
:1032800013058000EFF09F9F13050400EFF05FBF70
:10329000930780073385A7409306F9FF13060400C0
:1032A0009305400013153500EFF05F9D8320C100AA
:1032B000032481008324410003290100130101013B
:1032C00067800000B70701F803A54700678000008A
:1032D000130101FF23261100EFF0DFFE13558501D6
:1032E000630E0500B70701F803A507001375F50F76
:1032F0008320C10013010101678000001305000055
:103300006FF01FFF83270500376719001307D76089
:10331000B387E70237F76E3C1307F735B387E7004B
:103320002320F50013D5070167800000130101FD7C
:103330002326110223248102232291022320210328
:10334000232E3101232C4101232A51019309050029
:10335000938A0500130A0600130900006F00401E3F
:1033600093073000B367F402638E07001307100061
:103370006386E700130600026F0000011306800158
:103380006F008000130600013747000093172400E8
:10339000B387870093972700B7560000938606E20D
:1033A000B306D902B387D7001307477AB307F700EC
:1033B0002389C7001307700033F7E4021307D7FF10
:1033C000B746000093172400B38787009397270020
:1033D00037560000130606E23306C902B387C7005A
:1033E0009386467AB386F6002392E6009307500050
:1033F000B377F5029387E7FF2393F600631A07027A
:10340000B74600001317240033078700131727005F
:1034100037560000130606E23306C9023307C70019
:103420009386467A3387E600930610002312D7006E
:10343000639A07023747000093172400B387870079
:1034400093972700B7560000938606E2B306D90289
:10345000B387D7001307477AB307F70013071000A5
:103460002393E7001307003833F7E4021377E73FAD
:10347000B747000093162400B38686009396260073
:1034800037560000130606E23306C902B386C600AB
:103490009387477AB387D7002390E7009306C00D40
:1034A000B376D5022391D7002394E7002395D70064
:1034B0002396E7002397D70013D784001317B7008C
:1034C000131707011357070193568500939656006B
:1034D00093F6067E3367D700B384A40093F4F40117
:1034E000336797002398E7001304140063583405EA
:1034F0001305C100EFF01FE1930405001305C1009F
:10350000EFF05FE0E30E0AE4374700009317240072
:10351000B387870093972700B7560000938606E28B
:10352000B306D902B387D7001307477AB307F7006A
:10353000130700022389E7006FF0DFE71309190082
:103540009307100063C827012326510113040000CC
:103550006FF0DFF98320C10203248102832441023A
:10356000032901028329C101032A8101832A410120
:103570001301010367800000130700006F00800241
:1035800093172700B387E70093972700B307F50049
:10359000839607002396D700839627002397D700AA
:1035A00013071700E34EB7FC67800000832E060068
:1035B000832F8600B38FDF01032E4600032FC60042
:1035C000330FCF01930800006F004004B382660000
:1035D00063DC5F00B3866F401318080113580801BD
:1035E00033080041239207016358C70713160601E9
:1035F000135606013306C0402393C70013070E007D
:103600002390D7002391E7009388180063D6B8066B
:1036100093972800B387170193972700B307F50006
:103620008396070003984700B38606010397270097
:10363000039667003307C70003C32701E3D8D6F911
:103640001318080113580801330800412392070199
:1036500093860E006FF05FF933086700E3520FFBAB
:1036600033076F4013160601135606013306C04098
:103670002393C7006FF0DFF867800000130101FE9D
:10368000232E1100232C8100232A910023282101BD
:1036900023263101130405009384050093090600D5
:1036A00013890600138605009305050037450000C1
:1036B0001305457AEFF09FEF13860400930504008D
:1036C000379500001305455CEFF05FEE930710009F
:1036D00023A0F9002320F9008320C10103248101E4
:1036E00083244101032901018329C100130101023F
:1036F0006780000013050001678000006316050065
:1037000013054010678000001305C020678000008B
:103710006316050013058011678000001305000182
:1037200067800000631605001305401067800000E5
:103730001305C020678000006316050013054010C4
:10374000678000001305C02067800000130101FCA2
:10375000232E1100232C8100232A910093040500BD
:103760002322B1022324C1022326D1022328E1020D
:10377000232AF102232C0103232E11039307410274
:103780002326F100130400006F00C0018327C1004D
:10379000138747002326E10003A50700EFE0DFA918
:1037A00013041400B387840003C50700630E050AE1
:1037B00093075002630EF506EFE01FA86FF05FFE5F
:1037C0008327C100138747002326E10003A50700D4
:1037D000EFE05FA86FF0DFFC8327C100138747008D
:1037E0002326E10003A50700EFE05FA86FF05FFB71
:1037F0008327C100138747002326E10003A50700A4
:10380000EFE0DFB26FF0DFF98327C10013874700D5
:103810002326E10003A50700EFE05FAD6FF05FF83E
:1038200037450000130505DBEFE0DFA26FF05FF71F
:1038300013041400B387840083C70700E38207F6EC
:10384000938787FA93F6F70F13070002E362D7FE18
:1038500093972600374700001307C727B387E70071
:1038600083A70700678007008320C101032481012B
:10387000832441011301010467800000130806003E
:1038800093080500138705006390060E63FEC512BA
:10389000B7070100636EF61EB707000193068001AB
:1038A0006374F600930600013353D60097170000A7
:1038B000938747D6B387670083C7070013030002C7
:1038C000B387D700B306F340630CF3003397D500FA
:1038D000B357F5003318D60033E7E700B318D50027
:1038E000135608013355C7029316080193D60601F3
:1038F00093D708013377C702B385A60213170701D0
:10390000B3E7E70063FCB700B307F8001307F5FF60
:1039100063E4070163E0B74013050700B387B740CE
:1039200033D7C7029398080193D80801B3F7C702A9
:10393000B386E60293970701B3E8F80063FED80068
:10394000B30818019307F7FF63E608011307E7FFC1
:1039500063E4D80013870700131505013365E500FC
:10396000930500006780000063F8D5009305000010
:103970001305000067800000B707010063E8F61E2A
:10398000370700019307800163F4E6009307000105
:1039900033D8F600171700001307C7C7330707010E
:1039A00003470700930800023307F7003388E84015
:1039B0006396E81E63E4B6323335C500133515004F
:1039C0009305000067800000630C060CB707010038
:1039D000637CF62E133706101337170013173700C2
:1039E000B356E600971700009387C7C2B387D70086
:1039F00083C7070093060002B387E700B38EF64043
:103A00006394F60CB387C54093560601131606015E
:103A1000135606019305100033D5D70213D70801BA
:103A2000B3F7D7023303C50293970701B367F700D3
:103A300063FC6700B307F8001307F5FF63E40701B1
:103A400063E4672C13050700B387674033D7D702B9
:103A50009398080193D80801B3F7D7023306C70239
:103A600093970701B3E8F80063FEC800B308180194
:103A70009307F7FF63E608011307E7FF63E4C80055
:103A800013870700131505013365E5006780000003
:103A90009336061093B61600939636006FF0DFE06B
:103AA00093060000971700009387C7B6B387D70027
:103AB00083C707001307000093060002B387E700DF
:103AC000B38EF640E380F6F43318D60133D3F50015
:103AD00093560801335ED30213160801B395D5013E
:103AE00013560601B357F500B3E7B70013D7070124
:103AF000B318D5013373D302B305C60313130301FF
:103B000033676700637EB7003307E8001305FEFFE5
:103B10006364071F6372B71E130EEEFF33070701BE
:103B20003307B7403355D7029397070193D707015F
:103B30003377D7023303A60213170701B3E7E70071
:103B400063FE6700B307F8001307F5FF63EE07197C
:103B500063FC67181305E5FFB387070193150E0192
:103B6000B3876740B3E5A5006FF01FEB93B706106E
:103B700093B717009397370033D8F6001717000054
:103B8000130747A9330707010347070093080002FB
:103B90003307F7003388E840E38EE8E0335EE60061
:103BA000B3960601336EDE00B3D8E500935E0E01D6
:103BB000B3D7D80313130E01B395050113530301B3
:103BC0003357E5003367B7009356070133160601F4
:103BD000B3F8D803B305F30293980801B3E61601CE
:103BE00063FEB600B306DE009388F7FF63EAC611F2
:103BF00063F8B6109387E7FFB386C601B386B64075
:103C0000B3D5D6031317070113570701B3F6D6032D
:103C1000B308B302939606013367D700637E17019A
:103C20003307EE009386F5FF6364C70D6372170DCB
:103C30009385E5FF3307C70193970701B70E01008E
:103C4000B3E7B7009386FEFFB3F5D70013D30701A0
:103C5000B376D60013560601338ED50233071741CB
:103C6000B306D30293580E01B385C502B385D500C0
:103C7000B385B8003303C30263F4D5003303D30123
:103C800093D60501B3866600636AD7026308D7003E
:103C9000138507009305000067800000B706010048
:103CA0009386F6FF33F7D50013170701337EDE0046
:103CB000331505013307C701E37CE5FC1385F7FFE6
:103CC0009305000067800000B7070001637AF604DF
:103CD00093560601130700016FF0DFD09305000033
:103CE0001305100067800000130507006FF01FE741
:103CF000938506006FF05FF4130E05006FF05FE22E
:103D0000938708006FF09FEF1305E5FFB387070166
:103D10006FF09FD31305E5FFB38707016FF01FC056
:0C3D200093568601130780016FF0DFCB83
:103D2C0030313233343536373839414243444546E5
:103D3C0000000000303132333435363738396162A7
:103D4C00636465660000000046494C4C00000000AE
:103D5C00414C5048410000004B4559004857204FFA
:103D6C004E4C590053504C495400000043505520C0
:103D7C004F4E4C590000000048573D002043505511
:103D8C003D000000205343523D000000204E3D00FA
:103D9C00205343003A00000020413D002045000024
:103DAC00204652003C466C6F6174696E6720706FE0
:103DBC00696E74207072696E74696E67206E6F74B0
:103DCC0020656E61626C652E20506C656173652098
:103DDC00456E61626C652069742061742062737039
:103DEC002E682066697273742E2E2E3E0000000021
:103DFC000D0A3D3D3D3D3D2046696E616C44656D4F
:103E0C006F3A20485720616363656C20767320708D
:103E1C00757265204350552C2073616D652073635A
:103E2C007265656E203D3D3D3D3D0D0A0000000074
:103E3C0046423D2578204241434B3D257820415454
:103E4C004C41533D2578205350523D2564782564D0
:103E5C000D0A00006C61796F75743A20696E666F9B
:103E6C0020302D3136207C2048572031362D3237EA
:103E7C0036207C20736570207C20435055203238CE
:103E8C00302D3534300D0A0064656661756C743AFA
:103E9C0020706174683D4857206F6E6C792C2063DC
:103EAC006C6561725F7065725F706173733D312C0C
:103EBC0020616476616E63653D74696D652C204E7E
:103ECC003D25640D0A000000636D643A20312F32E9
:103EDC002F33207363656E652046494C4C2F414C43
:103EEC005048412F4B45592C20732F632F6820705D
:103EFC006174682053504C49542F4350552F4857E8
:103F0C000D0A000020202020206E206F72202B2014
:103F1C004E2B25642C202D204E2D25642C20612F1A
:103F2C004120616C7068612D2F2B2C206520636CF7
:103F3C006561722D7065722D706173732C0D0A00A2
:103F4C002020202020742074696D652F6672616DAD
:103F5C006520616476616E63652C207220726573D6
:103F6C0065742C203F2068656C700D0A0000000001
:103F7C00616C69676E636865636B202578202578B2
:103F8C002025782025782028657870656374206654
:103F9C0038303020663830302030376530203037BC
:103FAC006530290D0A00000073656C6663686563F3
:103FBC006B3A205354415455533D257820434F556B
:103FCC004E543D2564205343414E3D2578204642B6
:103FDC003D25780D0A0000007075626C6973683AB3
:103FEC0020464C495078332028646973703D256411
:103FFC0020647261773D256420636C723D25642CCE
:10400C0020636C6561722D656E67696E65206F6EDD
:10401C00290D0A00706163696E673A20495251207C
:10402C00286672616D652D626F756E6461727920A0
:10403C004952515F5354415455535B315D2C2049C7
:10404C0052515F454E5B315D206F6E290D0A0000A9
:10405C000D0A4556207363656E653D256420283036
:10406C003D46494C4C20313D414C50484120323D5D
:10407C004B4559290D0A00000D0A455620706174F4
:10408C00683D302053504C49540D0A000D0A4556DA
:10409C0020706174683D3120435055206F6E6C79EF
:1040AC000D0A00000D0A455620706174683D3220DF
:1040BC004857206F6E6C790D0A0000000D0A4556AA
:1040CC00204E3D25640D0A000D0A455620636C6593
:1040DC0061725F7065725F706173733D2564202837
:1040EC00313D6576657279207061737320726566F7
:1040FC00696C6C7320746865204857207265676919
:10410C006F6E290D0A0000000D0A45562061647679
:10411C00616E63653D25642028303D74696D6520B2
:10412C00323520737465702F732C20313D6F6E65A2
:10413C00207374657020706572207075626C697381
:10414C00686564206672616D65290D0A00000000C7
:10415C000D0A455620616C7068613D25640D0A009E
:10416C000D0A45562072657365740D0A0000000037
:10417C000D0A636D643A20312F322F333D73636522
:10418C006E652046494C4C2F414C5048412F4B45B5
:10419C0059202020732F632F683D70617468205361
:1041AC00504C49542F4350552F48570D0A2020206E
:1041BC0020206E206F72202B203D4E2B256420205A
:1041CC00202D203D4E2D2564202020612F413D6166
:1041DC006C7068612D2F2B202020653D636C656110
:1041EC00722D7065722D706173730D0A2020202062
:1041FC0020743D616476616E63652074696D652F12
:10420C006672616D65202020723D72657365742045
:10421C0020203F3D68656C700D0A2020202020284E
:10422C0048572F4350553D72656E6465722070611E
:10423C0073732F732C205343523D7075626C6973EA
:10424C00686564206672616D65732F73290D0A00B1
:10425C000D0A455620666C69702074696D656F7522
:10426C00742C2046425F535441543D25780D0A006E
:10427C00F0370000303800003038000030380000D3
:10428C003038000030380000303800003038000082
:10429C003038000030380000303800008C37000017
:1042AC00D8370000303800002038000030380000CB
:1042BC003038000030380000303800003038000052
:1042CC003038000030380000303800003038000042
:1042DC00303800003038000030380000C0370000A3
:1042EC003038000030380000303800003038000022
:1042FC0008380000D4160000C4160000C4160000D4
:10430C00C4160000C4160000C4160000C416000039
:10431C00C4160000C4160000C4160000C416000029
:10432C00C4160000C4160000C4160000C416000019
:10433C00C4160000C4160000C4160000C416000009
:10434C00C4160000C4160000C4160000C4160000F9
:10435C00C4160000C4160000C4160000C4160000E9
:10436C00C4160000C4160000C4160000C4160000D9
:10437C00C4160000C4160000C4160000C4160000C9
:10438C00C4160000C4160000C4160000C4160000B9
:10439C00C4160000C4160000C4160000C4160000A9
:1043AC0064150000C416000090150000C41600002F
:1043BC00C4160000C4160000AC140000AC140000BD
:1043CC00AC140000C4160000C4160000C416000093
:1043DC00C4160000C4160000C4160000C416000069
:1043EC00C4160000C4160000C4160000C416000059
:1043FC00A4160000C416000048160000C4160000E5
:10440C0014150000C4160000BC150000C4160000F2
:10441C00C41600003C150000C4160000C4160000B1
:10442C00C4160000C4160000C41600006415000079
:10443C00C4160000C4160000C41600007816000054
:10444C00EC140000EC150000C4160000C4160000AB
:10445C00C4160000C4160000C4160000C4160000E8
:10446C00C4160000C4160000C4160000C4160000D8
:10447C00C4160000C416000018160000C416000074
:10448C0014150000C4160000BC150000C416000072
:10449C00C41600003C150000C4160000C416000031
:1044AC00C4160000C4160000C416000064150000F9
:1044BC00C4160000C4160000C416000078160000D4
:1044CC00EC140000EC1500002000000000000000BF
:1044DC0000303C666E7666663C0031183818181849
:1044EC00187E00323C66060C18307E00333C6606A3
:1044FC001C06663C00340C1C3C6C7E0C0C00357E9F
:10450C00607C0606663C00361C30607C66663C00AF
:10451C00377E060C1830303000383C66663C6666D8
:10452C003C00393C66663E060C380041183C666619
:10453C007E666600433C66606060663C0044786C56
:10454C006666666C7800457E60607860607E0046CA
:10455C007E60607860606000486666667E6666664F
:10456C0000493C18181818183C004B666C78707889
:10457C006C66004C6060606060607E004D63777FAD
:10458C006B636363004E66767E7E6E6666004F3CA0
:10459C0066666666663C00507C66667C60606000A1
:1045AC00527C66667C786C6600533C66603C0666A2
:1045BC003C00547E18181818181800556666666664
:1045CC0066663C00576363636B7F7763005966666E
:1045DC00663C181818003D00007E007E0000002E7E
:1045EC0000000000001818003A00181800181800F5
:1045FC00002F060C1830604000002D0000007E00DB
:10460C00000000000001020203030303040404047D
:10461C000404040405050505050505050505050542
:10462C000505050506060606060606060606060622
:10463C00060606060606060606060606060606060E
:10464C0006060606070707070707070707070707F2
:10465C0007070707070707070707070707070707DE
:10466C0007070707070707070707070707070707CE
:10467C0007070707070707070707070707070707BE
:10468C0007070707080808080808080808080808A2
:10469C00080808080808080808080808080808088E
:1046AC00080808080808080808080808080808087E
:1046BC00080808080808080808080808080808086E
:1046CC00080808080808080808080808080808085E
:1046DC00080808080808080808080808080808084E
:1046EC00080808080808080808080808080808083E
:1046FC00080808080808080808080808080808082E
:10470C00080808080100000078563412FFFFFFFF6C
:10471C00FFFFFFFF00105000000000000000000031
:06472C0000000000000087
:0400000300001000E9
:00000001FF
