:10100000977100009381810E178101001301811FE8
:10101000175500001305854E975500009385054E22
:10102000177600001306C69163FCC50083220500F5
:1010300023A055001305450093854500E3E8C5FE50
:10104000177500001305C58F977501009385051B63
:101050006378B5002320050013054500E36CB5FE59
:10106000EF000001EF00000A6F0000006780000041
:10107000130101FF23248100232021019757000041
:101080009387C747175400001304444723261100D1
:1010900023229100338987406380870213592940B6
:1010A0009304000083270400938414001304440075
:1010B000E7800700E3E824FF975700009387074481
:1010C000175400001304844333898740135929407F
:1010D000638E870093040000832704009384140028
:1010E00013044400E7800700E3E824FF8320C100E5
:1010F000032481008324410003290100130101011D
:1011000067800000130101FA232E1104232C8104AF
:10111000232A910423282105232631052324410570
:101120002322510523206105232E7103232C8103E3
:10113000232A91032328A1032326B103EF00D0190A
:1011400037750000130545FFEF300060B72700003A
:10115000938707C037172000B71670003716500066
:10116000B71530003775000013050504EF30C05D7A
:101170009306C021130600019305003C377500005B
:101180001305C506EF30405C377500001305850A6E
:10119000EF30805B03A6418283A5C18137750000D3
:1011A0001305C50EEF30405A3775000013050513BF
:1011B000EF3080593775000013050517EF30C05820
:1011C000377500001305851BEF3000583775000098
:1011D00013054520EF304057130A00006F0040040C
:1011E00033043903330494001314140033848A0045
:1011F000130609009385040013050A00EF00503D13
:101200002310A40093841400E3CC34FD13091900C7
:1012100063563901930400006FF01FFF130A1A0090
:101220009307700063CA4703B777000013172A00BB
:101230009387477DB387E70083AA0700B71720008D
:10124000B38AFA0093870184B387470183C90700F3
:10125000130900006FF0DFFBEF00D055EF10002501
:10126000EF308061EF0010539307050023A4A18E97
:1012700013051500130730003375E50223A8A1827A
:1012800093872700B3F7E70223A6F1821307100024
:1012900023AEE18CEF00904D23AAA182EF304027CE
:1012A00083A44183130400006F008003130504002E
:1012B000EF00D04B23AAA182930780001307C0211F
:1012C0009306003C1306000093050000EF009051C8
:1012D0009387818DB307F400238007001304140063
:1012E00093072000E3D487FC23AA918203A7818E71
:1012F00023A2E18EEF00104C83A6C18203A60183D6
:1013000083A5818E3775000013058524EF30C04317
:1013100013054001EF00904493652500130540013B
:10132000EF00D0429305200013050001EF001042AA
:10133000B7070100938707801307200093068000FA
:101340001306401F9305100203A54183EF00904947
:101350009307007E13072000930690001306601F7A
:101360009305000203A54183EF00D04703A7418303
:10137000B7A70E0093872764B307F70083D507004C
:10138000B7B70E00938707553307F70003560700DA
:101390003775000013054527EF30003B930700E742
:1013A000231AF100B71700009387873F231BF10032
:1013B00093078000231CF100231DF1009307000117
:1013C000A30EF10093074000230FF10093073000B4
:1013D000230EF100130A1000A30F41011305410170
:1013E000EF10005F83154101031661011307C02050
:1013F000831681011356364093D53540377500006A
:101400001305C529EF304034EF10800413040500A4
:10141000EF1040029304050013050002EF001034A2
:101420001309050013050008EF00503313070500EA
:101430009306090013860400930504003775000025
:101440001305C52CEF304030EF30405DEF30801792
:1014500023A2018AEF20105EEF20506883A701834A
:101460001387818DB387E70023804701EF00903415
:10147000EF00102C930A050023A0A1869309000019
:1014800013090000130A0000130400006F008024F9
:10149000EF3010769377F40F63940724EF00502910
:1014A000130B050083A781876380070203A7C18709
:1014B0003307E540B7F7FA029387070863F6E700BA
:1014C00023AC018623A2018883AB0186B30B7B4149
:1014D000B7E7F5059387F70F63F4772103A58186B6
:1014E00037ECF505130C0C10B335850313860B0090
:1014F0009306000033058503EF401035930C05007B
:1015000003A54186B335850313860B0093060000BF
:1015100033058503EF405033930B050023A061870B
:1015200023A4018623A2018603A70182930720003A
:10153000630EF70423A6A1869386C189138681854D
:101540009385C18113850B00EF1050349307100071
:101550006304F50493072000630CF5046352051837
:1015600003AB818503ACC185EF20904A13070500CA
:1015700093060C0013860B0093050B0037750000D3
:1015800013050534EF30401C6F00801523A89187A8
:10159000938B0C006FF05FFA13860B0083A5C1815B
:1015A0003775000013050530EF30001A6F00401347
:1015B00083A6C18513860B0083A58185377500003E
:1015C00013058531EF3040186F00801183A6818E9E
:1015D00023A4F18E03A5C18223A8A18223A6D182D0
:1015E0009304100023AE918CEF00501823AAA1821F
:1015F00083A701826388970283A781869387170058
:1016000023A4F186EF00D01233075541B7877D013F
:101610009387F78363E0E70213090000130A0000D1
:101620006F00400B83A741869387170023A2F186A2
:101630006FF05FFDEF00D00F930A050003A5018254
:10164000930710006306F50483A5018703A6C181F3
:1016500083A6C18503A7018983A7018103A881818E
:1016600083A84181130310006308650237750000E9
:10167000130505FF2320A100377500001305C537AA
:10168000EF30800C13090000130A00006F00800483
:1016900083A5C1866FF09FFB377500001305C5FE5B
:1016A0006FF05FFD13058002EF00500B93050500FE
:1016B000377500001305453BEF3000096F00C00788
:1016C00013050003EF0090076F00C000130500032F
:1016D000EF00D0061304140093743400E38A04DA94
:1016E00063080906E39404FE13050001EF001007E8
:1016F00013752500630E05009305200013050001F6
:10170000EF00D004EF00100983A7418EE300F5EC51
:10171000EF00100233053541B797980093870768AB
:10172000E3F0A7FA83A7018E9387170023A0F18E19
:1017300013071000E388E7F683A5418E13054002E6
:10174000EF00D000EF00C07E930905006FF09FF816
:10175000630A0A0483A40182930710006382F408D9
:1017600003A7C18A83A7018B6344F70AEF20D075D2
:10177000930405006302050AEF20D04BEF009003AD
:1017800083A5018313054002EF00407C03A701837A
:1017900023A2E18EEF00C0799309050013090A0026
:1017A0006FF05FF3EF30507DEF00D069EF10503BEA
:1017B000EF10106123AEA184EF20D027EF2010326C
:1017C00083A701831387818DB387E7001307100078
:1017D0002380E70023A6018A130A10006FF09FEF11
:1017E000EF204048EF201045EF00C07C83A5018327
:1017F00013054002EF00807503A7018323A2E18E49
:10180000EF00007393090500138904006FF09FEC4B
:10181000EF1090676FF01FEC377500001305453D22
:10182000EF40407B138A04006FF0DFEA0325450098
:10183000135505011375F50F67800000130101FFB3
:101840002326110023248100232291001304050084
:101850009384050013050400EFF05FFDE30C05FE23
:10186000232094008320C1000324810083244100AD
:10187000130101016780000083A7C5002324F50040
:1018800083A705009387F7FF03A745001317870079
:10189000B3E7E70003A7850013170701B3E7E700E5
:1018A0002326F50067800000130101FF23261100A5
:1018B00093050500370501F8EFF05FF88320C100BC
:1018C0001301010167800000130101FF23261100AD
:1018D00023248100130405006F00C00013041400CA
:1018E000EFF09FFC03450400E31A05FE8320C100CE
:1018F000032481001301010167800000130101FF2F
:101900002326110023248100232291009304050043
:101910001304C0016F00400233D784001377F7002F
:10192000B76700009387874FB387E70003C50700B9
:10193000EFF09FF71304C4FFE35004FE8320C100BF
:10194000032481008324410013010101678000000A
:10195000130101FF2326110023248100232291007B
:10196000930405001304C0016F00400233D78400C4
:101970001377F700B76700009387C750B387E70076
:1019800003C50700EFF05FF21304C4FFE35004FE49
:101990008320C1000324810083244100130101013D
:1019A00067800000130101FF232611001375F50F56
:1019B000EFF09FEF8320C100130101016780000059
:1019C000130101FF23261100EFF01FF08320C10057
:1019D0001301010167800000130101FD232611029C
:1019E000232481022322910293040500634605000B
:1019F000130401006F00C0021305D002EFF09FFA3C
:101A0000B30490406FF0DFFE1307A000B3E7E402D9
:101A1000938707032300F400B3C4E4021304140003
:101A2000E39404FE93070100E300F4FE9307010032
:101A3000630AF4001304F4FF03450400EFF09FF67B
:101A40006FF0DFFE8320C102032481028324410260
:101A50001301010367800000130101FF2326110019
:101A6000130700009307700063C0E7029316270076
:101A7000930700FFB397D700B377F500638607009D
:101A8000130717006FF01FFEEFF09FEC8320C100DB
:101A90001301010167800000130101FF23261100DB
:101AA000130700009307700063C0E7029316270036
:101AB000930700FFB397D700B377F500638607005D
:101AC000130717006FF01FFEEFF05FE38320C100E4
:101AD0001301010167800000130101FE232E110094
:101AE000930780002320F10023220100232401001A
:101AF0009307B0062326F10093050100370501F88E
:101B0000EFF09FD78320C10113010102678000001D
:101B10001375F5009395450093F505033365B500FE
:101B200013166600B7470000938707FC3376F6006C
:101B30003365C50093968601B7070003B3F6F60038
:101B40003365D500678000001375F50067800000DD
:101B50001355450013753500678000001355650067
:101B60001375F50F67800000135585011375350057
:101B70006780000003A7818393072000630EF700AE
:101B8000B7770000131727009387477CB387E700D8
:101B900003A507006780000083A7818FE39207FEFB
:101BA0003765000013050552678000009357F54123
:101BB00033C5A7003305F540678000001387E5FFB4
:101BC0009307B00163E4E708130101FF2326110026
:101BD0002324810023229100232021011384050066
:101BE000130505FF93941500B384B4009394240067
:101BF0009307D001B3C4F40213891400EFF01FFB64
:101C0000634AA9049307300163D687009384F4FFE5
:101C1000635695049307300063C6A70093075001ED
:101C200063D487049307A00163C4870437050100C8
:101C30001305F5FF8320C1000324810083244100A4
:101C40000329010013010101678000001305000052
:101C500067800000130500006FF0DFFD37250000EE
:101C60001305358E6FF01FFD1305F07F6FF09FFC9D
:101C700037050100130505D26FF0DFFB130101FFEB
:101C80002326110023248100232291009384050040
:101C9000130505FFEFF09FF113040500138504FF02
:101CA000EFF0DFF03305A4009307E00063C4A70260
:101CB0009307B00063CCA7029307600063CEA7022E
:101CC0009307200063C0A704370501001305F5FF43
:101CD0006F008000130500008320C10003248100F1
:101CE0008324410013010101678000003785000053
:101CF000130505806FF05FFE3705010013050580B1
:101D00006FF09FFD37050100130505D26FF0DFFC72
:101D100093171500938717FF93951500938515FF6B
:101D2000B387F702B385B502B387B7001307F00F87
:101D30006348F708139787003307F7409357F74135
:101D400093F7F70FB387E70093D787401307F00F98
:101D5000B307F740B387F70233D7E702B72600008F
:101D60009386F6FD63F2F6061355B6003305E502D9
:101D70009306F00F3355D5029357560093F7F703A8
:101D8000B387E702B3D7D7021376F6013306E6022C
:101D90003356D6021315B500131505011355050169
:101DA000939757009397070193D707013365F50081
:101DB0003365C50013150501135505016780000043
:101DC0001305000067800000130500006780000015
:101DD000130101FF23261100930705001385050059
:101DE0009305060013076000636CF70693972700BE
:101DF000377700001307873FB387E70083A7070003
:101E000067800700EFF09FDB8320C1001301010111
:101E100067800000EFF09FE66FF01FFF1306F07F72
:101E2000EFF01FEF6FF05FFE370601001306F6813B
:101E3000EFF01FEE6FF05FFD1306F07FEFF05FED48
:101E40006FF09FFC37060100130606D2EFF05FEC3F
:101E50006FF09FFB1306007EEFF09FEB6FF0DFFA51
:101E6000370601001306F6FFEFF09FEA6FF0DFF987
:101E70009307F5F993F7F70F130790016366F700DF
:101E8000130505FE1375F50F130700009307900265
:101E900063C4E702B777000093163700B386E60005
:101EA00093878763B387D70083C70700638AA70038
:101EB000130717006FF09FFD1305000067800000F7
:101EC00013051000678000009307F5F993F7F70FEB
:101ED000130790016366F700130505FE1375F50FF0
:101EE000130700009307900263CEE702B777000064
:101EF00093163700B386E60093878763B387D700CE
:101F000083C707006386A700130717006FF09FFDC4
:101F1000B7770000938787633385F60013051500B4
:101F20006780000037750000130595636780000027
:101F3000B7C7B0F803A587FF6780000063060500F8
:101F40001305F5FFE31E05FE67800000B70710F8D4
:101F50003305F5002320B50067800000B70710F8AF
:101F60003305F50003250500678000009307200076
:101F7000630EF500930710006306F5003715300077
:101F8000678000003715500067800000371570002B
:101F900067800000130101FF232611001305800252
:101FA000EFF0DFFB137535008320C1001301010141
:101FB00067800000930700006F00000293962700DF
:101FC000371760003307D700B706A5A5B386D7003B
:101FD0002320D700938717001307F07FE370F7FEE5
:101FE00067800000939E0701B38EFE0093FF1500EB
:101FF0006356D0086354E008130F00006F0080049C
:10200000138E06006F00000793182800B308130111
:1020100023A0D8011308180093581E40E34618FF68
:1020200013781E00630E0800370800801308F8FFBD
:10203000330E0E01131E1E003303C3012310F300E1
:10204000130F1F00635CEF023308CF001313480027
:1020500033030341131363003303B300131313005B
:102060003303A300E38E0FF82310F300138EF6FF63
:1020700013032300130800006FF01FFA67800000AD
:10208000130101FE232E1100232C8100232A91002D
:102090002328210123263101232441012322510138
:1020A00023206101138B0500930A0600138A0600A2
:1020B000930907001389070013040800938408009C
:1020C00083A7C18E639C070893050B00130580004E
:1020D000EFF0DFE793850A0013058000EFF01FE7BC
:1020E00093050A0013058000EFF05FE69385090071
:1020F00013058000EFF09FE59305090013058000AC
:10210000EFF0DFE493950401131404011354040168
:10211000B3E5850013058000EFF05FE3832501023E
:1021200013058000EFF09FE2832541021305800034
:10213000EFF0DFE18320C101032481018324410109
:10214000032901018329C100032A8100832A410058
:10215000032B0100130101026780000093050500B5
:102160001305C008EFF09FDE6FF01FF6130101FDAD
:1021700023261102232481022322910223202103FA
:10218000232E3101232C4101130405009384050003
:102190001309060093890600130A0700930600003E
:1021A0001306F00F9305000013050000EFF05F9693
:1021B000232241019307F00F2320F10093880900A7
:1021C0001308090093870400130700009306040016
:1021D0001306000093051000EFF09FEA8320C10270
:1021E0000324810283244102032901028329C101BE
:1021F000032A81011301010367800000130101FD1F
:102200002326110223248102232291022320210369
:10221000232E3101232C4101232A5101232861015E
:102220001304050093840500130906009389060032
:10223000130A0700938A0700130B08009306000097
:102240001306F00F9305000013050000EFF05F8CFC
:10225000232261019307F00F2320F10093880A00E5
:1022600013080A00938709001307090093860400E6
:102270001306040093053000EFF09FE08320C102B5
:102280000324810283244102032901028329C1011D
:10229000032A8101832A4101032B01011301010358
:1022A00067800000130101FD23261102232481020F
:1022B0002322910223202103232E3101232C4101CB
:1022C000232A510113040500938405001309060015
:1022D00093890600130A0700938A070083A7C18E1B
:1022E00063840706130608009306000093050000A8
:1022F00013052000EFF0DF81232201009307F00F88
:102300002320F10093880A0013080A00938709002C
:1023100013070900938604001306040093052000A8
:10232000EFF01FD68320C1020324810283244102DF
:10233000032901028329C101032A8101832A410162
:102340001301010367800000930600001306F00FDD
:102350009305000013050000EFF08FFB232201001E
:102360009307F00F2320F10093880A0013080A0056
:1023700093870900130709009386040013060400DD
:1023800093053000EFF0DFCF6FF0DFF9130101FDAF
:1023900023261102232481022322910223202103D8
:1023A000232E3101232C4101232A510123286101CD
:1023B000930405001389050093090600138A06009B
:1023C000930A0700138B070013040800930600000C
:1023D0001306F00F9305000013050000EFF04FF314
:1023E000232201001374F40F2320810093080B00B3
:1023F00013880A0093070A0013870900930609004F
:102400001386040093052000EFF09FC78320C102CC
:102410000324810283244102032901028329C1018B
:10242000032A8101832A4101032B010113010103C6
:1024300067800000130101FF232611001305C0006F
:10244000EFF0DFB18320C1001301010167800000BC
:10245000130101FF2326110013054000EFF01FB008
:102460008320C10013010101678000001375E5009E
:10247000130565FF1335150067800000130101FF88
:1024800023261100EFF01FFB9307700C63ECA700ED
:102490009307800C3385A7408320C10013010101FD
:1024A00067800000130500006FF01FFF130101FF9C
:1024B000232611009305400013050000EFF01FA92B
:1024C0009305700013050001EFF05FA8930500006D
:1024D00013054001EFF09FA79305100013050000BE
:1024E000EFF0DFA68320C100130101016780000027
:1024F000130101FF2326110013050004EFF01FA6AE
:102500008320C1001301010167800000130101FF56
:1025100023261100EFF0DFFD137515008320C100A5
:102520001301010167800000130101FF2326110040
:102530002324810013040500EFF09FFB1304240003
:1025400033558500137515008320C10003248100D5
:102550001301010167800000130101FF2326110010
:102560002324810023229100EFF09F9C9304050017
:1025700013040000EFF09FF963020504EFF05F9B86
:1025800033059540B7470F009387072463EEA700F4
:102590001304140093070004E3DE87FC1305000313
:1025A000EFF0DF996FF0DFFC83A7018D93871700B1
:1025B00023A8F18C130500006F00800013051000A4
:1025C0008320C10003248100832441001301010101
:1025D00067800000130101FF2326110023248100DE
:1025E00013040500EFF09F98B785000093850580E0
:1025F000B305B5001305C002EFF05F9593050078B1
:1026000013050003EFF09F94B7050C029385053C7A
:1026100013054003EFF09F9393058000130580039B
:10262000EFF0DF929315240093E515001305C00326
:10263000EFF0DF918320C100032481001301010129
:1026400067800000130101FF23261100232481006D
:1026500023229100EFF05FF003A50183EFF0DFECA0
:102660001304050083A5018313054004EFF01F8EBA
:10267000EFF01FE813750504631A050263180400E0
:1026800083A7418D9387170023AAF18C83A7C18D5F
:1026900063900704133514008320C10003248100D4
:1026A00083244100130101016780000083A7C18CCE
:1026B0009387170023A6F18C83A5018393952500AA
:1026C00093E505011305C003EFF05F886FF01FFB72
:1026D00003A5C182EFF01FF023AE018C6FF09FFBCA
:1026E000B70701F803A5470067800000130101FF49
:1026F00023261100EFF0DFFE13558501630E050060
:10270000B70701F803A507001375F50F8320C10073
:102710001301010167800000130500006FF01FFF27
:10272000130705FD9307900063F2E7029307F5F99D
:10273000130750006370F7029307F5FB130750006F
:10274000636EF700130595FC678000001305070012
:1027500067800000130595FA678000001305F0FFFD
:10276000678000009307050003A5418C63140502F0
:10277000130700046384E70067800000130710005C
:1027800023A2E18C23A0018C23AE018A1305100043
:10279000678000001307A000638AE7041307D000D6
:1027A0006386E704130101FF232611001385070048
:1027B000EFF01FF7634A050403A7018C930710008D
:1027C00063C4E70483A7C18B9397470033E5A70051
:1027D00023AEA18A1307170023A0E18C1305100074
:1027E0008320C100130101016780000023A2018C36
:1027F00003A5018C93072000631EF50083C7C18BDE
:1028000023A0F5006780000023A2018C1305F0FFD0
:102810006FF01FFD1305F0FF6780000093070500B0
:1028200003A5418B631205021307D0036384E700FD
:10283000678000001307100023AAE18A23AC018AF5
:1028400013051000678000001307A0006382E704EF
:102850001307D000638EE702138707FD93069000ED
:1028600063ECE60883A6818B1307B0006366D70884
:102870001386160023ACC18A378701001307871E11
:102880003307D7002300F70013051000678000000E
:1028900023AA018A83A8818B63860806130500009A
:1028A000130800006F00800013051500637C1503FA
:1028B000131728003307070113171700B787010004
:1028C0009387871EB387A70083C70700B387E700F6
:1028D000938707FD13880600E3E8F6FC13880700DA
:1028E0006FF09FFC6364C8001306080023A0C500B6
:1028F000130520006780000023AA018A1305F0FF5A
:10290000678000001305F0FF678000008327050043
:10291000376719001307D760B387E70237F76E3CB4
:102920001307F735B387E7002320F50013D5070118
:1029300067800000130101FF2326110013858182A7
:10294000EFF0DFFC8320C10013010101678000006C
:102950001375F503B7770000131515009387875B90
:10296000B387A700039507006780000013050501E2
:102970001375F503B7770000131515009387875B70
:10298000B387A700039507006780000013070500C1
:10299000B70700406F00800093D72700E36EF7FE73
:1029A000130500006F00C0001355150093D72700D2
:1029B000638E0700B306F500E368D7FE3307D74000
:1029C000135515003305F5006FF05FFE67800000BA
:1029D000034695008316050013D73640831725005C
:1029E00093D7374063C406069306003CB386C640BF
:1029F00063DAE600035745003307E0402312E500A1
:102A0000138706009306F00063CAF600835765003B
:102A1000B307F0402313F500930700019306C0218C
:102A2000B386C64063DAF60083576500B307F0400B
:102A30002313F50093870600131737002310E500D2
:102A4000939737002311F500678000000357450076
:102A50003307E0402312E500130700006FF0DFF8B2
:102A60006F008000130515006354B502B71701000D
:102A7000131715003307A70013172700938787FE46
:102A8000B387E70083C7B700E39E07FC67800000B9
:102A90001305F0FF6780000083A7418583A5C181EE
:102AA00063D2B702130101FF2326110093850502AB
:102AB00013050002EFF0DFFA8320C10013010101CA
:102AC000678000001305F0FF67800000130101FE1E
:102AD000232E1100232A91002328210123244101C0
:102AE0002322510123206101130B050013890500E6
:102AF000930A0600138A060093040700EFF0DFF93B
:102B00006346050C232C81002326310113040500A4
:102B1000B719010093171500B387A70093972700F3
:102B2000938989FEB389F9002390690123912901D2
:102B300013850A00EFF09FE33309450313598940D9
:102B400013190901135909412392290113850A0018
:102B5000EFF01FE0330545031355854013150501BC
:102B6000135505412393A900631809006316050056
:102B7000130780002393E90093F434009384340016
:102B800037170100130787FE93161400B3878600DA
:102B900093972700B307F7002384970013060001DB
:102BA000A384C700130640002385C70013870700CE
:102BB000930700FFA305F70083A7418593871700BC
:102BC00023AAF184032481018329C1008320C10148
:102BD0008324410103290101032A8100832A410042
:102BE000032B01001301010267800000130101FDA6
:102BF00023261102232E3101232C4101232A5101C6
:102C00002328610123267101930B0500138B050016
:102C1000130A0600938A060093090700EFF0DFE726
:102C200063420514232481022322910223202103DD
:102C3000130905000394A1893304744183948189A5
:102C4000B384644133058402B38794023305F500ED
:102C5000EFF0DFD36358A0123307904013178700BB
:102C60003347A7029316840033C6A602B7170100A4
:102C700093161900B386260193962600938787FE44
:102C8000B387D7002390770123916701330454035E
:102C90003344A402330747039356F74193F6F60FE4
:102CA0003387E600135787403304E400131404010C
:102CB0001354044123928700B3845403B3C4A40281
:102CC000B306460313D7F6411377F70F3307D70040
:102CD00013578740B384E4009394040193D40441D0
:102CE000239397006314040263920402B717010050
:102CF000131719003307270113172700938787FE3F
:102D0000B387E700130780002393E70093F93900A6
:102D10009389390037170100130787FE93161900AE
:102D2000B387260193972700B307F7002384370161
:102D300013060001A384C700130640002385C700C3
:102D400013870700930700FFA305F70083A74185BA
:102D50009387170023AAF18403248102832441026C
:102D6000032901028320C1028329C101032A8101B1
:102D7000832A4101032B0101832BC10013010103AD
:102D800067800000130510006FF01FED8347B5004A
:102D9000638A07089387F7FFA305F50083570500AB
:102DA00003574500B387E7009397070193D707417F
:102DB0002310F50003572500835665003307D7001D
:102DC00013170701135707412311E50093D7374025
:102DD0001357374063940502938707029306004018
:102DE00063ECF602930700FE6348F7029307C024E2
:102DF00063C4E7021305100067800000130101FFA0
:102E000023261100EFF0DFBC130510008320C10062
:102E10001301010167800000A3050500138505006B
:102E20006780000013050000678000003305D5406F
:102E3000B385E5403306F6003305A502B385B50238
:102E40003305B5003306C6023325A6001335150039
:102E500067800000130101FE232E1100232A910038
:102E600023282101232631019304050013897500CD
:102E7000131919009307200263D4270113092002B4
:102E800083C9C40083C7A40093F737006382070493
:102E9000130710006380E70C130949001307200093
:102EA0009306090013860900839524000395040006
:102EB000EFF0DFC113072000930609001386090213
:102EC0008395240003950400EFF05FC06F00800637
:102ED000232C810023244101138445001314140082
:102EE00083A7C1811307000CB3C7E7023304F400C2
:102EF0009307800163D4870013048001130A000044
:102F00006F00800213166A003346860213070A0018
:102F100093060900330636018395240003950400C7
:102F2000EFF0DFBA130A1A00E34E8AFC0324810192
:102F3000032A810093895900238634018320C1012B
:102F400083244101032901018329C10013010102E6
:102F500067800000232C8100232441011384350065
:102F60009307700063D4870013047000130A0000F5
:102F70006F0080031307F4FF9357F701B387E7004F
:102F800093D71740B307FA40130710009306690060
:102F90001306A0013386C70283952400039504001D
:102FA000EFF0DFC4130A1A00E3468AFC0324810110
:102FB000032A81006FF01FF893072000630EF502CB
:102FC0001305D5FF9307100063F2A7029307104083
:102FD0001305C00FB385B502B385F5029307803E94
:102FE000B3D5F5023385A500678000009307D05F55
:102FF0001305001D6FF01FFE9307704E1305E018B8
:103000006FF05FFD130101FF2326110023248100CF
:1030100023229100232021011304050093040600BC
:1030200013890600EFF05FF993072000630CF404A6
:103030001304D4FF9307100063F287041307C00F33
:10304000B74700009387A711B384F402630809000F
:103050003305E540135515003305E500630405000D
:1030600033D5A4028320C1000324810083244100BE
:103070000329010013010101678000001307001DEF
:103080006FF01FFC1307E0186FF09FFB930705001C
:1030900003A7050003A506006300050A635CF008AA
:1030A00013059003635CF5049357F74193F777009A
:1030B000B387E70093D737401305F01F6344E5005B
:1030C00093070004B387E700371700001307F7954D
:1030D0006348F70023A0F500130510006780000087
:1030E000B71700009387079623A0F5002320F6006A
:1030F00023A006001305200067800000930700044A
:1031000063D6E7029357F74193F77700B387E70059
:1031100093D737403307F74023A0E5002320E6008C
:1031200023A006001305F0FF6780000013070004CA
:103130006FF09FFE130500006780000003AE018B57
:10314000371300001303F3A16348C305930E1E0059
:1031500023A8D18BB78E0000938E8EC2131F3E0022
:103160003303CF411313130033836E002310B300D6
:103170002311C3002312D3002303A300A303E300FE
:103180002304F300A3040301230513018347010073
:10319000A305F3002306030067800000138E0500DB
:1031A000935836401356F7013306E600135616407F
:1031B0003306C040B385C80093D636403306D600E8
:1031C0003303B7003307C70063C605049308000044
:1031D0009306F00063C6C60493060001B386C6409A
:1031E000130600011308003C635468001303003CFD
:1031F0001308C0216354E8001307C02163D465009D
:103200006344E60283A7818A9387170023A4F18A87
:1032100067800000B308B040930500006FF05FFBCB
:10322000930600006FF01FFC130101FE232E110016
:1032300093F6F60F2320D10093F8F80F13880700B8
:10324000B307C7403307B34093060E001375F50F5D
:10325000EFF0DFEE8320C10113010102678000005F
:10326000130101FF232611001308050093870600B0
:1032700013071000637AA702130530001387018437
:10328000330707010347070093060600138605006E
:103290009315080193D50501EFF05FF08320C1007D
:1032A0001301010167800000130520006FF01FFD6E
:1032B000130101FF232611000347950083A7818393
:1032C000930610006384D70493062000638ED7040E
:1032D000639A070683478500B77500009397170028
:1032E0009385457BB385F500930700008316250081
:1032F0000316050083D5050013051000EFF01FEA43
:103300008320C10013010101678000009307000AB8
:10331000831625000316050083458500130540002C
:10332000EFF0DFE76FF0DFFD9307F00F8316250066
:10333000031605008345850013053000EFF01FE6F6
:103340006FF01FFC9307000083162500031605008D
:103350008345850013052000EFF05FE46FF05FFA0E
:10336000130101FE232E1100232C810023A8018AC2
:1033700023A4018A63160500130400006F004006B1
:1033800023200100930800001308000093070000A9
:103390001307000093068000130600019305000048
:1033A00013050000EFF09FD96FF01FFDB7860000F6
:1033B00093173400938686A2B386F600232001007B
:1033C0009308000013080000930720001307200053
:1033D00083D6460013051000EFF05FD613041400E7
:1033E00083A74182635CF402B7870000131734009F
:1033F000938787A2B387E70083950700039627008A
:103400009307E03B63D4B7009305E03B9307A0210B
:10341000E3DEC7F81306A0216FF05FF91304000084
:103420006F004003B717010013171400330787001C
:1034300013172700938787FEB387E7009306F00FE3
:10344000039627008395070003C58700EFF05FE12F
:1034500013041400B71700009387F79763C6870417
:10346000B71701001317140033078700131727003D
:10347000938787FEB387E70083C7B700E38A07FC1B
:103480009307F001E3D087FA93171400B3878700FE
:103490009397270037150100130585FE3305F500C6
:1034A000EFF01FE16FF0DFFA130400006F008000FF
:1034B000130414009307700163C08704B717010059
:1034C000131744009387879EB387E7008397E7002D
:1034D000E38007FEB71701009387879EB387E70055
:1034E000930600000396270083950700130510003C
:1034F000EFF01FD76FF0DFFB03A7418A930720008F
:103500006306F70283A741896388070083A7418781
:1035100093F72700639C07009306000003968189B8
:103520008395A18913050000EFF09FD313040000D9
:103530006F004003B717010013171400330787000B
:1035400013172700938787B6B387E70093F6F60F24
:10355000039627008395070013057000EFF05FD0F6
:10356000130414009307F00563C48704B717010020
:10357000131714003307870013172700938787B6A4
:10358000B387E70003C7B700E30C07FC9317870076
:10359000B387E74093064001B3D6D7023717000040
:1035A0001307F73FE378F7F89306F00F6FF09FF8F3
:1035B0008320C101032481011301010267800000FF
:1035C00013050000130700006F00800013071700A9
:1035D00083A7018B6356F702B78700009316370065
:1035E000B386E64013961600938787C2B387C70059
:1035F00083C76700E38C07FC130515006FF01FFD00
:1036000067800000930600009307F00563CCD7069F
:10361000B7170100139716003307D70013172700B9
:10362000938787B6B387E70083C7B7006386070031
:10363000938616006FF05FFD37170100130787B6FA
:1036400013961600B307D60093972700B307F70029
:103650002390A7002391B70023920700239307002C
:10366000930570002384B70093050001A384B7007D
:10367000238507001387070093074001A305F70080
:103680006780000067800000130101FF23261100FE
:10369000EFE0DFDE630C050023248100232291008C
:1036A00013040500130700046F0000061305000350
:1036B000EFE0DF886F000022378700009396370025
:1036C000B386F64093961600930787C2B387D70058
:1036D00003A84183378500001305058003D7470001
:1036E0009306C0201306003C930500783305A8001C
:1036F000EFE0DFA783A7C18A9387170023A6F18A8B
:103700001304F4FF1387040083A7C18A83A6018BE7
:1037100063DED71A6306041C9304F7FF6302071ADB
:103720003787000093963700B386F64093961600CD
:10373000130787C23307D70003486700E30E08F674
:10374000130710006304E80C3787000093963700D6
:10375000B386F64093961600130787C23307D70047
:103760008355470093860184B386B60003C60600DE
:1037700013161600B7760000939525009386467DB4
:10378000B386B60083A606008345B700B385C5029D
:10379000B386B6008345A70093951500B386B6009F
:1037A000B71520003385B600831627008315070060
:1037B000139746003307D740131767003307B70046
:1037C0001317170083A64183B305D70013073000F2
:1037D0006308E80813074000630CE80A3787000015
:1037E000130787C293963700B388F6409398180062
:1037F000B30817011308000083C7880003C77800C7
:1038000093060078EFE09F9F6FF0DFEE37870000B0
:10381000130787C2939637003386F64013161600B7
:103820003306C700831526000318060013954500CC
:103830003305B54013156500330505011315150053
:1038400003A841830357460083468600034676005B
:103850009305007833050501EFE05F916FF09FE974
:10386000B7860000938686C2139837003307F84066
:10387000131717003387E600034897008347870034
:103880000347770093060078EFE0DFA16FF09FE633
:10389000B7860000938686C2139837003307F84036
:1038A000131717003387E600034897008347870004
:1038B0000347770093060078EFE05FAD6FF09FE37A
:1038C00003248100832441006F00C0000324810091
:1038D000832441008320C10013010101678000009F
:1038E00003248100832441006FF0DFFE930606006D
:1038F0001357B500135655001376F6031375F501EB
:1039000093D8B50013D855001378F80393F5F50153
:103910009317370013572700B3E7E7001317260064
:10392000135646003367C70013163500135525009C
:103930003366A6001395380093D82800B3681501A4
:1039400013152800135848003368050113953500F6
:1039500093D52500B365B500130EF00F3303DE4099
:10396000B387D70233856802B387A7009387F70729
:1039700093D787003307D702330568023307A700C0
:103980001307F707135787003306D602B38665027D
:103990003306D6001306F607135686006374FE003E
:1039A0009307F00F9306F00F63F4E6001307F00F90
:1039B0009306F00F63F4C6001306F00F13D537001B
:1039C0001315B500131505011355050113572700ED
:1039D0001317570013170701135707013365E50045
:1039E000135636003365C50013150501135505013F
:1039F00067800000930806001357B5001358550060
:103A00001378F8031375F50113D3B50093D6550059
:103A100093F6F60393F5F501931737001357270034
:103A2000B3E7E7001317280013584800336707016E
:103A300013163500135525003366A60013183300FE
:103A400013532300336868001395260093D646006D
:103A50003365D5009396350093D52500B3E5B600C0
:103A6000B38717039306F00FB3D7D702B3870701C5
:103A7000330717033357D7023307A700330616035C
:103A80003356D6023306B60063F4F6009307F00F00
:103A90009306F00F63F4E6001307F00F9306F00FA0
:103AA00063F4C6001306F00F13D537001315B500E5
:103AB0001315050113550501135727001317570058
:103AC00013170701135707013365E5001356360036
:103AD0003365C50013150501135505016780000006
:103AE000130101FB232611042324810423229104C2
:103AF00023202105232E3103232C4103232A5103A4
:103B000023286103232671032324810323229103A5
:103B10002320A103232EB101138D05002322C10010
:103B2000938A0600930C07002324F1002326010149
:103B3000138C080083290105B777000013172500AF
:103B40009387477DB387E70003AB0700B7172000D3
:103B5000330BFB00938701843385A700834D050059
:103B6000930B00006F00000893141400B304990035
:103B700083D5040013060C00EFF0DFE72390A400C8
:103B800013041400635E5405B3078A00939717006B
:103B9000B307FB0003D507001315050113550501F5
:103BA00093071000E382F9FC93072000638CF9006F
:103BB000E30805FC93141400B30499002390A400B7
:103BC0006FF01FFC93141400B304990083D5040014
:103BD00013060C00EFF09FD12390A4006FF05FFA62
:103BE000938B1B0063D29B0583274100B387FB00A7
:103BF000139947003309F940131969003309A901E2
:103C00001319190083A741833309F9008327C100E1
:103C1000338AFB00330ABA0383278100330AFA0090
:103C2000130400006FF01FF68320C10403248104F5
:103C300083244104032901048329C103032A810346
:103C4000832A4103032B0103832BC102032C81022E
:103C5000832C4102032D0102832DC10113010105B3
:103C600067800000130101FE232E1100232C810028
:103C7000930780001307C0209306003C1306000141
:103C80009305000003A54183EFE0CFB513040000C6
:103C90006F000003B7870000938787C2B387D70000
:103CA00083D747001307C0209306003C130600018A
:103CB0009305000003A54183EFE0CFB21304140085
:103CC00083A7018B6354F414B787000013173400E3
:103CD0003307874093161700938787C2B387D700AF
:103CE00083C76700E38807FA13071000638CE704B3
:103CF000130730006384E708130740006384E70C70
:103D00003785000093173400B38787401397170057
:103D1000130585C23305E500232001009308000048
:103D20000348B5008347A500034785008346750017
:103D3000031625008315050003554500EFF05FDAF3
:103D40006FF0DFF7B785000093173400B387874023
:103D500013971700938585C2B385E50083D7450087
:103D600003C7850083C6750003962500839505006B
:103D700003A54183EFE00FA76FF05FF437850000E4
:103D800093173400B387874013971700130585C234
:103D90003305E500930710002320F10083489500C8
:103DA0000348B5008347A500034785008346750097
:103DB000031625008315050003554500EFF05FD27B
:103DC0006FF0DFEF3785000093173400B38787402B
:103DD00013971700130585C23305E50093072000EC
:103DE0002320F100834895000348B5008347A500D0
:103DF00003478500834675000316250083150500DB
:103E000003554500EFF0DFCD6FF05FEB8320C1017C
:103E10000324810113010102678000006F0000018B
:103E2000938515002300F5001305150083C70500D1
:103E3000E39807FE67800000130101FF930700006D
:103E40001308A000B3F60503938606031387070142
:103E50003307270093871700230AD7FE93860500B0
:103E6000B3D50503130790006378D7021307A000AA
:103E7000E358F7FC130700006F00400193060002AF
:103E80002300D5001307170013051500B306F640ED
:103E9000E346D7FE6F004002130700006FF01FFFDC
:103EA0009387F7FF1387070133072700034747FF6F
:103EB0002300E50013051500E39407FE130101013B
:103EC0006780000013070500130500006F008000E5
:103ED00013051500B307A70083C70700E39A07FE81
:103EE00067800000130101FD2326110223248102B3
:103EF0002322910223202103232E3101232C41016F
:103F0000232A51012328610123267101938A050088
:103F1000130A0600938B0600130907009384070019
:103F20009309080013840800032B01039307703ED4
:103F300063F4B700930A703E9307703E63F4470141
:103F4000130A703EB7470F009387F72363D4970097
:103F500093840700B72700009387F77063D4270185
:103F600013890700B765000093858552EFF01FEBBA
:103F70001306300093850A00EFF01FECB7650000D0
:103F80009385C552EFF09FE91306300093050A00B0
:103F9000EFF09FEAB765000093854553EFF01FE807
:103FA0001306400093850B00EFF01FE9B765000092
:103FB00093858553EFF09FE61306400093050900B3
:103FC000EFF09FE7B765000093850554EFF01FE51C
:103FD0001306600093850400EFF01FE6B76500004C
:103FE00093858554EFF09FE393850900930730068E
:103FF00063D437019305300613062000EFF0DFE3AA
:10400000B765000093850555EFF05FE1634A04064C
:104010009307900063D48700130490009305040075
:1040200013061000EFF05FE1B7650000938585553A
:10403000EFF0DFDE630A0B0493050B00EFF01FDEE9
:10404000832741036398070483278103639C070444
:10405000230005008320C10203248102832441023E
:10406000032901028329C101032A8101832A410115
:10407000032B0101832BC1001301010367800000A2
:10408000930500006FF0DFF9376B0000130B4B5204
:104090006FF09FFAB765000093850556EFF01FD8C3
:1040A0006FF09FFAB765000093854556EFF01FD774
:1040B0006FF01FFA130101FE232E1100232C810043
:1040C000232A91002328210123263101930405008E
:1040D0001389050093090600138406006F00001081
:1040E000130600009315870193D5854163C005022F
:1040F000930500003366B60023A0C70013760701BE
:10410000630A0600131604016F0000019305040002
:104110006FF05FFE130600009375070263860500CB
:10412000930504006F008000930500003366B6001D
:1041300023A2C70013764700630606001316040186
:104140006F008000130600009375870063860500EA
:10415000930504006F008000930500003366B600ED
:1041600023A4C70013761700630606001316040184
:104170006F00800013060000137727006306070016
:10418000130704006F008000130700003367E60088
:1041900023A6E700938616009307700063CED7022C
:1041A000B307D50003C707003386260193174600DF
:1041B000B387C74093976700B3879700939717001B
:1041C00003A64183B387C70013760704E30A06F00A
:1041D000131604016FF01FF19384840003C50900D6
:1041E000630A050093891900EFD01FCE93060000E3
:1041F0006FF09FFA8320C1010324810183244101D0
:10420000032901018329C100130101026780000015
:1042100003A70182930710006308F70037650000C9
:104220001305455767800000376500001305855664
:1042300067800000130101FD23261102232481025F
:104240002322910223202103232E3101232C41011B
:10425000232A51012328610103A4018783A4C18675
:1042600003A9C18183A9C18503AA018983AA018108
:1042700003AB8181EFD01F9083A7C1892324F10074
:1042800083A74182B327F0002322F1002320A1005D
:1042900093080B0013880A0093070A00138709008C
:1042A0009306090013860400930504001385C18F4B
:1042B000EFF05FC38320C102032481028324410203
:1042C000032901028329C101032A8101832A4101B3
:1042D000032B01011301010367800000130101FF9B
:1042E000232611002324810023229100EFF05FF2A6
:1042F000130405001385C18FEFF0DFBC9316350062
:104300009307000463D4A7009306002093070000DE
:1043100013070001130600009305800003A54183E5
:10432000EFD05FCC93070000130700019306000451
:10433000130600009305003803A54183EFD09FCA00
:10434000B70601009386F6FF1386C18F93054000E0
:1043500013058000EFF01FD613050400EFF09FB6A1
:10436000930780073385A7409306F07F1306040068
:104370009305400013153500EFF0DFD38320C10013
:1043800003248100832441001301010167800000A0
:10439000130101FE232E1100232C8100232A9100FA
:1043A00023282101232631011309050093840500E8
:1043B00093090600EFF01FB1130480073304A440F3
:1043C000131424009307700063C487001304800053
:1043D00093173500B38787001307803B6350F702BC
:1043E0008320C101032481018324410103290101A8
:1043F0008329C10013010102678000009306250094
:104400009307000013070001939636001386C4FF3C
:10441000930584FF03A54183EFD0DFBC9386090099
:10442000130609009385040013050400EFF09FC8EC
:104430006FF01FFB130101FF2326110083A7418AA0
:104440006380070203A7018A631C07061307200085
:104450006386E7088320C100130101016780000023
:104460001306F07F9305000B376500001305055810
:10447000EFF01FF2370601001306F6FF9305800CDC
:104480003765000013054559EFF09FF0370601002E
:10449000130606D29305400F376500001305855AB1
:1044A000EFF01FEF37860000130606419305C0109A
:1044B000376500001305055CEFF09FED6FF09FF985
:1044C00037060100130606D29305800D37650000FC
:1044D0001305C55DEFF0DFEB6FF0DFF73706010086
:1044E000130606809305800C376500001305455EB2
:1044F000EFF01FEA370601001306F6FF9305C00E22
:10450000376500001305055FEFF09FE86FF09FF43B
:10451000130101FF2326110023248100232291008F
:10452000930400006F008003B7170000938717847F
:104530003784000013973400130484A23304E4008A
:104540002312F400EFE00FBF930730003375F5023C
:10455000130515002303A400938414009307F003AC
:1045600063C89704EFE00FBD9307E03B3375F50296
:104570003784000093973400130484A23304F400BA
:104580002310A400EFE00FBB9307A0203375F502C2
:10459000130505012311A400EFE0CFB91375150031
:1045A000E30405F8B72700009387378E6FF05FF8B4
:1045B0008320C100032481008324410013010101F1
:1045C00067800000130700006F004002B71701006A
:1045D00093161700B386E60013962600938787FE8E
:1045E000B387C700A385070013071700B71700009C
:1045F0009387F797E3DCE7FC130700006F004002A6
:10460000B717010093161700B386E600139626002D
:10461000938787B6B387C700A385070013071700E2
:104620009307F005E3DEE7FC23AA018413070000EB
:104630006F00C003B7170100931647009387879E4A
:10464000B387D70023970700239007002391070023
:104650002392070023930700239407002385070074
:10466000A38507002386070013071700930770012F
:10467000E3D2E7FCB7170000938707F0239DF1888A
:10468000B7170000938707EB239CF1881307A00559
:1046900023AAE1889307300023ACF18023AAF1809C
:1046A0009307100023A8F18023A8018823A601887E
:1046B00023A4018823A0018823A2F18A23A0018AD0
:1046C00023AA018667800000130101FF2326110041
:1046D000232481002322910023202101EFD05F8534
:1046E00013090500130400006F00000113041400F7
:1046F00013050003EFD09F8493773400E39807FEFF
:10470000EFD01FD5EFD09FD693040500631E0500A0
:10471000EFD01F8233052541B7470F009387072449
:10472000E3F6A7FC6F0080009304100013850400DB
:104730008320C10003248100832441000329010058
:104740001301010167800000130101FC232E1100F9
:10475000232C8100232A9100930405002322B10217
:104760002324C1022326D1022328E102232AF102B5
:10477000232C0103232E1103930741022326F1006A
:10478000130400006F00C0018327C1001387470096
:104790002326E10003A50700EFD0CFA013041400E7
:1047A000B387840003C50700630E050A9307500210
:1047B000630EF506EFD00F9F6FF05FFE8327C100F9
:1047C000138747002326E10003A50700EFD04F9F82
:1047D0006FF0DFFC8327C100138747002326E10029
:1047E00003A50700EFD04F9F6FF05FFB8327C10049
:1047F000138747002326E10003A50700EFD0CFA9C8
:104800006FF0DFF98327C100138747002326E100FB
:1048100003A50700EFD04FA46FF05FF837650000E5
:1048200013058560EFD0CF996FF05FF71304140084
:10483000B387840083C70700E38207F6938787FA6C
:1048400093F6F70F13070002E362D7FE9397260053
:104850003777000013074741B387E70083A70700B6
:10486000678007008320C101032481018324410163
:104870001301010467800000130101FF23261100CA
:10488000232481009305301213050009EFD00FECAB
:104890009305604513054009EFD04FEB93059078E1
:1048A00013058009EFD08FEAB7150000938505AB9B
:1048B0001305C009EFD08FE913050009EFD00FEA07
:1048C000930730126306F5061307000023AAE18E52
:1048D000930500001305000AEFD04FE79305000091
:1048E0001305C00AEFD08FE61305C00AEFD00FE71B
:1048F00013743500930530001305C00AEFD00FE59F
:10490000630204081307000023A8E18E930500004A
:104910001305C00AEFD08FE383A5418F6386050896
:1049200083A7018F639C070C930600006F000008AB
:1049300013054009EFD08FE2930760456306F50049
:10494000130700006FF09FF813058009EFD00FE107
:10495000930790786306F500130700006FF01FF7C8
:104960001305C009EFD08FDFB7170000938707AB9F
:104970006306F500130700006FF05FF513071000E2
:104980006FF0DFF41305C00AEFD04FDD137535006B
:10499000930730006306F500130700006FF0DFF6A1
:1049A000130710006FF05FF69306000023ACD18E62
:1049B00023A6D18E638806041307200023ACE1826E
:1049C00003A6018F3765000013054565EFF0DFD7BB
:1049D000EFD04F9A930505003765000013058569F0
:1049E000EFF09FD683A7818F638207028320C100E7
:1049F0000324810013010101678000009306100069
:104A00006FF0DFFA130730006FF05FFB37650000CF
:104A10001305456DEFF05FD36FF05FFD130101F8F3
:104A2000232E1106232C8106232A910623282107F1
:104A3000232631072324410723225107232061071E
:104A4000232E0100232001029307F00F2322F102FD
:104A500023240102930710002326F10213072000EC
:104A60002328E10293060008232AD102232C010205
:104A7000232EE10223200104130700062322E10470
:104A800023240104130730002326E1042328F10422
:104A900013070004232AE104232CF10493090000E6
:104AA000130400006F00C000938919001304140060
:104AB0009307300063C48706931744009387070663
:104AC000B387270003A9C7FB03AA07FC83AA47FCF7
:104AD00003AB87FC93060B0013860A0093050A00BC
:104AE00013050900EFD0CF8293040500EFD0CF85E6
:104AF000E31CA9FA13850400EFD08F85E316AAFA08
:104B000013850400EFD08F85E390AAFA1385040083
:104B1000EFD08F85E31AABF86FF05FF993060000D2
:104B20001306F00F9305000013050000EFC05FFEB1
:104B300013060500930610009385090037650000F1
:104B400013058572EFF05FC0130600089305F001AE
:104B50003705010013050580EFE05FD91304050058
:104B60001306F00F9305F0013705010013050580CA
:104B7000EFE05FE8930405001306F00FB71500009F
:104B80009385452313050000EFE0DFE6930605005B
:104B90001386040093050400376500001305C575EE
:104BA000EFF09FBA13090000130400006F008000AB
:104BB000130414009307700063CE87049387018465
:104BC000B387870083C40700130600009305000025
:104BD00013050400EFD0CF9F6304050013091900EB
:104BE000130600009385F4FF13050400EFD04F9ED9
:104BF000630405001309190093D5140013860500FA
:104C000013050400EFD0CF9CE31405FA1309190033
:104C10006FF01FFA37260000130606C0930509003F
:104C2000376500001305C57AEFF01FB29307100037
:104C30002324F1002322F100B76700009387877DCA
:104C40002320F1009308900013083006B7470F00A7
:104C50009387F723372700001307F770B716000074
:104C6000938606961306703E9305703E1305C101A8
:104C7000EFF04FA793040000130400006F008000C2
:104C80001304140093070406B387270003C5C7FB6A
:104C9000630A0500EFD0CF9DE31405FE9384140052
:104CA0006FF01FFE130400006F0080001304140057
:104CB000EFF00FD63305850003450500630A0500B4
:104CC000EFD00F9BE31405FE938414006FF01FFEDA
:104CD0001305C101EFF00F9F9305050013070007AF
:104CE0003307A7409387040013173700930600206B
:104CF00013163500376500001305057EEFF0DFA4BD
:104D000013090000930400006F00C0031304140093
:104D1000B7770000139724009387477CB387E70099
:104D200083A70700B387870003C50700630A050050
:104D3000EFD00F94E31C05FC130919006FF01FFD61
:104D4000938414009307300063C697001304000097
:104D50006FF01FFCB777000003A7818313172700AC
:104D60009387477CB387E70003A40700EFC09FE069
:104D7000130605009306090093050400377500002B
:104D800013050582EFF05F9C930600001306600494
:104D90009305000113051000EFE0CFA613040500F2
:104DA00093060000130660049305000113054000FC
:104DB000EFE04FA59304050093060000130660047E
:104DC0009305000113052000EFE0CFA39306050033
:104DD0001386040093050400377500001305458809
:104DE000EFF09F96930610001306600493050001F0
:104DF00013051000EFE00FA1130405009306100047
:104E0000130660049305000113054000EFE08F9F37
:104E10009304050093061000130660049305000137
:104E200013052000EFE00F9E930605001386040093
:104E300093050400377500001305458DEFF0DF90F2
:104E40008320C10703248107832441070329010725
:104E50008329C106032A8106832A4106032B010602
:104E60001301010867800000130101FF23261100D0
:104E700023248100232291001304050083A4418888
:104E800023A2A188EFD0CF8A23AEA18613071000FA
:104E900023ACE18693770408638C070093F704083A
:104EA0006398070003A7418A930710006308F7027D
:104EB00013740404630A040093F704046396070060
:104EC0001307100023A0E1888320C1000324810080
:104ED00083244100130101016780000083A5018A3A
:104EE00093B5150023A0B18A3775000013054592CC
:104EF000EFF09F856FF0DFFB930755FD13077004FC
:104F00006366F74E130101FD2326110293972700D4
:104F10003777000013078749B387E70083A70700A7
:104F2000678007001307001023AEE18023AE0188DD
:104F3000930500103775000013054593EFF0DF80EF
:104F40008320C102130101036780000013070028BA
:104F500023AEE18023AE0188930500283775000059
:104F600013050595EFF04FFE6FF09FFD13070050FE
:104F700023AEE18023AE0188930500503775000011
:104F80001305C596EFF04FFC6FF09FFBB7150000BF
:104F90009385059623AEB18023AE01883775000056
:104FA00013058598EFF04FFA6FF09FF983A7C18141
:104FB0009387070423AEF180371700001307079685
:104FC0006356F7001307000423AEE18023AE018887
:104FD00083A5C181377500001305459AEFF0CFF620
:104FE0006FF01FF683A7C181938707FC23AEF18082
:104FF0001307F0036348F700B7170000938707967D
:1050000023AEF18023AE018883A5C18137750000EE
:105010001305459AEFF04FF36FF09FF2130710005E
:1050200023A0E18223A6018623A20186EFC05FF0C0
:1050300023A0A186377500001305059BEFF0CFF084
:105040006FF01FF01307200023A0E18223A8018640
:1050500023A40186EFC0DFED23A0A18637750000F1
:105060001305C59EEFF04FEE6FF09FED83A5C1894C
:1050700093B5150023AEB18837750000130545A020
:10508000EFF08FEC6FF0DFEB83A74182638E0700B8
:105090009305000023A2B18237750000130505A413
:1050A000EFF08FEA6FF0DFE9930500046FF09FFEE9
:1050B000232481022322910293076006630AF500EC
:1050C000930760046306F5001305B5FC6F0000024A
:1050D00083A781839387170013D7F7411357E701FD
:1050E0003385E700137535003305E54023ACA18215
:1050F000B7770000131525009387477CB387A70077
:1051000083A40700EFC01FA71306050093850400C2
:1051100037750000130505A5EFF00FE303A78183A2
:10512000930710006302F70203A78183930720000F
:105130006306F70283A78183638E0702032481023B
:10514000832441026FF0DFDF9305000A377500000A
:105150001305C5A7EFF04FDF6FF01FFD83A7818F09
:10516000E39A07FC37750000130545ADEFF0CFDD7E
:105170006FF05FFC13060001930500013775000016
:10518000130585B1EFF04FDC032481028324410233
:105190006FF01FDB03A7418A93071000E312F7DAD1
:1051A00083A5018A93B5150023A0B18A3775000045
:1051B00013054592EFF04FD96FF09FD883A78182F6
:1051C0003787379E1307979BB387E70023A4F182A5
:1051D000EFF04FBF377500001305C5B5EFF0CFD620
:1051E0006FF01FD623248102232291022320210362
:1051F000232E3101232C4101232A5101232861014F
:1052000083A741812320F10083A8818103A8018124
:1052100083A7018903A7C18683A6018703A6C18549
:1052200083A5C181377500001305C5B6EFF0CFD156
:10523000EFD00FA213040500EFD0CF9F9304050019
:1052400013050002EFC09FD113090500130580026A
:10525000EFC0DFD09309050013054004EFC01FD055
:10526000130A050013050004EFC05FCF930A050081
:105270001305000AEFC09FCE130B05001305C00AEB
:10528000EFC0DFCD2320A10093080B0013880A0094
:1052900093070A0013870900930609001386040088
:1052A00093050400377500001305C5BAEFF0CFC9A8
:1052B00083A7818A2320F10083A8818F03A8C18E50
:1052C00083A7818C03A7C18C83A6018D03A6418D82
:1052D00083A5018E37750000130585BFEFF0CFC69B
:1052E000B777000003A78183131727009387477CB4
:1052F000B387E70083A90700EFC0DF871304050029
:1053000093060000130660049305000113051000C6
:10531000EFD05FCF930405009306000013066004EE
:105320009305000113054000EFD0DFCD1309050000
:105330009306000013066004930500011305200086
:10534000EFD05FCC13080500930709001387040012
:105350009306000A130604009385090037750000C0
:10536000130545C4EFF04FBE93060000130660041A
:105370009305000113053000EFD0DFC813040500CA
:105380009306100013066004930500011305300016
:10539000EFD05FC7130605009305040037750000C2
:1053A000130585C9EFF04FBA03248102832441021B
:1053B000032901028329C101032A8101832A4101B2
:1053C000032B01016FF0DFB73717000013070796B3
:1053D00093060004130600049305000437750000CB
:1053E000130545CEEFF04FB66FF09FB56780000014
:1053F000130101FE232E1100232C8100232A91008A
:10540000930700046F0000010325C100EFF0DFA542
:10541000938704009384F7FF635AF008EFD00FAD31
:10542000130405002324010023260100630005085E
:105430009305C100EFD00FB393072000E306F5FCFE
:10544000E31805FCB71600009386069613060004C1
:105450009305810013050400EFD04FBC9307200093
:105460006300F5029307F0FF630AF502930710004B
:10547000E300F5FA13050400EFF01FA86FF05FF9E1
:105480008325810023AEB18023AE018837750000EB
:105490001305459AEFF04FAB6FF09FF7377500009B
:1054A0001305C5F2EFF04FAA6FF09FF68320C101FC
:1054B000032481018324410113010102678000005C
:1054C000130101FE232E1100232C8100232A9100B9
:1054D0002328210183A7418813F7070263000706E9
:1054E000130740010394A1898394818993F64700AF
:1054F000638406003304E44093F687006384060067
:105500003304E40093F6170063840600B384E44098
:1055100093F6270063840600B384E4001307F007C2
:105520006352870237270000130707D8635E87009E
:1055300037240000130404D86F0000011307800211
:105540006FF05FFA130400081307F00F635E970013
:105550003717000013070706635A9700B7140000B7
:10556000938404066F00800093040010239D8188BB
:10557000239C918803A9418A130710006308E9025C
:1055800083A701886388070023A001889307100080
:105590006302F90E8320C1010324810183244101A8
:1055A00003290101130101026780000093F707013D
:1055B000E38807FC83A7C1889387F7FF23A6F188B8
:1055C000E340F0FC23263101930707001307700026
:1055D00023A6E188930900006F000007B7070100C8
:1055E000938707FD3386870037170100130787FE6F
:1055F00093161500B387A60093972700B307F7000B
:105600002390C700138604F62391C7002392070056
:10561000130680FC2393C700130620002384C700D1
:1056200013060001A384C700130640002385C700AA
:10563000B387A600939727003307F7009307A005C9
:10564000A305F700938919009307100063C037037F
:105650009305000213050000EFD08FC0E34405FE60
:10566000E38E09F6930700036FF0DFF78329C1008B
:105670006FF01FF183A74181E35EF0F09306000015
:10568000130400026F00C004B717010013171400C1
:105690003307870013172700938787FEB387E70038
:1056A0008395270003950700EFD0DFF5B7170100BA
:1056B000131714003307870013172700938787FEFB
:1056C000B387E700A3850700938604001304140042
:1056D000B71700009387F79763CA8702B7170100CF
:1056E000131714003307870013172700938787FECB
:1056F000B387E70083C7B700E38A07FC93841600EB
:1057000093F63600E39406FA6FF01FF813070000D3
:105710006F008000130717009307700163CCE70246
:10572000B7170100931647009387879EB387D7006A
:105730008397E700E38007FEB71701009387879EF2
:10574000B387D70083D687009386D6FF2394D700EC
:105750006FF05FFC83A541819385F5FF23AAB1809B
:105760001307C00323AAE188377500001305C5F3AA
:10577000EFE09FFD6FF01FE2130101FE232E1100E9
:1057800083A7418A63800702130720006382E70A28
:10579000232A910083A4018A638E040C832441018F
:1057A0006F00C00503A541871375F503EFD04F9A2D
:1057B000131745003307A740131737009357F741D6
:1057C00093F7F70FB387E70093D787409387071EB8
:1057D00093973700239DF188B7170000938707EB55
:1057E000239CF18883A7418893F70701639E0700F4
:1057F00083A741879387170023AAF1868320C101DD
:10580000130101026780000083A781823787379EDA
:105810001307979BB387E70023A4F182EFE09FDA99
:1058200037750000130505F5EFE01FF26FF05FFC20
:1058300083A7418893F70701639A070083A74187ED
:105840009387170023AAF1866FF05FFB83A78182FD
:105850003787379E1307979BB387E70023A4F1820E
:10586000EFE05FD637750000130505F6EFE0DFEDDA
:105870006FF0DFFC232C8100232821012326310136
:10588000232441012322510183A7418793871700D5
:1058900023AAF186EFF0DFC283A741896356F000A7
:1058A0009387F7FF23AAF18883A78188938717003E
:1058B00023A4F188130770706356F70223A40188AC
:1058C00083A70181130720066346F700938717001B
:1058D00023A8F18083A5018137750000130505F722
:1058E000EFE09FE683A741871307A00033F7E702A5
:1058F0006318070003A701891307170023A8E1888D
:1059000083A6018937470F001307F7236358D70091
:1059100037470F001307F72323A8E18893F7F70011
:105920006396072A83A7C18113070005B3C7E7025F
:10593000138627009307800163D4C70013068001F4
:1059400093850400138704006F008000130717007D
:105950009307700163C2E702B7170100931647006F
:105960009387879EB387D7008397E700E38007FE7E
:10597000938515006FF09FFDB307B64013074000F5
:105980006358F708930740006F008008EFC09FFA44
:105990009309300033753503B71701001314440021
:1059A0009387879E338487002305A400EFC09FF868
:1059B00093078034B377F5029387C7039397370033
:1059C0002310F4009307001C2311F4002312040099
:1059D000EFC05FF693773500938747002313F400F9
:1059E00023143401930780252317F400EFC09FF49C
:1059F0009307E001B377F50293874701A305F4000D
:105A0000EFC05FF31375F5032306A40093070900A5
:105A10001389F7FF635CF01A138404009307700185
:105A2000E3C687FEB7170100131744009387879ECC
:105A3000B387E7008397E700E38A07F413041400B1
:105A40006FF0DFFD83A5018113850900EFD08FC0C2
:105A5000B7170100131744009387879EB387E700A9
:105A60001307E002A385E7006F00C01213041400BF
:105A70009307700163C0871693194400B71701009C
:105A80009387879EB389F9008397E900E38007FE37
:105A90009387F7FF2397F90003DA290083D769007A
:105AA000330AFA00131A0A01135A0A4123914901D1
:105AB00083DA09001315340083A741873305F50005
:105AC0001375F503EFC0DFE813151500B387AA00BF
:105AD0009397070193D707412390F90093D7374055
:105AE000130770026346F700130700142390E900C0
:105AF000B7170100131744009387879EB387E70009
:105B00008397070093D73740130780396350F70214
:105B1000B7170100131744009387879EB387E700E8
:105B200037270000130707CC2390E700135A3A40A9
:105B30009307C00E63DC4701B71701001317440039
:105B40009387879EB387E70023930700B717010069
:105B5000131744009387879EB387E70083C7B70076
:105B6000638E070037170100931644001307879EC2
:105B70003307D7009387F7FFA305F700B717010096
:105B8000131744009387879EB387E70083C7B70046
:105B9000E38A07EAB7170100131744009387879E2B
:105BA000B387E70003972700B71700009387072CF8
:105BB000E3DEE7EAB7170100131744009387879ED7
:105BC000B387E700239707006FF05FEA13840400B0
:105BD0006FF01FEA138404006F0080112317070081
:105BE00093050B0013850900EFD0DFA103A7018106
:105BF00093074006B387E70283A60189B387D700DE
:105C000023A8F18837470F001307F723635CF728B1
:105C10009307070023A8F188032B01006F00000DF4
:105C2000130919009307700163C0270DB71701000E
:105C3000131749009387879EB387E7008397E70090
:105C4000E38007FE3716010093171400B38787001F
:105C500093972700130686FE3306F600B717010058
:105C60009387879EB387E70083990700039B2700EC
:105C70009307F00013573B4093D639400346A600E4
:105C800093850A0013050A00EFD04F9AE30A05F83E
:105C9000B7170100131714003307870013172700E5
:105CA000938787FEB387E700A385070037170100B6
:105CB000931749001307879E3307F7008317870060
:105CC0009387F7FF9397070193D707412314F700B2
:105CD000E356F0F0032B01006F0040012320610127
:105CE000138904006FF01FF4032B01001304140048
:105CF000B71700009387F79763CA871A1315140024
:105D00003305850013152500B7170100938787FE1B
:105D10003305F5008347B500E38A07FC93050000CF
:105D2000EFD0CF86E30405FCB7170100131714006A
:105D30003307870013172700938787FEB387E70091
:105D400003990700135A39408399270093DA3940A1
:105D50009307F001E3D487F883A74189E39807F814
:105D600003A7418A93071000E312F7F837160100E2
:105D700093171400B387870093972700130686FEB6
:105D80003306F600039781898396A1899307400023
:105D90001357374093D636400346A60093850A0032
:105DA00013050A00EFD08F88E30205F4B71701004E
:105DB000131714003307870013172700938787FEF4
:105DC000B387E700A3850700938509001305090041
:105DD000EFD05F8383A581819385F5FF23ACB180EC
:105DE0001307400623AAE18837750000130505F85C
:105DF000EFE09F9583A78181E34AF0EE1304000250
:105E00006F00800013041400B71700009387F79702
:105E100063CA8704B71701001317140033078700FC
:105E200013172700938787FEB387E70083C7B70060
:105E3000E38A07FC93777400E39607FCB717010029
:105E4000131714003307870013172700938787FE63
:105E5000B387E7008395270003950700EFD08FFAFB
:105E60006FF05FFA1307200023A2E18A03A7C18124
:105E700083A6C18503A6018183A50189377500002A
:105E8000130545F9EFE05F8C032481018324410170
:105E9000032901018329C100032A8100832A4100CB
:105EA0006FF0DF95032B01006FF05FE49387040030
:105EB0006F008000938717001307F0056344F70411
:105EC0003717010093961700B386F60093962600C5
:105ED000130787B63307D7000347B700E30C07FC67
:105EE000B7160100139617003306F60013162600A6
:105EF000938686B6B386C6001307F7FFA385E60030
:105F00006FF05FFB13860400930600026F008000B1
:105F100093861600B71700009387F79763C6D702DA
:105F2000B7170100139716003307D7001317270080
:105F3000938787FEB387E70083C7B700E38A07FC30
:105F4000130616006FF0DFFC23AAC1846F008000E7
:105F50009384140083A7418263D0F406B7870000BE
:105F600013973400938787A2B387E70003D72700EE
:105F700083C667003307D70013170701135707417C
:105F80002391E7009307C021E3D4E7FC37840000A6
:105F900093973400130484A23304F40093070001A0
:105FA0002311F400EFC01F999307003C3375F502ED
:105FB0002310A4006FF0DFF9032481018324410141
:105FC000032901018329C100032A8100832A41009A
:105FD0006FF0DF82130101FF2326110023248100CB
:105FE000232291001304050083A7818C9387170057
:105FF00023A4F18CEFC0CFC593040500EFC08FC37D
:10600000930605001386040093050400377500000D
:10601000130545FCEFE04FF3EFC04FC91307100025
:1060200023AEE18C23A6018A83A7418D93871700B5
:1060300023AAF18C8320C100032481008324410022
:106040001301010167800000130806009308050092
:10605000138705006390060E63FEC512B7070100A3
:10606000636EF61EB7070001930680016374F600A5
:10607000930600013353D600971700009387C77724
:10608000B387670083C7070013030002B387D700F5
:10609000B306F340630CF3003397D500B357F50014
:1060A0003318D60033E7E700B318D50013560801BC
:1060B0003355C7029316080193D6060193D70801FA
:1060C0003377C702B385A60213170701B3E7E700CA
:1060D00063FCB700B307F8001307F5FF63E407019B
:1060E00063E0B74013050700B387B74033D7C70253
:1060F0009398080193D80801B3F7C702B386E60264
:1061000093970701B3E8F80063FED800B3081801BD
:106110009307F7FF63E608011307E7FF63E4D8007E
:1061200013870700131505013365E500930500008B
:106130006780000063F8D500930500001305000098
:1061400067800000B707010063E8F61E370700010B
:106150009307800163F4E6009307000133D8F6004B
:1061600017170000130747693307070103470700A4
:10617000930800023307F7003388E8406396E81E6F
:1061800063E4B6323335C5001335150093050000BE
:1061900067800000630C060CB7070100637CF62ED5
:1061A000133706101337170013173700B356E600DE
:1061B0009717000093874764B387D70083C707000A
:1061C00093060002B387E700B38EF6406394F60CA3
:1061D000B387C540935606011316060113560601F0
:1061E0009305100033D5D70213D70801B3F7D702B0
:1061F0003303C50293970701B367F70063FC670099
:10620000B307F8001307F5FF63E4070163E4672CA5
:1062100013050700B387674033D7D7029398080167
:1062200093D80801B3F7D7023306C7029397070143
:10623000B3E8F80063FEC800B30818019307F7FF3E
:1062400063E608011307E7FF63E4C800138707004C
:10625000131505013365E5006780000093360610CD
:1062600093B61600939636006FF0DFE093060000B9
:106270009717000093874758B387D70083C7070055
:106280001307000093060002B387E700B38EF640C1
:10629000E380F6F43318D60133D3F50093560801A2
:1062A000335ED30213160801B395D50113560601C8
:1062B000B357F500B3E7B70013D70701B318D501FB
:1062C0003373D302B305C6031313030133676700A7
:1062D000637EB7003307E8001305FEFF6364071F02
:1062E0006372B71E130EEEFF330707013307B74083
:1062F0003355D7029397070193D707013377D70216
:106300003303A60213170701B3E7E70063FE670034
:10631000B307F8001307F5FF63EE071963FC67186E
:106320001305E5FFB387070193150E01B387674097
:10633000B3E5A5006FF01FEB93B7061093B71700F6
:106340009397370033D8F600171700001307C74A92
:106350003307070103470700930800023307F700DC
:106360003388E840E38EE8E0335EE600B39606014A
:10637000336EDE00B3D8E500935E0E01B3D7D803C9
:1063800013130E01B3950501135303013357E500B1
:106390003367B7009356070133160601B3F8D803E5
:1063A000B305F30293980801B3E6160163FEB60045
:1063B000B306DE009388F7FF63EAC61163F8B610F0
:1063C0009387E7FFB386C601B386B640B3D5D6033D
:1063D0001317070113570701B3F6D603B308B30227
:1063E000939606013367D700637E17013307EE00EB
:1063F0009386F5FF6364C70D6372170D9385E5FF00
:106400003307C70193970701B70E0100B3E7B70041
:106410009386FEFFB3F5D70013D30701B376D600FA
:1064200013560601338ED50233071741B306D30244
:1064300093580E01B385C502B385D500B385B80066
:106440003303C30263F4D5003303D30193D60501AC
:10645000B3866600636AD7026308D7001385070016
:106460009305000067800000B70601009386F6FFE1
:1064700033F7D50013170701337EDE00331505010E
:106480003307C701E37CE5FC1385F7FF93050000A4
:1064900067800000B7070001637AF604935606018F
:1064A000130700016FF0DFD0930500001305100003
:1064B00067800000130507006FF01FE79385060053
:1064C0006FF05FF4130E05006FF05FE29387080032
:1064D0006FF09FEF1305E5FFB38707016FF09FD3C0
:1064E0001305E5FFB38707016FF01FC093568601C0
:0864F000130780016FF0DFCB00
:1064F80030313233343536373839414243444546F2
:1065080000000000303132333435363738396162B3
:1065180063646566000000004B4559003F000000B9
:1065280048573D002053573D00000000204E3D00D5
:10653800204F4E3D000000002053433D0000000066
:10654800204C563D000000002048503D000000004F
:10655800204F503D0000000020530000204700005D
:1065680050555245204350550000000048572041DF
:106578004343454C0000000044414E4D414B5520DB
:10658800535552564956414C000000004857203296
:106598004420414343454C2044454D4F00000000F2
:1065A8005052455353204649524520284A202F200F
:1065B800535041434529000057415344204D4F56FD
:1065C8004520204B20464F43555320204C20424F16
:1065D8004D420000504155534544000047414D4548
:1065E800204F56455200000050524553532046490B
:1065F800524520544F2052455354415254000000F4
:106608003C466C6F6174696E6720706F696E7420A8
:106618007072696E74696E67206E6F7420656E6142
:10662800626C652E20506C6561736520456E6162F1
:106638006C65206974206174206273702E6820660E
:10664800697273742E2E2E3E000000006665617418
:106658003A20636C69703D2564206C75743D25642F
:1066680020617474723D25642028617474723D3E03
:10667800676C6F77204144442C20656C7365204B10
:1066880045592066616C6C6261636B290D0A0000D4
:1066980062756C6D3A2064656661756C743D25732E
:1066A80020202866206379636C65732C20353D466D
:1066B800494C4C20363D414C50484120373D4144DF
:1066C8004420383D4B4559290D0A00006665617420
:1066D800205741524E3A2076332E3220617474721C
:1066E80020736964652D706F727420414253454E62
:1066F80054202D3E2062756C6C657473207573652B
:1067080020436F6C6F72204B657920287374696C15
:106718006C20636F7272656374290D0A00000000B3
:1067280073656C66636865636B20617474723A2084
:106738006465636F64655F6572723D256420646596
:106748006661756C743D2578206D617463683D25BC
:10675800640D0A0073656C66636865636B206D6918
:10676800783A20626C656E643D25782028657870DB
:10677800203738304629206164643D257820286513
:10678800787020463831462920616464626C616300
:106798006B3D257820286578702031323334290DF7
:1067A8000A00000073656C66636865636B2061743A
:1067B8006C61733A20636F726E65725F6572723DC9
:1067C80025642062797465733D25640D0A00000014
:1067D800414C50484100000073656C66636865630E
:1067E8006B206F73643A206C656E3D256420707869
:1067F8003D2564206C696D69743D2564206761706E
:106808003D2564206D697373696E675F676C797085
:10681800683D25640D0A000073656C6663686563EE
:106828006B2062756C6D3A206375723D2573206527
:1068380066663D2573206E616D65735F676C797060
:10684800685F6D697373696E673D256420286B65A1
:1068580079732066206379636C652C20353D464941
:106868004C4C20363D414C50484120373D41444432
:1068780020383D4B4559290D0A00000063617020FE
:106888006D6F64656C20313678313620373070632F
:1068980074206275646765743A2046494C4C3D25FE
:1068A8006420414C5048413D2564204B45593D25C5
:1068B80064202873696E676C652D6C616E65206253
:1068C8006F6172642063616C290D0A006361702036
:1068D8006D6F64656C2031367831362037307063DF
:1068E80074206275646765743A202E2E2E206475B4
:1068F800616C2D6C616E6520657374696D6174657A
:106908002046494C4C3D256420414C5048413D258A
:1069180064204B45593D25640D0A00000D0A455673
:106928002070617573653D25640D0A000D0A455692
:10693800204E3D25642028707265736574206C6F45
:1069480077290D0A000000000D0A4556204E3D2506
:10695800642028707265736574206D6964290D0A56
:10696800000000000D0A4556204E3D256420287081
:1069780072657365742068696768290D0A000000EC
:106988000D0A4556204E3D256420287072657365B2
:1069980074206D6178290D0A000000000D0A455623
:1069A800204E3D25640D0A000D0A4556207061747D
:1069B800683D5357207075726520435055202873E1
:1069C800616D65207363656E652C20686F6E6573F5
:1069D80074207065722D706978656C20626C6974BA
:1069E800290D0A000D0A455620706174683D485704
:1069F80020616363656C0D0A000000000D0A4556AE
:106A0800206175746F3D2564202872616D70204E79
:106A1800207768696C65206670733E3D35383B2089
:106A28004C494D4954206C696E65206F6E20737413
:106A38006F70290D0A0000000D0A45562073746115
:106A480072733D25640D0A000D0A45562062756C67
:106A58006D3D257320287265717565737465643B97
:106A6800206566666563746976653D2573290D0A38
:106A7800000000002020202020414C5048413A20AE
:106A88007265637420737072697465202B20616C61
:106A9800706861202564202D3E20636F726E6572D8
:106AA80073206461726B656E20746865206267206C
:106AB800287468617420697320776879204B455978
:106AC80020657869737473290D0A0000202020203E
